{
	"data": {
		"bytecode": {
			"linkReferences": {},
			"object": "60406080815234620003e357620036bd803803806200001e81620003fe565b92833981018282820312620003e35781516001600160401b039290838111620003e35781019180601f84011215620003e3578251938411620003e8578360051b602093848062000070818501620003fe565b809881520192820101928311620003e35790848094939201905b828210620003b757505050015190600192838311156200034d5782815110620002bd57600092836002556005558383905b62000131575b8573e592427a0aece92de3edee1f18e0157c0586156460018060a01b0319731f98431c8ad98523631ae4a59f267346ea31f98481600654161760065573c36442b4a4522e871399cd717abdd847ab11fe8881600754161760075560085416176008555161326d9081620004508239f35b8151811015620002b7576001600160a01b038062000150838562000424565b51161562000273578062000165838562000424565b5116855285845260ff87862054166200022f578062000185838562000424565b51168552858452868520805460ff191687179055620001a5828462000424565b51168454680100000000000000008110156200021b5786810180875581101562000207578580528486200180546001600160a01b0319169091179055808501908110620001f35784620000bb565b634e487b7160e01b84526011600452602484fd5b634e487b7160e01b86526032600452602486fd5b634e487b7160e01b86526041600452602486fd5b865162461bcd60e51b815260048101859052601460248201527f546865204f776e6572206e6f7420756e697175650000000000000000000000006044820152606490fd5b865162461bcd60e51b815260048101859052601860248201527f5a65726f2061646472657373206e6f7420416c6c6f77656400000000000000006044820152606490fd5b620000c1565b845162461bcd60e51b815260048101839052605a60248201527f546865206e756d626572206f66206f776e657273206d7573742062652067726560448201527f61746572207468616e206f7220657175616c20746f20746865206e756d62657260648201527f206f6620636f6e6669726d6174696f6e73207265717569726564000000000000608482015260a490fd5b845162461bcd60e51b815260048101839052603d60248201527f546865204e756d626572206f6620636f6e6669726d6174696f6e73207265717560448201527f69726564206d7573742062652067726561746572207468616e206f6e650000006064820152608490fd5b815193945091929091906001600160a01b0381168103620003e35781528493929184019084016200008a565b600080fd5b634e487b7160e01b600052604160045260246000fd5b6040519190601f01601f191682016001600160401b03811183821017620003e857604052565b8051821015620004395760209160051b010190565b634e487b7160e01b600052603260045260246000fdfe608080604052600436101561001d575b50361561001b57600080fd5b005b60009081803560e01c9182631834c39714612082575050806329793f7d1461202f57806333ea3dc814611f5257806346ce96dd14611eab5780635869dba814611e105780635efb3b6d14611b415780639db5dbe414611a0d578063a0e67e2b14611949578063a91095701461191a578063ac43a6b8146117ad578063b40b7e0b146116d7578063c01a8c841461150a578063c1756a2c1461145b578063c5e57c64146111db578063ee22610b14610341578063f47f903314610243578063f73e5aab146102145763fb35f1100361000f57610100908160031936011261021157610105612152565b9161010e612168565b9161011761226b565b60c4356001600160a01b0381811693929184900361020c5760e4359581871680970361020c5761015960ff604062ffffff963381526001602052205416612378565b8160405198166020890152166040870152166060850152606435608085015260843560a085015260a43560c085015260e08401528201526101203481830152815261014081018181106001600160401b038211176101f657602091816101ee926040526101c5816122e2565b601581527417d8dc99585d19541bdbdb105b99135a5b9d139195605a1b610160830152336126d2565b604051908152f35b634e487b7160e01b600052604160045260246000fd5b600080fd5b80fd5b50346102115780600319360112610211576020604051731f98431c8ad98523631ae4a59f267346ea31f9848152f35b50608036600319011261021157610258612152565b610260612168565b9061026961226b565b90610275606435612bc0565b908160601b91808304600160601b149015171561032d576007546040516309f56ab160e11b81526001600160a01b039283166004820152948216602486015262ffffff909316604485015290811660648401529060209083906084908290349086165af191821561032257602093926102f3575b5060405191168152f35b610314919250833d811161031b575b61030c81836122fd565b810190612a78565b90386102e9565b503d610302565b6040513d85823e3d90fd5b634e487b7160e01b85526011600452602485fd5b50602036600319011261021157338152600160205261036660ff604083205416612378565b6004351515806111cd575b61037a906123b0565b60043581526003602081905260408220600101546103a1906001600160a01b0316156123fc565b600435825280602052600260408320015460055411611194576004358252806020526103ff816040842060018101336bffffffffffffffffffffffff60a01b82541617905542600782015560405192839160208301938491016125bb565b0391610413601f19938481018352826122fd565b51902060405160208101906405f737761760dc1b825260058152610436816122e2565b519020036106bf5750600435825260205261046061046760046040842001604051928380926124c1565b03826122fd565b60a0818051810103126106bb576104806020820161263d565b9061048d6040820161263d565b6060820151906104a460a060808501519401612651565b60405163095ea7b360e01b815273e592427a0aece92de3edee1f18e0157c058615646004820152602481018490526001600160a01b03909516946020816044818a8a5af19081156106b0578791610681575b501561064a57610e10420191824211610636579162ffffff87969492602096946040519661052388612298565b87526001600160a01b0390811688880190815292909116604080880191825230606089019081526080890195865260a0890196875260c0890197885260e089018b8152600854925163414bf38960e01b81529951851660048b01529451841660248a0152915162ffffff16604489015290518216606488015292516084870152925160a4860152925160c48501529151811660e48401529193849261010492849291165af1801561062b57610600575b505b600435337f5445f318f4f5fcfb66592e68e0cc5822aa15664039bd5f0ffde24c5a8142b1ac8380a380f35b602090813d8311610624575b61061681836122fd565b8101031261020c57386105d3565b503d61060c565b6040513d84823e3d90fd5b634e487b7160e01b87526011600452602487fd5b60405162461bcd60e51b815260206004820152600f60248201526e105c1c1c9bdd985b0819985a5b1959608a1b6044820152606490fd5b6106a3915060203d6020116106a9575b61069b81836122fd565b810190612a14565b386104f6565b503d610691565b6040513d89823e3d90fd5b5080fd5b906004358352806020528060408420016040516106f0816106e46020820180956125bb565b038581018352826122fd565b51902060405160208101906a0beeadceee4c2e0ae8aa8960ab1b8252600b8152610719816122e2565b519020036108405760043583526020528161075561046061074660046040852001604051928380926124c1565b60208082518301019101612661565b906001600160a01b031661076a821515612a2c565b803b1561083c57828091602460405180948193632e1a7d4d60e01b83528760048401525af1908115610322578391610828575b50808092305af1903d15610822573d6001600160401b0381116101f6576107cf602060405193601f84011601836122fd565b81528260203d92013e5b6105d55760405162461bcd60e51b815260206004820152601860248201527f4661696c656420746f207472616e7366657220457468657200000000000000006044820152606490fd5b506107d9565b610831906122cf565b6106bb57813861079d565b8280fd5b90600435835281602052816040842001604051610871816108656020820180956125bb565b038481018352826122fd565b5190206040516020810190670beeee4c2e08aa8960c31b825260088152610897816122e2565b51902003610974575060043582526020526108c461046061074660046040852001604051928380926124c1565b906001600160a01b031647821161091e5782906108e2831515612a2c565b803b156106bb57600460405180948193630d0e30db60e41b83525af1801561062b5761090f575b506105d5565b610918906122cf565b38610909565b60405162461bcd60e51b815260206004820152602860248201527f496e73756666696369656e74204554482062616c616e636520696e207468652060448201526718dbdb9d1c9858dd60c21b6064820152608490fd5b600435835281602052816040842001906109a6604051918261099a6020820180966125bb565b039081018352826122fd565b51902060405160208101907417d8dc99585d19541bdbdb105b99135a5b9d139195605a1b8252601581526109d9816122e2565b519020146109e757506105d5565b6004358252602052610460610a0860046040842001604051928380926124c1565b610120818051810103126106bb57610a226020820161263d565b90610a2f6040820161263d565b610a3b60608301612651565b60808301519360a084015160c085015194610a5860e0820161263d565b6020610120610a6a610100850161263d565b93015160405163f47f903360e01b81526001600160a01b0387811660048301528916602482015262ffffff88166044820152606481019990995288906084908290305af1968715610ead578997611173575b506040516323b872dd60e01b8152336004820152306024820152604481018990526020816064818d6001600160a01b038a165af1801561110b57611154575b506040516323b872dd60e01b8152336004820152306024820152604481018490526020816064818d6001600160a01b038c165af1801561110b57611135575b5060075460405163095ea7b360e01b81526001600160a01b03909116600482015260248101899052602081806044810103818d6001600160a01b038a165af1801561110b57611116575b5060075460405163095ea7b360e01b81526001600160a01b03909116600482015260248101849052602081806044810103818d6001600160a01b038c165af1801561110b576110ec575b506401000276a36001600160a01b0382169081101590816110c4575b816110b1575b501561107657610c02610c0891612c1f565b91612c1f565b60020b91828260020b1280611065575b80611058575b1561101e5760405194856101608101106001600160401b036101608801111761100a579062ffffff8a92610160880160405260018060a01b038716885260018060a01b03891660208901521660408701528260020b60608701528360808701528860a08701528060c08701528160e0870152816101008701523061012087015242610140870152608061014061016460018060a01b036007541698856040519a8b948593634418b22b60e11b855260018060a01b03815116600486015260018060a01b03602082015116602486015262ffffff6040820151166044860152606081015160020b60648601528781015160020b608486015260a081015160a486015260c081015160c486015260e081015160e486015261010081015161010486015260018060a01b036101208201511661012486015201516101448401525af196871561062b57829983968498859a610fb4575b50818910610ee0575b5050818810610dd2575b505050956001600160801b039291610918976040519760018060a01b0316602089015260020b6040880152606087015260808601521660a084015260c083015260e082015260e08152612298565b60075460405163095ea7b360e01b81526001600160a01b03918216600482015260248101859052939a94969593929190602090849060449082908f9086165af1928315610ed55789610e5a93610e3092602096610eb8575b50612aab565b60405163a9059cbb60e01b815233600482015260248101919091529a8b9283919082906044820190565b03926001600160a01b03165af1938415610ead57610918986001600160801b0395610e8e575b819399508a92949550610d84565b610ea69060203d6020116106a95761069b81836122fd565b5038610e80565b6040513d8b823e3d90fd5b610ece90873d89116106a95761069b81836122fd565b5038610e2a565b6040513d8d823e3d90fd5b60075460405163095ea7b360e01b81526001600160a01b039182166004820152602481018790529290602090849060449082908a9087165af1918215610fa957610f378b610f61938996602096610eb85750612aab565b60405163a9059cbb60e01b8152336004820152602481019190915293849283919082906044820190565b03926001600160a01b03165af18015610f9e57610f7f575b80610d7a565b610f979060203d6020116106a95761069b81836122fd565b5038610f79565b6040513d86823e3d90fd5b6040513d88823e3d90fd5b97509850995095506080853d608011611002575b81610fd5608093836122fd565b810103126106bb57845195610fec60208701612a97565b9960606040880151970151979a96979838610d71565b3d9150610fc8565b634e487b7160e01b8a52604160045260248afd5b60405162461bcd60e51b81526020600482015260126024820152715469636b73206f7574206f662072616e676560701b6044820152606490fd5b50620d89e8831315610c1e565b50620d89e7198260020b1215610c18565b60405162461bcd60e51b8152602060048201526013602482015272496e76616c69642070726963652072616e676560681b6044820152606490fd5b6001600160a01b03841611905038610bf0565b73fffd8963efd1fc6a506488495d951d5263988d266001600160a01b03851611159150610bea565b6111049060203d6020116106a95761069b81836122fd565b5038610bce565b6040513d8c823e3d90fd5b61112e9060203d6020116106a95761069b81836122fd565b5038610b84565b61114d9060203d6020116106a95761069b81836122fd565b5038610b3a565b61116c9060203d6020116106a95761069b81836122fd565b5038610afb565b61118d91975060203d60201161031b5761030c81836122fd565b9538610abc565b60405162461bcd60e51b81526020600482015260116024820152700c6c2dcdcdee840caf0cac6eae8ca40e8f607b1b6044820152606490fd5b506002546004351115610371565b50346102115760403660031901126102115760043590602491823533835260019360209085825261121260ff604087205416612378565b61121c8385612bad565b926002908154809511611420578061123d6112378289612bad565b87612b49565b1015611419576112566112508288612bad565b86612b49565b955b61126187612557565b9661126f60405198896122fd565b80885261127e601f1991612557565b0185895b828110611403575050508888905b6112fa575b50505050506040519360408501604086528451809152606086018360608360051b890101960192905b8282106112d15787808888888301520390f35b9091929584806112ec8b93605f198c82030186528a516121be565b9801920192019092916112be565b87518110156113fe5761130d8383612bad565b8a8201908183116113eb57906113229161256e565b89528960078a6104606113726040600393848d5220926040519561134587612298565b60018060a01b0390818654168852850154168c8701528984015460408701526040519283809286016124c1565b606084015260405161138b8161046081600486016124c1565b608084015261139c6005820161231e565b60a0840152600681015460c0840152015460e08201526113bc828a612591565b526113c78189612591565b508981018091116113d85789611290565b634e487b7160e01b895260116004528489fd5b634e487b7160e01b8b526011600452868bfd5b611295565b61140b612448565b82828c010152018690611282565b8095611258565b60405162461bcd60e51b8152600481018590526014818501527350616765206973204f7574206f662052616e676560601b6044820152606490fd5b5034610211576040366003190112610211576004356001600160a01b038116908190036106bb57602435908147106114b9578280809381938282156114b0575bf1156114a45780f35b604051903d90823e3d90fd5b506108fc61149b565b60405162461bcd60e51b8152602060048201526024808201527f496e73756666696369656e742062616c616e636520696e2074686520636f6e746044820152631c9858dd60e21b6064820152608490fd5b5034610211576020806003193601126106bb57600435903383526001815261153860ff604085205416612378565b811515806116cb575b61154a906123b0565b81835260038152604083206001015461156c906001600160a01b0316156123fc565b8183526004815260408320338452815260ff60408420541661168757818352600381526005604084200180549068010000000000000000821015611673576001820180825582101561165f5784528184200180546001600160a01b031916331790558183526003815260408320600201546001810190811061164b579060039183855282825260026040862001556004815260408420338552815260408420600160ff1982541617905582845252426007604084200155337f5cbe105e36805f7820e291f799d5794ff948af2a5f664e580382defb633900418380a380f35b634e487b7160e01b84526011600452602484fd5b634e487b7160e01b85526032600452602485fd5b634e487b7160e01b85526041600452602485fd5b6064906040519062461bcd60e51b82526004820152601d60248201527f5472616e73616374696f6e20616c726561647920636f6e6669726d65640000006044820152fd5b50600254821115611541565b50346102115760a0366003190112610211576116f1612152565b906116fa612168565b916084359062ffffff821680920361083c57338352600160205261172460ff604085205416612378565b6040519360018060a01b0380921660208601521660408401526044356060840152606435608084015260a083015260a0825260c08201908282106001600160401b038311176117995760206101ee848480604052611781816122e2565b600581526405f737761760dc1b60e0830152336126d2565b634e487b7160e01b81526041600452602490fd5b50346102115780806117be3661212c565b91906040516117cc8161227d565b8181526001600160801b0393841660208201526040808201849052606082018490524260808301526007548151630624e65f60e11b8152966001600160a01b03938892851691839182906118239060048301612b0c565b03925af193841561032257839584956118eb575b509161187e9160409384519261184c846122b4565b8352306020840152808584015260608301526007541690835197888094819363fc6f786560e01b835260048301612ace565b03925af19182156118de5760809482936118ab575b50604051938452602084015260408301526060820152f35b9092506118d0915060403d6040116118d7575b6118c881836122fd565b810190612ab8565b9138611893565b503d6118be565b50604051903d90823e3d90fd5b61187e92965060409391955061190d90843d86116118d7576118c881836122fd565b9690969591935091611837565b5034610211578060031936011261021157602060405173c36442b4a4522e871399cd717abdd847ab11fe888152f35b50346102115780600319360112610211576040518091805490818352602080930180928280527f290decd9548b62a8d60345a988386fc84ba6bc95484008f6362f93160ef3e56390835b8181106119f057505050846119a99103856122fd565b60405193838594850191818652518092526040850193925b8281106119d057505050500390f35b83516001600160a01b0316855286955093810193928101926001016119c1565b82546001600160a01b031684529286019260019283019201611993565b503461021157606036600319011261021157611a27612152565b611a2f612168565b6040516370a0823160e01b8152306004820152602092604435926001600160a01b03909116918481602481865afa8015610fa95784918791611b0c575b5010611ad05760405163a9059cbb60e01b81526001600160a01b03919091166004820152602481019290925282908290604490829087905af1801561032257611ab3578280f35b81611ac992903d106106a95761069b81836122fd565b5038808280f35b60405162461bcd60e51b8152600481018590526014602482015273496e73756666696369656e742062616c616e636560601b6044820152606490fd5b809250868092503d8311611b3a575b611b2581836122fd565b81010312611b365783905138611a6c565b8580fd5b503d611b1b565b50346102115760a036600319011261021157611b5b612152565b611b63612168565b6040516323b872dd60e01b8082523360048301523060248301526064803560448401819052608435956020956001600160a01b039592949086169391861692909187908290818c875af18015610ead57611df3575b506040519081523360048201523060248201526044810187905285816064818b875af18015611dcb57611dd6575b5060075460405163095ea7b360e01b8082529186166001600160a01b03166004820152602481018590529092909186908390818b816044810103925af1908115611dcb57611c6b9387938993611dae575b5060075460405191825287166001600160a01b031660048201526024810192909252909283919082908a9082906044820190565b03925af18015610fa957611d91575b5060405160c081018181106001600160401b03821117611d7d578693929160c4916040526044358152858101928352604081019687526060978894858301908282526080840183815260a085019142835260075416926040519b8c98899763219f5d1760e01b89525160048901525160248801525160448701525160648601525160848501525160a48401525af19182156118de578193828094611d34575b50506001600160801b03604051941684528301526040820152f35b925080945085809294503d8311611d76575b611d5081836122fd565b810103126102115750611d6282612a97565b604082840151930151909290913880611d19565b503d611d46565b634e487b7160e01b87526041600452602487fd5b611da790843d86116106a95761069b81836122fd565b5038611c7a565b611dc490853d87116106a95761069b81836122fd565b5038611c37565b6040513d8a823e3d90fd5b611dec90863d88116106a95761069b81836122fd565b5038611be6565b611e0990873d89116106a95761069b81836122fd565b5038611bb8565b5034610211576040366003190112610211576101ee611e74611e82602093611e4d60ff6040611e3d612152565b9333815260018952205416612378565b604080516001600160a01b0390921686830190815260243560208201529193849290910190565b03601f1981018352826122fd565b604051611e8e816122e2565b600b81526a0beeadceee4c2e0ae8aa8960ab1b84820152336126d2565b503461021157602036600319011261021157806040611f128151611ece816122b4565b60043581523060208201526001600160801b038084830152606082015260018060a01b036007541690835195868094819363fc6f786560e01b835260048301612ace565b03925af180156118de576040928291611f33575b5082519182526020820152f35b9050611f4c9150823d84116118d7576118c881836122fd565b38611f26565b5034610211576020908160031936011261021157604090611f71612448565b5033815260018352611f8860ff8383205416612378565b6004358152600383522090600760405192611fa284612298565b60018060a01b038082541685526001820154168385015260028101546040850152604051611fd78161046081600386016124c1565b6060850152604051611ff08161046081600486016124c1565b60808501526120016005820161231e565b60a0850152600681015460c0850152015460e083015261202b6040519282849384528301906121be565b0390f35b5034610211576040366003190112610211576101ee611e7461205c602093611e4d60ff6040611e3d612152565b604051612068816122e2565b60088152670beeee4c2e08aa8960c31b84820152336126d2565b819034612129576120ea6040916001600160801b036120a03661212c565b906120aa8461227d565b8352166020820152838382015283606082015242608082015260018060a01b0360075416908351958680948193630624e65f60e11b835260048301612b0c565b03925af180156118de57604092829161210a575082519182526020820152f35b90506121239150823d84116118d7576118c881836122fd565b83611f26565b50fd5b604090600319011261020c57600435906024356001600160801b038116810361020c5790565b600435906001600160a01b038216820361020c57565b602435906001600160a01b038216820361020c57565b919082519283825260005b8481106121aa575050826000602080949584010152601f8019910116010190565b602081830181015184830182015201612189565b9060018060a01b03918281511682526020928084830151168484015260408201516040840152612212612200606084015161010080606088015286019061217e565b6080840151858203608087015261217e565b60a08301519484820360a08601528080875193848152019601926000905b83821061225257505050505060e08160c08293015160c0850152015191015290565b8451811688529682019693820193600190910190612230565b6044359062ffffff8216820361020c57565b60a081019081106001600160401b038211176101f657604052565b61010081019081106001600160401b038211176101f657604052565b608081019081106001600160401b038211176101f657604052565b6001600160401b0381116101f657604052565b604081019081106001600160401b038211176101f657604052565b90601f801991011681019081106001600160401b038211176101f657604052565b9060405191828154918282526020928383019160005283600020936000905b82821061235557505050612353925003836122fd565b565b85546001600160a01b03168452600195860195889550938101939091019061233d565b1561237f57565b60405162461bcd60e51b81526020600482015260096024820152683737ba1037bbb732b960b91b6044820152606490fd5b156123b757565b60405162461bcd60e51b815260206004820152601a60248201527f5472616e73616374696f6e20646f6573206e6f742065786973740000000000006044820152606490fd5b1561240357565b60405162461bcd60e51b815260206004820152601c60248201527f5472616e73616374696f6e20616c7265616479206578656375746564000000006044820152606490fd5b6040519061245582612298565b600060e08382815282602082015282604082015260608082015260606080820152606060a08201528260c08201520152565b90600182811c921680156124b7575b60208310146124a157565b634e487b7160e01b600052602260045260246000fd5b91607f1691612496565b90600092918054916124d283612487565b91828252600193848116908160001461253457506001146124f4575b50505050565b90919394506000526020928360002092846000945b8386106125205750505050010190388080806124ee565b805485870183015294019385908201612509565b9294505050602093945060ff191683830152151560051b010190388080806124ee565b6001600160401b0381116101f65760051b60200190565b9190820180921161257b57565b634e487b7160e01b600052601160045260246000fd5b80518210156125a55760209160051b010190565b634e487b7160e01b600052603260045260246000fd5b6000929181546125ca81612487565b9260019180831690811561262257506001146125e65750505050565b90919293945060005260209081600020906000915b85831061261157505050500190388080806124ee565b8054858401529183019181016125fb565b60ff19168452505050811515909102019150388080806124ee565b51906001600160a01b038216820361020c57565b519062ffffff8216820361020c57565b919082604091031261020c5760206126788361263d565b92015190565b90601f811161268c57505050565b600091825260208220906020601f850160051c830194106126c8575b601f0160051c01915b8281106126bd57505050565b8181556001016126b1565b90925082906126a8565b909291906001600160a01b031680156129cf5783511561298a5781511561294e57600280549260019081850180951161257b5784835560009485526003906020908282526040938488206bffffffffffffffffffffffff60a01b9088828254161790558654895281868a20019081541690558554885283858920018a516001600160401b039b8c821161293a5781906127758261276f8654612487565b8661267e565b8690601f83116001146128dc578c926128d1575b505060001982881b1c191690831b1790555b855488528383526004858920019180519a8b116128bd576127c68b6127c08554612487565b8561267e565b8390601f8c11600114612840579a809281927fc82555d64d2b8b25ffefc140ae6575736763ee3a99347632d7f633e7bfae3f789c9d8c94612835575b50501b9160001990861b1c19161790555b835486525242600682862001558154845260074291852001555492828493a390565b015192503880612802565b838a52848a20909b91601f1983168b5b8181106128a857509c837fc82555d64d2b8b25ffefc140ae6575736763ee3a99347632d7f633e7bfae3f789d9e10612890575b505050811b019055612813565b015160001983881b60f8161c19169055388080612883565b8e830151845592850192918701918701612850565b634e487b7160e01b89526041600452602489fd5b015190503880612789565b848d52878d208694509190601f1984168e5b8a828210612924575050841161290c575b505050811b01905561279b565b0151600019838a1b60f8161c191690553880806128ff565b83850151865589979095019493840193016128ee565b634e487b7160e01b8b52604160045260248bfd5b60405162461bcd60e51b8152602060048201526014602482015273151a194811185d18481a5cc81c995c5d5a5c995960621b6044820152606490fd5b60405162461bcd60e51b815260206004820152601d60248201527f5468652046756e6374696f6e206e616d652069732072657175697265640000006044820152606490fd5b60405162461bcd60e51b815260206004820152601860248201527f5a65726f2061646472657373206e6f7420416c6c6f77656400000000000000006044820152606490fd5b9081602091031261020c5751801515810361020c5790565b15612a3357565b60405162461bcd60e51b815260206004820152601d60248201527f416d6f756e74206d7573742062652067726561746572207468616e20300000006044820152606490fd5b9081602091031261020c57516001600160a01b038116810361020c5790565b51906001600160801b038216820361020c57565b9190820391821161257b57565b919082604091031261020c576020825192015190565b919091606060808201938051835260018060a01b036020820151166020840152816001600160801b0391826040820151166040860152015116910152565b91909160808060a0830194805184526001600160801b03602082015116602085015260408101516040850152606081015160608501520151910152565b90818111612b5d57612b5a91612aab565b90565b60405162461bcd60e51b815260206004820152602260248201527f61206d7573742062652067726561746572207468616e206f7220657175616c73604482015261103160f11b6064820152608490fd5b8181029291811591840414171561257b57565b8015612c1957600180820180831161257b57811c90825b838310612be45750505090565b91925090828015612c045780612bfb91830461256e565b821c9190612bd7565b60246000634e487b7160e01b81526012600452fd5b50600090565b6001600160a01b03818116916401000276a38310158061321a575b1561320857640100000000600160c01b039060201b169182916001600160801b03841160071b9380851c6001600160401b03811160061b90811c9463ffffffff9687871160051b96871c9261ffff841160041b93841c9760ff98899586821160031b91821c92600f841160021b93841c94600160038711811b96871c11961717171717171790608093848310156000146131fc5750607e1982011c5b8002607f928392828493841c81841c1c800280851c81851c1c800280861c81861c1c800280871c81871c1c80029081881c82881c1c80029283891c84891c1c800294858a1c868a1c1c800296878b1c888b1c1c800298898c1c8a8c1c1c80029a8b8d1c8c821c1c8002809d1c8d821c1c8002809e81901c90821c1c80029e8f80911c911c1c800260cd1c6604000000000000169d60cc1c6608000000000000169c60cb1c6610000000000000169b60ca1c6620000000000000169a60c91c6640000000000000169960c81c6680000000000000169860c71c670100000000000000169760c61c670200000000000000169660c51c670400000000000000169560c41c670800000000000000169460c31c671000000000000000169360c21c672000000000000000169260c11c674000000000000000169160c01c6780000000000000001690607f190160401b1717171717171717171717171717693627a301d71055774c8502936f028f6481ab7f045a5af012a19d003aa9198501821d60020b946fdb2df09e81959a81455e260799a0632f01821d60020b95600090878714600014612e8757505050505050905090565b818812156131f557878203935b620d89e885116131e35760018516156131d1576001600160881b036ffffcb933bd6fad37aa2d162d1a5940015b1694600281166131b6575b6004811661319b575b60088116613180575b60108116613165575b6020811661314a575b6040811661312f575b818116613114575b61010081166130f9575b61020081166130de575b61040081166130c3575b61080081166130a8575b611000811661308d575b6120008116613072575b6140008116613057575b618000811661303c575b620100008116613021575b620200008116613007575b620400008116612fed575b6208000016612fd4575b50818813612faf575b8316612fa757805b50169060201c01161115600014612fa2575090565b905090565b600190612f8d565b928015612fc0576000190492612f85565b634e487b7160e01b82526012600452602482fd5b90936b048a170391f7dc42444e8fa202901c9238612f7c565b6d2216e584f5fa1ea926041bedfe98909502811c94612f72565b946e5d6af8dedb81196699c329225ee60402811c94612f67565b946f09aa508b5b7a84e1c677de54f3e99bc902811c94612f5c565b946f31be135f97d08fd981231505542fcfa602811c94612f51565b946f70d869a156d2a1b890bb3df62baf32f702811c94612f47565b946fa9f746462d870fdf8a65dc1f90e061e502811c94612f3d565b946fd097f3bdfd2022b8845ad8f792aa582502811c94612f33565b946fe7159475a2c29b7443b29c7fa6e889d902811c94612f29565b946ff3392b0822b70005940c7a398e4b70f302811c94612f1f565b946ff987a7253ac413176f2b074cf7815e5402811c94612f15565b946ffcbe86c7900a88aedcffc83b479aa3a402811c94612f0b565b946ffe5dee046a99a2a811c461f1969c305302811c94612f01565b946fff2ea16466c96a3843ec78b326b5286102811c94612ef9565b946fff973b41fa98c081472e6896dfb254c002811c94612ef0565b946fffcb9843d60f6159c9db58835c92664402811c94612ee7565b946fffe5caca7e10e4e61c3624eaa0941cd002811c94612ede565b946ffff2e50f5f656932ef12357cf3c7fdcc02811c94612ed5565b946ffff97272373d413259a46990580e213a02811c94612ecc565b6001600160881b03600160801b612ec1565b6040516315e4079d60e11b8152600490fd5b8793612e94565b905081607f031b612cd6565b6040516324c070df60e11b8152600490fd5b5073fffd8963efd1fc6a506488495d951d5263988d268310612c3a56fea26469706673582212201ec595bb30ba5988ff53f65d549a698a126c978c262048fbbd65e65f3e67b17464736f6c63430008130033",
			"opcodes": "PUSH1 0x40 PUSH1 0x80 DUP2 MSTORE CALLVALUE PUSH3 0x3E3 JUMPI PUSH3 0x36BD DUP1 CODESIZE SUB DUP1 PUSH3 0x1E DUP2 PUSH3 0x3FE JUMP JUMPDEST SWAP3 DUP4 CODECOPY DUP2 ADD DUP3 DUP3 DUP3 SUB SLT PUSH3 0x3E3 JUMPI DUP2 MLOAD PUSH1 0x1 PUSH1 0x1 PUSH1 0x40 SHL SUB SWAP3 SWAP1 DUP4 DUP2 GT PUSH3 0x3E3 JUMPI DUP2 ADD SWAP2 DUP1 PUSH1 0x1F DUP5 ADD SLT ISZERO PUSH3 0x3E3 JUMPI DUP3 MLOAD SWAP4 DUP5 GT PUSH3 0x3E8 JUMPI DUP4 PUSH1 0x5 SHL PUSH1 0x20 SWAP4 DUP5 DUP1 PUSH3 0x70 DUP2 DUP6 ADD PUSH3 0x3FE JUMP JUMPDEST DUP1 SWAP9 DUP2 MSTORE ADD SWAP3 DUP3 ADD ADD SWAP3 DUP4 GT PUSH3 0x3E3 JUMPI SWAP1 DUP5 DUP1 SWAP5 SWAP4 SWAP3 ADD SWAP1 JUMPDEST DUP3 DUP3 LT PUSH3 0x3B7 JUMPI POP POP POP ADD MLOAD SWAP1 PUSH1 0x1 SWAP3 DUP4 DUP4 GT ISZERO PUSH3 0x34D JUMPI DUP3 DUP2 MLOAD LT PUSH3 0x2BD JUMPI PUSH1 0x0 SWAP3 DUP4 PUSH1 0x2 SSTORE PUSH1 0x5 SSTORE DUP4 DUP4 SWAP1 JUMPDEST PUSH3 0x131 JUMPI JUMPDEST DUP6 PUSH20 0xE592427A0AECE92DE3EDEE1F18E0157C05861564 PUSH1 0x1 DUP1 PUSH1 0xA0 SHL SUB NOT PUSH20 0x1F98431C8AD98523631AE4A59F267346EA31F984 DUP2 PUSH1 0x6 SLOAD AND OR PUSH1 0x6 SSTORE PUSH20 0xC36442B4A4522E871399CD717ABDD847AB11FE88 DUP2 PUSH1 0x7 SLOAD AND OR PUSH1 0x7 SSTORE PUSH1 0x8 SLOAD AND OR PUSH1 0x8 SSTORE MLOAD PUSH2 0x326D SWAP1 DUP2 PUSH3 0x450 DUP3 CODECOPY RETURN JUMPDEST DUP2 MLOAD DUP2 LT ISZERO PUSH3 0x2B7 JUMPI PUSH1 0x1 PUSH1 0x1 PUSH1 0xA0 SHL SUB DUP1 PUSH3 0x150 DUP4 DUP6 PUSH3 0x424 JUMP JUMPDEST MLOAD AND ISZERO PUSH3 0x273 JUMPI DUP1 PUSH3 0x165 DUP4 DUP6 PUSH3 0x424 JUMP JUMPDEST MLOAD AND DUP6 MSTORE DUP6 DUP5 MSTORE PUSH1 0xFF DUP8 DUP7 KECCAK256 SLOAD AND PUSH3 0x22F JUMPI DUP1 PUSH3 0x185 DUP4 DUP6 PUSH3 0x424 JUMP JUMPDEST MLOAD AND DUP6 MSTORE DUP6 DUP5 MSTORE DUP7 DUP6 KECCAK256 DUP1 SLOAD PUSH1 0xFF NOT AND DUP8 OR SWAP1 SSTORE PUSH3 0x1A5 DUP3 DUP5 PUSH3 0x424 JUMP JUMPDEST MLOAD AND DUP5 SLOAD PUSH9 0x10000000000000000 DUP2 LT ISZERO PUSH3 0x21B JUMPI DUP7 DUP2 ADD DUP1 DUP8 SSTORE DUP2 LT ISZERO PUSH3 0x207 JUMPI DUP6 DUP1 MSTORE DUP5 DUP7 KECCAK256 ADD DUP1 SLOAD PUSH1 0x1 PUSH1 0x1 PUSH1 0xA0 SHL SUB NOT AND SWAP1 SWAP2 OR SWAP1 SSTORE DUP1 DUP6 ADD SWAP1 DUP2 LT PUSH3 0x1F3 JUMPI DUP5 PUSH3 0xBB JUMP JUMPDEST PUSH4 0x4E487B71 PUSH1 0xE0 SHL DUP5 MSTORE PUSH1 0x11 PUSH1 0x4 MSTORE PUSH1 0x24 DUP5 REVERT JUMPDEST PUSH4 0x4E487B71 PUSH1 0xE0 SHL DUP7 MSTORE PUSH1 0x32 PUSH1 0x4 MSTORE PUSH1 0x24 DUP7 REVERT JUMPDEST PUSH4 0x4E487B71 PUSH1 0xE0 SHL DUP7 MSTORE PUSH1 0x41 PUSH1 0x4 MSTORE PUSH1 0x24 DUP7 REVERT JUMPDEST DUP7 MLOAD PUSH3 0x461BCD PUSH1 0xE5 SHL DUP2 MSTORE PUSH1 0x4 DUP2 ADD DUP6 SWAP1 MSTORE PUSH1 0x14 PUSH1 0x24 DUP3 ADD MSTORE PUSH32 0x546865204F776E6572206E6F7420756E69717565000000000000000000000000 PUSH1 0x44 DUP3 ADD MSTORE PUSH1 0x64 SWAP1 REVERT JUMPDEST DUP7 MLOAD PUSH3 0x461BCD PUSH1 0xE5 SHL DUP2 MSTORE PUSH1 0x4 DUP2 ADD DUP6 SWAP1 MSTORE PUSH1 0x18 PUSH1 0x24 DUP3 ADD MSTORE PUSH32 0x5A65726F2061646472657373206E6F7420416C6C6F7765640000000000000000 PUSH1 0x44 DUP3 ADD MSTORE PUSH1 0x64 SWAP1 REVERT JUMPDEST PUSH3 0xC1 JUMP JUMPDEST DUP5 MLOAD PUSH3 0x461BCD PUSH1 0xE5 SHL DUP2 MSTORE PUSH1 0x4 DUP2 ADD DUP4 SWAP1 MSTORE PUSH1 0x5A PUSH1 0x24 DUP3 ADD MSTORE PUSH32 0x546865206E756D626572206F66206F776E657273206D75737420626520677265 PUSH1 0x44 DUP3 ADD MSTORE PUSH32 0x61746572207468616E206F7220657175616C20746F20746865206E756D626572 PUSH1 0x64 DUP3 ADD MSTORE PUSH32 0x206F6620636F6E6669726D6174696F6E73207265717569726564000000000000 PUSH1 0x84 DUP3 ADD MSTORE PUSH1 0xA4 SWAP1 REVERT JUMPDEST DUP5 MLOAD PUSH3 0x461BCD PUSH1 0xE5 SHL DUP2 MSTORE PUSH1 0x4 DUP2 ADD DUP4 SWAP1 MSTORE PUSH1 0x3D PUSH1 0x24 DUP3 ADD MSTORE PUSH32 0x546865204E756D626572206F6620636F6E6669726D6174696F6E732072657175 PUSH1 0x44 DUP3 ADD MSTORE PUSH32 0x69726564206D7573742062652067726561746572207468616E206F6E65000000 PUSH1 0x64 DUP3 ADD MSTORE PUSH1 0x84 SWAP1 REVERT JUMPDEST DUP2 MLOAD SWAP4 SWAP5 POP SWAP2 SWAP3 SWAP1 SWAP2 SWAP1 PUSH1 0x1 PUSH1 0x1 PUSH1 0xA0 SHL SUB DUP2 AND DUP2 SUB PUSH3 0x3E3 JUMPI DUP2 MSTORE DUP5 SWAP4 SWAP3 SWAP2 DUP5 ADD SWAP1 DUP5 ADD PUSH3 0x8A JUMP JUMPDEST PUSH1 0x0 DUP1 REVERT JUMPDEST PUSH4 0x4E487B71 PUSH1 0xE0 SHL PUSH1 0x0 MSTORE PUSH1 0x41 PUSH1 0x4 MSTORE PUSH1 0x24 PUSH1 0x0 REVERT JUMPDEST PUSH1 0x40 MLOAD SWAP2 SWAP1 PUSH1 0x1F ADD PUSH1 0x1F NOT AND DUP3 ADD PUSH1 0x1 PUSH1 0x1 PUSH1 0x40 SHL SUB DUP2 GT DUP4 DUP3 LT OR PUSH3 0x3E8 JUMPI PUSH1 0x40 MSTORE JUMP JUMPDEST DUP1 MLOAD DUP3 LT ISZERO PUSH3 0x439 JUMPI PUSH1 0x20 SWAP2 PUSH1 0x5 SHL ADD ADD SWAP1 JUMP JUMPDEST PUSH4 0x4E487B71 PUSH1 0xE0 SHL PUSH1 0x0 MSTORE PUSH1 0x32 PUSH1 0x4 MSTORE PUSH1 0x24 PUSH1 0x0 REVERT INVALID PUSH1 0x80 DUP1 PUSH1 0x40 MSTORE PUSH1 0x4 CALLDATASIZE LT ISZERO PUSH2 0x1D JUMPI JUMPDEST POP CALLDATASIZE ISZERO PUSH2 0x1B JUMPI PUSH1 0x0 DUP1 REVERT JUMPDEST STOP JUMPDEST PUSH1 0x0 SWAP1 DUP2 DUP1 CALLDATALOAD PUSH1 0xE0 SHR SWAP2 DUP3 PUSH4 0x1834C397 EQ PUSH2 0x2082 JUMPI POP POP DUP1 PUSH4 0x29793F7D EQ PUSH2 0x202F JUMPI DUP1 PUSH4 0x33EA3DC8 EQ PUSH2 0x1F52 JUMPI DUP1 PUSH4 0x46CE96DD EQ PUSH2 0x1EAB JUMPI DUP1 PUSH4 0x5869DBA8 EQ PUSH2 0x1E10 JUMPI DUP1 PUSH4 0x5EFB3B6D EQ PUSH2 0x1B41 JUMPI DUP1 PUSH4 0x9DB5DBE4 EQ PUSH2 0x1A0D JUMPI DUP1 PUSH4 0xA0E67E2B EQ PUSH2 0x1949 JUMPI DUP1 PUSH4 0xA9109570 EQ PUSH2 0x191A JUMPI DUP1 PUSH4 0xAC43A6B8 EQ PUSH2 0x17AD JUMPI DUP1 PUSH4 0xB40B7E0B EQ PUSH2 0x16D7 JUMPI DUP1 PUSH4 0xC01A8C84 EQ PUSH2 0x150A JUMPI DUP1 PUSH4 0xC1756A2C EQ PUSH2 0x145B JUMPI DUP1 PUSH4 0xC5E57C64 EQ PUSH2 0x11DB JUMPI DUP1 PUSH4 0xEE22610B EQ PUSH2 0x341 JUMPI DUP1 PUSH4 0xF47F9033 EQ PUSH2 0x243 JUMPI DUP1 PUSH4 0xF73E5AAB EQ PUSH2 0x214 JUMPI PUSH4 0xFB35F110 SUB PUSH2 0xF JUMPI PUSH2 0x100 SWAP1 DUP2 PUSH1 0x3 NOT CALLDATASIZE ADD SLT PUSH2 0x211 JUMPI PUSH2 0x105 PUSH2 0x2152 JUMP JUMPDEST SWAP2 PUSH2 0x10E PUSH2 0x2168 JUMP JUMPDEST SWAP2 PUSH2 0x117 PUSH2 0x226B JUMP JUMPDEST PUSH1 0xC4 CALLDATALOAD PUSH1 0x1 PUSH1 0x1 PUSH1 0xA0 SHL SUB DUP2 DUP2 AND SWAP4 SWAP3 SWAP2 DUP5 SWAP1 SUB PUSH2 0x20C JUMPI PUSH1 0xE4 CALLDATALOAD SWAP6 DUP2 DUP8 AND DUP1 SWAP8 SUB PUSH2 0x20C JUMPI PUSH2 0x159 PUSH1 0xFF PUSH1 0x40 PUSH3 0xFFFFFF SWAP7 CALLER DUP2 MSTORE PUSH1 0x1 PUSH1 0x20 MSTORE KECCAK256 SLOAD AND PUSH2 0x2378 JUMP JUMPDEST DUP2 PUSH1 0x40 MLOAD SWAP9 AND PUSH1 0x20 DUP10 ADD MSTORE AND PUSH1 0x40 DUP8 ADD MSTORE AND PUSH1 0x60 DUP6 ADD MSTORE PUSH1 0x64 CALLDATALOAD PUSH1 0x80 DUP6 ADD MSTORE PUSH1 0x84 CALLDATALOAD PUSH1 0xA0 DUP6 ADD MSTORE PUSH1 0xA4 CALLDATALOAD PUSH1 0xC0 DUP6 ADD MSTORE PUSH1 0xE0 DUP5 ADD MSTORE DUP3 ADD MSTORE PUSH2 0x120 CALLVALUE DUP2 DUP4 ADD MSTORE DUP2 MSTORE PUSH2 0x140 DUP2 ADD DUP2 DUP2 LT PUSH1 0x1 PUSH1 0x1 PUSH1 0x40 SHL SUB DUP3 GT OR PUSH2 0x1F6 JUMPI PUSH1 0x20 SWAP2 DUP2 PUSH2 0x1EE SWAP3 PUSH1 0x40 MSTORE PUSH2 0x1C5 DUP2 PUSH2 0x22E2 JUMP JUMPDEST PUSH1 0x15 DUP2 MSTORE PUSH21 0x17D8DC99585D19541BDBDB105B99135A5B9D139195 PUSH1 0x5A SHL PUSH2 0x160 DUP4 ADD MSTORE CALLER PUSH2 0x26D2 JUMP JUMPDEST PUSH1 0x40 MLOAD SWAP1 DUP2 MSTORE RETURN JUMPDEST PUSH4 0x4E487B71 PUSH1 0xE0 SHL PUSH1 0x0 MSTORE PUSH1 0x41 PUSH1 0x4 MSTORE PUSH1 0x24 PUSH1 0x0 REVERT JUMPDEST PUSH1 0x0 DUP1 REVERT JUMPDEST DUP1 REVERT JUMPDEST POP CALLVALUE PUSH2 0x211 JUMPI DUP1 PUSH1 0x3 NOT CALLDATASIZE ADD SLT PUSH2 0x211 JUMPI PUSH1 0x20 PUSH1 0x40 MLOAD PUSH20 0x1F98431C8AD98523631AE4A59F267346EA31F984 DUP2 MSTORE RETURN JUMPDEST POP PUSH1 0x80 CALLDATASIZE PUSH1 0x3 NOT ADD SLT PUSH2 0x211 JUMPI PUSH2 0x258 PUSH2 0x2152 JUMP JUMPDEST PUSH2 0x260 PUSH2 0x2168 JUMP JUMPDEST SWAP1 PUSH2 0x269 PUSH2 0x226B JUMP JUMPDEST SWAP1 PUSH2 0x275 PUSH1 0x64 CALLDATALOAD PUSH2 0x2BC0 JUMP JUMPDEST SWAP1 DUP2 PUSH1 0x60 SHL SWAP2 DUP1 DUP4 DIV PUSH1 0x1 PUSH1 0x60 SHL EQ SWAP1 ISZERO OR ISZERO PUSH2 0x32D JUMPI PUSH1 0x7 SLOAD PUSH1 0x40 MLOAD PUSH4 0x9F56AB1 PUSH1 0xE1 SHL DUP2 MSTORE PUSH1 0x1 PUSH1 0x1 PUSH1 0xA0 SHL SUB SWAP3 DUP4 AND PUSH1 0x4 DUP3 ADD MSTORE SWAP5 DUP3 AND PUSH1 0x24 DUP7 ADD MSTORE PUSH3 0xFFFFFF SWAP1 SWAP4 AND PUSH1 0x44 DUP6 ADD MSTORE SWAP1 DUP2 AND PUSH1 0x64 DUP5 ADD MSTORE SWAP1 PUSH1 0x20 SWAP1 DUP4 SWAP1 PUSH1 0x84 SWAP1 DUP3 SWAP1 CALLVALUE SWAP1 DUP7 AND GAS CALL SWAP2 DUP3 ISZERO PUSH2 0x322 JUMPI PUSH1 0x20 SWAP4 SWAP3 PUSH2 0x2F3 JUMPI JUMPDEST POP PUSH1 0x40 MLOAD SWAP2 AND DUP2 MSTORE RETURN JUMPDEST PUSH2 0x314 SWAP2 SWAP3 POP DUP4 RETURNDATASIZE DUP2 GT PUSH2 0x31B JUMPI JUMPDEST PUSH2 0x30C DUP2 DUP4 PUSH2 0x22FD JUMP JUMPDEST DUP2 ADD SWAP1 PUSH2 0x2A78 JUMP JUMPDEST SWAP1 CODESIZE PUSH2 0x2E9 JUMP JUMPDEST POP RETURNDATASIZE PUSH2 0x302 JUMP JUMPDEST PUSH1 0x40 MLOAD RETURNDATASIZE DUP6 DUP3 RETURNDATACOPY RETURNDATASIZE SWAP1 REVERT JUMPDEST PUSH4 0x4E487B71 PUSH1 0xE0 SHL DUP6 MSTORE PUSH1 0x11 PUSH1 0x4 MSTORE PUSH1 0x24 DUP6 REVERT JUMPDEST POP PUSH1 0x20 CALLDATASIZE PUSH1 0x3 NOT ADD SLT PUSH2 0x211 JUMPI CALLER DUP2 MSTORE PUSH1 0x1 PUSH1 0x20 MSTORE PUSH2 0x366 PUSH1 0xFF PUSH1 0x40 DUP4 KECCAK256 SLOAD AND PUSH2 0x2378 JUMP JUMPDEST PUSH1 0x4 CALLDATALOAD ISZERO ISZERO DUP1 PUSH2 0x11CD JUMPI JUMPDEST PUSH2 0x37A SWAP1 PUSH2 0x23B0 JUMP JUMPDEST PUSH1 0x4 CALLDATALOAD DUP2 MSTORE PUSH1 0x3 PUSH1 0x20 DUP2 SWAP1 MSTORE PUSH1 0x40 DUP3 KECCAK256 PUSH1 0x1 ADD SLOAD PUSH2 0x3A1 SWAP1 PUSH1 0x1 PUSH1 0x1 PUSH1 0xA0 SHL SUB AND ISZERO PUSH2 0x23FC JUMP JUMPDEST PUSH1 0x4 CALLDATALOAD DUP3 MSTORE DUP1 PUSH1 0x20 MSTORE PUSH1 0x2 PUSH1 0x40 DUP4 KECCAK256 ADD SLOAD PUSH1 0x5 SLOAD GT PUSH2 0x1194 JUMPI PUSH1 0x4 CALLDATALOAD DUP3 MSTORE DUP1 PUSH1 0x20 MSTORE PUSH2 0x3FF DUP2 PUSH1 0x40 DUP5 KECCAK256 PUSH1 0x1 DUP2 ADD CALLER PUSH12 0xFFFFFFFFFFFFFFFFFFFFFFFF PUSH1 0xA0 SHL DUP3 SLOAD AND OR SWAP1 SSTORE TIMESTAMP PUSH1 0x7 DUP3 ADD SSTORE PUSH1 0x40 MLOAD SWAP3 DUP4 SWAP2 PUSH1 0x20 DUP4 ADD SWAP4 DUP5 SWAP2 ADD PUSH2 0x25BB JUMP JUMPDEST SUB SWAP2 PUSH2 0x413 PUSH1 0x1F NOT SWAP4 DUP5 DUP2 ADD DUP4 MSTORE DUP3 PUSH2 0x22FD JUMP JUMPDEST MLOAD SWAP1 KECCAK256 PUSH1 0x40 MLOAD PUSH1 0x20 DUP2 ADD SWAP1 PUSH5 0x5F7377617 PUSH1 0xDC SHL DUP3 MSTORE PUSH1 0x5 DUP2 MSTORE PUSH2 0x436 DUP2 PUSH2 0x22E2 JUMP JUMPDEST MLOAD SWAP1 KECCAK256 SUB PUSH2 0x6BF JUMPI POP PUSH1 0x4 CALLDATALOAD DUP3 MSTORE PUSH1 0x20 MSTORE PUSH2 0x460 PUSH2 0x467 PUSH1 0x4 PUSH1 0x40 DUP5 KECCAK256 ADD PUSH1 0x40 MLOAD SWAP3 DUP4 DUP1 SWAP3 PUSH2 0x24C1 JUMP JUMPDEST SUB DUP3 PUSH2 0x22FD JUMP JUMPDEST PUSH1 0xA0 DUP2 DUP1 MLOAD DUP2 ADD SUB SLT PUSH2 0x6BB JUMPI PUSH2 0x480 PUSH1 0x20 DUP3 ADD PUSH2 0x263D JUMP JUMPDEST SWAP1 PUSH2 0x48D PUSH1 0x40 DUP3 ADD PUSH2 0x263D JUMP JUMPDEST PUSH1 0x60 DUP3 ADD MLOAD SWAP1 PUSH2 0x4A4 PUSH1 0xA0 PUSH1 0x80 DUP6 ADD MLOAD SWAP5 ADD PUSH2 0x2651 JUMP JUMPDEST PUSH1 0x40 MLOAD PUSH4 0x95EA7B3 PUSH1 0xE0 SHL DUP2 MSTORE PUSH20 0xE592427A0AECE92DE3EDEE1F18E0157C05861564 PUSH1 0x4 DUP3 ADD MSTORE PUSH1 0x24 DUP2 ADD DUP5 SWAP1 MSTORE PUSH1 0x1 PUSH1 0x1 PUSH1 0xA0 SHL SUB SWAP1 SWAP6 AND SWAP5 PUSH1 0x20 DUP2 PUSH1 0x44 DUP2 DUP11 DUP11 GAS CALL SWAP1 DUP2 ISZERO PUSH2 0x6B0 JUMPI DUP8 SWAP2 PUSH2 0x681 JUMPI JUMPDEST POP ISZERO PUSH2 0x64A JUMPI PUSH2 0xE10 TIMESTAMP ADD SWAP2 DUP3 TIMESTAMP GT PUSH2 0x636 JUMPI SWAP2 PUSH3 0xFFFFFF DUP8 SWAP7 SWAP5 SWAP3 PUSH1 0x20 SWAP7 SWAP5 PUSH1 0x40 MLOAD SWAP7 PUSH2 0x523 DUP9 PUSH2 0x2298 JUMP JUMPDEST DUP8 MSTORE PUSH1 0x1 PUSH1 0x1 PUSH1 0xA0 SHL SUB SWAP1 DUP2 AND DUP9 DUP9 ADD SWAP1 DUP2 MSTORE SWAP3 SWAP1 SWAP2 AND PUSH1 0x40 DUP1 DUP9 ADD SWAP2 DUP3 MSTORE ADDRESS PUSH1 0x60 DUP10 ADD SWAP1 DUP2 MSTORE PUSH1 0x80 DUP10 ADD SWAP6 DUP7 MSTORE PUSH1 0xA0 DUP10 ADD SWAP7 DUP8 MSTORE PUSH1 0xC0 DUP10 ADD SWAP8 DUP9 MSTORE PUSH1 0xE0 DUP10 ADD DUP12 DUP2 MSTORE PUSH1 0x8 SLOAD SWAP3 MLOAD PUSH4 0x414BF389 PUSH1 0xE0 SHL DUP2 MSTORE SWAP10 MLOAD DUP6 AND PUSH1 0x4 DUP12 ADD MSTORE SWAP5 MLOAD DUP5 AND PUSH1 0x24 DUP11 ADD MSTORE SWAP2 MLOAD PUSH3 0xFFFFFF AND PUSH1 0x44 DUP10 ADD MSTORE SWAP1 MLOAD DUP3 AND PUSH1 0x64 DUP9 ADD MSTORE SWAP3 MLOAD PUSH1 0x84 DUP8 ADD MSTORE SWAP3 MLOAD PUSH1 0xA4 DUP7 ADD MSTORE SWAP3 MLOAD PUSH1 0xC4 DUP6 ADD MSTORE SWAP2 MLOAD DUP2 AND PUSH1 0xE4 DUP5 ADD MSTORE SWAP2 SWAP4 DUP5 SWAP3 PUSH2 0x104 SWAP3 DUP5 SWAP3 SWAP2 AND GAS CALL DUP1 ISZERO PUSH2 0x62B JUMPI PUSH2 0x600 JUMPI JUMPDEST POP JUMPDEST PUSH1 0x4 CALLDATALOAD CALLER PUSH32 0x5445F318F4F5FCFB66592E68E0CC5822AA15664039BD5F0FFDE24C5A8142B1AC DUP4 DUP1 LOG3 DUP1 RETURN JUMPDEST PUSH1 0x20 SWAP1 DUP2 RETURNDATASIZE DUP4 GT PUSH2 0x624 JUMPI JUMPDEST PUSH2 0x616 DUP2 DUP4 PUSH2 0x22FD JUMP JUMPDEST DUP2 ADD SUB SLT PUSH2 0x20C JUMPI CODESIZE PUSH2 0x5D3 JUMP JUMPDEST POP RETURNDATASIZE PUSH2 0x60C JUMP JUMPDEST PUSH1 0x40 MLOAD RETURNDATASIZE DUP5 DUP3 RETURNDATACOPY RETURNDATASIZE SWAP1 REVERT JUMPDEST PUSH4 0x4E487B71 PUSH1 0xE0 SHL DUP8 MSTORE PUSH1 0x11 PUSH1 0x4 MSTORE PUSH1 0x24 DUP8 REVERT JUMPDEST PUSH1 0x40 MLOAD PUSH3 0x461BCD PUSH1 0xE5 SHL DUP2 MSTORE PUSH1 0x20 PUSH1 0x4 DUP3 ADD MSTORE PUSH1 0xF PUSH1 0x24 DUP3 ADD MSTORE PUSH15 0x105C1C1C9BDD985B0819985A5B1959 PUSH1 0x8A SHL PUSH1 0x44 DUP3 ADD MSTORE PUSH1 0x64 SWAP1 REVERT JUMPDEST PUSH2 0x6A3 SWAP2 POP PUSH1 0x20 RETURNDATASIZE PUSH1 0x20 GT PUSH2 0x6A9 JUMPI JUMPDEST PUSH2 0x69B DUP2 DUP4 PUSH2 0x22FD JUMP JUMPDEST DUP2 ADD SWAP1 PUSH2 0x2A14 JUMP JUMPDEST CODESIZE PUSH2 0x4F6 JUMP JUMPDEST POP RETURNDATASIZE PUSH2 0x691 JUMP JUMPDEST PUSH1 0x40 MLOAD RETURNDATASIZE DUP10 DUP3 RETURNDATACOPY RETURNDATASIZE SWAP1 REVERT JUMPDEST POP DUP1 REVERT JUMPDEST SWAP1 PUSH1 0x4 CALLDATALOAD DUP4 MSTORE DUP1 PUSH1 0x20 MSTORE DUP1 PUSH1 0x40 DUP5 KECCAK256 ADD PUSH1 0x40 MLOAD PUSH2 0x6F0 DUP2 PUSH2 0x6E4 PUSH1 0x20 DUP3 ADD DUP1 SWAP6 PUSH2 0x25BB JUMP JUMPDEST SUB DUP6 DUP2 ADD DUP4 MSTORE DUP3 PUSH2 0x22FD JUMP JUMPDEST MLOAD SWAP1 KECCAK256 PUSH1 0x40 MLOAD PUSH1 0x20 DUP2 ADD SWAP1 PUSH11 0xBEEADCEEE4C2E0AE8AA89 PUSH1 0xAB SHL DUP3 MSTORE PUSH1 0xB DUP2 MSTORE PUSH2 0x719 DUP2 PUSH2 0x22E2 JUMP JUMPDEST MLOAD SWAP1 KECCAK256 SUB PUSH2 0x840 JUMPI PUSH1 0x4 CALLDATALOAD DUP4 MSTORE PUSH1 0x20 MSTORE DUP2 PUSH2 0x755 PUSH2 0x460 PUSH2 0x746 PUSH1 0x4 PUSH1 0x40 DUP6 KECCAK256 ADD PUSH1 0x40 MLOAD SWAP3 DUP4 DUP1 SWAP3 PUSH2 0x24C1 JUMP JUMPDEST PUSH1 0x20 DUP1 DUP3 MLOAD DUP4 ADD ADD SWAP2 ADD PUSH2 0x2661 JUMP JUMPDEST SWAP1 PUSH1 0x1 PUSH1 0x1 PUSH1 0xA0 SHL SUB AND PUSH2 0x76A DUP3 ISZERO ISZERO PUSH2 0x2A2C JUMP JUMPDEST DUP1 EXTCODESIZE ISZERO PUSH2 0x83C JUMPI DUP3 DUP1 SWAP2 PUSH1 0x24 PUSH1 0x40 MLOAD DUP1 SWAP5 DUP2 SWAP4 PUSH4 0x2E1A7D4D PUSH1 0xE0 SHL DUP4 MSTORE DUP8 PUSH1 0x4 DUP5 ADD MSTORE GAS CALL SWAP1 DUP2 ISZERO PUSH2 0x322 JUMPI DUP4 SWAP2 PUSH2 0x828 JUMPI JUMPDEST POP DUP1 DUP1 SWAP3 ADDRESS GAS CALL SWAP1 RETURNDATASIZE ISZERO PUSH2 0x822 JUMPI RETURNDATASIZE PUSH1 0x1 PUSH1 0x1 PUSH1 0x40 SHL SUB DUP2 GT PUSH2 0x1F6 JUMPI PUSH2 0x7CF PUSH1 0x20 PUSH1 0x40 MLOAD SWAP4 PUSH1 0x1F DUP5 ADD AND ADD DUP4 PUSH2 0x22FD JUMP JUMPDEST DUP2 MSTORE DUP3 PUSH1 0x20 RETURNDATASIZE SWAP3 ADD RETURNDATACOPY JUMPDEST PUSH2 0x5D5 JUMPI PUSH1 0x40 MLOAD PUSH3 0x461BCD PUSH1 0xE5 SHL DUP2 MSTORE PUSH1 0x20 PUSH1 0x4 DUP3 ADD MSTORE PUSH1 0x18 PUSH1 0x24 DUP3 ADD MSTORE PUSH32 0x4661696C656420746F207472616E736665722045746865720000000000000000 PUSH1 0x44 DUP3 ADD MSTORE PUSH1 0x64 SWAP1 REVERT JUMPDEST POP PUSH2 0x7D9 JUMP JUMPDEST PUSH2 0x831 SWAP1 PUSH2 0x22CF JUMP JUMPDEST PUSH2 0x6BB JUMPI DUP2 CODESIZE PUSH2 0x79D JUMP JUMPDEST DUP3 DUP1 REVERT JUMPDEST SWAP1 PUSH1 0x4 CALLDATALOAD DUP4 MSTORE DUP2 PUSH1 0x20 MSTORE DUP2 PUSH1 0x40 DUP5 KECCAK256 ADD PUSH1 0x40 MLOAD PUSH2 0x871 DUP2 PUSH2 0x865 PUSH1 0x20 DUP3 ADD DUP1 SWAP6 PUSH2 0x25BB JUMP JUMPDEST SUB DUP5 DUP2 ADD DUP4 MSTORE DUP3 PUSH2 0x22FD JUMP JUMPDEST MLOAD SWAP1 KECCAK256 PUSH1 0x40 MLOAD PUSH1 0x20 DUP2 ADD SWAP1 PUSH8 0xBEEEE4C2E08AA89 PUSH1 0xC3 SHL DUP3 MSTORE PUSH1 0x8 DUP2 MSTORE PUSH2 0x897 DUP2 PUSH2 0x22E2 JUMP JUMPDEST MLOAD SWAP1 KECCAK256 SUB PUSH2 0x974 JUMPI POP PUSH1 0x4 CALLDATALOAD DUP3 MSTORE PUSH1 0x20 MSTORE PUSH2 0x8C4 PUSH2 0x460 PUSH2 0x746 PUSH1 0x4 PUSH1 0x40 DUP6 KECCAK256 ADD PUSH1 0x40 MLOAD SWAP3 DUP4 DUP1 SWAP3 PUSH2 0x24C1 JUMP JUMPDEST SWAP1 PUSH1 0x1 PUSH1 0x1 PUSH1 0xA0 SHL SUB AND SELFBALANCE DUP3 GT PUSH2 0x91E JUMPI DUP3 SWAP1 PUSH2 0x8E2 DUP4 ISZERO ISZERO PUSH2 0x2A2C JUMP JUMPDEST DUP1 EXTCODESIZE ISZERO PUSH2 0x6BB JUMPI PUSH1 0x4 PUSH1 0x40 MLOAD DUP1 SWAP5 DUP2 SWAP4 PUSH4 0xD0E30DB PUSH1 0xE4 SHL DUP4 MSTORE GAS CALL DUP1 ISZERO PUSH2 0x62B JUMPI PUSH2 0x90F JUMPI JUMPDEST POP PUSH2 0x5D5 JUMP JUMPDEST PUSH2 0x918 SWAP1 PUSH2 0x22CF JUMP JUMPDEST CODESIZE PUSH2 0x909 JUMP JUMPDEST PUSH1 0x40 MLOAD PUSH3 0x461BCD PUSH1 0xE5 SHL DUP2 MSTORE PUSH1 0x20 PUSH1 0x4 DUP3 ADD MSTORE PUSH1 0x28 PUSH1 0x24 DUP3 ADD MSTORE PUSH32 0x496E73756666696369656E74204554482062616C616E636520696E2074686520 PUSH1 0x44 DUP3 ADD MSTORE PUSH8 0x18DBDB9D1C9858DD PUSH1 0xC2 SHL PUSH1 0x64 DUP3 ADD MSTORE PUSH1 0x84 SWAP1 REVERT JUMPDEST PUSH1 0x4 CALLDATALOAD DUP4 MSTORE DUP2 PUSH1 0x20 MSTORE DUP2 PUSH1 0x40 DUP5 KECCAK256 ADD SWAP1 PUSH2 0x9A6 PUSH1 0x40 MLOAD SWAP2 DUP3 PUSH2 0x99A PUSH1 0x20 DUP3 ADD DUP1 SWAP7 PUSH2 0x25BB JUMP JUMPDEST SUB SWAP1 DUP2 ADD DUP4 MSTORE DUP3 PUSH2 0x22FD JUMP JUMPDEST MLOAD SWAP1 KECCAK256 PUSH1 0x40 MLOAD PUSH1 0x20 DUP2 ADD SWAP1 PUSH21 0x17D8DC99585D19541BDBDB105B99135A5B9D139195 PUSH1 0x5A SHL DUP3 MSTORE PUSH1 0x15 DUP2 MSTORE PUSH2 0x9D9 DUP2 PUSH2 0x22E2 JUMP JUMPDEST MLOAD SWAP1 KECCAK256 EQ PUSH2 0x9E7 JUMPI POP PUSH2 0x5D5 JUMP JUMPDEST PUSH1 0x4 CALLDATALOAD DUP3 MSTORE PUSH1 0x20 MSTORE PUSH2 0x460 PUSH2 0xA08 PUSH1 0x4 PUSH1 0x40 DUP5 KECCAK256 ADD PUSH1 0x40 MLOAD SWAP3 DUP4 DUP1 SWAP3 PUSH2 0x24C1 JUMP JUMPDEST PUSH2 0x120 DUP2 DUP1 MLOAD DUP2 ADD SUB SLT PUSH2 0x6BB JUMPI PUSH2 0xA22 PUSH1 0x20 DUP3 ADD PUSH2 0x263D JUMP JUMPDEST SWAP1 PUSH2 0xA2F PUSH1 0x40 DUP3 ADD PUSH2 0x263D JUMP JUMPDEST PUSH2 0xA3B PUSH1 0x60 DUP4 ADD PUSH2 0x2651 JUMP JUMPDEST PUSH1 0x80 DUP4 ADD MLOAD SWAP4 PUSH1 0xA0 DUP5 ADD MLOAD PUSH1 0xC0 DUP6 ADD MLOAD SWAP5 PUSH2 0xA58 PUSH1 0xE0 DUP3 ADD PUSH2 0x263D JUMP JUMPDEST PUSH1 0x20 PUSH2 0x120 PUSH2 0xA6A PUSH2 0x100 DUP6 ADD PUSH2 0x263D JUMP JUMPDEST SWAP4 ADD MLOAD PUSH1 0x40 MLOAD PUSH4 0xF47F9033 PUSH1 0xE0 SHL DUP2 MSTORE PUSH1 0x1 PUSH1 0x1 PUSH1 0xA0 SHL SUB DUP8 DUP2 AND PUSH1 0x4 DUP4 ADD MSTORE DUP10 AND PUSH1 0x24 DUP3 ADD MSTORE PUSH3 0xFFFFFF DUP9 AND PUSH1 0x44 DUP3 ADD MSTORE PUSH1 0x64 DUP2 ADD SWAP10 SWAP1 SWAP10 MSTORE DUP9 SWAP1 PUSH1 0x84 SWAP1 DUP3 SWAP1 ADDRESS GAS CALL SWAP7 DUP8 ISZERO PUSH2 0xEAD JUMPI DUP10 SWAP8 PUSH2 0x1173 JUMPI JUMPDEST POP PUSH1 0x40 MLOAD PUSH4 0x23B872DD PUSH1 0xE0 SHL DUP2 MSTORE CALLER PUSH1 0x4 DUP3 ADD MSTORE ADDRESS PUSH1 0x24 DUP3 ADD MSTORE PUSH1 0x44 DUP2 ADD DUP10 SWAP1 MSTORE PUSH1 0x20 DUP2 PUSH1 0x64 DUP2 DUP14 PUSH1 0x1 PUSH1 0x1 PUSH1 0xA0 SHL SUB DUP11 AND GAS CALL DUP1 ISZERO PUSH2 0x110B JUMPI PUSH2 0x1154 JUMPI JUMPDEST POP PUSH1 0x40 MLOAD PUSH4 0x23B872DD PUSH1 0xE0 SHL DUP2 MSTORE CALLER PUSH1 0x4 DUP3 ADD MSTORE ADDRESS PUSH1 0x24 DUP3 ADD MSTORE PUSH1 0x44 DUP2 ADD DUP5 SWAP1 MSTORE PUSH1 0x20 DUP2 PUSH1 0x64 DUP2 DUP14 PUSH1 0x1 PUSH1 0x1 PUSH1 0xA0 SHL SUB DUP13 AND GAS CALL DUP1 ISZERO PUSH2 0x110B JUMPI PUSH2 0x1135 JUMPI JUMPDEST POP PUSH1 0x7 SLOAD PUSH1 0x40 MLOAD PUSH4 0x95EA7B3 PUSH1 0xE0 SHL DUP2 MSTORE PUSH1 0x1 PUSH1 0x1 PUSH1 0xA0 SHL SUB SWAP1 SWAP2 AND PUSH1 0x4 DUP3 ADD MSTORE PUSH1 0x24 DUP2 ADD DUP10 SWAP1 MSTORE PUSH1 0x20 DUP2 DUP1 PUSH1 0x44 DUP2 ADD SUB DUP2 DUP14 PUSH1 0x1 PUSH1 0x1 PUSH1 0xA0 SHL SUB DUP11 AND GAS CALL DUP1 ISZERO PUSH2 0x110B JUMPI PUSH2 0x1116 JUMPI JUMPDEST POP PUSH1 0x7 SLOAD PUSH1 0x40 MLOAD PUSH4 0x95EA7B3 PUSH1 0xE0 SHL DUP2 MSTORE PUSH1 0x1 PUSH1 0x1 PUSH1 0xA0 SHL SUB SWAP1 SWAP2 AND PUSH1 0x4 DUP3 ADD MSTORE PUSH1 0x24 DUP2 ADD DUP5 SWAP1 MSTORE PUSH1 0x20 DUP2 DUP1 PUSH1 0x44 DUP2 ADD SUB DUP2 DUP14 PUSH1 0x1 PUSH1 0x1 PUSH1 0xA0 SHL SUB DUP13 AND GAS CALL DUP1 ISZERO PUSH2 0x110B JUMPI PUSH2 0x10EC JUMPI JUMPDEST POP PUSH5 0x1000276A3 PUSH1 0x1 PUSH1 0x1 PUSH1 0xA0 SHL SUB DUP3 AND SWAP1 DUP2 LT ISZERO SWAP1 DUP2 PUSH2 0x10C4 JUMPI JUMPDEST DUP2 PUSH2 0x10B1 JUMPI JUMPDEST POP ISZERO PUSH2 0x1076 JUMPI PUSH2 0xC02 PUSH2 0xC08 SWAP2 PUSH2 0x2C1F JUMP JUMPDEST SWAP2 PUSH2 0x2C1F JUMP JUMPDEST PUSH1 0x2 SIGNEXTEND SWAP2 DUP3 DUP3 PUSH1 0x2 SIGNEXTEND SLT DUP1 PUSH2 0x1065 JUMPI JUMPDEST DUP1 PUSH2 0x1058 JUMPI JUMPDEST ISZERO PUSH2 0x101E JUMPI PUSH1 0x40 MLOAD SWAP5 DUP6 PUSH2 0x160 DUP2 ADD LT PUSH1 0x1 PUSH1 0x1 PUSH1 0x40 SHL SUB PUSH2 0x160 DUP9 ADD GT OR PUSH2 0x100A JUMPI SWAP1 PUSH3 0xFFFFFF DUP11 SWAP3 PUSH2 0x160 DUP9 ADD PUSH1 0x40 MSTORE PUSH1 0x1 DUP1 PUSH1 0xA0 SHL SUB DUP8 AND DUP9 MSTORE PUSH1 0x1 DUP1 PUSH1 0xA0 SHL SUB DUP10 AND PUSH1 0x20 DUP10 ADD MSTORE AND PUSH1 0x40 DUP8 ADD MSTORE DUP3 PUSH1 0x2 SIGNEXTEND PUSH1 0x60 DUP8 ADD MSTORE DUP4 PUSH1 0x80 DUP8 ADD MSTORE DUP9 PUSH1 0xA0 DUP8 ADD MSTORE DUP1 PUSH1 0xC0 DUP8 ADD MSTORE DUP2 PUSH1 0xE0 DUP8 ADD MSTORE DUP2 PUSH2 0x100 DUP8 ADD MSTORE ADDRESS PUSH2 0x120 DUP8 ADD MSTORE TIMESTAMP PUSH2 0x140 DUP8 ADD MSTORE PUSH1 0x80 PUSH2 0x140 PUSH2 0x164 PUSH1 0x1 DUP1 PUSH1 0xA0 SHL SUB PUSH1 0x7 SLOAD AND SWAP9 DUP6 PUSH1 0x40 MLOAD SWAP11 DUP12 SWAP5 DUP6 SWAP4 PUSH4 0x4418B22B PUSH1 0xE1 SHL DUP6 MSTORE PUSH1 0x1 DUP1 PUSH1 0xA0 SHL SUB DUP2 MLOAD AND PUSH1 0x4 DUP7 ADD MSTORE PUSH1 0x1 DUP1 PUSH1 0xA0 SHL SUB PUSH1 0x20 DUP3 ADD MLOAD AND PUSH1 0x24 DUP7 ADD MSTORE PUSH3 0xFFFFFF PUSH1 0x40 DUP3 ADD MLOAD AND PUSH1 0x44 DUP7 ADD MSTORE PUSH1 0x60 DUP2 ADD MLOAD PUSH1 0x2 SIGNEXTEND PUSH1 0x64 DUP7 ADD MSTORE DUP8 DUP2 ADD MLOAD PUSH1 0x2 SIGNEXTEND PUSH1 0x84 DUP7 ADD MSTORE PUSH1 0xA0 DUP2 ADD MLOAD PUSH1 0xA4 DUP7 ADD MSTORE PUSH1 0xC0 DUP2 ADD MLOAD PUSH1 0xC4 DUP7 ADD MSTORE PUSH1 0xE0 DUP2 ADD MLOAD PUSH1 0xE4 DUP7 ADD MSTORE PUSH2 0x100 DUP2 ADD MLOAD PUSH2 0x104 DUP7 ADD MSTORE PUSH1 0x1 DUP1 PUSH1 0xA0 SHL SUB PUSH2 0x120 DUP3 ADD MLOAD AND PUSH2 0x124 DUP7 ADD MSTORE ADD MLOAD PUSH2 0x144 DUP5 ADD MSTORE GAS CALL SWAP7 DUP8 ISZERO PUSH2 0x62B JUMPI DUP3 SWAP10 DUP4 SWAP7 DUP5 SWAP9 DUP6 SWAP11 PUSH2 0xFB4 JUMPI JUMPDEST POP DUP2 DUP10 LT PUSH2 0xEE0 JUMPI JUMPDEST POP POP DUP2 DUP9 LT PUSH2 0xDD2 JUMPI JUMPDEST POP POP POP SWAP6 PUSH1 0x1 PUSH1 0x1 PUSH1 0x80 SHL SUB SWAP3 SWAP2 PUSH2 0x918 SWAP8 PUSH1 0x40 MLOAD SWAP8 PUSH1 0x1 DUP1 PUSH1 0xA0 SHL SUB AND PUSH1 0x20 DUP10 ADD MSTORE PUSH1 0x2 SIGNEXTEND PUSH1 0x40 DUP9 ADD MSTORE PUSH1 0x60 DUP8 ADD MSTORE PUSH1 0x80 DUP7 ADD MSTORE AND PUSH1 0xA0 DUP5 ADD MSTORE PUSH1 0xC0 DUP4 ADD MSTORE PUSH1 0xE0 DUP3 ADD MSTORE PUSH1 0xE0 DUP2 MSTORE PUSH2 0x2298 JUMP JUMPDEST PUSH1 0x7 SLOAD PUSH1 0x40 MLOAD PUSH4 0x95EA7B3 PUSH1 0xE0 SHL DUP2 MSTORE PUSH1 0x1 PUSH1 0x1 PUSH1 0xA0 SHL SUB SWAP2 DUP3 AND PUSH1 0x4 DUP3 ADD MSTORE PUSH1 0x24 DUP2 ADD DUP6 SWAP1 MSTORE SWAP4 SWAP11 SWAP5 SWAP7 SWAP6 SWAP4 SWAP3 SWAP2 SWAP1 PUSH1 0x20 SWAP1 DUP5 SWAP1 PUSH1 0x44 SWAP1 DUP3 SWAP1 DUP16 SWAP1 DUP7 AND GAS CALL SWAP3 DUP4 ISZERO PUSH2 0xED5 JUMPI DUP10 PUSH2 0xE5A SWAP4 PUSH2 0xE30 SWAP3 PUSH1 0x20 SWAP7 PUSH2 0xEB8 JUMPI JUMPDEST POP PUSH2 0x2AAB JUMP JUMPDEST PUSH1 0x40 MLOAD PUSH4 0xA9059CBB PUSH1 0xE0 SHL DUP2 MSTORE CALLER PUSH1 0x4 DUP3 ADD MSTORE PUSH1 0x24 DUP2 ADD SWAP2 SWAP1 SWAP2 MSTORE SWAP11 DUP12 SWAP3 DUP4 SWAP2 SWAP1 DUP3 SWAP1 PUSH1 0x44 DUP3 ADD SWAP1 JUMP JUMPDEST SUB SWAP3 PUSH1 0x1 PUSH1 0x1 PUSH1 0xA0 SHL SUB AND GAS CALL SWAP4 DUP5 ISZERO PUSH2 0xEAD JUMPI PUSH2 0x918 SWAP9 PUSH1 0x1 PUSH1 0x1 PUSH1 0x80 SHL SUB SWAP6 PUSH2 0xE8E JUMPI JUMPDEST DUP2 SWAP4 SWAP10 POP DUP11 SWAP3 SWAP5 SWAP6 POP PUSH2 0xD84 JUMP JUMPDEST PUSH2 0xEA6 SWAP1 PUSH1 0x20 RETURNDATASIZE PUSH1 0x20 GT PUSH2 0x6A9 JUMPI PUSH2 0x69B DUP2 DUP4 PUSH2 0x22FD JUMP JUMPDEST POP CODESIZE PUSH2 0xE80 JUMP JUMPDEST PUSH1 0x40 MLOAD RETURNDATASIZE DUP12 DUP3 RETURNDATACOPY RETURNDATASIZE SWAP1 REVERT JUMPDEST PUSH2 0xECE SWAP1 DUP8 RETURNDATASIZE DUP10 GT PUSH2 0x6A9 JUMPI PUSH2 0x69B DUP2 DUP4 PUSH2 0x22FD JUMP JUMPDEST POP CODESIZE PUSH2 0xE2A JUMP JUMPDEST PUSH1 0x40 MLOAD RETURNDATASIZE DUP14 DUP3 RETURNDATACOPY RETURNDATASIZE SWAP1 REVERT JUMPDEST PUSH1 0x7 SLOAD PUSH1 0x40 MLOAD PUSH4 0x95EA7B3 PUSH1 0xE0 SHL DUP2 MSTORE PUSH1 0x1 PUSH1 0x1 PUSH1 0xA0 SHL SUB SWAP2 DUP3 AND PUSH1 0x4 DUP3 ADD MSTORE PUSH1 0x24 DUP2 ADD DUP8 SWAP1 MSTORE SWAP3 SWAP1 PUSH1 0x20 SWAP1 DUP5 SWAP1 PUSH1 0x44 SWAP1 DUP3 SWAP1 DUP11 SWAP1 DUP8 AND GAS CALL SWAP2 DUP3 ISZERO PUSH2 0xFA9 JUMPI PUSH2 0xF37 DUP12 PUSH2 0xF61 SWAP4 DUP10 SWAP7 PUSH1 0x20 SWAP7 PUSH2 0xEB8 JUMPI POP PUSH2 0x2AAB JUMP JUMPDEST PUSH1 0x40 MLOAD PUSH4 0xA9059CBB PUSH1 0xE0 SHL DUP2 MSTORE CALLER PUSH1 0x4 DUP3 ADD MSTORE PUSH1 0x24 DUP2 ADD SWAP2 SWAP1 SWAP2 MSTORE SWAP4 DUP5 SWAP3 DUP4 SWAP2 SWAP1 DUP3 SWAP1 PUSH1 0x44 DUP3 ADD SWAP1 JUMP JUMPDEST SUB SWAP3 PUSH1 0x1 PUSH1 0x1 PUSH1 0xA0 SHL SUB AND GAS CALL DUP1 ISZERO PUSH2 0xF9E JUMPI PUSH2 0xF7F JUMPI JUMPDEST DUP1 PUSH2 0xD7A JUMP JUMPDEST PUSH2 0xF97 SWAP1 PUSH1 0x20 RETURNDATASIZE PUSH1 0x20 GT PUSH2 0x6A9 JUMPI PUSH2 0x69B DUP2 DUP4 PUSH2 0x22FD JUMP JUMPDEST POP CODESIZE PUSH2 0xF79 JUMP JUMPDEST PUSH1 0x40 MLOAD RETURNDATASIZE DUP7 DUP3 RETURNDATACOPY RETURNDATASIZE SWAP1 REVERT JUMPDEST PUSH1 0x40 MLOAD RETURNDATASIZE DUP9 DUP3 RETURNDATACOPY RETURNDATASIZE SWAP1 REVERT JUMPDEST SWAP8 POP SWAP9 POP SWAP10 POP SWAP6 POP PUSH1 0x80 DUP6 RETURNDATASIZE PUSH1 0x80 GT PUSH2 0x1002 JUMPI JUMPDEST DUP2 PUSH2 0xFD5 PUSH1 0x80 SWAP4 DUP4 PUSH2 0x22FD JUMP JUMPDEST DUP2 ADD SUB SLT PUSH2 0x6BB JUMPI DUP5 MLOAD SWAP6 PUSH2 0xFEC PUSH1 0x20 DUP8 ADD PUSH2 0x2A97 JUMP JUMPDEST SWAP10 PUSH1 0x60 PUSH1 0x40 DUP9 ADD MLOAD SWAP8 ADD MLOAD SWAP8 SWAP11 SWAP7 SWAP8 SWAP9 CODESIZE PUSH2 0xD71 JUMP JUMPDEST RETURNDATASIZE SWAP2 POP PUSH2 0xFC8 JUMP JUMPDEST PUSH4 0x4E487B71 PUSH1 0xE0 SHL DUP11 MSTORE PUSH1 0x41 PUSH1 0x4 MSTORE PUSH1 0x24 DUP11 REVERT JUMPDEST PUSH1 0x40 MLOAD PUSH3 0x461BCD PUSH1 0xE5 SHL DUP2 MSTORE PUSH1 0x20 PUSH1 0x4 DUP3 ADD MSTORE PUSH1 0x12 PUSH1 0x24 DUP3 ADD MSTORE PUSH18 0x5469636B73206F7574206F662072616E6765 PUSH1 0x70 SHL PUSH1 0x44 DUP3 ADD MSTORE PUSH1 0x64 SWAP1 REVERT JUMPDEST POP PUSH3 0xD89E8 DUP4 SGT ISZERO PUSH2 0xC1E JUMP JUMPDEST POP PUSH3 0xD89E7 NOT DUP3 PUSH1 0x2 SIGNEXTEND SLT ISZERO PUSH2 0xC18 JUMP JUMPDEST PUSH1 0x40 MLOAD PUSH3 0x461BCD PUSH1 0xE5 SHL DUP2 MSTORE PUSH1 0x20 PUSH1 0x4 DUP3 ADD MSTORE PUSH1 0x13 PUSH1 0x24 DUP3 ADD MSTORE PUSH19 0x496E76616C69642070726963652072616E6765 PUSH1 0x68 SHL PUSH1 0x44 DUP3 ADD MSTORE PUSH1 0x64 SWAP1 REVERT JUMPDEST PUSH1 0x1 PUSH1 0x1 PUSH1 0xA0 SHL SUB DUP5 AND GT SWAP1 POP CODESIZE PUSH2 0xBF0 JUMP JUMPDEST PUSH20 0xFFFD8963EFD1FC6A506488495D951D5263988D26 PUSH1 0x1 PUSH1 0x1 PUSH1 0xA0 SHL SUB DUP6 AND GT ISZERO SWAP2 POP PUSH2 0xBEA JUMP JUMPDEST PUSH2 0x1104 SWAP1 PUSH1 0x20 RETURNDATASIZE PUSH1 0x20 GT PUSH2 0x6A9 JUMPI PUSH2 0x69B DUP2 DUP4 PUSH2 0x22FD JUMP JUMPDEST POP CODESIZE PUSH2 0xBCE JUMP JUMPDEST PUSH1 0x40 MLOAD RETURNDATASIZE DUP13 DUP3 RETURNDATACOPY RETURNDATASIZE SWAP1 REVERT JUMPDEST PUSH2 0x112E SWAP1 PUSH1 0x20 RETURNDATASIZE PUSH1 0x20 GT PUSH2 0x6A9 JUMPI PUSH2 0x69B DUP2 DUP4 PUSH2 0x22FD JUMP JUMPDEST POP CODESIZE PUSH2 0xB84 JUMP JUMPDEST PUSH2 0x114D SWAP1 PUSH1 0x20 RETURNDATASIZE PUSH1 0x20 GT PUSH2 0x6A9 JUMPI PUSH2 0x69B DUP2 DUP4 PUSH2 0x22FD JUMP JUMPDEST POP CODESIZE PUSH2 0xB3A JUMP JUMPDEST PUSH2 0x116C SWAP1 PUSH1 0x20 RETURNDATASIZE PUSH1 0x20 GT PUSH2 0x6A9 JUMPI PUSH2 0x69B DUP2 DUP4 PUSH2 0x22FD JUMP JUMPDEST POP CODESIZE PUSH2 0xAFB JUMP JUMPDEST PUSH2 0x118D SWAP2 SWAP8 POP PUSH1 0x20 RETURNDATASIZE PUSH1 0x20 GT PUSH2 0x31B JUMPI PUSH2 0x30C DUP2 DUP4 PUSH2 0x22FD JUMP JUMPDEST SWAP6 CODESIZE PUSH2 0xABC JUMP JUMPDEST PUSH1 0x40 MLOAD PUSH3 0x461BCD PUSH1 0xE5 SHL DUP2 MSTORE PUSH1 0x20 PUSH1 0x4 DUP3 ADD MSTORE PUSH1 0x11 PUSH1 0x24 DUP3 ADD MSTORE PUSH17 0xC6C2DCDCDEE840CAF0CAC6EAE8CA40E8F PUSH1 0x7B SHL PUSH1 0x44 DUP3 ADD MSTORE PUSH1 0x64 SWAP1 REVERT JUMPDEST POP PUSH1 0x2 SLOAD PUSH1 0x4 CALLDATALOAD GT ISZERO PUSH2 0x371 JUMP JUMPDEST POP CALLVALUE PUSH2 0x211 JUMPI PUSH1 0x40 CALLDATASIZE PUSH1 0x3 NOT ADD SLT PUSH2 0x211 JUMPI PUSH1 0x4 CALLDATALOAD SWAP1 PUSH1 0x24 SWAP2 DUP3 CALLDATALOAD CALLER DUP4 MSTORE PUSH1 0x1 SWAP4 PUSH1 0x20 SWAP1 DUP6 DUP3 MSTORE PUSH2 0x1212 PUSH1 0xFF PUSH1 0x40 DUP8 KECCAK256 SLOAD AND PUSH2 0x2378 JUMP JUMPDEST PUSH2 0x121C DUP4 DUP6 PUSH2 0x2BAD JUMP JUMPDEST SWAP3 PUSH1 0x2 SWAP1 DUP2 SLOAD DUP1 SWAP6 GT PUSH2 0x1420 JUMPI DUP1 PUSH2 0x123D PUSH2 0x1237 DUP3 DUP10 PUSH2 0x2BAD JUMP JUMPDEST DUP8 PUSH2 0x2B49 JUMP JUMPDEST LT ISZERO PUSH2 0x1419 JUMPI PUSH2 0x1256 PUSH2 0x1250 DUP3 DUP9 PUSH2 0x2BAD JUMP JUMPDEST DUP7 PUSH2 0x2B49 JUMP JUMPDEST SWAP6 JUMPDEST PUSH2 0x1261 DUP8 PUSH2 0x2557 JUMP JUMPDEST SWAP7 PUSH2 0x126F PUSH1 0x40 MLOAD SWAP9 DUP10 PUSH2 0x22FD JUMP JUMPDEST DUP1 DUP9 MSTORE PUSH2 0x127E PUSH1 0x1F NOT SWAP2 PUSH2 0x2557 JUMP JUMPDEST ADD DUP6 DUP10 JUMPDEST DUP3 DUP2 LT PUSH2 0x1403 JUMPI POP POP POP DUP9 DUP9 SWAP1 JUMPDEST PUSH2 0x12FA JUMPI JUMPDEST POP POP POP POP POP PUSH1 0x40 MLOAD SWAP4 PUSH1 0x40 DUP6 ADD PUSH1 0x40 DUP7 MSTORE DUP5 MLOAD DUP1 SWAP2 MSTORE PUSH1 0x60 DUP7 ADD DUP4 PUSH1 0x60 DUP4 PUSH1 0x5 SHL DUP10 ADD ADD SWAP7 ADD SWAP3 SWAP1 JUMPDEST DUP3 DUP3 LT PUSH2 0x12D1 JUMPI DUP8 DUP1 DUP9 DUP9 DUP9 DUP4 ADD MSTORE SUB SWAP1 RETURN JUMPDEST SWAP1 SWAP2 SWAP3 SWAP6 DUP5 DUP1 PUSH2 0x12EC DUP12 SWAP4 PUSH1 0x5F NOT DUP13 DUP3 SUB ADD DUP7 MSTORE DUP11 MLOAD PUSH2 0x21BE JUMP JUMPDEST SWAP9 ADD SWAP3 ADD SWAP3 ADD SWAP1 SWAP3 SWAP2 PUSH2 0x12BE JUMP JUMPDEST DUP8 MLOAD DUP2 LT ISZERO PUSH2 0x13FE JUMPI PUSH2 0x130D DUP4 DUP4 PUSH2 0x2BAD JUMP JUMPDEST DUP11 DUP3 ADD SWAP1 DUP2 DUP4 GT PUSH2 0x13EB JUMPI SWAP1 PUSH2 0x1322 SWAP2 PUSH2 0x256E JUMP JUMPDEST DUP10 MSTORE DUP10 PUSH1 0x7 DUP11 PUSH2 0x460 PUSH2 0x1372 PUSH1 0x40 PUSH1 0x3 SWAP4 DUP5 DUP14 MSTORE KECCAK256 SWAP3 PUSH1 0x40 MLOAD SWAP6 PUSH2 0x1345 DUP8 PUSH2 0x2298 JUMP JUMPDEST PUSH1 0x1 DUP1 PUSH1 0xA0 SHL SUB SWAP1 DUP2 DUP7 SLOAD AND DUP9 MSTORE DUP6 ADD SLOAD AND DUP13 DUP8 ADD MSTORE DUP10 DUP5 ADD SLOAD PUSH1 0x40 DUP8 ADD MSTORE PUSH1 0x40 MLOAD SWAP3 DUP4 DUP1 SWAP3 DUP7 ADD PUSH2 0x24C1 JUMP JUMPDEST PUSH1 0x60 DUP5 ADD MSTORE PUSH1 0x40 MLOAD PUSH2 0x138B DUP2 PUSH2 0x460 DUP2 PUSH1 0x4 DUP7 ADD PUSH2 0x24C1 JUMP JUMPDEST PUSH1 0x80 DUP5 ADD MSTORE PUSH2 0x139C PUSH1 0x5 DUP3 ADD PUSH2 0x231E JUMP JUMPDEST PUSH1 0xA0 DUP5 ADD MSTORE PUSH1 0x6 DUP2 ADD SLOAD PUSH1 0xC0 DUP5 ADD MSTORE ADD SLOAD PUSH1 0xE0 DUP3 ADD MSTORE PUSH2 0x13BC DUP3 DUP11 PUSH2 0x2591 JUMP JUMPDEST MSTORE PUSH2 0x13C7 DUP2 DUP10 PUSH2 0x2591 JUMP JUMPDEST POP DUP10 DUP2 ADD DUP1 SWAP2 GT PUSH2 0x13D8 JUMPI DUP10 PUSH2 0x1290 JUMP JUMPDEST PUSH4 0x4E487B71 PUSH1 0xE0 SHL DUP10 MSTORE PUSH1 0x11 PUSH1 0x4 MSTORE DUP5 DUP10 REVERT JUMPDEST PUSH4 0x4E487B71 PUSH1 0xE0 SHL DUP12 MSTORE PUSH1 0x11 PUSH1 0x4 MSTORE DUP7 DUP12 REVERT JUMPDEST PUSH2 0x1295 JUMP JUMPDEST PUSH2 0x140B PUSH2 0x2448 JUMP JUMPDEST DUP3 DUP3 DUP13 ADD ADD MSTORE ADD DUP7 SWAP1 PUSH2 0x1282 JUMP JUMPDEST DUP1 SWAP6 PUSH2 0x1258 JUMP JUMPDEST PUSH1 0x40 MLOAD PUSH3 0x461BCD PUSH1 0xE5 SHL DUP2 MSTORE PUSH1 0x4 DUP2 ADD DUP6 SWAP1 MSTORE PUSH1 0x14 DUP2 DUP6 ADD MSTORE PUSH20 0x50616765206973204F7574206F662052616E6765 PUSH1 0x60 SHL PUSH1 0x44 DUP3 ADD MSTORE PUSH1 0x64 SWAP1 REVERT JUMPDEST POP CALLVALUE PUSH2 0x211 JUMPI PUSH1 0x40 CALLDATASIZE PUSH1 0x3 NOT ADD SLT PUSH2 0x211 JUMPI PUSH1 0x4 CALLDATALOAD PUSH1 0x1 PUSH1 0x1 PUSH1 0xA0 SHL SUB DUP2 AND SWAP1 DUP2 SWAP1 SUB PUSH2 0x6BB JUMPI PUSH1 0x24 CALLDATALOAD SWAP1 DUP2 SELFBALANCE LT PUSH2 0x14B9 JUMPI DUP3 DUP1 DUP1 SWAP4 DUP2 SWAP4 DUP3 DUP3 ISZERO PUSH2 0x14B0 JUMPI JUMPDEST CALL ISZERO PUSH2 0x14A4 JUMPI DUP1 RETURN JUMPDEST PUSH1 0x40 MLOAD SWAP1 RETURNDATASIZE SWAP1 DUP3 RETURNDATACOPY RETURNDATASIZE SWAP1 REVERT JUMPDEST POP PUSH2 0x8FC PUSH2 0x149B JUMP JUMPDEST PUSH1 0x40 MLOAD PUSH3 0x461BCD PUSH1 0xE5 SHL DUP2 MSTORE PUSH1 0x20 PUSH1 0x4 DUP3 ADD MSTORE PUSH1 0x24 DUP1 DUP3 ADD MSTORE PUSH32 0x496E73756666696369656E742062616C616E636520696E2074686520636F6E74 PUSH1 0x44 DUP3 ADD MSTORE PUSH4 0x1C9858DD PUSH1 0xE2 SHL PUSH1 0x64 DUP3 ADD MSTORE PUSH1 0x84 SWAP1 REVERT JUMPDEST POP CALLVALUE PUSH2 0x211 JUMPI PUSH1 0x20 DUP1 PUSH1 0x3 NOT CALLDATASIZE ADD SLT PUSH2 0x6BB JUMPI PUSH1 0x4 CALLDATALOAD SWAP1 CALLER DUP4 MSTORE PUSH1 0x1 DUP2 MSTORE PUSH2 0x1538 PUSH1 0xFF PUSH1 0x40 DUP6 KECCAK256 SLOAD AND PUSH2 0x2378 JUMP JUMPDEST DUP2 ISZERO ISZERO DUP1 PUSH2 0x16CB JUMPI JUMPDEST PUSH2 0x154A SWAP1 PUSH2 0x23B0 JUMP JUMPDEST DUP2 DUP4 MSTORE PUSH1 0x3 DUP2 MSTORE PUSH1 0x40 DUP4 KECCAK256 PUSH1 0x1 ADD SLOAD PUSH2 0x156C SWAP1 PUSH1 0x1 PUSH1 0x1 PUSH1 0xA0 SHL SUB AND ISZERO PUSH2 0x23FC JUMP JUMPDEST DUP2 DUP4 MSTORE PUSH1 0x4 DUP2 MSTORE PUSH1 0x40 DUP4 KECCAK256 CALLER DUP5 MSTORE DUP2 MSTORE PUSH1 0xFF PUSH1 0x40 DUP5 KECCAK256 SLOAD AND PUSH2 0x1687 JUMPI DUP2 DUP4 MSTORE PUSH1 0x3 DUP2 MSTORE PUSH1 0x5 PUSH1 0x40 DUP5 KECCAK256 ADD DUP1 SLOAD SWAP1 PUSH9 0x10000000000000000 DUP3 LT ISZERO PUSH2 0x1673 JUMPI PUSH1 0x1 DUP3 ADD DUP1 DUP3 SSTORE DUP3 LT ISZERO PUSH2 0x165F JUMPI DUP5 MSTORE DUP2 DUP5 KECCAK256 ADD DUP1 SLOAD PUSH1 0x1 PUSH1 0x1 PUSH1 0xA0 SHL SUB NOT AND CALLER OR SWAP1 SSTORE DUP2 DUP4 MSTORE PUSH1 0x3 DUP2 MSTORE PUSH1 0x40 DUP4 KECCAK256 PUSH1 0x2 ADD SLOAD PUSH1 0x1 DUP2 ADD SWAP1 DUP2 LT PUSH2 0x164B JUMPI SWAP1 PUSH1 0x3 SWAP2 DUP4 DUP6 MSTORE DUP3 DUP3 MSTORE PUSH1 0x2 PUSH1 0x40 DUP7 KECCAK256 ADD SSTORE PUSH1 0x4 DUP2 MSTORE PUSH1 0x40 DUP5 KECCAK256 CALLER DUP6 MSTORE DUP2 MSTORE PUSH1 0x40 DUP5 KECCAK256 PUSH1 0x1 PUSH1 0xFF NOT DUP3 SLOAD AND OR SWAP1 SSTORE DUP3 DUP5 MSTORE MSTORE TIMESTAMP PUSH1 0x7 PUSH1 0x40 DUP5 KECCAK256 ADD SSTORE CALLER PUSH32 0x5CBE105E36805F7820E291F799D5794FF948AF2A5F664E580382DEFB63390041 DUP4 DUP1 LOG3 DUP1 RETURN JUMPDEST PUSH4 0x4E487B71 PUSH1 0xE0 SHL DUP5 MSTORE PUSH1 0x11 PUSH1 0x4 MSTORE PUSH1 0x24 DUP5 REVERT JUMPDEST PUSH4 0x4E487B71 PUSH1 0xE0 SHL DUP6 MSTORE PUSH1 0x32 PUSH1 0x4 MSTORE PUSH1 0x24 DUP6 REVERT JUMPDEST PUSH4 0x4E487B71 PUSH1 0xE0 SHL DUP6 MSTORE PUSH1 0x41 PUSH1 0x4 MSTORE PUSH1 0x24 DUP6 REVERT JUMPDEST PUSH1 0x64 SWAP1 PUSH1 0x40 MLOAD SWAP1 PUSH3 0x461BCD PUSH1 0xE5 SHL DUP3 MSTORE PUSH1 0x4 DUP3 ADD MSTORE PUSH1 0x1D PUSH1 0x24 DUP3 ADD MSTORE PUSH32 0x5472616E73616374696F6E20616C726561647920636F6E6669726D6564000000 PUSH1 0x44 DUP3 ADD MSTORE REVERT JUMPDEST POP PUSH1 0x2 SLOAD DUP3 GT ISZERO PUSH2 0x1541 JUMP JUMPDEST POP CALLVALUE PUSH2 0x211 JUMPI PUSH1 0xA0 CALLDATASIZE PUSH1 0x3 NOT ADD SLT PUSH2 0x211 JUMPI PUSH2 0x16F1 PUSH2 0x2152 JUMP JUMPDEST SWAP1 PUSH2 0x16FA PUSH2 0x2168 JUMP JUMPDEST SWAP2 PUSH1 0x84 CALLDATALOAD SWAP1 PUSH3 0xFFFFFF DUP3 AND DUP1 SWAP3 SUB PUSH2 0x83C JUMPI CALLER DUP4 MSTORE PUSH1 0x1 PUSH1 0x20 MSTORE PUSH2 0x1724 PUSH1 0xFF PUSH1 0x40 DUP6 KECCAK256 SLOAD AND PUSH2 0x2378 JUMP JUMPDEST PUSH1 0x40 MLOAD SWAP4 PUSH1 0x1 DUP1 PUSH1 0xA0 SHL SUB DUP1 SWAP3 AND PUSH1 0x20 DUP7 ADD MSTORE AND PUSH1 0x40 DUP5 ADD MSTORE PUSH1 0x44 CALLDATALOAD PUSH1 0x60 DUP5 ADD MSTORE PUSH1 0x64 CALLDATALOAD PUSH1 0x80 DUP5 ADD MSTORE PUSH1 0xA0 DUP4 ADD MSTORE PUSH1 0xA0 DUP3 MSTORE PUSH1 0xC0 DUP3 ADD SWAP1 DUP3 DUP3 LT PUSH1 0x1 PUSH1 0x1 PUSH1 0x40 SHL SUB DUP4 GT OR PUSH2 0x1799 JUMPI PUSH1 0x20 PUSH2 0x1EE DUP5 DUP5 DUP1 PUSH1 0x40 MSTORE PUSH2 0x1781 DUP2 PUSH2 0x22E2 JUMP JUMPDEST PUSH1 0x5 DUP2 MSTORE PUSH5 0x5F7377617 PUSH1 0xDC SHL PUSH1 0xE0 DUP4 ADD MSTORE CALLER PUSH2 0x26D2 JUMP JUMPDEST PUSH4 0x4E487B71 PUSH1 0xE0 SHL DUP2 MSTORE PUSH1 0x41 PUSH1 0x4 MSTORE PUSH1 0x24 SWAP1 REVERT JUMPDEST POP CALLVALUE PUSH2 0x211 JUMPI DUP1 DUP1 PUSH2 0x17BE CALLDATASIZE PUSH2 0x212C JUMP JUMPDEST SWAP2 SWAP1 PUSH1 0x40 MLOAD PUSH2 0x17CC DUP2 PUSH2 0x227D JUMP JUMPDEST DUP2 DUP2 MSTORE PUSH1 0x1 PUSH1 0x1 PUSH1 0x80 SHL SUB SWAP4 DUP5 AND PUSH1 0x20 DUP3 ADD MSTORE PUSH1 0x40 DUP1 DUP3 ADD DUP5 SWAP1 MSTORE PUSH1 0x60 DUP3 ADD DUP5 SWAP1 MSTORE TIMESTAMP PUSH1 0x80 DUP4 ADD MSTORE PUSH1 0x7 SLOAD DUP2 MLOAD PUSH4 0x624E65F PUSH1 0xE1 SHL DUP2 MSTORE SWAP7 PUSH1 0x1 PUSH1 0x1 PUSH1 0xA0 SHL SUB SWAP4 DUP9 SWAP3 DUP6 AND SWAP2 DUP4 SWAP2 DUP3 SWAP1 PUSH2 0x1823 SWAP1 PUSH1 0x4 DUP4 ADD PUSH2 0x2B0C JUMP JUMPDEST SUB SWAP3 GAS CALL SWAP4 DUP5 ISZERO PUSH2 0x322 JUMPI DUP4 SWAP6 DUP5 SWAP6 PUSH2 0x18EB JUMPI JUMPDEST POP SWAP2 PUSH2 0x187E SWAP2 PUSH1 0x40 SWAP4 DUP5 MLOAD SWAP3 PUSH2 0x184C DUP5 PUSH2 0x22B4 JUMP JUMPDEST DUP4 MSTORE ADDRESS PUSH1 0x20 DUP5 ADD MSTORE DUP1 DUP6 DUP5 ADD MSTORE PUSH1 0x60 DUP4 ADD MSTORE PUSH1 0x7 SLOAD AND SWAP1 DUP4 MLOAD SWAP8 DUP9 DUP1 SWAP5 DUP2 SWAP4 PUSH4 0xFC6F7865 PUSH1 0xE0 SHL DUP4 MSTORE PUSH1 0x4 DUP4 ADD PUSH2 0x2ACE JUMP JUMPDEST SUB SWAP3 GAS CALL SWAP2 DUP3 ISZERO PUSH2 0x18DE JUMPI PUSH1 0x80 SWAP5 DUP3 SWAP4 PUSH2 0x18AB JUMPI JUMPDEST POP PUSH1 0x40 MLOAD SWAP4 DUP5 MSTORE PUSH1 0x20 DUP5 ADD MSTORE PUSH1 0x40 DUP4 ADD MSTORE PUSH1 0x60 DUP3 ADD MSTORE RETURN JUMPDEST SWAP1 SWAP3 POP PUSH2 0x18D0 SWAP2 POP PUSH1 0x40 RETURNDATASIZE PUSH1 0x40 GT PUSH2 0x18D7 JUMPI JUMPDEST PUSH2 0x18C8 DUP2 DUP4 PUSH2 0x22FD JUMP JUMPDEST DUP2 ADD SWAP1 PUSH2 0x2AB8 JUMP JUMPDEST SWAP2 CODESIZE PUSH2 0x1893 JUMP JUMPDEST POP RETURNDATASIZE PUSH2 0x18BE JUMP JUMPDEST POP PUSH1 0x40 MLOAD SWAP1 RETURNDATASIZE SWAP1 DUP3 RETURNDATACOPY RETURNDATASIZE SWAP1 REVERT JUMPDEST PUSH2 0x187E SWAP3 SWAP7 POP PUSH1 0x40 SWAP4 SWAP2 SWAP6 POP PUSH2 0x190D SWAP1 DUP5 RETURNDATASIZE DUP7 GT PUSH2 0x18D7 JUMPI PUSH2 0x18C8 DUP2 DUP4 PUSH2 0x22FD JUMP JUMPDEST SWAP7 SWAP1 SWAP7 SWAP6 SWAP2 SWAP4 POP SWAP2 PUSH2 0x1837 JUMP JUMPDEST POP CALLVALUE PUSH2 0x211 JUMPI DUP1 PUSH1 0x3 NOT CALLDATASIZE ADD SLT PUSH2 0x211 JUMPI PUSH1 0x20 PUSH1 0x40 MLOAD PUSH20 0xC36442B4A4522E871399CD717ABDD847AB11FE88 DUP2 MSTORE RETURN JUMPDEST POP CALLVALUE PUSH2 0x211 JUMPI DUP1 PUSH1 0x3 NOT CALLDATASIZE ADD SLT PUSH2 0x211 JUMPI PUSH1 0x40 MLOAD DUP1 SWAP2 DUP1 SLOAD SWAP1 DUP2 DUP4 MSTORE PUSH1 0x20 DUP1 SWAP4 ADD DUP1 SWAP3 DUP3 DUP1 MSTORE PUSH32 0x290DECD9548B62A8D60345A988386FC84BA6BC95484008F6362F93160EF3E563 SWAP1 DUP4 JUMPDEST DUP2 DUP2 LT PUSH2 0x19F0 JUMPI POP POP POP DUP5 PUSH2 0x19A9 SWAP2 SUB DUP6 PUSH2 0x22FD JUMP JUMPDEST PUSH1 0x40 MLOAD SWAP4 DUP4 DUP6 SWAP5 DUP6 ADD SWAP2 DUP2 DUP7 MSTORE MLOAD DUP1 SWAP3 MSTORE PUSH1 0x40 DUP6 ADD SWAP4 SWAP3 JUMPDEST DUP3 DUP2 LT PUSH2 0x19D0 JUMPI POP POP POP POP SUB SWAP1 RETURN JUMPDEST DUP4 MLOAD PUSH1 0x1 PUSH1 0x1 PUSH1 0xA0 SHL SUB AND DUP6 MSTORE DUP7 SWAP6 POP SWAP4 DUP2 ADD SWAP4 SWAP3 DUP2 ADD SWAP3 PUSH1 0x1 ADD PUSH2 0x19C1 JUMP JUMPDEST DUP3 SLOAD PUSH1 0x1 PUSH1 0x1 PUSH1 0xA0 SHL SUB AND DUP5 MSTORE SWAP3 DUP7 ADD SWAP3 PUSH1 0x1 SWAP3 DUP4 ADD SWAP3 ADD PUSH2 0x1993 JUMP JUMPDEST POP CALLVALUE PUSH2 0x211 JUMPI PUSH1 0x60 CALLDATASIZE PUSH1 0x3 NOT ADD SLT PUSH2 0x211 JUMPI PUSH2 0x1A27 PUSH2 0x2152 JUMP JUMPDEST PUSH2 0x1A2F PUSH2 0x2168 JUMP JUMPDEST PUSH1 0x40 MLOAD PUSH4 0x70A08231 PUSH1 0xE0 SHL DUP2 MSTORE ADDRESS PUSH1 0x4 DUP3 ADD MSTORE PUSH1 0x20 SWAP3 PUSH1 0x44 CALLDATALOAD SWAP3 PUSH1 0x1 PUSH1 0x1 PUSH1 0xA0 SHL SUB SWAP1 SWAP2 AND SWAP2 DUP5 DUP2 PUSH1 0x24 DUP2 DUP7 GAS STATICCALL DUP1 ISZERO PUSH2 0xFA9 JUMPI DUP5 SWAP2 DUP8 SWAP2 PUSH2 0x1B0C JUMPI JUMPDEST POP LT PUSH2 0x1AD0 JUMPI PUSH1 0x40 MLOAD PUSH4 0xA9059CBB PUSH1 0xE0 SHL DUP2 MSTORE PUSH1 0x1 PUSH1 0x1 PUSH1 0xA0 SHL SUB SWAP2 SWAP1 SWAP2 AND PUSH1 0x4 DUP3 ADD MSTORE PUSH1 0x24 DUP2 ADD SWAP3 SWAP1 SWAP3 MSTORE DUP3 SWAP1 DUP3 SWAP1 PUSH1 0x44 SWAP1 DUP3 SWAP1 DUP8 SWAP1 GAS CALL DUP1 ISZERO PUSH2 0x322 JUMPI PUSH2 0x1AB3 JUMPI DUP3 DUP1 RETURN JUMPDEST DUP2 PUSH2 0x1AC9 SWAP3 SWAP1 RETURNDATASIZE LT PUSH2 0x6A9 JUMPI PUSH2 0x69B DUP2 DUP4 PUSH2 0x22FD JUMP JUMPDEST POP CODESIZE DUP1 DUP3 DUP1 RETURN JUMPDEST PUSH1 0x40 MLOAD PUSH3 0x461BCD PUSH1 0xE5 SHL DUP2 MSTORE PUSH1 0x4 DUP2 ADD DUP6 SWAP1 MSTORE PUSH1 0x14 PUSH1 0x24 DUP3 ADD MSTORE PUSH20 0x496E73756666696369656E742062616C616E6365 PUSH1 0x60 SHL PUSH1 0x44 DUP3 ADD MSTORE PUSH1 0x64 SWAP1 REVERT JUMPDEST DUP1 SWAP3 POP DUP7 DUP1 SWAP3 POP RETURNDATASIZE DUP4 GT PUSH2 0x1B3A JUMPI JUMPDEST PUSH2 0x1B25 DUP2 DUP4 PUSH2 0x22FD JUMP JUMPDEST DUP2 ADD SUB SLT PUSH2 0x1B36 JUMPI DUP4 SWAP1 MLOAD CODESIZE PUSH2 0x1A6C JUMP JUMPDEST DUP6 DUP1 REVERT JUMPDEST POP RETURNDATASIZE PUSH2 0x1B1B JUMP JUMPDEST POP CALLVALUE PUSH2 0x211 JUMPI PUSH1 0xA0 CALLDATASIZE PUSH1 0x3 NOT ADD SLT PUSH2 0x211 JUMPI PUSH2 0x1B5B PUSH2 0x2152 JUMP JUMPDEST PUSH2 0x1B63 PUSH2 0x2168 JUMP JUMPDEST PUSH1 0x40 MLOAD PUSH4 0x23B872DD PUSH1 0xE0 SHL DUP1 DUP3 MSTORE CALLER PUSH1 0x4 DUP4 ADD MSTORE ADDRESS PUSH1 0x24 DUP4 ADD MSTORE PUSH1 0x64 DUP1 CALLDATALOAD PUSH1 0x44 DUP5 ADD DUP2 SWAP1 MSTORE PUSH1 0x84 CALLDATALOAD SWAP6 PUSH1 0x20 SWAP6 PUSH1 0x1 PUSH1 0x1 PUSH1 0xA0 SHL SUB SWAP6 SWAP3 SWAP5 SWAP1 DUP7 AND SWAP4 SWAP2 DUP7 AND SWAP3 SWAP1 SWAP2 DUP8 SWAP1 DUP3 SWAP1 DUP2 DUP13 DUP8 GAS CALL DUP1 ISZERO PUSH2 0xEAD JUMPI PUSH2 0x1DF3 JUMPI JUMPDEST POP PUSH1 0x40 MLOAD SWAP1 DUP2 MSTORE CALLER PUSH1 0x4 DUP3 ADD MSTORE ADDRESS PUSH1 0x24 DUP3 ADD MSTORE PUSH1 0x44 DUP2 ADD DUP8 SWAP1 MSTORE DUP6 DUP2 PUSH1 0x64 DUP2 DUP12 DUP8 GAS CALL DUP1 ISZERO PUSH2 0x1DCB JUMPI PUSH2 0x1DD6 JUMPI JUMPDEST POP PUSH1 0x7 SLOAD PUSH1 0x40 MLOAD PUSH4 0x95EA7B3 PUSH1 0xE0 SHL DUP1 DUP3 MSTORE SWAP2 DUP7 AND PUSH1 0x1 PUSH1 0x1 PUSH1 0xA0 SHL SUB AND PUSH1 0x4 DUP3 ADD MSTORE PUSH1 0x24 DUP2 ADD DUP6 SWAP1 MSTORE SWAP1 SWAP3 SWAP1 SWAP2 DUP7 SWAP1 DUP4 SWAP1 DUP2 DUP12 DUP2 PUSH1 0x44 DUP2 ADD SUB SWAP3 GAS CALL SWAP1 DUP2 ISZERO PUSH2 0x1DCB JUMPI PUSH2 0x1C6B SWAP4 DUP8 SWAP4 DUP10 SWAP4 PUSH2 0x1DAE JUMPI JUMPDEST POP PUSH1 0x7 SLOAD PUSH1 0x40 MLOAD SWAP2 DUP3 MSTORE DUP8 AND PUSH1 0x1 PUSH1 0x1 PUSH1 0xA0 SHL SUB AND PUSH1 0x4 DUP3 ADD MSTORE PUSH1 0x24 DUP2 ADD SWAP3 SWAP1 SWAP3 MSTORE SWAP1 SWAP3 DUP4 SWAP2 SWAP1 DUP3 SWAP1 DUP11 SWAP1 DUP3 SWAP1 PUSH1 0x44 DUP3 ADD SWAP1 JUMP JUMPDEST SUB SWAP3 GAS CALL DUP1 ISZERO PUSH2 0xFA9 JUMPI PUSH2 0x1D91 JUMPI JUMPDEST POP PUSH1 0x40 MLOAD PUSH1 0xC0 DUP2 ADD DUP2 DUP2 LT PUSH1 0x1 PUSH1 0x1 PUSH1 0x40 SHL SUB DUP3 GT OR PUSH2 0x1D7D JUMPI DUP7 SWAP4 SWAP3 SWAP2 PUSH1 0xC4 SWAP2 PUSH1 0x40 MSTORE PUSH1 0x44 CALLDATALOAD DUP2 MSTORE DUP6 DUP2 ADD SWAP3 DUP4 MSTORE PUSH1 0x40 DUP2 ADD SWAP7 DUP8 MSTORE PUSH1 0x60 SWAP8 DUP9 SWAP5 DUP6 DUP4 ADD SWAP1 DUP3 DUP3 MSTORE PUSH1 0x80 DUP5 ADD DUP4 DUP2 MSTORE PUSH1 0xA0 DUP6 ADD SWAP2 TIMESTAMP DUP4 MSTORE PUSH1 0x7 SLOAD AND SWAP3 PUSH1 0x40 MLOAD SWAP12 DUP13 SWAP9 DUP10 SWAP8 PUSH4 0x219F5D17 PUSH1 0xE0 SHL DUP10 MSTORE MLOAD PUSH1 0x4 DUP10 ADD MSTORE MLOAD PUSH1 0x24 DUP9 ADD MSTORE MLOAD PUSH1 0x44 DUP8 ADD MSTORE MLOAD PUSH1 0x64 DUP7 ADD MSTORE MLOAD PUSH1 0x84 DUP6 ADD MSTORE MLOAD PUSH1 0xA4 DUP5 ADD MSTORE GAS CALL SWAP2 DUP3 ISZERO PUSH2 0x18DE JUMPI DUP2 SWAP4 DUP3 DUP1 SWAP5 PUSH2 0x1D34 JUMPI JUMPDEST POP POP PUSH1 0x1 PUSH1 0x1 PUSH1 0x80 SHL SUB PUSH1 0x40 MLOAD SWAP5 AND DUP5 MSTORE DUP4 ADD MSTORE PUSH1 0x40 DUP3 ADD MSTORE RETURN JUMPDEST SWAP3 POP DUP1 SWAP5 POP DUP6 DUP1 SWAP3 SWAP5 POP RETURNDATASIZE DUP4 GT PUSH2 0x1D76 JUMPI JUMPDEST PUSH2 0x1D50 DUP2 DUP4 PUSH2 0x22FD JUMP JUMPDEST DUP2 ADD SUB SLT PUSH2 0x211 JUMPI POP PUSH2 0x1D62 DUP3 PUSH2 0x2A97 JUMP JUMPDEST PUSH1 0x40 DUP3 DUP5 ADD MLOAD SWAP4 ADD MLOAD SWAP1 SWAP3 SWAP1 SWAP2 CODESIZE DUP1 PUSH2 0x1D19 JUMP JUMPDEST POP RETURNDATASIZE PUSH2 0x1D46 JUMP JUMPDEST PUSH4 0x4E487B71 PUSH1 0xE0 SHL DUP8 MSTORE PUSH1 0x41 PUSH1 0x4 MSTORE PUSH1 0x24 DUP8 REVERT JUMPDEST PUSH2 0x1DA7 SWAP1 DUP5 RETURNDATASIZE DUP7 GT PUSH2 0x6A9 JUMPI PUSH2 0x69B DUP2 DUP4 PUSH2 0x22FD JUMP JUMPDEST POP CODESIZE PUSH2 0x1C7A JUMP JUMPDEST PUSH2 0x1DC4 SWAP1 DUP6 RETURNDATASIZE DUP8 GT PUSH2 0x6A9 JUMPI PUSH2 0x69B DUP2 DUP4 PUSH2 0x22FD JUMP JUMPDEST POP CODESIZE PUSH2 0x1C37 JUMP JUMPDEST PUSH1 0x40 MLOAD RETURNDATASIZE DUP11 DUP3 RETURNDATACOPY RETURNDATASIZE SWAP1 REVERT JUMPDEST PUSH2 0x1DEC SWAP1 DUP7 RETURNDATASIZE DUP9 GT PUSH2 0x6A9 JUMPI PUSH2 0x69B DUP2 DUP4 PUSH2 0x22FD JUMP JUMPDEST POP CODESIZE PUSH2 0x1BE6 JUMP JUMPDEST PUSH2 0x1E09 SWAP1 DUP8 RETURNDATASIZE DUP10 GT PUSH2 0x6A9 JUMPI PUSH2 0x69B DUP2 DUP4 PUSH2 0x22FD JUMP JUMPDEST POP CODESIZE PUSH2 0x1BB8 JUMP JUMPDEST POP CALLVALUE PUSH2 0x211 JUMPI PUSH1 0x40 CALLDATASIZE PUSH1 0x3 NOT ADD SLT PUSH2 0x211 JUMPI PUSH2 0x1EE PUSH2 0x1E74 PUSH2 0x1E82 PUSH1 0x20 SWAP4 PUSH2 0x1E4D PUSH1 0xFF PUSH1 0x40 PUSH2 0x1E3D PUSH2 0x2152 JUMP JUMPDEST SWAP4 CALLER DUP2 MSTORE PUSH1 0x1 DUP10 MSTORE KECCAK256 SLOAD AND PUSH2 0x2378 JUMP JUMPDEST PUSH1 0x40 DUP1 MLOAD PUSH1 0x1 PUSH1 0x1 PUSH1 0xA0 SHL SUB SWAP1 SWAP3 AND DUP7 DUP4 ADD SWAP1 DUP2 MSTORE PUSH1 0x24 CALLDATALOAD PUSH1 0x20 DUP3 ADD MSTORE SWAP2 SWAP4 DUP5 SWAP3 SWAP1 SWAP2 ADD SWAP1 JUMP JUMPDEST SUB PUSH1 0x1F NOT DUP2 ADD DUP4 MSTORE DUP3 PUSH2 0x22FD JUMP JUMPDEST PUSH1 0x40 MLOAD PUSH2 0x1E8E DUP2 PUSH2 0x22E2 JUMP JUMPDEST PUSH1 0xB DUP2 MSTORE PUSH11 0xBEEADCEEE4C2E0AE8AA89 PUSH1 0xAB SHL DUP5 DUP3 ADD MSTORE CALLER PUSH2 0x26D2 JUMP JUMPDEST POP CALLVALUE PUSH2 0x211 JUMPI PUSH1 0x20 CALLDATASIZE PUSH1 0x3 NOT ADD SLT PUSH2 0x211 JUMPI DUP1 PUSH1 0x40 PUSH2 0x1F12 DUP2 MLOAD PUSH2 0x1ECE DUP2 PUSH2 0x22B4 JUMP JUMPDEST PUSH1 0x4 CALLDATALOAD DUP2 MSTORE ADDRESS PUSH1 0x20 DUP3 ADD MSTORE PUSH1 0x1 PUSH1 0x1 PUSH1 0x80 SHL SUB DUP1 DUP5 DUP4 ADD MSTORE PUSH1 0x60 DUP3 ADD MSTORE PUSH1 0x1 DUP1 PUSH1 0xA0 SHL SUB PUSH1 0x7 SLOAD AND SWAP1 DUP4 MLOAD SWAP6 DUP7 DUP1 SWAP5 DUP2 SWAP4 PUSH4 0xFC6F7865 PUSH1 0xE0 SHL DUP4 MSTORE PUSH1 0x4 DUP4 ADD PUSH2 0x2ACE JUMP JUMPDEST SUB SWAP3 GAS CALL DUP1 ISZERO PUSH2 0x18DE JUMPI PUSH1 0x40 SWAP3 DUP3 SWAP2 PUSH2 0x1F33 JUMPI JUMPDEST POP DUP3 MLOAD SWAP2 DUP3 MSTORE PUSH1 0x20 DUP3 ADD MSTORE RETURN JUMPDEST SWAP1 POP PUSH2 0x1F4C SWAP2 POP DUP3 RETURNDATASIZE DUP5 GT PUSH2 0x18D7 JUMPI PUSH2 0x18C8 DUP2 DUP4 PUSH2 0x22FD JUMP JUMPDEST CODESIZE PUSH2 0x1F26 JUMP JUMPDEST POP CALLVALUE PUSH2 0x211 JUMPI PUSH1 0x20 SWAP1 DUP2 PUSH1 0x3 NOT CALLDATASIZE ADD SLT PUSH2 0x211 JUMPI PUSH1 0x40 SWAP1 PUSH2 0x1F71 PUSH2 0x2448 JUMP JUMPDEST POP CALLER DUP2 MSTORE PUSH1 0x1 DUP4 MSTORE PUSH2 0x1F88 PUSH1 0xFF DUP4 DUP4 KECCAK256 SLOAD AND PUSH2 0x2378 JUMP JUMPDEST PUSH1 0x4 CALLDATALOAD DUP2 MSTORE PUSH1 0x3 DUP4 MSTORE KECCAK256 SWAP1 PUSH1 0x7 PUSH1 0x40 MLOAD SWAP3 PUSH2 0x1FA2 DUP5 PUSH2 0x2298 JUMP JUMPDEST PUSH1 0x1 DUP1 PUSH1 0xA0 SHL SUB DUP1 DUP3 SLOAD AND DUP6 MSTORE PUSH1 0x1 DUP3 ADD SLOAD AND DUP4 DUP6 ADD MSTORE PUSH1 0x2 DUP2 ADD SLOAD PUSH1 0x40 DUP6 ADD MSTORE PUSH1 0x40 MLOAD PUSH2 0x1FD7 DUP2 PUSH2 0x460 DUP2 PUSH1 0x3 DUP7 ADD PUSH2 0x24C1 JUMP JUMPDEST PUSH1 0x60 DUP6 ADD MSTORE PUSH1 0x40 MLOAD PUSH2 0x1FF0 DUP2 PUSH2 0x460 DUP2 PUSH1 0x4 DUP7 ADD PUSH2 0x24C1 JUMP JUMPDEST PUSH1 0x80 DUP6 ADD MSTORE PUSH2 0x2001 PUSH1 0x5 DUP3 ADD PUSH2 0x231E JUMP JUMPDEST PUSH1 0xA0 DUP6 ADD MSTORE PUSH1 0x6 DUP2 ADD SLOAD PUSH1 0xC0 DUP6 ADD MSTORE ADD SLOAD PUSH1 0xE0 DUP4 ADD MSTORE PUSH2 0x202B PUSH1 0x40 MLOAD SWAP3 DUP3 DUP5 SWAP4 DUP5 MSTORE DUP4 ADD SWAP1 PUSH2 0x21BE JUMP JUMPDEST SUB SWAP1 RETURN JUMPDEST POP CALLVALUE PUSH2 0x211 JUMPI PUSH1 0x40 CALLDATASIZE PUSH1 0x3 NOT ADD SLT PUSH2 0x211 JUMPI PUSH2 0x1EE PUSH2 0x1E74 PUSH2 0x205C PUSH1 0x20 SWAP4 PUSH2 0x1E4D PUSH1 0xFF PUSH1 0x40 PUSH2 0x1E3D PUSH2 0x2152 JUMP JUMPDEST PUSH1 0x40 MLOAD PUSH2 0x2068 DUP2 PUSH2 0x22E2 JUMP JUMPDEST PUSH1 0x8 DUP2 MSTORE PUSH8 0xBEEEE4C2E08AA89 PUSH1 0xC3 SHL DUP5 DUP3 ADD MSTORE CALLER PUSH2 0x26D2 JUMP JUMPDEST DUP2 SWAP1 CALLVALUE PUSH2 0x2129 JUMPI PUSH2 0x20EA PUSH1 0x40 SWAP2 PUSH1 0x1 PUSH1 0x1 PUSH1 0x80 SHL SUB PUSH2 0x20A0 CALLDATASIZE PUSH2 0x212C JUMP JUMPDEST SWAP1 PUSH2 0x20AA DUP5 PUSH2 0x227D JUMP JUMPDEST DUP4 MSTORE AND PUSH1 0x20 DUP3 ADD MSTORE DUP4 DUP4 DUP3 ADD MSTORE DUP4 PUSH1 0x60 DUP3 ADD MSTORE TIMESTAMP PUSH1 0x80 DUP3 ADD MSTORE PUSH1 0x1 DUP1 PUSH1 0xA0 SHL SUB PUSH1 0x7 SLOAD AND SWAP1 DUP4 MLOAD SWAP6 DUP7 DUP1 SWAP5 DUP2 SWAP4 PUSH4 0x624E65F PUSH1 0xE1 SHL DUP4 MSTORE PUSH1 0x4 DUP4 ADD PUSH2 0x2B0C JUMP JUMPDEST SUB SWAP3 GAS CALL DUP1 ISZERO PUSH2 0x18DE JUMPI PUSH1 0x40 SWAP3 DUP3 SWAP2 PUSH2 0x210A JUMPI POP DUP3 MLOAD SWAP2 DUP3 MSTORE PUSH1 0x20 DUP3 ADD MSTORE RETURN JUMPDEST SWAP1 POP PUSH2 0x2123 SWAP2 POP DUP3 RETURNDATASIZE DUP5 GT PUSH2 0x18D7 JUMPI PUSH2 0x18C8 DUP2 DUP4 PUSH2 0x22FD JUMP JUMPDEST DUP4 PUSH2 0x1F26 JUMP JUMPDEST POP REVERT JUMPDEST PUSH1 0x40 SWAP1 PUSH1 0x3 NOT ADD SLT PUSH2 0x20C JUMPI PUSH1 0x4 CALLDATALOAD SWAP1 PUSH1 0x24 CALLDATALOAD PUSH1 0x1 PUSH1 0x1 PUSH1 0x80 SHL SUB DUP2 AND DUP2 SUB PUSH2 0x20C JUMPI SWAP1 JUMP JUMPDEST PUSH1 0x4 CALLDATALOAD SWAP1 PUSH1 0x1 PUSH1 0x1 PUSH1 0xA0 SHL SUB DUP3 AND DUP3 SUB PUSH2 0x20C JUMPI JUMP JUMPDEST PUSH1 0x24 CALLDATALOAD SWAP1 PUSH1 0x1 PUSH1 0x1 PUSH1 0xA0 SHL SUB DUP3 AND DUP3 SUB PUSH2 0x20C JUMPI JUMP JUMPDEST SWAP2 SWAP1 DUP3 MLOAD SWAP3 DUP4 DUP3 MSTORE PUSH1 0x0 JUMPDEST DUP5 DUP2 LT PUSH2 0x21AA JUMPI POP POP DUP3 PUSH1 0x0 PUSH1 0x20 DUP1 SWAP5 SWAP6 DUP5 ADD ADD MSTORE PUSH1 0x1F DUP1 NOT SWAP2 ADD AND ADD ADD SWAP1 JUMP JUMPDEST PUSH1 0x20 DUP2 DUP4 ADD DUP2 ADD MLOAD DUP5 DUP4 ADD DUP3 ADD MSTORE ADD PUSH2 0x2189 JUMP JUMPDEST SWAP1 PUSH1 0x1 DUP1 PUSH1 0xA0 SHL SUB SWAP2 DUP3 DUP2 MLOAD AND DUP3 MSTORE PUSH1 0x20 SWAP3 DUP1 DUP5 DUP4 ADD MLOAD AND DUP5 DUP5 ADD MSTORE PUSH1 0x40 DUP3 ADD MLOAD PUSH1 0x40 DUP5 ADD MSTORE PUSH2 0x2212 PUSH2 0x2200 PUSH1 0x60 DUP5 ADD MLOAD PUSH2 0x100 DUP1 PUSH1 0x60 DUP9 ADD MSTORE DUP7 ADD SWAP1 PUSH2 0x217E JUMP JUMPDEST PUSH1 0x80 DUP5 ADD MLOAD DUP6 DUP3 SUB PUSH1 0x80 DUP8 ADD MSTORE PUSH2 0x217E JUMP JUMPDEST PUSH1 0xA0 DUP4 ADD MLOAD SWAP5 DUP5 DUP3 SUB PUSH1 0xA0 DUP7 ADD MSTORE DUP1 DUP1 DUP8 MLOAD SWAP4 DUP5 DUP2 MSTORE ADD SWAP7 ADD SWAP3 PUSH1 0x0 SWAP1 JUMPDEST DUP4 DUP3 LT PUSH2 0x2252 JUMPI POP POP POP POP POP PUSH1 0xE0 DUP2 PUSH1 0xC0 DUP3 SWAP4 ADD MLOAD PUSH1 0xC0 DUP6 ADD MSTORE ADD MLOAD SWAP2 ADD MSTORE SWAP1 JUMP JUMPDEST DUP5 MLOAD DUP2 AND DUP9 MSTORE SWAP7 DUP3 ADD SWAP7 SWAP4 DUP3 ADD SWAP4 PUSH1 0x1 SWAP1 SWAP2 ADD SWAP1 PUSH2 0x2230 JUMP JUMPDEST PUSH1 0x44 CALLDATALOAD SWAP1 PUSH3 0xFFFFFF DUP3 AND DUP3 SUB PUSH2 0x20C JUMPI JUMP JUMPDEST PUSH1 0xA0 DUP2 ADD SWAP1 DUP2 LT PUSH1 0x1 PUSH1 0x1 PUSH1 0x40 SHL SUB DUP3 GT OR PUSH2 0x1F6 JUMPI PUSH1 0x40 MSTORE JUMP JUMPDEST PUSH2 0x100 DUP2 ADD SWAP1 DUP2 LT PUSH1 0x1 PUSH1 0x1 PUSH1 0x40 SHL SUB DUP3 GT OR PUSH2 0x1F6 JUMPI PUSH1 0x40 MSTORE JUMP JUMPDEST PUSH1 0x80 DUP2 ADD SWAP1 DUP2 LT PUSH1 0x1 PUSH1 0x1 PUSH1 0x40 SHL SUB DUP3 GT OR PUSH2 0x1F6 JUMPI PUSH1 0x40 MSTORE JUMP JUMPDEST PUSH1 0x1 PUSH1 0x1 PUSH1 0x40 SHL SUB DUP2 GT PUSH2 0x1F6 JUMPI PUSH1 0x40 MSTORE JUMP JUMPDEST PUSH1 0x40 DUP2 ADD SWAP1 DUP2 LT PUSH1 0x1 PUSH1 0x1 PUSH1 0x40 SHL SUB DUP3 GT OR PUSH2 0x1F6 JUMPI PUSH1 0x40 MSTORE JUMP JUMPDEST SWAP1 PUSH1 0x1F DUP1 NOT SWAP2 ADD AND DUP2 ADD SWAP1 DUP2 LT PUSH1 0x1 PUSH1 0x1 PUSH1 0x40 SHL SUB DUP3 GT OR PUSH2 0x1F6 JUMPI PUSH1 0x40 MSTORE JUMP JUMPDEST SWAP1 PUSH1 0x40 MLOAD SWAP2 DUP3 DUP2 SLOAD SWAP2 DUP3 DUP3 MSTORE PUSH1 0x20 SWAP3 DUP4 DUP4 ADD SWAP2 PUSH1 0x0 MSTORE DUP4 PUSH1 0x0 KECCAK256 SWAP4 PUSH1 0x0 SWAP1 JUMPDEST DUP3 DUP3 LT PUSH2 0x2355 JUMPI POP POP POP PUSH2 0x2353 SWAP3 POP SUB DUP4 PUSH2 0x22FD JUMP JUMPDEST JUMP JUMPDEST DUP6 SLOAD PUSH1 0x1 PUSH1 0x1 PUSH1 0xA0 SHL SUB AND DUP5 MSTORE PUSH1 0x1 SWAP6 DUP7 ADD SWAP6 DUP9 SWAP6 POP SWAP4 DUP2 ADD SWAP4 SWAP1 SWAP2 ADD SWAP1 PUSH2 0x233D JUMP JUMPDEST ISZERO PUSH2 0x237F JUMPI JUMP JUMPDEST PUSH1 0x40 MLOAD PUSH3 0x461BCD PUSH1 0xE5 SHL DUP2 MSTORE PUSH1 0x20 PUSH1 0x4 DUP3 ADD MSTORE PUSH1 0x9 PUSH1 0x24 DUP3 ADD MSTORE PUSH9 0x3737BA1037BBB732B9 PUSH1 0xB9 SHL PUSH1 0x44 DUP3 ADD MSTORE PUSH1 0x64 SWAP1 REVERT JUMPDEST ISZERO PUSH2 0x23B7 JUMPI JUMP JUMPDEST PUSH1 0x40 MLOAD PUSH3 0x461BCD PUSH1 0xE5 SHL DUP2 MSTORE PUSH1 0x20 PUSH1 0x4 DUP3 ADD MSTORE PUSH1 0x1A PUSH1 0x24 DUP3 ADD MSTORE PUSH32 0x5472616E73616374696F6E20646F6573206E6F74206578697374000000000000 PUSH1 0x44 DUP3 ADD MSTORE PUSH1 0x64 SWAP1 REVERT JUMPDEST ISZERO PUSH2 0x2403 JUMPI JUMP JUMPDEST PUSH1 0x40 MLOAD PUSH3 0x461BCD PUSH1 0xE5 SHL DUP2 MSTORE PUSH1 0x20 PUSH1 0x4 DUP3 ADD MSTORE PUSH1 0x1C PUSH1 0x24 DUP3 ADD MSTORE PUSH32 0x5472616E73616374696F6E20616C726561647920657865637574656400000000 PUSH1 0x44 DUP3 ADD MSTORE PUSH1 0x64 SWAP1 REVERT JUMPDEST PUSH1 0x40 MLOAD SWAP1 PUSH2 0x2455 DUP3 PUSH2 0x2298 JUMP JUMPDEST PUSH1 0x0 PUSH1 0xE0 DUP4 DUP3 DUP2 MSTORE DUP3 PUSH1 0x20 DUP3 ADD MSTORE DUP3 PUSH1 0x40 DUP3 ADD MSTORE PUSH1 0x60 DUP1 DUP3 ADD MSTORE PUSH1 0x60 PUSH1 0x80 DUP3 ADD MSTORE PUSH1 0x60 PUSH1 0xA0 DUP3 ADD MSTORE DUP3 PUSH1 0xC0 DUP3 ADD MSTORE ADD MSTORE JUMP JUMPDEST SWAP1 PUSH1 0x1 DUP3 DUP2 SHR SWAP3 AND DUP1 ISZERO PUSH2 0x24B7 JUMPI JUMPDEST PUSH1 0x20 DUP4 LT EQ PUSH2 0x24A1 JUMPI JUMP JUMPDEST PUSH4 0x4E487B71 PUSH1 0xE0 SHL PUSH1 0x0 MSTORE PUSH1 0x22 PUSH1 0x4 MSTORE PUSH1 0x24 PUSH1 0x0 REVERT JUMPDEST SWAP2 PUSH1 0x7F AND SWAP2 PUSH2 0x2496 JUMP JUMPDEST SWAP1 PUSH1 0x0 SWAP3 SWAP2 DUP1 SLOAD SWAP2 PUSH2 0x24D2 DUP4 PUSH2 0x2487 JUMP JUMPDEST SWAP2 DUP3 DUP3 MSTORE PUSH1 0x1 SWAP4 DUP5 DUP2 AND SWAP1 DUP2 PUSH1 0x0 EQ PUSH2 0x2534 JUMPI POP PUSH1 0x1 EQ PUSH2 0x24F4 JUMPI JUMPDEST POP POP POP POP JUMP JUMPDEST SWAP1 SWAP2 SWAP4 SWAP5 POP PUSH1 0x0 MSTORE PUSH1 0x20 SWAP3 DUP4 PUSH1 0x0 KECCAK256 SWAP3 DUP5 PUSH1 0x0 SWAP5 JUMPDEST DUP4 DUP7 LT PUSH2 0x2520 JUMPI POP POP POP POP ADD ADD SWAP1 CODESIZE DUP1 DUP1 DUP1 PUSH2 0x24EE JUMP JUMPDEST DUP1 SLOAD DUP6 DUP8 ADD DUP4 ADD MSTORE SWAP5 ADD SWAP4 DUP6 SWAP1 DUP3 ADD PUSH2 0x2509 JUMP JUMPDEST SWAP3 SWAP5 POP POP POP PUSH1 0x20 SWAP4 SWAP5 POP PUSH1 0xFF NOT AND DUP4 DUP4 ADD MSTORE ISZERO ISZERO PUSH1 0x5 SHL ADD ADD SWAP1 CODESIZE DUP1 DUP1 DUP1 PUSH2 0x24EE JUMP JUMPDEST PUSH1 0x1 PUSH1 0x1 PUSH1 0x40 SHL SUB DUP2 GT PUSH2 0x1F6 JUMPI PUSH1 0x5 SHL PUSH1 0x20 ADD SWAP1 JUMP JUMPDEST SWAP2 SWAP1 DUP3 ADD DUP1 SWAP3 GT PUSH2 0x257B JUMPI JUMP JUMPDEST PUSH4 0x4E487B71 PUSH1 0xE0 SHL PUSH1 0x0 MSTORE PUSH1 0x11 PUSH1 0x4 MSTORE PUSH1 0x24 PUSH1 0x0 REVERT JUMPDEST DUP1 MLOAD DUP3 LT ISZERO PUSH2 0x25A5 JUMPI PUSH1 0x20 SWAP2 PUSH1 0x5 SHL ADD ADD SWAP1 JUMP JUMPDEST PUSH4 0x4E487B71 PUSH1 0xE0 SHL PUSH1 0x0 MSTORE PUSH1 0x32 PUSH1 0x4 MSTORE PUSH1 0x24 PUSH1 0x0 REVERT JUMPDEST PUSH1 0x0 SWAP3 SWAP2 DUP2 SLOAD PUSH2 0x25CA DUP2 PUSH2 0x2487 JUMP JUMPDEST SWAP3 PUSH1 0x1 SWAP2 DUP1 DUP4 AND SWAP1 DUP2 ISZERO PUSH2 0x2622 JUMPI POP PUSH1 0x1 EQ PUSH2 0x25E6 JUMPI POP POP POP POP JUMP JUMPDEST SWAP1 SWAP2 SWAP3 SWAP4 SWAP5 POP PUSH1 0x0 MSTORE PUSH1 0x20 SWAP1 DUP2 PUSH1 0x0 KECCAK256 SWAP1 PUSH1 0x0 SWAP2 JUMPDEST DUP6 DUP4 LT PUSH2 0x2611 JUMPI POP POP POP POP ADD SWAP1 CODESIZE DUP1 DUP1 DUP1 PUSH2 0x24EE JUMP JUMPDEST DUP1 SLOAD DUP6 DUP5 ADD MSTORE SWAP2 DUP4 ADD SWAP2 DUP2 ADD PUSH2 0x25FB JUMP JUMPDEST PUSH1 0xFF NOT AND DUP5 MSTORE POP POP POP DUP2 ISZERO ISZERO SWAP1 SWAP2 MUL ADD SWAP2 POP CODESIZE DUP1 DUP1 DUP1 PUSH2 0x24EE JUMP JUMPDEST MLOAD SWAP1 PUSH1 0x1 PUSH1 0x1 PUSH1 0xA0 SHL SUB DUP3 AND DUP3 SUB PUSH2 0x20C JUMPI JUMP JUMPDEST MLOAD SWAP1 PUSH3 0xFFFFFF DUP3 AND DUP3 SUB PUSH2 0x20C JUMPI JUMP JUMPDEST SWAP2 SWAP1 DUP3 PUSH1 0x40 SWAP2 SUB SLT PUSH2 0x20C JUMPI PUSH1 0x20 PUSH2 0x2678 DUP4 PUSH2 0x263D JUMP JUMPDEST SWAP3 ADD MLOAD SWAP1 JUMP JUMPDEST SWAP1 PUSH1 0x1F DUP2 GT PUSH2 0x268C JUMPI POP POP POP JUMP JUMPDEST PUSH1 0x0 SWAP2 DUP3 MSTORE PUSH1 0x20 DUP3 KECCAK256 SWAP1 PUSH1 0x20 PUSH1 0x1F DUP6 ADD PUSH1 0x5 SHR DUP4 ADD SWAP5 LT PUSH2 0x26C8 JUMPI JUMPDEST PUSH1 0x1F ADD PUSH1 0x5 SHR ADD SWAP2 JUMPDEST DUP3 DUP2 LT PUSH2 0x26BD JUMPI POP POP POP JUMP JUMPDEST DUP2 DUP2 SSTORE PUSH1 0x1 ADD PUSH2 0x26B1 JUMP JUMPDEST SWAP1 SWAP3 POP DUP3 SWAP1 PUSH2 0x26A8 JUMP JUMPDEST SWAP1 SWAP3 SWAP2 SWAP1 PUSH1 0x1 PUSH1 0x1 PUSH1 0xA0 SHL SUB AND DUP1 ISZERO PUSH2 0x29CF JUMPI DUP4 MLOAD ISZERO PUSH2 0x298A JUMPI DUP2 MLOAD ISZERO PUSH2 0x294E JUMPI PUSH1 0x2 DUP1 SLOAD SWAP3 PUSH1 0x1 SWAP1 DUP2 DUP6 ADD DUP1 SWAP6 GT PUSH2 0x257B JUMPI DUP5 DUP4 SSTORE PUSH1 0x0 SWAP5 DUP6 MSTORE PUSH1 0x3 SWAP1 PUSH1 0x20 SWAP1 DUP3 DUP3 MSTORE PUSH1 0x40 SWAP4 DUP5 DUP9 KECCAK256 PUSH12 0xFFFFFFFFFFFFFFFFFFFFFFFF PUSH1 0xA0 SHL SWAP1 DUP9 DUP3 DUP3 SLOAD AND OR SWAP1 SSTORE DUP7 SLOAD DUP10 MSTORE DUP2 DUP7 DUP11 KECCAK256 ADD SWAP1 DUP2 SLOAD AND SWAP1 SSTORE DUP6 SLOAD DUP9 MSTORE DUP4 DUP6 DUP10 KECCAK256 ADD DUP11 MLOAD PUSH1 0x1 PUSH1 0x1 PUSH1 0x40 SHL SUB SWAP12 DUP13 DUP3 GT PUSH2 0x293A JUMPI DUP2 SWAP1 PUSH2 0x2775 DUP3 PUSH2 0x276F DUP7 SLOAD PUSH2 0x2487 JUMP JUMPDEST DUP7 PUSH2 0x267E JUMP JUMPDEST DUP7 SWAP1 PUSH1 0x1F DUP4 GT PUSH1 0x1 EQ PUSH2 0x28DC JUMPI DUP13 SWAP3 PUSH2 0x28D1 JUMPI JUMPDEST POP POP PUSH1 0x0 NOT DUP3 DUP9 SHL SHR NOT AND SWAP1 DUP4 SHL OR SWAP1 SSTORE JUMPDEST DUP6 SLOAD DUP9 MSTORE DUP4 DUP4 MSTORE PUSH1 0x4 DUP6 DUP10 KECCAK256 ADD SWAP2 DUP1 MLOAD SWAP11 DUP12 GT PUSH2 0x28BD JUMPI PUSH2 0x27C6 DUP12 PUSH2 0x27C0 DUP6 SLOAD PUSH2 0x2487 JUMP JUMPDEST DUP6 PUSH2 0x267E JUMP JUMPDEST DUP4 SWAP1 PUSH1 0x1F DUP13 GT PUSH1 0x1 EQ PUSH2 0x2840 JUMPI SWAP11 DUP1 SWAP3 DUP2 SWAP3 PUSH32 0xC82555D64D2B8B25FFEFC140AE6575736763EE3A99347632D7F633E7BFAE3F78 SWAP13 SWAP14 DUP13 SWAP5 PUSH2 0x2835 JUMPI JUMPDEST POP POP SHL SWAP2 PUSH1 0x0 NOT SWAP1 DUP7 SHL SHR NOT AND OR SWAP1 SSTORE JUMPDEST DUP4 SLOAD DUP7 MSTORE MSTORE TIMESTAMP PUSH1 0x6 DUP3 DUP7 KECCAK256 ADD SSTORE DUP2 SLOAD DUP5 MSTORE PUSH1 0x7 TIMESTAMP SWAP2 DUP6 KECCAK256 ADD SSTORE SLOAD SWAP3 DUP3 DUP5 SWAP4 LOG3 SWAP1 JUMP JUMPDEST ADD MLOAD SWAP3 POP CODESIZE DUP1 PUSH2 0x2802 JUMP JUMPDEST DUP4 DUP11 MSTORE DUP5 DUP11 KECCAK256 SWAP1 SWAP12 SWAP2 PUSH1 0x1F NOT DUP4 AND DUP12 JUMPDEST DUP2 DUP2 LT PUSH2 0x28A8 JUMPI POP SWAP13 DUP4 PUSH32 0xC82555D64D2B8B25FFEFC140AE6575736763EE3A99347632D7F633E7BFAE3F78 SWAP14 SWAP15 LT PUSH2 0x2890 JUMPI JUMPDEST POP POP POP DUP2 SHL ADD SWAP1 SSTORE PUSH2 0x2813 JUMP JUMPDEST ADD MLOAD PUSH1 0x0 NOT DUP4 DUP9 SHL PUSH1 0xF8 AND SHR NOT AND SWAP1 SSTORE CODESIZE DUP1 DUP1 PUSH2 0x2883 JUMP JUMPDEST DUP15 DUP4 ADD MLOAD DUP5 SSTORE SWAP3 DUP6 ADD SWAP3 SWAP2 DUP8 ADD SWAP2 DUP8 ADD PUSH2 0x2850 JUMP JUMPDEST PUSH4 0x4E487B71 PUSH1 0xE0 SHL DUP10 MSTORE PUSH1 0x41 PUSH1 0x4 MSTORE PUSH1 0x24 DUP10 REVERT JUMPDEST ADD MLOAD SWAP1 POP CODESIZE DUP1 PUSH2 0x2789 JUMP JUMPDEST DUP5 DUP14 MSTORE DUP8 DUP14 KECCAK256 DUP7 SWAP5 POP SWAP2 SWAP1 PUSH1 0x1F NOT DUP5 AND DUP15 JUMPDEST DUP11 DUP3 DUP3 LT PUSH2 0x2924 JUMPI POP POP DUP5 GT PUSH2 0x290C JUMPI JUMPDEST POP POP POP DUP2 SHL ADD SWAP1 SSTORE PUSH2 0x279B JUMP JUMPDEST ADD MLOAD PUSH1 0x0 NOT DUP4 DUP11 SHL PUSH1 0xF8 AND SHR NOT AND SWAP1 SSTORE CODESIZE DUP1 DUP1 PUSH2 0x28FF JUMP JUMPDEST DUP4 DUP6 ADD MLOAD DUP7 SSTORE DUP10 SWAP8 SWAP1 SWAP6 ADD SWAP5 SWAP4 DUP5 ADD SWAP4 ADD PUSH2 0x28EE JUMP JUMPDEST PUSH4 0x4E487B71 PUSH1 0xE0 SHL DUP12 MSTORE PUSH1 0x41 PUSH1 0x4 MSTORE PUSH1 0x24 DUP12 REVERT JUMPDEST PUSH1 0x40 MLOAD PUSH3 0x461BCD PUSH1 0xE5 SHL DUP2 MSTORE PUSH1 0x20 PUSH1 0x4 DUP3 ADD MSTORE PUSH1 0x14 PUSH1 0x24 DUP3 ADD MSTORE PUSH20 0x151A194811185D18481A5CC81C995C5D5A5C9959 PUSH1 0x62 SHL PUSH1 0x44 DUP3 ADD MSTORE PUSH1 0x64 SWAP1 REVERT JUMPDEST PUSH1 0x40 MLOAD PUSH3 0x461BCD PUSH1 0xE5 SHL DUP2 MSTORE PUSH1 0x20 PUSH1 0x4 DUP3 ADD MSTORE PUSH1 0x1D PUSH1 0x24 DUP3 ADD MSTORE PUSH32 0x5468652046756E6374696F6E206E616D65206973207265717569726564000000 PUSH1 0x44 DUP3 ADD MSTORE PUSH1 0x64 SWAP1 REVERT JUMPDEST PUSH1 0x40 MLOAD PUSH3 0x461BCD PUSH1 0xE5 SHL DUP2 MSTORE PUSH1 0x20 PUSH1 0x4 DUP3 ADD MSTORE PUSH1 0x18 PUSH1 0x24 DUP3 ADD MSTORE PUSH32 0x5A65726F2061646472657373206E6F7420416C6C6F7765640000000000000000 PUSH1 0x44 DUP3 ADD MSTORE PUSH1 0x64 SWAP1 REVERT JUMPDEST SWAP1 DUP2 PUSH1 0x20 SWAP2 SUB SLT PUSH2 0x20C JUMPI MLOAD DUP1 ISZERO ISZERO DUP2 SUB PUSH2 0x20C JUMPI SWAP1 JUMP JUMPDEST ISZERO PUSH2 0x2A33 JUMPI JUMP JUMPDEST PUSH1 0x40 MLOAD PUSH3 0x461BCD PUSH1 0xE5 SHL DUP2 MSTORE PUSH1 0x20 PUSH1 0x4 DUP3 ADD MSTORE PUSH1 0x1D PUSH1 0x24 DUP3 ADD MSTORE PUSH32 0x416D6F756E74206D7573742062652067726561746572207468616E2030000000 PUSH1 0x44 DUP3 ADD MSTORE PUSH1 0x64 SWAP1 REVERT JUMPDEST SWAP1 DUP2 PUSH1 0x20 SWAP2 SUB SLT PUSH2 0x20C JUMPI MLOAD PUSH1 0x1 PUSH1 0x1 PUSH1 0xA0 SHL SUB DUP2 AND DUP2 SUB PUSH2 0x20C JUMPI SWAP1 JUMP JUMPDEST MLOAD SWAP1 PUSH1 0x1 PUSH1 0x1 PUSH1 0x80 SHL SUB DUP3 AND DUP3 SUB PUSH2 0x20C JUMPI JUMP JUMPDEST SWAP2 SWAP1 DUP3 SUB SWAP2 DUP3 GT PUSH2 0x257B JUMPI JUMP JUMPDEST SWAP2 SWAP1 DUP3 PUSH1 0x40 SWAP2 SUB SLT PUSH2 0x20C JUMPI PUSH1 0x20 DUP3 MLOAD SWAP3 ADD MLOAD SWAP1 JUMP JUMPDEST SWAP2 SWAP1 SWAP2 PUSH1 0x60 PUSH1 0x80 DUP3 ADD SWAP4 DUP1 MLOAD DUP4 MSTORE PUSH1 0x1 DUP1 PUSH1 0xA0 SHL SUB PUSH1 0x20 DUP3 ADD MLOAD AND PUSH1 0x20 DUP5 ADD MSTORE DUP2 PUSH1 0x1 PUSH1 0x1 PUSH1 0x80 SHL SUB SWAP2 DUP3 PUSH1 0x40 DUP3 ADD MLOAD AND PUSH1 0x40 DUP7 ADD MSTORE ADD MLOAD AND SWAP2 ADD MSTORE JUMP JUMPDEST SWAP2 SWAP1 SWAP2 PUSH1 0x80 DUP1 PUSH1 0xA0 DUP4 ADD SWAP5 DUP1 MLOAD DUP5 MSTORE PUSH1 0x1 PUSH1 0x1 PUSH1 0x80 SHL SUB PUSH1 0x20 DUP3 ADD MLOAD AND PUSH1 0x20 DUP6 ADD MSTORE PUSH1 0x40 DUP2 ADD MLOAD PUSH1 0x40 DUP6 ADD MSTORE PUSH1 0x60 DUP2 ADD MLOAD PUSH1 0x60 DUP6 ADD MSTORE ADD MLOAD SWAP2 ADD MSTORE JUMP JUMPDEST SWAP1 DUP2 DUP2 GT PUSH2 0x2B5D JUMPI PUSH2 0x2B5A SWAP2 PUSH2 0x2AAB JUMP JUMPDEST SWAP1 JUMP JUMPDEST PUSH1 0x40 MLOAD PUSH3 0x461BCD PUSH1 0xE5 SHL DUP2 MSTORE PUSH1 0x20 PUSH1 0x4 DUP3 ADD MSTORE PUSH1 0x22 PUSH1 0x24 DUP3 ADD MSTORE PUSH32 0x61206D7573742062652067726561746572207468616E206F7220657175616C73 PUSH1 0x44 DUP3 ADD MSTORE PUSH2 0x1031 PUSH1 0xF1 SHL PUSH1 0x64 DUP3 ADD MSTORE PUSH1 0x84 SWAP1 REVERT JUMPDEST DUP2 DUP2 MUL SWAP3 SWAP2 DUP2 ISZERO SWAP2 DUP5 DIV EQ OR ISZERO PUSH2 0x257B JUMPI JUMP JUMPDEST DUP1 ISZERO PUSH2 0x2C19 JUMPI PUSH1 0x1 DUP1 DUP3 ADD DUP1 DUP4 GT PUSH2 0x257B JUMPI DUP2 SHR SWAP1 DUP3 JUMPDEST DUP4 DUP4 LT PUSH2 0x2BE4 JUMPI POP POP POP SWAP1 JUMP JUMPDEST SWAP2 SWAP3 POP SWAP1 DUP3 DUP1 ISZERO PUSH2 0x2C04 JUMPI DUP1 PUSH2 0x2BFB SWAP2 DUP4 DIV PUSH2 0x256E JUMP JUMPDEST DUP3 SHR SWAP2 SWAP1 PUSH2 0x2BD7 JUMP JUMPDEST PUSH1 0x24 PUSH1 0x0 PUSH4 0x4E487B71 PUSH1 0xE0 SHL DUP2 MSTORE PUSH1 0x12 PUSH1 0x4 MSTORE REVERT JUMPDEST POP PUSH1 0x0 SWAP1 JUMP JUMPDEST PUSH1 0x1 PUSH1 0x1 PUSH1 0xA0 SHL SUB DUP2 DUP2 AND SWAP2 PUSH5 0x1000276A3 DUP4 LT ISZERO DUP1 PUSH2 0x321A JUMPI JUMPDEST ISZERO PUSH2 0x3208 JUMPI PUSH5 0x100000000 PUSH1 0x1 PUSH1 0xC0 SHL SUB SWAP1 PUSH1 0x20 SHL AND SWAP2 DUP3 SWAP2 PUSH1 0x1 PUSH1 0x1 PUSH1 0x80 SHL SUB DUP5 GT PUSH1 0x7 SHL SWAP4 DUP1 DUP6 SHR PUSH1 0x1 PUSH1 0x1 PUSH1 0x40 SHL SUB DUP2 GT PUSH1 0x6 SHL SWAP1 DUP2 SHR SWAP5 PUSH4 0xFFFFFFFF SWAP7 DUP8 DUP8 GT PUSH1 0x5 SHL SWAP7 DUP8 SHR SWAP3 PUSH2 0xFFFF DUP5 GT PUSH1 0x4 SHL SWAP4 DUP5 SHR SWAP8 PUSH1 0xFF SWAP9 DUP10 SWAP6 DUP7 DUP3 GT PUSH1 0x3 SHL SWAP2 DUP3 SHR SWAP3 PUSH1 0xF DUP5 GT PUSH1 0x2 SHL SWAP4 DUP5 SHR SWAP5 PUSH1 0x1 PUSH1 0x3 DUP8 GT DUP2 SHL SWAP7 DUP8 SHR GT SWAP7 OR OR OR OR OR OR OR SWAP1 PUSH1 0x80 SWAP4 DUP5 DUP4 LT ISZERO PUSH1 0x0 EQ PUSH2 0x31FC JUMPI POP PUSH1 0x7E NOT DUP3 ADD SHR JUMPDEST DUP1 MUL PUSH1 0x7F SWAP3 DUP4 SWAP3 DUP3 DUP5 SWAP4 DUP5 SHR DUP2 DUP5 SHR SHR DUP1 MUL DUP1 DUP6 SHR DUP2 DUP6 SHR SHR DUP1 MUL DUP1 DUP7 SHR DUP2 DUP7 SHR SHR DUP1 MUL DUP1 DUP8 SHR DUP2 DUP8 SHR SHR DUP1 MUL SWAP1 DUP2 DUP9 SHR DUP3 DUP9 SHR SHR DUP1 MUL SWAP3 DUP4 DUP10 SHR DUP5 DUP10 SHR SHR DUP1 MUL SWAP5 DUP6 DUP11 SHR DUP7 DUP11 SHR SHR DUP1 MUL SWAP7 DUP8 DUP12 SHR DUP9 DUP12 SHR SHR DUP1 MUL SWAP9 DUP10 DUP13 SHR DUP11 DUP13 SHR SHR DUP1 MUL SWAP11 DUP12 DUP14 SHR DUP13 DUP3 SHR SHR DUP1 MUL DUP1 SWAP14 SHR DUP14 DUP3 SHR SHR DUP1 MUL DUP1 SWAP15 DUP2 SWAP1 SHR SWAP1 DUP3 SHR SHR DUP1 MUL SWAP15 DUP16 DUP1 SWAP2 SHR SWAP2 SHR SHR DUP1 MUL PUSH1 0xCD SHR PUSH7 0x4000000000000 AND SWAP14 PUSH1 0xCC SHR PUSH7 0x8000000000000 AND SWAP13 PUSH1 0xCB SHR PUSH7 0x10000000000000 AND SWAP12 PUSH1 0xCA SHR PUSH7 0x20000000000000 AND SWAP11 PUSH1 0xC9 SHR PUSH7 0x40000000000000 AND SWAP10 PUSH1 0xC8 SHR PUSH7 0x80000000000000 AND SWAP9 PUSH1 0xC7 SHR PUSH8 0x100000000000000 AND SWAP8 PUSH1 0xC6 SHR PUSH8 0x200000000000000 AND SWAP7 PUSH1 0xC5 SHR PUSH8 0x400000000000000 AND SWAP6 PUSH1 0xC4 SHR PUSH8 0x800000000000000 AND SWAP5 PUSH1 0xC3 SHR PUSH8 0x1000000000000000 AND SWAP4 PUSH1 0xC2 SHR PUSH8 0x2000000000000000 AND SWAP3 PUSH1 0xC1 SHR PUSH8 0x4000000000000000 AND SWAP2 PUSH1 0xC0 SHR PUSH8 0x8000000000000000 AND SWAP1 PUSH1 0x7F NOT ADD PUSH1 0x40 SHL OR OR OR OR OR OR OR OR OR OR OR OR OR OR PUSH10 0x3627A301D71055774C85 MUL SWAP4 PUSH16 0x28F6481AB7F045A5AF012A19D003AA9 NOT DUP6 ADD DUP3 SAR PUSH1 0x2 SIGNEXTEND SWAP5 PUSH16 0xDB2DF09E81959A81455E260799A0632F ADD DUP3 SAR PUSH1 0x2 SIGNEXTEND SWAP6 PUSH1 0x0 SWAP1 DUP8 DUP8 EQ PUSH1 0x0 EQ PUSH2 0x2E87 JUMPI POP POP POP POP POP POP SWAP1 POP SWAP1 JUMP JUMPDEST DUP2 DUP9 SLT ISZERO PUSH2 0x31F5 JUMPI DUP8 DUP3 SUB SWAP4 JUMPDEST PUSH3 0xD89E8 DUP6 GT PUSH2 0x31E3 JUMPI PUSH1 0x1 DUP6 AND ISZERO PUSH2 0x31D1 JUMPI PUSH1 0x1 PUSH1 0x1 PUSH1 0x88 SHL SUB PUSH16 0xFFFCB933BD6FAD37AA2D162D1A594001 JUMPDEST AND SWAP5 PUSH1 0x2 DUP2 AND PUSH2 0x31B6 JUMPI JUMPDEST PUSH1 0x4 DUP2 AND PUSH2 0x319B JUMPI JUMPDEST PUSH1 0x8 DUP2 AND PUSH2 0x3180 JUMPI JUMPDEST PUSH1 0x10 DUP2 AND PUSH2 0x3165 JUMPI JUMPDEST PUSH1 0x20 DUP2 AND PUSH2 0x314A JUMPI JUMPDEST PUSH1 0x40 DUP2 AND PUSH2 0x312F JUMPI JUMPDEST DUP2 DUP2 AND PUSH2 0x3114 JUMPI JUMPDEST PUSH2 0x100 DUP2 AND PUSH2 0x30F9 JUMPI JUMPDEST PUSH2 0x200 DUP2 AND PUSH2 0x30DE JUMPI JUMPDEST PUSH2 0x400 DUP2 AND PUSH2 0x30C3 JUMPI JUMPDEST PUSH2 0x800 DUP2 AND PUSH2 0x30A8 JUMPI JUMPDEST PUSH2 0x1000 DUP2 AND PUSH2 0x308D JUMPI JUMPDEST PUSH2 0x2000 DUP2 AND PUSH2 0x3072 JUMPI JUMPDEST PUSH2 0x4000 DUP2 AND PUSH2 0x3057 JUMPI JUMPDEST PUSH2 0x8000 DUP2 AND PUSH2 0x303C JUMPI JUMPDEST PUSH3 0x10000 DUP2 AND PUSH2 0x3021 JUMPI JUMPDEST PUSH3 0x20000 DUP2 AND PUSH2 0x3007 JUMPI JUMPDEST PUSH3 0x40000 DUP2 AND PUSH2 0x2FED JUMPI JUMPDEST PUSH3 0x80000 AND PUSH2 0x2FD4 JUMPI JUMPDEST POP DUP2 DUP9 SGT PUSH2 0x2FAF JUMPI JUMPDEST DUP4 AND PUSH2 0x2FA7 JUMPI DUP1 JUMPDEST POP AND SWAP1 PUSH1 0x20 SHR ADD AND GT ISZERO PUSH1 0x0 EQ PUSH2 0x2FA2 JUMPI POP SWAP1 JUMP JUMPDEST SWAP1 POP SWAP1 JUMP JUMPDEST PUSH1 0x1 SWAP1 PUSH2 0x2F8D JUMP JUMPDEST SWAP3 DUP1 ISZERO PUSH2 0x2FC0 JUMPI PUSH1 0x0 NOT DIV SWAP3 PUSH2 0x2F85 JUMP JUMPDEST PUSH4 0x4E487B71 PUSH1 0xE0 SHL DUP3 MSTORE PUSH1 0x12 PUSH1 0x4 MSTORE PUSH1 0x24 DUP3 REVERT JUMPDEST SWAP1 SWAP4 PUSH12 0x48A170391F7DC42444E8FA2 MUL SWAP1 SHR SWAP3 CODESIZE PUSH2 0x2F7C JUMP JUMPDEST PUSH14 0x2216E584F5FA1EA926041BEDFE98 SWAP1 SWAP6 MUL DUP2 SHR SWAP5 PUSH2 0x2F72 JUMP JUMPDEST SWAP5 PUSH15 0x5D6AF8DEDB81196699C329225EE604 MUL DUP2 SHR SWAP5 PUSH2 0x2F67 JUMP JUMPDEST SWAP5 PUSH16 0x9AA508B5B7A84E1C677DE54F3E99BC9 MUL DUP2 SHR SWAP5 PUSH2 0x2F5C JUMP JUMPDEST SWAP5 PUSH16 0x31BE135F97D08FD981231505542FCFA6 MUL DUP2 SHR SWAP5 PUSH2 0x2F51 JUMP JUMPDEST SWAP5 PUSH16 0x70D869A156D2A1B890BB3DF62BAF32F7 MUL DUP2 SHR SWAP5 PUSH2 0x2F47 JUMP JUMPDEST SWAP5 PUSH16 0xA9F746462D870FDF8A65DC1F90E061E5 MUL DUP2 SHR SWAP5 PUSH2 0x2F3D JUMP JUMPDEST SWAP5 PUSH16 0xD097F3BDFD2022B8845AD8F792AA5825 MUL DUP2 SHR SWAP5 PUSH2 0x2F33 JUMP JUMPDEST SWAP5 PUSH16 0xE7159475A2C29B7443B29C7FA6E889D9 MUL DUP2 SHR SWAP5 PUSH2 0x2F29 JUMP JUMPDEST SWAP5 PUSH16 0xF3392B0822B70005940C7A398E4B70F3 MUL DUP2 SHR SWAP5 PUSH2 0x2F1F JUMP JUMPDEST SWAP5 PUSH16 0xF987A7253AC413176F2B074CF7815E54 MUL DUP2 SHR SWAP5 PUSH2 0x2F15 JUMP JUMPDEST SWAP5 PUSH16 0xFCBE86C7900A88AEDCFFC83B479AA3A4 MUL DUP2 SHR SWAP5 PUSH2 0x2F0B JUMP JUMPDEST SWAP5 PUSH16 0xFE5DEE046A99A2A811C461F1969C3053 MUL DUP2 SHR SWAP5 PUSH2 0x2F01 JUMP JUMPDEST SWAP5 PUSH16 0xFF2EA16466C96A3843EC78B326B52861 MUL DUP2 SHR SWAP5 PUSH2 0x2EF9 JUMP JUMPDEST SWAP5 PUSH16 0xFF973B41FA98C081472E6896DFB254C0 MUL DUP2 SHR SWAP5 PUSH2 0x2EF0 JUMP JUMPDEST SWAP5 PUSH16 0xFFCB9843D60F6159C9DB58835C926644 MUL DUP2 SHR SWAP5 PUSH2 0x2EE7 JUMP JUMPDEST SWAP5 PUSH16 0xFFE5CACA7E10E4E61C3624EAA0941CD0 MUL DUP2 SHR SWAP5 PUSH2 0x2EDE JUMP JUMPDEST SWAP5 PUSH16 0xFFF2E50F5F656932EF12357CF3C7FDCC MUL DUP2 SHR SWAP5 PUSH2 0x2ED5 JUMP JUMPDEST SWAP5 PUSH16 0xFFF97272373D413259A46990580E213A MUL DUP2 SHR SWAP5 PUSH2 0x2ECC JUMP JUMPDEST PUSH1 0x1 PUSH1 0x1 PUSH1 0x88 SHL SUB PUSH1 0x1 PUSH1 0x80 SHL PUSH2 0x2EC1 JUMP JUMPDEST PUSH1 0x40 MLOAD PUSH4 0x15E4079D PUSH1 0xE1 SHL DUP2 MSTORE PUSH1 0x4 SWAP1 REVERT JUMPDEST DUP8 SWAP4 PUSH2 0x2E94 JUMP JUMPDEST SWAP1 POP DUP2 PUSH1 0x7F SUB SHL PUSH2 0x2CD6 JUMP JUMPDEST PUSH1 0x40 MLOAD PUSH4 0x24C070DF PUSH1 0xE1 SHL DUP2 MSTORE PUSH1 0x4 SWAP1 REVERT JUMPDEST POP PUSH20 0xFFFD8963EFD1FC6A506488495D951D5263988D26 DUP4 LT PUSH2 0x2C3A JUMP INVALID LOG2 PUSH5 0x6970667358 0x22 SLT KECCAK256 0x1E 0xC5 SWAP6 0xBB ADDRESS 0xBA MSIZE DUP9 SELFDESTRUCT MSTORE8 0xF6 0x5D SLOAD SWAP11 PUSH10 0x8A126C978C262048FBBD PUSH6 0xE65F3E67B174 PUSH5 0x736F6C6343 STOP ADDMOD SGT STOP CALLER "
		},
		"gasEstimates": {
			"creation": {
				"codeDepositCost": "2581800",
				"executionCost": "infinite",
				"totalCost": "infinite"
			},
			"external": {
				"UNISWAP_V3_FACTORY()": "520",
				"UNISWAP_V3_NFT_POSITION_MANAGER()": "344",
				"collectAllFees(uint256)": "infinite",
				"confirmTransaction(uint256)": "130316",
				"createAndInitializePool(address,address,uint24,uint256)": "infinite",
				"createPoolAndMintNFT(address,address,uint24,uint256,uint256,uint256,uint160,uint160)": "infinite",
				"decreaseLiquidityCurrentRange(uint256,uint128)": "infinite",
				"executeTransaction(uint256)": "infinite",
				"getAllTransactions(uint256,uint256)": "infinite",
				"getOwners()": "infinite",
				"getTransaction(uint256)": "infinite",
				"increaseLiquidityCurrentRange(address,address,uint256,uint256,uint256)": "infinite",
				"removePool(uint256,uint128)": "infinite",
				"sendEther(address,uint256)": "infinite",
				"swap(address,address,uint256,uint256,uint24)": "infinite",
				"transferERC20(address,address,uint256)": "infinite",
				"unwrapWETH(address,uint256)": "infinite",
				"wrapETH(address,uint256)": "infinite"
			},
			"internal": {
				"_createPoolAndMintNFT(address,address,uint24,uint256,uint256,uint256,uint160,uint160,uint256)": "infinite",
				"_swap(address,address,uint256,uint256,uint24)": "infinite",
				"_unwrapWETH(address,uint256)": "infinite",
				"_wrapETH(address,uint256)": "infinite",
				"executeFunction(uint256)": "infinite"
			}
		},
		"methodIdentifiers": {
			"UNISWAP_V3_FACTORY()": "f73e5aab",
			"UNISWAP_V3_NFT_POSITION_MANAGER()": "a9109570",
			"collectAllFees(uint256)": "46ce96dd",
			"confirmTransaction(uint256)": "c01a8c84",
			"createAndInitializePool(address,address,uint24,uint256)": "f47f9033",
			"createPoolAndMintNFT(address,address,uint24,uint256,uint256,uint256,uint160,uint160)": "fb35f110",
			"decreaseLiquidityCurrentRange(uint256,uint128)": "1834c397",
			"executeTransaction(uint256)": "ee22610b",
			"getAllTransactions(uint256,uint256)": "c5e57c64",
			"getOwners()": "a0e67e2b",
			"getTransaction(uint256)": "33ea3dc8",
			"increaseLiquidityCurrentRange(address,address,uint256,uint256,uint256)": "5efb3b6d",
			"removePool(uint256,uint128)": "ac43a6b8",
			"sendEther(address,uint256)": "c1756a2c",
			"swap(address,address,uint256,uint256,uint24)": "b40b7e0b",
			"transferERC20(address,address,uint256)": "9db5dbe4",
			"unwrapWETH(address,uint256)": "5869dba8",
			"wrapETH(address,uint256)": "29793f7d"
		}
	},
	"abi": [
		{
			"inputs": [
				{
					"internalType": "address[]",
					"name": "_owners",
					"type": "address[]"
				},
				{
					"internalType": "uint256",
					"name": "_numConfirmationsRequired",
					"type": "uint256"
				}
			],
			"stateMutability": "nonpayable",
			"type": "constructor"
		},
		{
			"inputs": [],
			"name": "R",
			"type": "error"
		},
		{
			"inputs": [],
			"name": "T",
			"type": "error"
		},
		{
			"anonymous": false,
			"inputs": [
				{
					"indexed": true,
					"internalType": "address",
					"name": "from",
					"type": "address"
				},
				{
					"indexed": true,
					"internalType": "uint256",
					"name": "transactionId",
					"type": "uint256"
				}
			],
			"name": "ConfirmTransaction",
			"type": "event"
		},
		{
			"anonymous": false,
			"inputs": [
				{
					"indexed": true,
					"internalType": "address",
					"name": "from",
					"type": "address"
				},
				{
					"indexed": true,
					"internalType": "uint256",
					"name": "transactionId",
					"type": "uint256"
				}
			],
			"name": "ExecuteTransaction",
			"type": "event"
		},
		{
			"anonymous": false,
			"inputs": [
				{
					"indexed": true,
					"internalType": "address",
					"name": "from",
					"type": "address"
				},
				{
					"indexed": true,
					"internalType": "uint256",
					"name": "transactionId",
					"type": "uint256"
				}
			],
			"name": "SubmitTransaction",
			"type": "event"
		},
		{
			"inputs": [],
			"name": "UNISWAP_V3_FACTORY",
			"outputs": [
				{
					"internalType": "address",
					"name": "",
					"type": "address"
				}
			],
			"stateMutability": "view",
			"type": "function"
		},
		{
			"inputs": [],
			"name": "UNISWAP_V3_NFT_POSITION_MANAGER",
			"outputs": [
				{
					"internalType": "address",
					"name": "",
					"type": "address"
				}
			],
			"stateMutability": "view",
			"type": "function"
		},
		{
			"inputs": [
				{
					"internalType": "uint256",
					"name": "tokenId",
					"type": "uint256"
				}
			],
			"name": "collectAllFees",
			"outputs": [
				{
					"internalType": "uint256",
					"name": "amount0",
					"type": "uint256"
				},
				{
					"internalType": "uint256",
					"name": "amount1",
					"type": "uint256"
				}
			],
			"stateMutability": "nonpayable",
			"type": "function"
		},
		{
			"inputs": [
				{
					"internalType": "uint256",
					"name": "_transactionId",
					"type": "uint256"
				}
			],
			"name": "confirmTransaction",
			"outputs": [],
			"stateMutability": "nonpayable",
			"type": "function"
		},
		{
			"inputs": [
				{
					"internalType": "address",
					"name": "token0",
					"type": "address"
				},
				{
					"internalType": "address",
					"name": "token1",
					"type": "address"
				},
				{
					"internalType": "uint24",
					"name": "fee",
					"type": "uint24"
				},
				{
					"internalType": "uint256",
					"name": "initialPrice",
					"type": "uint256"
				}
			],
			"name": "createAndInitializePool",
			"outputs": [
				{
					"internalType": "address",
					"name": "pool",
					"type": "address"
				}
			],
			"stateMutability": "payable",
			"type": "function"
		},
		{
			"inputs": [
				{
					"internalType": "address",
					"name": "token0",
					"type": "address"
				},
				{
					"internalType": "address",
					"name": "token1",
					"type": "address"
				},
				{
					"internalType": "uint24",
					"name": "fee",
					"type": "uint24"
				},
				{
					"internalType": "uint256",
					"name": "amount0ToAdd",
					"type": "uint256"
				},
				{
					"internalType": "uint256",
					"name": "amount1ToAdd",
					"type": "uint256"
				},
				{
					"internalType": "uint256",
					"name": "initialPrice",
					"type": "uint256"
				},
				{
					"internalType": "uint160",
					"name": "minPrice",
					"type": "uint160"
				},
				{
					"internalType": "uint160",
					"name": "maxPrice",
					"type": "uint160"
				}
			],
			"name": "createPoolAndMintNFT",
			"outputs": [
				{
					"internalType": "uint256",
					"name": "_transactionId",
					"type": "uint256"
				}
			],
			"stateMutability": "payable",
			"type": "function"
		},
		{
			"inputs": [
				{
					"internalType": "uint256",
					"name": "tokenId",
					"type": "uint256"
				},
				{
					"internalType": "uint128",
					"name": "liquidity",
					"type": "uint128"
				}
			],
			"name": "decreaseLiquidityCurrentRange",
			"outputs": [
				{
					"internalType": "uint256",
					"name": "amount0",
					"type": "uint256"
				},
				{
					"internalType": "uint256",
					"name": "amount1",
					"type": "uint256"
				}
			],
			"stateMutability": "nonpayable",
			"type": "function"
		},
		{
			"inputs": [
				{
					"internalType": "uint256",
					"name": "_transactionId",
					"type": "uint256"
				}
			],
			"name": "executeTransaction",
			"outputs": [],
			"stateMutability": "payable",
			"type": "function"
		},
		{
			"inputs": [
				{
					"internalType": "uint256",
					"name": "_pageNo",
					"type": "uint256"
				},
				{
					"internalType": "uint256",
					"name": "_perPage",
					"type": "uint256"
				}
			],
			"name": "getAllTransactions",
			"outputs": [
				{
					"components": [
						{
							"internalType": "address",
							"name": "from",
							"type": "address"
						},
						{
							"internalType": "address",
							"name": "executed",
							"type": "address"
						},
						{
							"internalType": "uint256",
							"name": "numConfirmations",
							"type": "uint256"
						},
						{
							"internalType": "string",
							"name": "functionName",
							"type": "string"
						},
						{
							"internalType": "bytes",
							"name": "data",
							"type": "bytes"
						},
						{
							"internalType": "address[]",
							"name": "confirmed",
							"type": "address[]"
						},
						{
							"internalType": "uint256",
							"name": "createdAt",
							"type": "uint256"
						},
						{
							"internalType": "uint256",
							"name": "updatedAt",
							"type": "uint256"
						}
					],
					"internalType": "struct IMultiSig.Transaction[]",
					"name": "transactions_",
					"type": "tuple[]"
				},
				{
					"internalType": "uint256",
					"name": "totalList_",
					"type": "uint256"
				}
			],
			"stateMutability": "view",
			"type": "function"
		},
		{
			"inputs": [],
			"name": "getOwners",
			"outputs": [
				{
					"internalType": "address[]",
					"name": "",
					"type": "address[]"
				}
			],
			"stateMutability": "view",
			"type": "function"
		},
		{
			"inputs": [
				{
					"internalType": "uint256",
					"name": "_transactionId",
					"type": "uint256"
				}
			],
			"name": "getTransaction",
			"outputs": [
				{
					"components": [
						{
							"internalType": "address",
							"name": "from",
							"type": "address"
						},
						{
							"internalType": "address",
							"name": "executed",
							"type": "address"
						},
						{
							"internalType": "uint256",
							"name": "numConfirmations",
							"type": "uint256"
						},
						{
							"internalType": "string",
							"name": "functionName",
							"type": "string"
						},
						{
							"internalType": "bytes",
							"name": "data",
							"type": "bytes"
						},
						{
							"internalType": "address[]",
							"name": "confirmed",
							"type": "address[]"
						},
						{
							"internalType": "uint256",
							"name": "createdAt",
							"type": "uint256"
						},
						{
							"internalType": "uint256",
							"name": "updatedAt",
							"type": "uint256"
						}
					],
					"internalType": "struct IMultiSig.Transaction",
					"name": "transactions_",
					"type": "tuple"
				}
			],
			"stateMutability": "view",
			"type": "function"
		},
		{
			"inputs": [
				{
					"internalType": "address",
					"name": "token0",
					"type": "address"
				},
				{
					"internalType": "address",
					"name": "token1",
					"type": "address"
				},
				{
					"internalType": "uint256",
					"name": "tokenId",
					"type": "uint256"
				},
				{
					"internalType": "uint256",
					"name": "amount0ToAdd",
					"type": "uint256"
				},
				{
					"internalType": "uint256",
					"name": "amount1ToAdd",
					"type": "uint256"
				}
			],
			"name": "increaseLiquidityCurrentRange",
			"outputs": [
				{
					"internalType": "uint128",
					"name": "liquidity",
					"type": "uint128"
				},
				{
					"internalType": "uint256",
					"name": "amount0",
					"type": "uint256"
				},
				{
					"internalType": "uint256",
					"name": "amount1",
					"type": "uint256"
				}
			],
			"stateMutability": "nonpayable",
			"type": "function"
		},
		{
			"inputs": [
				{
					"internalType": "uint256",
					"name": "tokenId",
					"type": "uint256"
				},
				{
					"internalType": "uint128",
					"name": "liquidity",
					"type": "uint128"
				}
			],
			"name": "removePool",
			"outputs": [
				{
					"internalType": "uint256",
					"name": "amount0",
					"type": "uint256"
				},
				{
					"internalType": "uint256",
					"name": "amount1",
					"type": "uint256"
				},
				{
					"internalType": "uint256",
					"name": "fees0",
					"type": "uint256"
				},
				{
					"internalType": "uint256",
					"name": "fees1",
					"type": "uint256"
				}
			],
			"stateMutability": "nonpayable",
			"type": "function"
		},
		{
			"inputs": [
				{
					"internalType": "address payable",
					"name": "recipient",
					"type": "address"
				},
				{
					"internalType": "uint256",
					"name": "amount",
					"type": "uint256"
				}
			],
			"name": "sendEther",
			"outputs": [],
			"stateMutability": "nonpayable",
			"type": "function"
		},
		{
			"inputs": [
				{
					"internalType": "address",
					"name": "_tokenIn",
					"type": "address"
				},
				{
					"internalType": "address",
					"name": "_tokenOut",
					"type": "address"
				},
				{
					"internalType": "uint256",
					"name": "_amountIn",
					"type": "uint256"
				},
				{
					"internalType": "uint256",
					"name": "_amountOutMin",
					"type": "uint256"
				},
				{
					"internalType": "uint24",
					"name": "_fee",
					"type": "uint24"
				}
			],
			"name": "swap",
			"outputs": [
				{
					"internalType": "uint256",
					"name": "_transactionId",
					"type": "uint256"
				}
			],
			"stateMutability": "nonpayable",
			"type": "function"
		},
		{
			"inputs": [
				{
					"internalType": "address",
					"name": "tokenContractAddress",
					"type": "address"
				},
				{
					"internalType": "address",
					"name": "recipient",
					"type": "address"
				},
				{
					"internalType": "uint256",
					"name": "amount",
					"type": "uint256"
				}
			],
			"name": "transferERC20",
			"outputs": [],
			"stateMutability": "nonpayable",
			"type": "function"
		},
		{
			"inputs": [
				{
					"internalType": "address",
					"name": "wtoken",
					"type": "address"
				},
				{
					"internalType": "uint256",
					"name": "amount",
					"type": "uint256"
				}
			],
			"name": "unwrapWETH",
			"outputs": [
				{
					"internalType": "uint256",
					"name": "_transactionId",
					"type": "uint256"
				}
			],
			"stateMutability": "nonpayable",
			"type": "function"
		},
		{
			"inputs": [
				{
					"internalType": "address",
					"name": "wtoken",
					"type": "address"
				},
				{
					"internalType": "uint256",
					"name": "amount",
					"type": "uint256"
				}
			],
			"name": "wrapETH",
			"outputs": [
				{
					"internalType": "uint256",
					"name": "_transactionId",
					"type": "uint256"
				}
			],
			"stateMutability": "nonpayable",
			"type": "function"
		},
		{
			"stateMutability": "payable",
			"type": "receive"
		}
	]
}