{
	"data": {
		"bytecode": {
			"linkReferences": {},
			"object": "60406080815234620003e3576200220e803803806200001e81620003fe565b92833981018282820312620003e35781516001600160401b039290838111620003e35781019180601f84011215620003e3578251938411620003e8578360051b602093848062000070818501620003fe565b809881520192820101928311620003e35790848094939201905b828210620003b757505050015190600192838311156200034d5782815110620002bd57600092836002556005558383905b62000131575b8573e592427a0aece92de3edee1f18e0157c0586156460018060a01b0319731f98431c8ad98523631ae4a59f267346ea31f98481600654161760065573c36442b4a4522e871399cd717abdd847ab11fe88816007541617600755600854161760085551611dbe9081620004508239f35b8151811015620002b7576001600160a01b038062000150838562000424565b51161562000273578062000165838562000424565b5116855285845260ff87862054166200022f578062000185838562000424565b51168552858452868520805460ff191687179055620001a5828462000424565b51168454680100000000000000008110156200021b5786810180875581101562000207578580528486200180546001600160a01b0319169091179055808501908110620001f35784620000bb565b634e487b7160e01b84526011600452602484fd5b634e487b7160e01b86526032600452602486fd5b634e487b7160e01b86526041600452602486fd5b865162461bcd60e51b815260048101859052601460248201527f546865204f776e6572206e6f7420756e697175650000000000000000000000006044820152606490fd5b865162461bcd60e51b815260048101859052601860248201527f5a65726f2061646472657373206e6f7420416c6c6f77656400000000000000006044820152606490fd5b620000c1565b845162461bcd60e51b815260048101839052605a60248201527f546865206e756d626572206f66206f776e657273206d7573742062652067726560448201527f61746572207468616e206f7220657175616c20746f20746865206e756d62657260648201527f206f6620636f6e6669726d6174696f6e73207265717569726564000000000000608482015260a490fd5b845162461bcd60e51b815260048101839052603d60248201527f546865204e756d626572206f6620636f6e6669726d6174696f6e73207265717560448201527f69726564206d7573742062652067726561746572207468616e206f6e650000006064820152608490fd5b815193945091929091906001600160a01b0381168103620003e35781528493929184019084016200008a565b600080fd5b634e487b7160e01b600052604160045260246000fd5b6040519190601f01601f191682016001600160401b03811183821017620003e857604052565b8051821015620004395760209160051b010190565b634e487b7160e01b600052603260045260246000fdfe6080604081815260049182361015610022575b505050361561002057600080fd5b005b600060e0918135831c9081631834c3971461136c5750806329793f7d1461131b57806333ea3dc81461123e57806346ce96dd1461118f5780635869dba8146110f85780635efb3b6d14610df55780639db5dbe414610c98578063a0e67e2b14610bd5578063a910957014610ba6578063ac43a6b814610a3d578063b40b7e0b14610965578063c01a8c84146107a7578063c1756a2c146106fa578063c5e57c6414610467578063ee22610b1461035c578063f47f903314610245578063f73e5aab146102165763fb35f110146100f85750610012565b610100806003193601126102125761010e611400565b92610117611416565b90610120611519565b60c4356001600160a01b0381811693929184900361020e5760e4359481861680960361020a579062ffffff9291338952600160205261016460ff8c8b20541661162e565b818b519a1660208b01521689890152166060870152606435608087015260843560a087015260a43560c087015285015281840152825261012082019082821067ffffffffffffffff8311176101f7576020846101f085858084526101c781611596565b601581527417d8dc99585d19541bdbdb105b99135a5b9d139195605a1b610140830152336118c6565b9051908152f35b634e487b7160e01b815260418552602490fd5b8780fd5b8680fd5b5080fd5b50823461021257816003193601126102125760209051731f98431c8ad98523631ae4a59f267346ea31f9848152f35b50838360803660031901126103585761025c611400565b90610265611416565b9161026e611519565b9261027a606435611d29565b938460601b94808604600160601b14901517156103455760075484516309f56ab160e11b81526001600160a01b0394851697810197909752918316602487015262ffffff16604486015292811660648501529160209084906084908290349087165af192831561033b5784936102f7575b50602093505191168152f35b9092506020813d8211610333575b81610312602093836115b2565b8101031261032f5751818116810361032f576020935091846102eb565b8380fd5b3d9150610305565b81513d86823e3d90fd5b634e487b7160e01b875260118652602487fd5b8280fd5b508383346103585760208060031936011261032f578235923385526001825261038a60ff848720541661162e565b8315158061045b575b61039c90611666565b83855260038252828520600101546103bd906001600160a01b0316156116b2565b838552600382526002838620015460055411610426575060039083855252822060018101336bffffffffffffffffffffffff60a01b825416179055600742910155337f5445f318f4f5fcfb66592e68e0cc5822aa15664039bd5f0ffde24c5a8142b1ac8380a380f35b915162461bcd60e51b81529182015260116024820152700c6c2dcdcdee840caf0cac6eae8ca40e8f607b1b6044820152606490fd5b50600254841115610393565b50913461035857806003193601126103585783359160249182359233865260019660209388855261049d60ff858a20541661162e565b6104a78688611d16565b9560029081548098116106c157806104c86104c2828c611d16565b8a611cb2565b10156106b7576104e16104db828b611d16565b89611cb2565b989995995b6104ef8a61180d565b996104fc8c519b8c6115b2565b808b5261050b601f199161180d565b01875b81811061069a5750508b87905b610584575b505050505050508451948086019086528451809152606086018360608360051b890101960192905b82821061055b5787808888888301520390f35b9091929584806105768b93605f198c82030186528a5161146c565b980192019201909291610548565b8a9b979b518110156106925761059a8383611d16565b8d82019081831161068057898f928f610608908e6105bd61060194600797611825565b825284600392838352209451966105d38861155d565b85546001600160a01b039081168952908601541690870152898401548e8701528d5192839182908601611777565b03826115b2565b60608401528a5161061f81610601818d8601611777565b6080840152610630600582016115d4565b60a0840152600681015460c084015201548682015261064f828d611848565b5261065a818c611848565b508c810180911161066e57969a968c61051b565b634e487b7160e01b8c5260118652868cfd5b634e487b7160e01b8e5260118852888efd5b9a969a610520565b808c8b9a9e9a80936106aa6116fe565b92010152019b979b61050e565b80989995996104e6565b855162461bcd60e51b81528085018890526014818701527350616765206973204f7574206f662052616e676560601b6044820152606490fd5b5082843461035857816003193601126103585780356001600160a01b0381169081900361032f5760243591824710610758575083808093819382821561074f575bf115610745575080f35b51903d90823e3d90fd5b506108fc61073b565b608490602085519162461bcd60e51b83528201526024808201527f496e73756666696369656e742062616c616e636520696e2074686520636f6e746044820152631c9858dd60e21b6064820152fd5b84828534610212576020908160031936011261035857833591338452600181526107d660ff838620541661162e565b82151580610959575b6107e890611666565b8284526003815281842060010154610809906001600160a01b0316156116b2565b828452848152818420338552815260ff828520541661091757828452600381526005828520018054906801000000000000000082101561090457600182018082558210156108f15785528185200180546001600160a01b031916331790558284526003815281842060020154600181019081106108de5790856003928587528383526002858820015581528285203386528152828520600160ff19825416179055838552526007429184200155337f5cbe105e36805f7820e291f799d5794ff948af2a5f664e580382defb633900418380a380f35b634e487b7160e01b855260118652602485fd5b634e487b7160e01b865260328752602486fd5b634e487b7160e01b865260418752602486fd5b8490606492519162461bcd60e51b8352820152601d60248201527f5472616e73616374696f6e20616c726561647920636f6e6669726d65640000006044820152fd5b506002548311156107df565b5034610a3a5760a0366003190112610a3a5761097f611400565b91610988611416565b926084359062ffffff821680920361032f5733845260016020526109b160ff878620541661162e565b85516001600160a01b0391821660208201529416848601526044356060850152606435608085015260a080850191909152835260c083019167ffffffffffffffff831184841017610a27576020856101f086866405f737761760dc1b87828652610a1a83611596565b60058352830152336118c6565b634e487b7160e01b815260418652602490fd5b80fd5b508281853461021257610a4f366113d5565b949093805194610a5e8661152b565b8086526001600160801b038097166020870152828287015282606087015242608087015281610aae60018060a01b03978860075416908351988980948193630624e65f60e11b83528b8301611c75565b03925af1938415610b9a57610b0a9784968596610b74575b50968394959697845193610ad98561157a565b8452306020850152808585015260608401526007541690858451809a8195829463fc6f786560e01b84528301611c1f565b03925af1928315610b69576080958394610b34575b50815194855260208501528301526060820152f35b90935081610b589293503d8411610b62575b610b5081836115b2565b810190611c09565b9190919286610b1f565b503d610b46565b5051903d90823e3d90fd5b610b9091975084809697503d8611610b6257610b5081836115b2565b9096909594610ac6565b505051903d90823e3d90fd5b5082346102125781600319360112610212576020905173c36442b4a4522e871399cd717abdd847ab11fe888152f35b838234610a3a5780600319360112610a3a57908051918290805491828552602080950180938380527f290decd9548b62a8d60345a988386fc84ba6bc95484008f6362f93160ef3e56390845b818110610c7b5750505081610c379103826115b2565b83519485948186019282875251809352850193925b828110610c5b57505050500390f35b83516001600160a01b031685528695509381019392810192600101610c4c565b82546001600160a01b031684529288019260019283019201610c21565b8382863461021257606036600319011261021257610cb4611400565b92610cbd611416565b81516370a0823160e01b81523084820152604435956020946001600160a01b0390911692918581602481875afa908115610deb579088918891610dba575b5010610d8057835163a9059cbb60e01b81526001600160a01b0390921690820190815260208101879052909291849184919082908890829060400103925af1908115610d775750610d4a578280f35b81610d6992903d10610d70575b610d6181836115b2565b810190611c5d565b5081808280f35b503d610d57565b513d85823e3d90fd5b835162461bcd60e51b81529081018590526014602482015273496e73756666696369656e742062616c616e636560601b6044820152606490fd5b809250878092503d8311610de4575b610dd381836115b2565b8101031261020e5787905189610cfb565b503d610dc9565b85513d89823e3d90fd5b50905034610a3a5760a0366003190112610a3a57610e11611400565b91610e1a611416565b81516323b872dd60e01b8082523382880190815230602082810191909152606435604083018190526084359990989197956001600160a01b03959194908616939286169290919089908290819060600103818a875af180156110ee576110d1575b50865190815233848201908152306020820152604081018b9052889082908190606001038189875af180156110aa576110b4575b50600754865163095ea7b360e01b8082529186166001600160a01b0316858201908152602081018b9052919290918991839182908a90829060400103925af180156110aa579288928b92610f359561108d575b50600754895191825287166001600160a01b03168682019081526020810193909352938492839189918391604090910190565b03925af1801561108357611066575b50835160c0810181811067ffffffffffffffff821117611053579060c49186526044358152868101978852858101988952846060998a95868401838152608085019084825260a086019242845260075416938b519d8e998a9863219f5d1760e01b8a5251908901525160248801525160448701525160648601525160848501525160a48401525af1928315611047578194828095610ff5575b50506001600160801b03835195168552840152820152f35b925080955086809295503d8311611040575b61101181836115b2565b81010312610a3a578351906001600160801b0382168203610a3a57508183850151940151909390923880610fdd565b503d611007565b509051903d90823e3d90fd5b634e487b7160e01b855260418352602485fd5b61107c90863d8811610d7057610d6181836115b2565b5038610f44565b85513d86823e3d90fd5b6110a390853d8711610d7057610d6181836115b2565b5038610f02565b87513d88823e3d90fd5b6110ca90883d8a11610d7057610d6181836115b2565b5038610eaf565b6110e790893d8b11610d7057610d6181836115b2565b5038610e7b565b88513d89823e3d90fd5b5082346102125780600319360112610212576101f061115961116760209461113460ff86611124611400565b9333815260018a5220541661162e565b84516001600160a01b0390911686820190815260243560208201529092839160400190565b03601f1981018352826115b2565b825161117281611596565b600b81526a0beeadceee4c2e0ae8aa8960ab1b85820152336118c6565b8382863461021257602036600319011261021257826111f6918151906111b48261157a565b803582523060208301526001600160801b038084840152606083015260018060a01b03600754169085845180968195829463fc6f786560e01b84528301611c1f565b03925af1908115611234578291611215575b5082519182526020820152f35b905061122e9150823d8411610b6257610b5081836115b2565b83611208565b83513d84823e3d90fd5b5092913461032f5760209182600319360112611317576007826113139495966112656116fe565b503381526001875261127c60ff838320541661162e565b8735815260038752206106016112de8551986112978a61155d565b83546001600160a01b039081168b52600185015416898b01526002840154878b015286516112cc816106018160038901611777565b60608b01528651928380928601611777565b60808801526112ef600582016115d4565b60a0880152600681015460c08801520154908501525192828493845283019061146c565b0390f35b8480fd5b5082346102125780600319360112610212576101f061115961134760209461113460ff86611124611400565b825161135281611596565b60088152670beeee4c2e08aa8960c31b85820152336118c6565b8285918734610358576111f69184916001600160801b0361138c366113d5565b906113968561152b565b8452166020830152848383015284606083015242608083015260018060a01b036007541690858451809681958294630624e65f60e11b84528301611c75565b60409060031901126113fb57600435906024356001600160801b03811681036113fb5790565b600080fd5b600435906001600160a01b03821682036113fb57565b602435906001600160a01b03821682036113fb57565b919082519283825260005b848110611458575050826000602080949584010152601f8019910116010190565b602081830181015184830182015201611437565b9060018060a01b039182815116825260209280848301511684840152604082015160408401526114c06114ae606084015161010080606088015286019061142c565b6080840151858203608087015261142c565b60a08301519484820360a08601528080875193848152019601926000905b83821061150057505050505060e08160c08293015160c0850152015191015290565b84518116885296820196938201936001909101906114de565b6044359062ffffff821682036113fb57565b60a0810190811067ffffffffffffffff82111761154757604052565b634e487b7160e01b600052604160045260246000fd5b610100810190811067ffffffffffffffff82111761154757604052565b6080810190811067ffffffffffffffff82111761154757604052565b6040810190811067ffffffffffffffff82111761154757604052565b90601f8019910116810190811067ffffffffffffffff82111761154757604052565b9060405191828154918282526020928383019160005283600020936000905b82821061160b57505050611609925003836115b2565b565b85546001600160a01b0316845260019586019588955093810193909101906115f3565b1561163557565b60405162461bcd60e51b81526020600482015260096024820152683737ba1037bbb732b960b91b6044820152606490fd5b1561166d57565b60405162461bcd60e51b815260206004820152601a60248201527f5472616e73616374696f6e20646f6573206e6f742065786973740000000000006044820152606490fd5b156116b957565b60405162461bcd60e51b815260206004820152601c60248201527f5472616e73616374696f6e20616c7265616479206578656375746564000000006044820152606490fd5b6040519061170b8261155d565b600060e08382815282602082015282604082015260608082015260606080820152606060a08201528260c08201520152565b90600182811c9216801561176d575b602083101461175757565b634e487b7160e01b600052602260045260246000fd5b91607f169161174c565b90600092918054916117888361173d565b9182825260019384811690816000146117ea57506001146117aa575b50505050565b90919394506000526020928360002092846000945b8386106117d65750505050010190388080806117a4565b8054858701830152940193859082016117bf565b9294505050602093945060ff191683830152151560051b010190388080806117a4565b67ffffffffffffffff81116115475760051b60200190565b9190820180921161183257565b634e487b7160e01b600052601160045260246000fd5b805182101561185c5760209160051b010190565b634e487b7160e01b600052603260045260246000fd5b90601f811161188057505050565b600091825260208220906020601f850160051c830194106118bc575b601f0160051c01915b8281106118b157505050565b8181556001016118a5565b909250829061189c565b909291906001600160a01b03168015611bc457835115611b7f57815115611b435760028054926001908185018095116118325784835560009485526003906020908282526040938488206bffffffffffffffffffffffff60a01b9088828254161790558654895281868a20019081541690558554885283858920018a5167ffffffffffffffff9b8c8211611b2f57819061196a82611964865461173d565b86611872565b8690601f8311600114611ad1578c92611ac6575b505060001982881b1c191690831b1790555b855488528383526004858920019180519a8b11611ab2576119bb8b6119b5855461173d565b85611872565b8390601f8c11600114611a35579a809281927fc82555d64d2b8b25ffefc140ae6575736763ee3a99347632d7f633e7bfae3f789c9d8c94611a2a575b50501b9160001990861b1c19161790555b835486525242600682862001558154845260074291852001555492828493a390565b0151925038806119f7565b838a52848a20909b91601f1983168b5b818110611a9d57509c837fc82555d64d2b8b25ffefc140ae6575736763ee3a99347632d7f633e7bfae3f789d9e10611a85575b505050811b019055611a08565b015160001983881b60f8161c19169055388080611a78565b8e830151845592850192918701918701611a45565b634e487b7160e01b89526041600452602489fd5b01519050388061197e565b848d52878d208694509190601f1984168e5b8a828210611b195750508411611b01575b505050811b019055611990565b0151600019838a1b60f8161c19169055388080611af4565b8385015186558997909501949384019301611ae3565b634e487b7160e01b8b52604160045260248bfd5b60405162461bcd60e51b8152602060048201526014602482015273151a194811185d18481a5cc81c995c5d5a5c995960621b6044820152606490fd5b60405162461bcd60e51b815260206004820152601d60248201527f5468652046756e6374696f6e206e616d652069732072657175697265640000006044820152606490fd5b60405162461bcd60e51b815260206004820152601860248201527f5a65726f2061646472657373206e6f7420416c6c6f77656400000000000000006044820152606490fd5b91908260409103126113fb576020825192015190565b919091606060808201938051835260018060a01b036020820151166020840152816001600160801b0391826040820151166040860152015116910152565b908160209103126113fb575180151581036113fb5790565b91909160808060a0830194805184526001600160801b03602082015116602085015260408101516040850152606081015160608501520151910152565b90818111611cc65781039081116118325790565b60405162461bcd60e51b815260206004820152602260248201527f61206d7573742062652067726561746572207468616e206f7220657175616c73604482015261103160f11b6064820152608490fd5b8181029291811591840414171561183257565b8015611d8257600180820180831161183257811c90825b838310611d4d5750505090565b91925090828015611d6d5780611d64918304611825565b821c9190611d40565b60246000634e487b7160e01b81526012600452fd5b5060009056fea26469706673582212203d1128da8e9f7374271babc95b864657fe4127875e12fef8ddad3e666d39773364736f6c63430008130033",
			"opcodes": "PUSH1 0x40 PUSH1 0x80 DUP2 MSTORE CALLVALUE PUSH3 0x3E3 JUMPI PUSH3 0x220E DUP1 CODESIZE SUB DUP1 PUSH3 0x1E DUP2 PUSH3 0x3FE JUMP JUMPDEST SWAP3 DUP4 CODECOPY DUP2 ADD DUP3 DUP3 DUP3 SUB SLT PUSH3 0x3E3 JUMPI DUP2 MLOAD PUSH1 0x1 PUSH1 0x1 PUSH1 0x40 SHL SUB SWAP3 SWAP1 DUP4 DUP2 GT PUSH3 0x3E3 JUMPI DUP2 ADD SWAP2 DUP1 PUSH1 0x1F DUP5 ADD SLT ISZERO PUSH3 0x3E3 JUMPI DUP3 MLOAD SWAP4 DUP5 GT PUSH3 0x3E8 JUMPI DUP4 PUSH1 0x5 SHL PUSH1 0x20 SWAP4 DUP5 DUP1 PUSH3 0x70 DUP2 DUP6 ADD PUSH3 0x3FE JUMP JUMPDEST DUP1 SWAP9 DUP2 MSTORE ADD SWAP3 DUP3 ADD ADD SWAP3 DUP4 GT PUSH3 0x3E3 JUMPI SWAP1 DUP5 DUP1 SWAP5 SWAP4 SWAP3 ADD SWAP1 JUMPDEST DUP3 DUP3 LT PUSH3 0x3B7 JUMPI POP POP POP ADD MLOAD SWAP1 PUSH1 0x1 SWAP3 DUP4 DUP4 GT ISZERO PUSH3 0x34D JUMPI DUP3 DUP2 MLOAD LT PUSH3 0x2BD JUMPI PUSH1 0x0 SWAP3 DUP4 PUSH1 0x2 SSTORE PUSH1 0x5 SSTORE DUP4 DUP4 SWAP1 JUMPDEST PUSH3 0x131 JUMPI JUMPDEST DUP6 PUSH20 0xE592427A0AECE92DE3EDEE1F18E0157C05861564 PUSH1 0x1 DUP1 PUSH1 0xA0 SHL SUB NOT PUSH20 0x1F98431C8AD98523631AE4A59F267346EA31F984 DUP2 PUSH1 0x6 SLOAD AND OR PUSH1 0x6 SSTORE PUSH20 0xC36442B4A4522E871399CD717ABDD847AB11FE88 DUP2 PUSH1 0x7 SLOAD AND OR PUSH1 0x7 SSTORE PUSH1 0x8 SLOAD AND OR PUSH1 0x8 SSTORE MLOAD PUSH2 0x1DBE SWAP1 DUP2 PUSH3 0x450 DUP3 CODECOPY RETURN JUMPDEST DUP2 MLOAD DUP2 LT ISZERO PUSH3 0x2B7 JUMPI PUSH1 0x1 PUSH1 0x1 PUSH1 0xA0 SHL SUB DUP1 PUSH3 0x150 DUP4 DUP6 PUSH3 0x424 JUMP JUMPDEST MLOAD AND ISZERO PUSH3 0x273 JUMPI DUP1 PUSH3 0x165 DUP4 DUP6 PUSH3 0x424 JUMP JUMPDEST MLOAD AND DUP6 MSTORE DUP6 DUP5 MSTORE PUSH1 0xFF DUP8 DUP7 KECCAK256 SLOAD AND PUSH3 0x22F JUMPI DUP1 PUSH3 0x185 DUP4 DUP6 PUSH3 0x424 JUMP JUMPDEST MLOAD AND DUP6 MSTORE DUP6 DUP5 MSTORE DUP7 DUP6 KECCAK256 DUP1 SLOAD PUSH1 0xFF NOT AND DUP8 OR SWAP1 SSTORE PUSH3 0x1A5 DUP3 DUP5 PUSH3 0x424 JUMP JUMPDEST MLOAD AND DUP5 SLOAD PUSH9 0x10000000000000000 DUP2 LT ISZERO PUSH3 0x21B JUMPI DUP7 DUP2 ADD DUP1 DUP8 SSTORE DUP2 LT ISZERO PUSH3 0x207 JUMPI DUP6 DUP1 MSTORE DUP5 DUP7 KECCAK256 ADD DUP1 SLOAD PUSH1 0x1 PUSH1 0x1 PUSH1 0xA0 SHL SUB NOT AND SWAP1 SWAP2 OR SWAP1 SSTORE DUP1 DUP6 ADD SWAP1 DUP2 LT PUSH3 0x1F3 JUMPI DUP5 PUSH3 0xBB JUMP JUMPDEST PUSH4 0x4E487B71 PUSH1 0xE0 SHL DUP5 MSTORE PUSH1 0x11 PUSH1 0x4 MSTORE PUSH1 0x24 DUP5 REVERT JUMPDEST PUSH4 0x4E487B71 PUSH1 0xE0 SHL DUP7 MSTORE PUSH1 0x32 PUSH1 0x4 MSTORE PUSH1 0x24 DUP7 REVERT JUMPDEST PUSH4 0x4E487B71 PUSH1 0xE0 SHL DUP7 MSTORE PUSH1 0x41 PUSH1 0x4 MSTORE PUSH1 0x24 DUP7 REVERT JUMPDEST DUP7 MLOAD PUSH3 0x461BCD PUSH1 0xE5 SHL DUP2 MSTORE PUSH1 0x4 DUP2 ADD DUP6 SWAP1 MSTORE PUSH1 0x14 PUSH1 0x24 DUP3 ADD MSTORE PUSH32 0x546865204F776E6572206E6F7420756E69717565000000000000000000000000 PUSH1 0x44 DUP3 ADD MSTORE PUSH1 0x64 SWAP1 REVERT JUMPDEST DUP7 MLOAD PUSH3 0x461BCD PUSH1 0xE5 SHL DUP2 MSTORE PUSH1 0x4 DUP2 ADD DUP6 SWAP1 MSTORE PUSH1 0x18 PUSH1 0x24 DUP3 ADD MSTORE PUSH32 0x5A65726F2061646472657373206E6F7420416C6C6F7765640000000000000000 PUSH1 0x44 DUP3 ADD MSTORE PUSH1 0x64 SWAP1 REVERT JUMPDEST PUSH3 0xC1 JUMP JUMPDEST DUP5 MLOAD PUSH3 0x461BCD PUSH1 0xE5 SHL DUP2 MSTORE PUSH1 0x4 DUP2 ADD DUP4 SWAP1 MSTORE PUSH1 0x5A PUSH1 0x24 DUP3 ADD MSTORE PUSH32 0x546865206E756D626572206F66206F776E657273206D75737420626520677265 PUSH1 0x44 DUP3 ADD MSTORE PUSH32 0x61746572207468616E206F7220657175616C20746F20746865206E756D626572 PUSH1 0x64 DUP3 ADD MSTORE PUSH32 0x206F6620636F6E6669726D6174696F6E73207265717569726564000000000000 PUSH1 0x84 DUP3 ADD MSTORE PUSH1 0xA4 SWAP1 REVERT JUMPDEST DUP5 MLOAD PUSH3 0x461BCD PUSH1 0xE5 SHL DUP2 MSTORE PUSH1 0x4 DUP2 ADD DUP4 SWAP1 MSTORE PUSH1 0x3D PUSH1 0x24 DUP3 ADD MSTORE PUSH32 0x546865204E756D626572206F6620636F6E6669726D6174696F6E732072657175 PUSH1 0x44 DUP3 ADD MSTORE PUSH32 0x69726564206D7573742062652067726561746572207468616E206F6E65000000 PUSH1 0x64 DUP3 ADD MSTORE PUSH1 0x84 SWAP1 REVERT JUMPDEST DUP2 MLOAD SWAP4 SWAP5 POP SWAP2 SWAP3 SWAP1 SWAP2 SWAP1 PUSH1 0x1 PUSH1 0x1 PUSH1 0xA0 SHL SUB DUP2 AND DUP2 SUB PUSH3 0x3E3 JUMPI DUP2 MSTORE DUP5 SWAP4 SWAP3 SWAP2 DUP5 ADD SWAP1 DUP5 ADD PUSH3 0x8A JUMP JUMPDEST PUSH1 0x0 DUP1 REVERT JUMPDEST PUSH4 0x4E487B71 PUSH1 0xE0 SHL PUSH1 0x0 MSTORE PUSH1 0x41 PUSH1 0x4 MSTORE PUSH1 0x24 PUSH1 0x0 REVERT JUMPDEST PUSH1 0x40 MLOAD SWAP2 SWAP1 PUSH1 0x1F ADD PUSH1 0x1F NOT AND DUP3 ADD PUSH1 0x1 PUSH1 0x1 PUSH1 0x40 SHL SUB DUP2 GT DUP4 DUP3 LT OR PUSH3 0x3E8 JUMPI PUSH1 0x40 MSTORE JUMP JUMPDEST DUP1 MLOAD DUP3 LT ISZERO PUSH3 0x439 JUMPI PUSH1 0x20 SWAP2 PUSH1 0x5 SHL ADD ADD SWAP1 JUMP JUMPDEST PUSH4 0x4E487B71 PUSH1 0xE0 SHL PUSH1 0x0 MSTORE PUSH1 0x32 PUSH1 0x4 MSTORE PUSH1 0x24 PUSH1 0x0 REVERT INVALID PUSH1 0x80 PUSH1 0x40 DUP2 DUP2 MSTORE PUSH1 0x4 SWAP2 DUP3 CALLDATASIZE LT ISZERO PUSH2 0x22 JUMPI JUMPDEST POP POP POP CALLDATASIZE ISZERO PUSH2 0x20 JUMPI PUSH1 0x0 DUP1 REVERT JUMPDEST STOP JUMPDEST PUSH1 0x0 PUSH1 0xE0 SWAP2 DUP2 CALLDATALOAD DUP4 SHR SWAP1 DUP2 PUSH4 0x1834C397 EQ PUSH2 0x136C JUMPI POP DUP1 PUSH4 0x29793F7D EQ PUSH2 0x131B JUMPI DUP1 PUSH4 0x33EA3DC8 EQ PUSH2 0x123E JUMPI DUP1 PUSH4 0x46CE96DD EQ PUSH2 0x118F JUMPI DUP1 PUSH4 0x5869DBA8 EQ PUSH2 0x10F8 JUMPI DUP1 PUSH4 0x5EFB3B6D EQ PUSH2 0xDF5 JUMPI DUP1 PUSH4 0x9DB5DBE4 EQ PUSH2 0xC98 JUMPI DUP1 PUSH4 0xA0E67E2B EQ PUSH2 0xBD5 JUMPI DUP1 PUSH4 0xA9109570 EQ PUSH2 0xBA6 JUMPI DUP1 PUSH4 0xAC43A6B8 EQ PUSH2 0xA3D JUMPI DUP1 PUSH4 0xB40B7E0B EQ PUSH2 0x965 JUMPI DUP1 PUSH4 0xC01A8C84 EQ PUSH2 0x7A7 JUMPI DUP1 PUSH4 0xC1756A2C EQ PUSH2 0x6FA JUMPI DUP1 PUSH4 0xC5E57C64 EQ PUSH2 0x467 JUMPI DUP1 PUSH4 0xEE22610B EQ PUSH2 0x35C JUMPI DUP1 PUSH4 0xF47F9033 EQ PUSH2 0x245 JUMPI DUP1 PUSH4 0xF73E5AAB EQ PUSH2 0x216 JUMPI PUSH4 0xFB35F110 EQ PUSH2 0xF8 JUMPI POP PUSH2 0x12 JUMP JUMPDEST PUSH2 0x100 DUP1 PUSH1 0x3 NOT CALLDATASIZE ADD SLT PUSH2 0x212 JUMPI PUSH2 0x10E PUSH2 0x1400 JUMP JUMPDEST SWAP3 PUSH2 0x117 PUSH2 0x1416 JUMP JUMPDEST SWAP1 PUSH2 0x120 PUSH2 0x1519 JUMP JUMPDEST PUSH1 0xC4 CALLDATALOAD PUSH1 0x1 PUSH1 0x1 PUSH1 0xA0 SHL SUB DUP2 DUP2 AND SWAP4 SWAP3 SWAP2 DUP5 SWAP1 SUB PUSH2 0x20E JUMPI PUSH1 0xE4 CALLDATALOAD SWAP5 DUP2 DUP7 AND DUP1 SWAP7 SUB PUSH2 0x20A JUMPI SWAP1 PUSH3 0xFFFFFF SWAP3 SWAP2 CALLER DUP10 MSTORE PUSH1 0x1 PUSH1 0x20 MSTORE PUSH2 0x164 PUSH1 0xFF DUP13 DUP12 KECCAK256 SLOAD AND PUSH2 0x162E JUMP JUMPDEST DUP2 DUP12 MLOAD SWAP11 AND PUSH1 0x20 DUP12 ADD MSTORE AND DUP10 DUP10 ADD MSTORE AND PUSH1 0x60 DUP8 ADD MSTORE PUSH1 0x64 CALLDATALOAD PUSH1 0x80 DUP8 ADD MSTORE PUSH1 0x84 CALLDATALOAD PUSH1 0xA0 DUP8 ADD MSTORE PUSH1 0xA4 CALLDATALOAD PUSH1 0xC0 DUP8 ADD MSTORE DUP6 ADD MSTORE DUP2 DUP5 ADD MSTORE DUP3 MSTORE PUSH2 0x120 DUP3 ADD SWAP1 DUP3 DUP3 LT PUSH8 0xFFFFFFFFFFFFFFFF DUP4 GT OR PUSH2 0x1F7 JUMPI PUSH1 0x20 DUP5 PUSH2 0x1F0 DUP6 DUP6 DUP1 DUP5 MSTORE PUSH2 0x1C7 DUP2 PUSH2 0x1596 JUMP JUMPDEST PUSH1 0x15 DUP2 MSTORE PUSH21 0x17D8DC99585D19541BDBDB105B99135A5B9D139195 PUSH1 0x5A SHL PUSH2 0x140 DUP4 ADD MSTORE CALLER PUSH2 0x18C6 JUMP JUMPDEST SWAP1 MLOAD SWAP1 DUP2 MSTORE RETURN JUMPDEST PUSH4 0x4E487B71 PUSH1 0xE0 SHL DUP2 MSTORE PUSH1 0x41 DUP6 MSTORE PUSH1 0x24 SWAP1 REVERT JUMPDEST DUP8 DUP1 REVERT JUMPDEST DUP7 DUP1 REVERT JUMPDEST POP DUP1 REVERT JUMPDEST POP DUP3 CALLVALUE PUSH2 0x212 JUMPI DUP2 PUSH1 0x3 NOT CALLDATASIZE ADD SLT PUSH2 0x212 JUMPI PUSH1 0x20 SWAP1 MLOAD PUSH20 0x1F98431C8AD98523631AE4A59F267346EA31F984 DUP2 MSTORE RETURN JUMPDEST POP DUP4 DUP4 PUSH1 0x80 CALLDATASIZE PUSH1 0x3 NOT ADD SLT PUSH2 0x358 JUMPI PUSH2 0x25C PUSH2 0x1400 JUMP JUMPDEST SWAP1 PUSH2 0x265 PUSH2 0x1416 JUMP JUMPDEST SWAP2 PUSH2 0x26E PUSH2 0x1519 JUMP JUMPDEST SWAP3 PUSH2 0x27A PUSH1 0x64 CALLDATALOAD PUSH2 0x1D29 JUMP JUMPDEST SWAP4 DUP5 PUSH1 0x60 SHL SWAP5 DUP1 DUP7 DIV PUSH1 0x1 PUSH1 0x60 SHL EQ SWAP1 ISZERO OR ISZERO PUSH2 0x345 JUMPI PUSH1 0x7 SLOAD DUP5 MLOAD PUSH4 0x9F56AB1 PUSH1 0xE1 SHL DUP2 MSTORE PUSH1 0x1 PUSH1 0x1 PUSH1 0xA0 SHL SUB SWAP5 DUP6 AND SWAP8 DUP2 ADD SWAP8 SWAP1 SWAP8 MSTORE SWAP2 DUP4 AND PUSH1 0x24 DUP8 ADD MSTORE PUSH3 0xFFFFFF AND PUSH1 0x44 DUP7 ADD MSTORE SWAP3 DUP2 AND PUSH1 0x64 DUP6 ADD MSTORE SWAP2 PUSH1 0x20 SWAP1 DUP5 SWAP1 PUSH1 0x84 SWAP1 DUP3 SWAP1 CALLVALUE SWAP1 DUP8 AND GAS CALL SWAP3 DUP4 ISZERO PUSH2 0x33B JUMPI DUP5 SWAP4 PUSH2 0x2F7 JUMPI JUMPDEST POP PUSH1 0x20 SWAP4 POP MLOAD SWAP2 AND DUP2 MSTORE RETURN JUMPDEST SWAP1 SWAP3 POP PUSH1 0x20 DUP2 RETURNDATASIZE DUP3 GT PUSH2 0x333 JUMPI JUMPDEST DUP2 PUSH2 0x312 PUSH1 0x20 SWAP4 DUP4 PUSH2 0x15B2 JUMP JUMPDEST DUP2 ADD SUB SLT PUSH2 0x32F JUMPI MLOAD DUP2 DUP2 AND DUP2 SUB PUSH2 0x32F JUMPI PUSH1 0x20 SWAP4 POP SWAP2 DUP5 PUSH2 0x2EB JUMP JUMPDEST DUP4 DUP1 REVERT JUMPDEST RETURNDATASIZE SWAP2 POP PUSH2 0x305 JUMP JUMPDEST DUP2 MLOAD RETURNDATASIZE DUP7 DUP3 RETURNDATACOPY RETURNDATASIZE SWAP1 REVERT JUMPDEST PUSH4 0x4E487B71 PUSH1 0xE0 SHL DUP8 MSTORE PUSH1 0x11 DUP7 MSTORE PUSH1 0x24 DUP8 REVERT JUMPDEST DUP3 DUP1 REVERT JUMPDEST POP DUP4 DUP4 CALLVALUE PUSH2 0x358 JUMPI PUSH1 0x20 DUP1 PUSH1 0x3 NOT CALLDATASIZE ADD SLT PUSH2 0x32F JUMPI DUP3 CALLDATALOAD SWAP3 CALLER DUP6 MSTORE PUSH1 0x1 DUP3 MSTORE PUSH2 0x38A PUSH1 0xFF DUP5 DUP8 KECCAK256 SLOAD AND PUSH2 0x162E JUMP JUMPDEST DUP4 ISZERO ISZERO DUP1 PUSH2 0x45B JUMPI JUMPDEST PUSH2 0x39C SWAP1 PUSH2 0x1666 JUMP JUMPDEST DUP4 DUP6 MSTORE PUSH1 0x3 DUP3 MSTORE DUP3 DUP6 KECCAK256 PUSH1 0x1 ADD SLOAD PUSH2 0x3BD SWAP1 PUSH1 0x1 PUSH1 0x1 PUSH1 0xA0 SHL SUB AND ISZERO PUSH2 0x16B2 JUMP JUMPDEST DUP4 DUP6 MSTORE PUSH1 0x3 DUP3 MSTORE PUSH1 0x2 DUP4 DUP7 KECCAK256 ADD SLOAD PUSH1 0x5 SLOAD GT PUSH2 0x426 JUMPI POP PUSH1 0x3 SWAP1 DUP4 DUP6 MSTORE MSTORE DUP3 KECCAK256 PUSH1 0x1 DUP2 ADD CALLER PUSH12 0xFFFFFFFFFFFFFFFFFFFFFFFF PUSH1 0xA0 SHL DUP3 SLOAD AND OR SWAP1 SSTORE PUSH1 0x7 TIMESTAMP SWAP2 ADD SSTORE CALLER PUSH32 0x5445F318F4F5FCFB66592E68E0CC5822AA15664039BD5F0FFDE24C5A8142B1AC DUP4 DUP1 LOG3 DUP1 RETURN JUMPDEST SWAP2 MLOAD PUSH3 0x461BCD PUSH1 0xE5 SHL DUP2 MSTORE SWAP2 DUP3 ADD MSTORE PUSH1 0x11 PUSH1 0x24 DUP3 ADD MSTORE PUSH17 0xC6C2DCDCDEE840CAF0CAC6EAE8CA40E8F PUSH1 0x7B SHL PUSH1 0x44 DUP3 ADD MSTORE PUSH1 0x64 SWAP1 REVERT JUMPDEST POP PUSH1 0x2 SLOAD DUP5 GT ISZERO PUSH2 0x393 JUMP JUMPDEST POP SWAP2 CALLVALUE PUSH2 0x358 JUMPI DUP1 PUSH1 0x3 NOT CALLDATASIZE ADD SLT PUSH2 0x358 JUMPI DUP4 CALLDATALOAD SWAP2 PUSH1 0x24 SWAP2 DUP3 CALLDATALOAD SWAP3 CALLER DUP7 MSTORE PUSH1 0x1 SWAP7 PUSH1 0x20 SWAP4 DUP9 DUP6 MSTORE PUSH2 0x49D PUSH1 0xFF DUP6 DUP11 KECCAK256 SLOAD AND PUSH2 0x162E JUMP JUMPDEST PUSH2 0x4A7 DUP7 DUP9 PUSH2 0x1D16 JUMP JUMPDEST SWAP6 PUSH1 0x2 SWAP1 DUP2 SLOAD DUP1 SWAP9 GT PUSH2 0x6C1 JUMPI DUP1 PUSH2 0x4C8 PUSH2 0x4C2 DUP3 DUP13 PUSH2 0x1D16 JUMP JUMPDEST DUP11 PUSH2 0x1CB2 JUMP JUMPDEST LT ISZERO PUSH2 0x6B7 JUMPI PUSH2 0x4E1 PUSH2 0x4DB DUP3 DUP12 PUSH2 0x1D16 JUMP JUMPDEST DUP10 PUSH2 0x1CB2 JUMP JUMPDEST SWAP9 SWAP10 SWAP6 SWAP10 JUMPDEST PUSH2 0x4EF DUP11 PUSH2 0x180D JUMP JUMPDEST SWAP10 PUSH2 0x4FC DUP13 MLOAD SWAP12 DUP13 PUSH2 0x15B2 JUMP JUMPDEST DUP1 DUP12 MSTORE PUSH2 0x50B PUSH1 0x1F NOT SWAP2 PUSH2 0x180D JUMP JUMPDEST ADD DUP8 JUMPDEST DUP2 DUP2 LT PUSH2 0x69A JUMPI POP POP DUP12 DUP8 SWAP1 JUMPDEST PUSH2 0x584 JUMPI JUMPDEST POP POP POP POP POP POP POP DUP5 MLOAD SWAP5 DUP1 DUP7 ADD SWAP1 DUP7 MSTORE DUP5 MLOAD DUP1 SWAP2 MSTORE PUSH1 0x60 DUP7 ADD DUP4 PUSH1 0x60 DUP4 PUSH1 0x5 SHL DUP10 ADD ADD SWAP7 ADD SWAP3 SWAP1 JUMPDEST DUP3 DUP3 LT PUSH2 0x55B JUMPI DUP8 DUP1 DUP9 DUP9 DUP9 DUP4 ADD MSTORE SUB SWAP1 RETURN JUMPDEST SWAP1 SWAP2 SWAP3 SWAP6 DUP5 DUP1 PUSH2 0x576 DUP12 SWAP4 PUSH1 0x5F NOT DUP13 DUP3 SUB ADD DUP7 MSTORE DUP11 MLOAD PUSH2 0x146C JUMP JUMPDEST SWAP9 ADD SWAP3 ADD SWAP3 ADD SWAP1 SWAP3 SWAP2 PUSH2 0x548 JUMP JUMPDEST DUP11 SWAP12 SWAP8 SWAP12 MLOAD DUP2 LT ISZERO PUSH2 0x692 JUMPI PUSH2 0x59A DUP4 DUP4 PUSH2 0x1D16 JUMP JUMPDEST DUP14 DUP3 ADD SWAP1 DUP2 DUP4 GT PUSH2 0x680 JUMPI DUP10 DUP16 SWAP3 DUP16 PUSH2 0x608 SWAP1 DUP15 PUSH2 0x5BD PUSH2 0x601 SWAP5 PUSH1 0x7 SWAP8 PUSH2 0x1825 JUMP JUMPDEST DUP3 MSTORE DUP5 PUSH1 0x3 SWAP3 DUP4 DUP4 MSTORE KECCAK256 SWAP5 MLOAD SWAP7 PUSH2 0x5D3 DUP9 PUSH2 0x155D JUMP JUMPDEST DUP6 SLOAD PUSH1 0x1 PUSH1 0x1 PUSH1 0xA0 SHL SUB SWAP1 DUP2 AND DUP10 MSTORE SWAP1 DUP7 ADD SLOAD AND SWAP1 DUP8 ADD MSTORE DUP10 DUP5 ADD SLOAD DUP15 DUP8 ADD MSTORE DUP14 MLOAD SWAP3 DUP4 SWAP2 DUP3 SWAP1 DUP7 ADD PUSH2 0x1777 JUMP JUMPDEST SUB DUP3 PUSH2 0x15B2 JUMP JUMPDEST PUSH1 0x60 DUP5 ADD MSTORE DUP11 MLOAD PUSH2 0x61F DUP2 PUSH2 0x601 DUP2 DUP14 DUP7 ADD PUSH2 0x1777 JUMP JUMPDEST PUSH1 0x80 DUP5 ADD MSTORE PUSH2 0x630 PUSH1 0x5 DUP3 ADD PUSH2 0x15D4 JUMP JUMPDEST PUSH1 0xA0 DUP5 ADD MSTORE PUSH1 0x6 DUP2 ADD SLOAD PUSH1 0xC0 DUP5 ADD MSTORE ADD SLOAD DUP7 DUP3 ADD MSTORE PUSH2 0x64F DUP3 DUP14 PUSH2 0x1848 JUMP JUMPDEST MSTORE PUSH2 0x65A DUP2 DUP13 PUSH2 0x1848 JUMP JUMPDEST POP DUP13 DUP2 ADD DUP1 SWAP2 GT PUSH2 0x66E JUMPI SWAP7 SWAP11 SWAP7 DUP13 PUSH2 0x51B JUMP JUMPDEST PUSH4 0x4E487B71 PUSH1 0xE0 SHL DUP13 MSTORE PUSH1 0x11 DUP7 MSTORE DUP7 DUP13 REVERT JUMPDEST PUSH4 0x4E487B71 PUSH1 0xE0 SHL DUP15 MSTORE PUSH1 0x11 DUP9 MSTORE DUP9 DUP15 REVERT JUMPDEST SWAP11 SWAP7 SWAP11 PUSH2 0x520 JUMP JUMPDEST DUP1 DUP13 DUP12 SWAP11 SWAP15 SWAP11 DUP1 SWAP4 PUSH2 0x6AA PUSH2 0x16FE JUMP JUMPDEST SWAP3 ADD ADD MSTORE ADD SWAP12 SWAP8 SWAP12 PUSH2 0x50E JUMP JUMPDEST DUP1 SWAP9 SWAP10 SWAP6 SWAP10 PUSH2 0x4E6 JUMP JUMPDEST DUP6 MLOAD PUSH3 0x461BCD PUSH1 0xE5 SHL DUP2 MSTORE DUP1 DUP6 ADD DUP9 SWAP1 MSTORE PUSH1 0x14 DUP2 DUP8 ADD MSTORE PUSH20 0x50616765206973204F7574206F662052616E6765 PUSH1 0x60 SHL PUSH1 0x44 DUP3 ADD MSTORE PUSH1 0x64 SWAP1 REVERT JUMPDEST POP DUP3 DUP5 CALLVALUE PUSH2 0x358 JUMPI DUP2 PUSH1 0x3 NOT CALLDATASIZE ADD SLT PUSH2 0x358 JUMPI DUP1 CALLDATALOAD PUSH1 0x1 PUSH1 0x1 PUSH1 0xA0 SHL SUB DUP2 AND SWAP1 DUP2 SWAP1 SUB PUSH2 0x32F JUMPI PUSH1 0x24 CALLDATALOAD SWAP2 DUP3 SELFBALANCE LT PUSH2 0x758 JUMPI POP DUP4 DUP1 DUP1 SWAP4 DUP2 SWAP4 DUP3 DUP3 ISZERO PUSH2 0x74F JUMPI JUMPDEST CALL ISZERO PUSH2 0x745 JUMPI POP DUP1 RETURN JUMPDEST MLOAD SWAP1 RETURNDATASIZE SWAP1 DUP3 RETURNDATACOPY RETURNDATASIZE SWAP1 REVERT JUMPDEST POP PUSH2 0x8FC PUSH2 0x73B JUMP JUMPDEST PUSH1 0x84 SWAP1 PUSH1 0x20 DUP6 MLOAD SWAP2 PUSH3 0x461BCD PUSH1 0xE5 SHL DUP4 MSTORE DUP3 ADD MSTORE PUSH1 0x24 DUP1 DUP3 ADD MSTORE PUSH32 0x496E73756666696369656E742062616C616E636520696E2074686520636F6E74 PUSH1 0x44 DUP3 ADD MSTORE PUSH4 0x1C9858DD PUSH1 0xE2 SHL PUSH1 0x64 DUP3 ADD MSTORE REVERT JUMPDEST DUP5 DUP3 DUP6 CALLVALUE PUSH2 0x212 JUMPI PUSH1 0x20 SWAP1 DUP2 PUSH1 0x3 NOT CALLDATASIZE ADD SLT PUSH2 0x358 JUMPI DUP4 CALLDATALOAD SWAP2 CALLER DUP5 MSTORE PUSH1 0x1 DUP2 MSTORE PUSH2 0x7D6 PUSH1 0xFF DUP4 DUP7 KECCAK256 SLOAD AND PUSH2 0x162E JUMP JUMPDEST DUP3 ISZERO ISZERO DUP1 PUSH2 0x959 JUMPI JUMPDEST PUSH2 0x7E8 SWAP1 PUSH2 0x1666 JUMP JUMPDEST DUP3 DUP5 MSTORE PUSH1 0x3 DUP2 MSTORE DUP2 DUP5 KECCAK256 PUSH1 0x1 ADD SLOAD PUSH2 0x809 SWAP1 PUSH1 0x1 PUSH1 0x1 PUSH1 0xA0 SHL SUB AND ISZERO PUSH2 0x16B2 JUMP JUMPDEST DUP3 DUP5 MSTORE DUP5 DUP2 MSTORE DUP2 DUP5 KECCAK256 CALLER DUP6 MSTORE DUP2 MSTORE PUSH1 0xFF DUP3 DUP6 KECCAK256 SLOAD AND PUSH2 0x917 JUMPI DUP3 DUP5 MSTORE PUSH1 0x3 DUP2 MSTORE PUSH1 0x5 DUP3 DUP6 KECCAK256 ADD DUP1 SLOAD SWAP1 PUSH9 0x10000000000000000 DUP3 LT ISZERO PUSH2 0x904 JUMPI PUSH1 0x1 DUP3 ADD DUP1 DUP3 SSTORE DUP3 LT ISZERO PUSH2 0x8F1 JUMPI DUP6 MSTORE DUP2 DUP6 KECCAK256 ADD DUP1 SLOAD PUSH1 0x1 PUSH1 0x1 PUSH1 0xA0 SHL SUB NOT AND CALLER OR SWAP1 SSTORE DUP3 DUP5 MSTORE PUSH1 0x3 DUP2 MSTORE DUP2 DUP5 KECCAK256 PUSH1 0x2 ADD SLOAD PUSH1 0x1 DUP2 ADD SWAP1 DUP2 LT PUSH2 0x8DE JUMPI SWAP1 DUP6 PUSH1 0x3 SWAP3 DUP6 DUP8 MSTORE DUP4 DUP4 MSTORE PUSH1 0x2 DUP6 DUP9 KECCAK256 ADD SSTORE DUP2 MSTORE DUP3 DUP6 KECCAK256 CALLER DUP7 MSTORE DUP2 MSTORE DUP3 DUP6 KECCAK256 PUSH1 0x1 PUSH1 0xFF NOT DUP3 SLOAD AND OR SWAP1 SSTORE DUP4 DUP6 MSTORE MSTORE PUSH1 0x7 TIMESTAMP SWAP2 DUP5 KECCAK256 ADD SSTORE CALLER PUSH32 0x5CBE105E36805F7820E291F799D5794FF948AF2A5F664E580382DEFB63390041 DUP4 DUP1 LOG3 DUP1 RETURN JUMPDEST PUSH4 0x4E487B71 PUSH1 0xE0 SHL DUP6 MSTORE PUSH1 0x11 DUP7 MSTORE PUSH1 0x24 DUP6 REVERT JUMPDEST PUSH4 0x4E487B71 PUSH1 0xE0 SHL DUP7 MSTORE PUSH1 0x32 DUP8 MSTORE PUSH1 0x24 DUP7 REVERT JUMPDEST PUSH4 0x4E487B71 PUSH1 0xE0 SHL DUP7 MSTORE PUSH1 0x41 DUP8 MSTORE PUSH1 0x24 DUP7 REVERT JUMPDEST DUP5 SWAP1 PUSH1 0x64 SWAP3 MLOAD SWAP2 PUSH3 0x461BCD PUSH1 0xE5 SHL DUP4 MSTORE DUP3 ADD MSTORE PUSH1 0x1D PUSH1 0x24 DUP3 ADD MSTORE PUSH32 0x5472616E73616374696F6E20616C726561647920636F6E6669726D6564000000 PUSH1 0x44 DUP3 ADD MSTORE REVERT JUMPDEST POP PUSH1 0x2 SLOAD DUP4 GT ISZERO PUSH2 0x7DF JUMP JUMPDEST POP CALLVALUE PUSH2 0xA3A JUMPI PUSH1 0xA0 CALLDATASIZE PUSH1 0x3 NOT ADD SLT PUSH2 0xA3A JUMPI PUSH2 0x97F PUSH2 0x1400 JUMP JUMPDEST SWAP2 PUSH2 0x988 PUSH2 0x1416 JUMP JUMPDEST SWAP3 PUSH1 0x84 CALLDATALOAD SWAP1 PUSH3 0xFFFFFF DUP3 AND DUP1 SWAP3 SUB PUSH2 0x32F JUMPI CALLER DUP5 MSTORE PUSH1 0x1 PUSH1 0x20 MSTORE PUSH2 0x9B1 PUSH1 0xFF DUP8 DUP7 KECCAK256 SLOAD AND PUSH2 0x162E JUMP JUMPDEST DUP6 MLOAD PUSH1 0x1 PUSH1 0x1 PUSH1 0xA0 SHL SUB SWAP2 DUP3 AND PUSH1 0x20 DUP3 ADD MSTORE SWAP5 AND DUP5 DUP7 ADD MSTORE PUSH1 0x44 CALLDATALOAD PUSH1 0x60 DUP6 ADD MSTORE PUSH1 0x64 CALLDATALOAD PUSH1 0x80 DUP6 ADD MSTORE PUSH1 0xA0 DUP1 DUP6 ADD SWAP2 SWAP1 SWAP2 MSTORE DUP4 MSTORE PUSH1 0xC0 DUP4 ADD SWAP2 PUSH8 0xFFFFFFFFFFFFFFFF DUP4 GT DUP5 DUP5 LT OR PUSH2 0xA27 JUMPI PUSH1 0x20 DUP6 PUSH2 0x1F0 DUP7 DUP7 PUSH5 0x5F7377617 PUSH1 0xDC SHL DUP8 DUP3 DUP7 MSTORE PUSH2 0xA1A DUP4 PUSH2 0x1596 JUMP JUMPDEST PUSH1 0x5 DUP4 MSTORE DUP4 ADD MSTORE CALLER PUSH2 0x18C6 JUMP JUMPDEST PUSH4 0x4E487B71 PUSH1 0xE0 SHL DUP2 MSTORE PUSH1 0x41 DUP7 MSTORE PUSH1 0x24 SWAP1 REVERT JUMPDEST DUP1 REVERT JUMPDEST POP DUP3 DUP2 DUP6 CALLVALUE PUSH2 0x212 JUMPI PUSH2 0xA4F CALLDATASIZE PUSH2 0x13D5 JUMP JUMPDEST SWAP5 SWAP1 SWAP4 DUP1 MLOAD SWAP5 PUSH2 0xA5E DUP7 PUSH2 0x152B JUMP JUMPDEST DUP1 DUP7 MSTORE PUSH1 0x1 PUSH1 0x1 PUSH1 0x80 SHL SUB DUP1 SWAP8 AND PUSH1 0x20 DUP8 ADD MSTORE DUP3 DUP3 DUP8 ADD MSTORE DUP3 PUSH1 0x60 DUP8 ADD MSTORE TIMESTAMP PUSH1 0x80 DUP8 ADD MSTORE DUP2 PUSH2 0xAAE PUSH1 0x1 DUP1 PUSH1 0xA0 SHL SUB SWAP8 DUP9 PUSH1 0x7 SLOAD AND SWAP1 DUP4 MLOAD SWAP9 DUP10 DUP1 SWAP5 DUP2 SWAP4 PUSH4 0x624E65F PUSH1 0xE1 SHL DUP4 MSTORE DUP12 DUP4 ADD PUSH2 0x1C75 JUMP JUMPDEST SUB SWAP3 GAS CALL SWAP4 DUP5 ISZERO PUSH2 0xB9A JUMPI PUSH2 0xB0A SWAP8 DUP5 SWAP7 DUP6 SWAP7 PUSH2 0xB74 JUMPI JUMPDEST POP SWAP7 DUP4 SWAP5 SWAP6 SWAP7 SWAP8 DUP5 MLOAD SWAP4 PUSH2 0xAD9 DUP6 PUSH2 0x157A JUMP JUMPDEST DUP5 MSTORE ADDRESS PUSH1 0x20 DUP6 ADD MSTORE DUP1 DUP6 DUP6 ADD MSTORE PUSH1 0x60 DUP5 ADD MSTORE PUSH1 0x7 SLOAD AND SWAP1 DUP6 DUP5 MLOAD DUP1 SWAP11 DUP2 SWAP6 DUP3 SWAP5 PUSH4 0xFC6F7865 PUSH1 0xE0 SHL DUP5 MSTORE DUP4 ADD PUSH2 0x1C1F JUMP JUMPDEST SUB SWAP3 GAS CALL SWAP3 DUP4 ISZERO PUSH2 0xB69 JUMPI PUSH1 0x80 SWAP6 DUP4 SWAP5 PUSH2 0xB34 JUMPI JUMPDEST POP DUP2 MLOAD SWAP5 DUP6 MSTORE PUSH1 0x20 DUP6 ADD MSTORE DUP4 ADD MSTORE PUSH1 0x60 DUP3 ADD MSTORE RETURN JUMPDEST SWAP1 SWAP4 POP DUP2 PUSH2 0xB58 SWAP3 SWAP4 POP RETURNDATASIZE DUP5 GT PUSH2 0xB62 JUMPI JUMPDEST PUSH2 0xB50 DUP2 DUP4 PUSH2 0x15B2 JUMP JUMPDEST DUP2 ADD SWAP1 PUSH2 0x1C09 JUMP JUMPDEST SWAP2 SWAP1 SWAP2 SWAP3 DUP7 PUSH2 0xB1F JUMP JUMPDEST POP RETURNDATASIZE PUSH2 0xB46 JUMP JUMPDEST POP MLOAD SWAP1 RETURNDATASIZE SWAP1 DUP3 RETURNDATACOPY RETURNDATASIZE SWAP1 REVERT JUMPDEST PUSH2 0xB90 SWAP2 SWAP8 POP DUP5 DUP1 SWAP7 SWAP8 POP RETURNDATASIZE DUP7 GT PUSH2 0xB62 JUMPI PUSH2 0xB50 DUP2 DUP4 PUSH2 0x15B2 JUMP JUMPDEST SWAP1 SWAP7 SWAP1 SWAP6 SWAP5 PUSH2 0xAC6 JUMP JUMPDEST POP POP MLOAD SWAP1 RETURNDATASIZE SWAP1 DUP3 RETURNDATACOPY RETURNDATASIZE SWAP1 REVERT JUMPDEST POP DUP3 CALLVALUE PUSH2 0x212 JUMPI DUP2 PUSH1 0x3 NOT CALLDATASIZE ADD SLT PUSH2 0x212 JUMPI PUSH1 0x20 SWAP1 MLOAD PUSH20 0xC36442B4A4522E871399CD717ABDD847AB11FE88 DUP2 MSTORE RETURN JUMPDEST DUP4 DUP3 CALLVALUE PUSH2 0xA3A JUMPI DUP1 PUSH1 0x3 NOT CALLDATASIZE ADD SLT PUSH2 0xA3A JUMPI SWAP1 DUP1 MLOAD SWAP2 DUP3 SWAP1 DUP1 SLOAD SWAP2 DUP3 DUP6 MSTORE PUSH1 0x20 DUP1 SWAP6 ADD DUP1 SWAP4 DUP4 DUP1 MSTORE PUSH32 0x290DECD9548B62A8D60345A988386FC84BA6BC95484008F6362F93160EF3E563 SWAP1 DUP5 JUMPDEST DUP2 DUP2 LT PUSH2 0xC7B JUMPI POP POP POP DUP2 PUSH2 0xC37 SWAP2 SUB DUP3 PUSH2 0x15B2 JUMP JUMPDEST DUP4 MLOAD SWAP5 DUP6 SWAP5 DUP2 DUP7 ADD SWAP3 DUP3 DUP8 MSTORE MLOAD DUP1 SWAP4 MSTORE DUP6 ADD SWAP4 SWAP3 JUMPDEST DUP3 DUP2 LT PUSH2 0xC5B JUMPI POP POP POP POP SUB SWAP1 RETURN JUMPDEST DUP4 MLOAD PUSH1 0x1 PUSH1 0x1 PUSH1 0xA0 SHL SUB AND DUP6 MSTORE DUP7 SWAP6 POP SWAP4 DUP2 ADD SWAP4 SWAP3 DUP2 ADD SWAP3 PUSH1 0x1 ADD PUSH2 0xC4C JUMP JUMPDEST DUP3 SLOAD PUSH1 0x1 PUSH1 0x1 PUSH1 0xA0 SHL SUB AND DUP5 MSTORE SWAP3 DUP9 ADD SWAP3 PUSH1 0x1 SWAP3 DUP4 ADD SWAP3 ADD PUSH2 0xC21 JUMP JUMPDEST DUP4 DUP3 DUP7 CALLVALUE PUSH2 0x212 JUMPI PUSH1 0x60 CALLDATASIZE PUSH1 0x3 NOT ADD SLT PUSH2 0x212 JUMPI PUSH2 0xCB4 PUSH2 0x1400 JUMP JUMPDEST SWAP3 PUSH2 0xCBD PUSH2 0x1416 JUMP JUMPDEST DUP2 MLOAD PUSH4 0x70A08231 PUSH1 0xE0 SHL DUP2 MSTORE ADDRESS DUP5 DUP3 ADD MSTORE PUSH1 0x44 CALLDATALOAD SWAP6 PUSH1 0x20 SWAP5 PUSH1 0x1 PUSH1 0x1 PUSH1 0xA0 SHL SUB SWAP1 SWAP2 AND SWAP3 SWAP2 DUP6 DUP2 PUSH1 0x24 DUP2 DUP8 GAS STATICCALL SWAP1 DUP2 ISZERO PUSH2 0xDEB JUMPI SWAP1 DUP9 SWAP2 DUP9 SWAP2 PUSH2 0xDBA JUMPI JUMPDEST POP LT PUSH2 0xD80 JUMPI DUP4 MLOAD PUSH4 0xA9059CBB PUSH1 0xE0 SHL DUP2 MSTORE PUSH1 0x1 PUSH1 0x1 PUSH1 0xA0 SHL SUB SWAP1 SWAP3 AND SWAP1 DUP3 ADD SWAP1 DUP2 MSTORE PUSH1 0x20 DUP2 ADD DUP8 SWAP1 MSTORE SWAP1 SWAP3 SWAP2 DUP5 SWAP2 DUP5 SWAP2 SWAP1 DUP3 SWAP1 DUP9 SWAP1 DUP3 SWAP1 PUSH1 0x40 ADD SUB SWAP3 GAS CALL SWAP1 DUP2 ISZERO PUSH2 0xD77 JUMPI POP PUSH2 0xD4A JUMPI DUP3 DUP1 RETURN JUMPDEST DUP2 PUSH2 0xD69 SWAP3 SWAP1 RETURNDATASIZE LT PUSH2 0xD70 JUMPI JUMPDEST PUSH2 0xD61 DUP2 DUP4 PUSH2 0x15B2 JUMP JUMPDEST DUP2 ADD SWAP1 PUSH2 0x1C5D JUMP JUMPDEST POP DUP2 DUP1 DUP3 DUP1 RETURN JUMPDEST POP RETURNDATASIZE PUSH2 0xD57 JUMP JUMPDEST MLOAD RETURNDATASIZE DUP6 DUP3 RETURNDATACOPY RETURNDATASIZE SWAP1 REVERT JUMPDEST DUP4 MLOAD PUSH3 0x461BCD PUSH1 0xE5 SHL DUP2 MSTORE SWAP1 DUP2 ADD DUP6 SWAP1 MSTORE PUSH1 0x14 PUSH1 0x24 DUP3 ADD MSTORE PUSH20 0x496E73756666696369656E742062616C616E6365 PUSH1 0x60 SHL PUSH1 0x44 DUP3 ADD MSTORE PUSH1 0x64 SWAP1 REVERT JUMPDEST DUP1 SWAP3 POP DUP8 DUP1 SWAP3 POP RETURNDATASIZE DUP4 GT PUSH2 0xDE4 JUMPI JUMPDEST PUSH2 0xDD3 DUP2 DUP4 PUSH2 0x15B2 JUMP JUMPDEST DUP2 ADD SUB SLT PUSH2 0x20E JUMPI DUP8 SWAP1 MLOAD DUP10 PUSH2 0xCFB JUMP JUMPDEST POP RETURNDATASIZE PUSH2 0xDC9 JUMP JUMPDEST DUP6 MLOAD RETURNDATASIZE DUP10 DUP3 RETURNDATACOPY RETURNDATASIZE SWAP1 REVERT JUMPDEST POP SWAP1 POP CALLVALUE PUSH2 0xA3A JUMPI PUSH1 0xA0 CALLDATASIZE PUSH1 0x3 NOT ADD SLT PUSH2 0xA3A JUMPI PUSH2 0xE11 PUSH2 0x1400 JUMP JUMPDEST SWAP2 PUSH2 0xE1A PUSH2 0x1416 JUMP JUMPDEST DUP2 MLOAD PUSH4 0x23B872DD PUSH1 0xE0 SHL DUP1 DUP3 MSTORE CALLER DUP3 DUP9 ADD SWAP1 DUP2 MSTORE ADDRESS PUSH1 0x20 DUP3 DUP2 ADD SWAP2 SWAP1 SWAP2 MSTORE PUSH1 0x64 CALLDATALOAD PUSH1 0x40 DUP4 ADD DUP2 SWAP1 MSTORE PUSH1 0x84 CALLDATALOAD SWAP10 SWAP1 SWAP9 SWAP2 SWAP8 SWAP6 PUSH1 0x1 PUSH1 0x1 PUSH1 0xA0 SHL SUB SWAP6 SWAP2 SWAP5 SWAP1 DUP7 AND SWAP4 SWAP3 DUP7 AND SWAP3 SWAP1 SWAP2 SWAP1 DUP10 SWAP1 DUP3 SWAP1 DUP2 SWAP1 PUSH1 0x60 ADD SUB DUP2 DUP11 DUP8 GAS CALL DUP1 ISZERO PUSH2 0x10EE JUMPI PUSH2 0x10D1 JUMPI JUMPDEST POP DUP7 MLOAD SWAP1 DUP2 MSTORE CALLER DUP5 DUP3 ADD SWAP1 DUP2 MSTORE ADDRESS PUSH1 0x20 DUP3 ADD MSTORE PUSH1 0x40 DUP2 ADD DUP12 SWAP1 MSTORE DUP9 SWAP1 DUP3 SWAP1 DUP2 SWAP1 PUSH1 0x60 ADD SUB DUP2 DUP10 DUP8 GAS CALL DUP1 ISZERO PUSH2 0x10AA JUMPI PUSH2 0x10B4 JUMPI JUMPDEST POP PUSH1 0x7 SLOAD DUP7 MLOAD PUSH4 0x95EA7B3 PUSH1 0xE0 SHL DUP1 DUP3 MSTORE SWAP2 DUP7 AND PUSH1 0x1 PUSH1 0x1 PUSH1 0xA0 SHL SUB AND DUP6 DUP3 ADD SWAP1 DUP2 MSTORE PUSH1 0x20 DUP2 ADD DUP12 SWAP1 MSTORE SWAP2 SWAP3 SWAP1 SWAP2 DUP10 SWAP2 DUP4 SWAP2 DUP3 SWAP1 DUP11 SWAP1 DUP3 SWAP1 PUSH1 0x40 ADD SUB SWAP3 GAS CALL DUP1 ISZERO PUSH2 0x10AA JUMPI SWAP3 DUP9 SWAP3 DUP12 SWAP3 PUSH2 0xF35 SWAP6 PUSH2 0x108D JUMPI JUMPDEST POP PUSH1 0x7 SLOAD DUP10 MLOAD SWAP2 DUP3 MSTORE DUP8 AND PUSH1 0x1 PUSH1 0x1 PUSH1 0xA0 SHL SUB AND DUP7 DUP3 ADD SWAP1 DUP2 MSTORE PUSH1 0x20 DUP2 ADD SWAP4 SWAP1 SWAP4 MSTORE SWAP4 DUP5 SWAP3 DUP4 SWAP2 DUP10 SWAP2 DUP4 SWAP2 PUSH1 0x40 SWAP1 SWAP2 ADD SWAP1 JUMP JUMPDEST SUB SWAP3 GAS CALL DUP1 ISZERO PUSH2 0x1083 JUMPI PUSH2 0x1066 JUMPI JUMPDEST POP DUP4 MLOAD PUSH1 0xC0 DUP2 ADD DUP2 DUP2 LT PUSH8 0xFFFFFFFFFFFFFFFF DUP3 GT OR PUSH2 0x1053 JUMPI SWAP1 PUSH1 0xC4 SWAP2 DUP7 MSTORE PUSH1 0x44 CALLDATALOAD DUP2 MSTORE DUP7 DUP2 ADD SWAP8 DUP9 MSTORE DUP6 DUP2 ADD SWAP9 DUP10 MSTORE DUP5 PUSH1 0x60 SWAP10 DUP11 SWAP6 DUP7 DUP5 ADD DUP4 DUP2 MSTORE PUSH1 0x80 DUP6 ADD SWAP1 DUP5 DUP3 MSTORE PUSH1 0xA0 DUP7 ADD SWAP3 TIMESTAMP DUP5 MSTORE PUSH1 0x7 SLOAD AND SWAP4 DUP12 MLOAD SWAP14 DUP15 SWAP10 DUP11 SWAP9 PUSH4 0x219F5D17 PUSH1 0xE0 SHL DUP11 MSTORE MLOAD SWAP1 DUP10 ADD MSTORE MLOAD PUSH1 0x24 DUP9 ADD MSTORE MLOAD PUSH1 0x44 DUP8 ADD MSTORE MLOAD PUSH1 0x64 DUP7 ADD MSTORE MLOAD PUSH1 0x84 DUP6 ADD MSTORE MLOAD PUSH1 0xA4 DUP5 ADD MSTORE GAS CALL SWAP3 DUP4 ISZERO PUSH2 0x1047 JUMPI DUP2 SWAP5 DUP3 DUP1 SWAP6 PUSH2 0xFF5 JUMPI JUMPDEST POP POP PUSH1 0x1 PUSH1 0x1 PUSH1 0x80 SHL SUB DUP4 MLOAD SWAP6 AND DUP6 MSTORE DUP5 ADD MSTORE DUP3 ADD MSTORE RETURN JUMPDEST SWAP3 POP DUP1 SWAP6 POP DUP7 DUP1 SWAP3 SWAP6 POP RETURNDATASIZE DUP4 GT PUSH2 0x1040 JUMPI JUMPDEST PUSH2 0x1011 DUP2 DUP4 PUSH2 0x15B2 JUMP JUMPDEST DUP2 ADD SUB SLT PUSH2 0xA3A JUMPI DUP4 MLOAD SWAP1 PUSH1 0x1 PUSH1 0x1 PUSH1 0x80 SHL SUB DUP3 AND DUP3 SUB PUSH2 0xA3A JUMPI POP DUP2 DUP4 DUP6 ADD MLOAD SWAP5 ADD MLOAD SWAP1 SWAP4 SWAP1 SWAP3 CODESIZE DUP1 PUSH2 0xFDD JUMP JUMPDEST POP RETURNDATASIZE PUSH2 0x1007 JUMP JUMPDEST POP SWAP1 MLOAD SWAP1 RETURNDATASIZE SWAP1 DUP3 RETURNDATACOPY RETURNDATASIZE SWAP1 REVERT JUMPDEST PUSH4 0x4E487B71 PUSH1 0xE0 SHL DUP6 MSTORE PUSH1 0x41 DUP4 MSTORE PUSH1 0x24 DUP6 REVERT JUMPDEST PUSH2 0x107C SWAP1 DUP7 RETURNDATASIZE DUP9 GT PUSH2 0xD70 JUMPI PUSH2 0xD61 DUP2 DUP4 PUSH2 0x15B2 JUMP JUMPDEST POP CODESIZE PUSH2 0xF44 JUMP JUMPDEST DUP6 MLOAD RETURNDATASIZE DUP7 DUP3 RETURNDATACOPY RETURNDATASIZE SWAP1 REVERT JUMPDEST PUSH2 0x10A3 SWAP1 DUP6 RETURNDATASIZE DUP8 GT PUSH2 0xD70 JUMPI PUSH2 0xD61 DUP2 DUP4 PUSH2 0x15B2 JUMP JUMPDEST POP CODESIZE PUSH2 0xF02 JUMP JUMPDEST DUP8 MLOAD RETURNDATASIZE DUP9 DUP3 RETURNDATACOPY RETURNDATASIZE SWAP1 REVERT JUMPDEST PUSH2 0x10CA SWAP1 DUP9 RETURNDATASIZE DUP11 GT PUSH2 0xD70 JUMPI PUSH2 0xD61 DUP2 DUP4 PUSH2 0x15B2 JUMP JUMPDEST POP CODESIZE PUSH2 0xEAF JUMP JUMPDEST PUSH2 0x10E7 SWAP1 DUP10 RETURNDATASIZE DUP12 GT PUSH2 0xD70 JUMPI PUSH2 0xD61 DUP2 DUP4 PUSH2 0x15B2 JUMP JUMPDEST POP CODESIZE PUSH2 0xE7B JUMP JUMPDEST DUP9 MLOAD RETURNDATASIZE DUP10 DUP3 RETURNDATACOPY RETURNDATASIZE SWAP1 REVERT JUMPDEST POP DUP3 CALLVALUE PUSH2 0x212 JUMPI DUP1 PUSH1 0x3 NOT CALLDATASIZE ADD SLT PUSH2 0x212 JUMPI PUSH2 0x1F0 PUSH2 0x1159 PUSH2 0x1167 PUSH1 0x20 SWAP5 PUSH2 0x1134 PUSH1 0xFF DUP7 PUSH2 0x1124 PUSH2 0x1400 JUMP JUMPDEST SWAP4 CALLER DUP2 MSTORE PUSH1 0x1 DUP11 MSTORE KECCAK256 SLOAD AND PUSH2 0x162E JUMP JUMPDEST DUP5 MLOAD PUSH1 0x1 PUSH1 0x1 PUSH1 0xA0 SHL SUB SWAP1 SWAP2 AND DUP7 DUP3 ADD SWAP1 DUP2 MSTORE PUSH1 0x24 CALLDATALOAD PUSH1 0x20 DUP3 ADD MSTORE SWAP1 SWAP3 DUP4 SWAP2 PUSH1 0x40 ADD SWAP1 JUMP JUMPDEST SUB PUSH1 0x1F NOT DUP2 ADD DUP4 MSTORE DUP3 PUSH2 0x15B2 JUMP JUMPDEST DUP3 MLOAD PUSH2 0x1172 DUP2 PUSH2 0x1596 JUMP JUMPDEST PUSH1 0xB DUP2 MSTORE PUSH11 0xBEEADCEEE4C2E0AE8AA89 PUSH1 0xAB SHL DUP6 DUP3 ADD MSTORE CALLER PUSH2 0x18C6 JUMP JUMPDEST DUP4 DUP3 DUP7 CALLVALUE PUSH2 0x212 JUMPI PUSH1 0x20 CALLDATASIZE PUSH1 0x3 NOT ADD SLT PUSH2 0x212 JUMPI DUP3 PUSH2 0x11F6 SWAP2 DUP2 MLOAD SWAP1 PUSH2 0x11B4 DUP3 PUSH2 0x157A JUMP JUMPDEST DUP1 CALLDATALOAD DUP3 MSTORE ADDRESS PUSH1 0x20 DUP4 ADD MSTORE PUSH1 0x1 PUSH1 0x1 PUSH1 0x80 SHL SUB DUP1 DUP5 DUP5 ADD MSTORE PUSH1 0x60 DUP4 ADD MSTORE PUSH1 0x1 DUP1 PUSH1 0xA0 SHL SUB PUSH1 0x7 SLOAD AND SWAP1 DUP6 DUP5 MLOAD DUP1 SWAP7 DUP2 SWAP6 DUP3 SWAP5 PUSH4 0xFC6F7865 PUSH1 0xE0 SHL DUP5 MSTORE DUP4 ADD PUSH2 0x1C1F JUMP JUMPDEST SUB SWAP3 GAS CALL SWAP1 DUP2 ISZERO PUSH2 0x1234 JUMPI DUP3 SWAP2 PUSH2 0x1215 JUMPI JUMPDEST POP DUP3 MLOAD SWAP2 DUP3 MSTORE PUSH1 0x20 DUP3 ADD MSTORE RETURN JUMPDEST SWAP1 POP PUSH2 0x122E SWAP2 POP DUP3 RETURNDATASIZE DUP5 GT PUSH2 0xB62 JUMPI PUSH2 0xB50 DUP2 DUP4 PUSH2 0x15B2 JUMP JUMPDEST DUP4 PUSH2 0x1208 JUMP JUMPDEST DUP4 MLOAD RETURNDATASIZE DUP5 DUP3 RETURNDATACOPY RETURNDATASIZE SWAP1 REVERT JUMPDEST POP SWAP3 SWAP2 CALLVALUE PUSH2 0x32F JUMPI PUSH1 0x20 SWAP2 DUP3 PUSH1 0x3 NOT CALLDATASIZE ADD SLT PUSH2 0x1317 JUMPI PUSH1 0x7 DUP3 PUSH2 0x1313 SWAP5 SWAP6 SWAP7 PUSH2 0x1265 PUSH2 0x16FE JUMP JUMPDEST POP CALLER DUP2 MSTORE PUSH1 0x1 DUP8 MSTORE PUSH2 0x127C PUSH1 0xFF DUP4 DUP4 KECCAK256 SLOAD AND PUSH2 0x162E JUMP JUMPDEST DUP8 CALLDATALOAD DUP2 MSTORE PUSH1 0x3 DUP8 MSTORE KECCAK256 PUSH2 0x601 PUSH2 0x12DE DUP6 MLOAD SWAP9 PUSH2 0x1297 DUP11 PUSH2 0x155D JUMP JUMPDEST DUP4 SLOAD PUSH1 0x1 PUSH1 0x1 PUSH1 0xA0 SHL SUB SWAP1 DUP2 AND DUP12 MSTORE PUSH1 0x1 DUP6 ADD SLOAD AND DUP10 DUP12 ADD MSTORE PUSH1 0x2 DUP5 ADD SLOAD DUP8 DUP12 ADD MSTORE DUP7 MLOAD PUSH2 0x12CC DUP2 PUSH2 0x601 DUP2 PUSH1 0x3 DUP10 ADD PUSH2 0x1777 JUMP JUMPDEST PUSH1 0x60 DUP12 ADD MSTORE DUP7 MLOAD SWAP3 DUP4 DUP1 SWAP3 DUP7 ADD PUSH2 0x1777 JUMP JUMPDEST PUSH1 0x80 DUP9 ADD MSTORE PUSH2 0x12EF PUSH1 0x5 DUP3 ADD PUSH2 0x15D4 JUMP JUMPDEST PUSH1 0xA0 DUP9 ADD MSTORE PUSH1 0x6 DUP2 ADD SLOAD PUSH1 0xC0 DUP9 ADD MSTORE ADD SLOAD SWAP1 DUP6 ADD MSTORE MLOAD SWAP3 DUP3 DUP5 SWAP4 DUP5 MSTORE DUP4 ADD SWAP1 PUSH2 0x146C JUMP JUMPDEST SUB SWAP1 RETURN JUMPDEST DUP5 DUP1 REVERT JUMPDEST POP DUP3 CALLVALUE PUSH2 0x212 JUMPI DUP1 PUSH1 0x3 NOT CALLDATASIZE ADD SLT PUSH2 0x212 JUMPI PUSH2 0x1F0 PUSH2 0x1159 PUSH2 0x1347 PUSH1 0x20 SWAP5 PUSH2 0x1134 PUSH1 0xFF DUP7 PUSH2 0x1124 PUSH2 0x1400 JUMP JUMPDEST DUP3 MLOAD PUSH2 0x1352 DUP2 PUSH2 0x1596 JUMP JUMPDEST PUSH1 0x8 DUP2 MSTORE PUSH8 0xBEEEE4C2E08AA89 PUSH1 0xC3 SHL DUP6 DUP3 ADD MSTORE CALLER PUSH2 0x18C6 JUMP JUMPDEST DUP3 DUP6 SWAP2 DUP8 CALLVALUE PUSH2 0x358 JUMPI PUSH2 0x11F6 SWAP2 DUP5 SWAP2 PUSH1 0x1 PUSH1 0x1 PUSH1 0x80 SHL SUB PUSH2 0x138C CALLDATASIZE PUSH2 0x13D5 JUMP JUMPDEST SWAP1 PUSH2 0x1396 DUP6 PUSH2 0x152B JUMP JUMPDEST DUP5 MSTORE AND PUSH1 0x20 DUP4 ADD MSTORE DUP5 DUP4 DUP4 ADD MSTORE DUP5 PUSH1 0x60 DUP4 ADD MSTORE TIMESTAMP PUSH1 0x80 DUP4 ADD MSTORE PUSH1 0x1 DUP1 PUSH1 0xA0 SHL SUB PUSH1 0x7 SLOAD AND SWAP1 DUP6 DUP5 MLOAD DUP1 SWAP7 DUP2 SWAP6 DUP3 SWAP5 PUSH4 0x624E65F PUSH1 0xE1 SHL DUP5 MSTORE DUP4 ADD PUSH2 0x1C75 JUMP JUMPDEST PUSH1 0x40 SWAP1 PUSH1 0x3 NOT ADD SLT PUSH2 0x13FB JUMPI PUSH1 0x4 CALLDATALOAD SWAP1 PUSH1 0x24 CALLDATALOAD PUSH1 0x1 PUSH1 0x1 PUSH1 0x80 SHL SUB DUP2 AND DUP2 SUB PUSH2 0x13FB JUMPI SWAP1 JUMP JUMPDEST PUSH1 0x0 DUP1 REVERT JUMPDEST PUSH1 0x4 CALLDATALOAD SWAP1 PUSH1 0x1 PUSH1 0x1 PUSH1 0xA0 SHL SUB DUP3 AND DUP3 SUB PUSH2 0x13FB JUMPI JUMP JUMPDEST PUSH1 0x24 CALLDATALOAD SWAP1 PUSH1 0x1 PUSH1 0x1 PUSH1 0xA0 SHL SUB DUP3 AND DUP3 SUB PUSH2 0x13FB JUMPI JUMP JUMPDEST SWAP2 SWAP1 DUP3 MLOAD SWAP3 DUP4 DUP3 MSTORE PUSH1 0x0 JUMPDEST DUP5 DUP2 LT PUSH2 0x1458 JUMPI POP POP DUP3 PUSH1 0x0 PUSH1 0x20 DUP1 SWAP5 SWAP6 DUP5 ADD ADD MSTORE PUSH1 0x1F DUP1 NOT SWAP2 ADD AND ADD ADD SWAP1 JUMP JUMPDEST PUSH1 0x20 DUP2 DUP4 ADD DUP2 ADD MLOAD DUP5 DUP4 ADD DUP3 ADD MSTORE ADD PUSH2 0x1437 JUMP JUMPDEST SWAP1 PUSH1 0x1 DUP1 PUSH1 0xA0 SHL SUB SWAP2 DUP3 DUP2 MLOAD AND DUP3 MSTORE PUSH1 0x20 SWAP3 DUP1 DUP5 DUP4 ADD MLOAD AND DUP5 DUP5 ADD MSTORE PUSH1 0x40 DUP3 ADD MLOAD PUSH1 0x40 DUP5 ADD MSTORE PUSH2 0x14C0 PUSH2 0x14AE PUSH1 0x60 DUP5 ADD MLOAD PUSH2 0x100 DUP1 PUSH1 0x60 DUP9 ADD MSTORE DUP7 ADD SWAP1 PUSH2 0x142C JUMP JUMPDEST PUSH1 0x80 DUP5 ADD MLOAD DUP6 DUP3 SUB PUSH1 0x80 DUP8 ADD MSTORE PUSH2 0x142C JUMP JUMPDEST PUSH1 0xA0 DUP4 ADD MLOAD SWAP5 DUP5 DUP3 SUB PUSH1 0xA0 DUP7 ADD MSTORE DUP1 DUP1 DUP8 MLOAD SWAP4 DUP5 DUP2 MSTORE ADD SWAP7 ADD SWAP3 PUSH1 0x0 SWAP1 JUMPDEST DUP4 DUP3 LT PUSH2 0x1500 JUMPI POP POP POP POP POP PUSH1 0xE0 DUP2 PUSH1 0xC0 DUP3 SWAP4 ADD MLOAD PUSH1 0xC0 DUP6 ADD MSTORE ADD MLOAD SWAP2 ADD MSTORE SWAP1 JUMP JUMPDEST DUP5 MLOAD DUP2 AND DUP9 MSTORE SWAP7 DUP3 ADD SWAP7 SWAP4 DUP3 ADD SWAP4 PUSH1 0x1 SWAP1 SWAP2 ADD SWAP1 PUSH2 0x14DE JUMP JUMPDEST PUSH1 0x44 CALLDATALOAD SWAP1 PUSH3 0xFFFFFF DUP3 AND DUP3 SUB PUSH2 0x13FB JUMPI JUMP JUMPDEST PUSH1 0xA0 DUP2 ADD SWAP1 DUP2 LT PUSH8 0xFFFFFFFFFFFFFFFF DUP3 GT OR PUSH2 0x1547 JUMPI PUSH1 0x40 MSTORE JUMP JUMPDEST PUSH4 0x4E487B71 PUSH1 0xE0 SHL PUSH1 0x0 MSTORE PUSH1 0x41 PUSH1 0x4 MSTORE PUSH1 0x24 PUSH1 0x0 REVERT JUMPDEST PUSH2 0x100 DUP2 ADD SWAP1 DUP2 LT PUSH8 0xFFFFFFFFFFFFFFFF DUP3 GT OR PUSH2 0x1547 JUMPI PUSH1 0x40 MSTORE JUMP JUMPDEST PUSH1 0x80 DUP2 ADD SWAP1 DUP2 LT PUSH8 0xFFFFFFFFFFFFFFFF DUP3 GT OR PUSH2 0x1547 JUMPI PUSH1 0x40 MSTORE JUMP JUMPDEST PUSH1 0x40 DUP2 ADD SWAP1 DUP2 LT PUSH8 0xFFFFFFFFFFFFFFFF DUP3 GT OR PUSH2 0x1547 JUMPI PUSH1 0x40 MSTORE JUMP JUMPDEST SWAP1 PUSH1 0x1F DUP1 NOT SWAP2 ADD AND DUP2 ADD SWAP1 DUP2 LT PUSH8 0xFFFFFFFFFFFFFFFF DUP3 GT OR PUSH2 0x1547 JUMPI PUSH1 0x40 MSTORE JUMP JUMPDEST SWAP1 PUSH1 0x40 MLOAD SWAP2 DUP3 DUP2 SLOAD SWAP2 DUP3 DUP3 MSTORE PUSH1 0x20 SWAP3 DUP4 DUP4 ADD SWAP2 PUSH1 0x0 MSTORE DUP4 PUSH1 0x0 KECCAK256 SWAP4 PUSH1 0x0 SWAP1 JUMPDEST DUP3 DUP3 LT PUSH2 0x160B JUMPI POP POP POP PUSH2 0x1609 SWAP3 POP SUB DUP4 PUSH2 0x15B2 JUMP JUMPDEST JUMP JUMPDEST DUP6 SLOAD PUSH1 0x1 PUSH1 0x1 PUSH1 0xA0 SHL SUB AND DUP5 MSTORE PUSH1 0x1 SWAP6 DUP7 ADD SWAP6 DUP9 SWAP6 POP SWAP4 DUP2 ADD SWAP4 SWAP1 SWAP2 ADD SWAP1 PUSH2 0x15F3 JUMP JUMPDEST ISZERO PUSH2 0x1635 JUMPI JUMP JUMPDEST PUSH1 0x40 MLOAD PUSH3 0x461BCD PUSH1 0xE5 SHL DUP2 MSTORE PUSH1 0x20 PUSH1 0x4 DUP3 ADD MSTORE PUSH1 0x9 PUSH1 0x24 DUP3 ADD MSTORE PUSH9 0x3737BA1037BBB732B9 PUSH1 0xB9 SHL PUSH1 0x44 DUP3 ADD MSTORE PUSH1 0x64 SWAP1 REVERT JUMPDEST ISZERO PUSH2 0x166D JUMPI JUMP JUMPDEST PUSH1 0x40 MLOAD PUSH3 0x461BCD PUSH1 0xE5 SHL DUP2 MSTORE PUSH1 0x20 PUSH1 0x4 DUP3 ADD MSTORE PUSH1 0x1A PUSH1 0x24 DUP3 ADD MSTORE PUSH32 0x5472616E73616374696F6E20646F6573206E6F74206578697374000000000000 PUSH1 0x44 DUP3 ADD MSTORE PUSH1 0x64 SWAP1 REVERT JUMPDEST ISZERO PUSH2 0x16B9 JUMPI JUMP JUMPDEST PUSH1 0x40 MLOAD PUSH3 0x461BCD PUSH1 0xE5 SHL DUP2 MSTORE PUSH1 0x20 PUSH1 0x4 DUP3 ADD MSTORE PUSH1 0x1C PUSH1 0x24 DUP3 ADD MSTORE PUSH32 0x5472616E73616374696F6E20616C726561647920657865637574656400000000 PUSH1 0x44 DUP3 ADD MSTORE PUSH1 0x64 SWAP1 REVERT JUMPDEST PUSH1 0x40 MLOAD SWAP1 PUSH2 0x170B DUP3 PUSH2 0x155D JUMP JUMPDEST PUSH1 0x0 PUSH1 0xE0 DUP4 DUP3 DUP2 MSTORE DUP3 PUSH1 0x20 DUP3 ADD MSTORE DUP3 PUSH1 0x40 DUP3 ADD MSTORE PUSH1 0x60 DUP1 DUP3 ADD MSTORE PUSH1 0x60 PUSH1 0x80 DUP3 ADD MSTORE PUSH1 0x60 PUSH1 0xA0 DUP3 ADD MSTORE DUP3 PUSH1 0xC0 DUP3 ADD MSTORE ADD MSTORE JUMP JUMPDEST SWAP1 PUSH1 0x1 DUP3 DUP2 SHR SWAP3 AND DUP1 ISZERO PUSH2 0x176D JUMPI JUMPDEST PUSH1 0x20 DUP4 LT EQ PUSH2 0x1757 JUMPI JUMP JUMPDEST PUSH4 0x4E487B71 PUSH1 0xE0 SHL PUSH1 0x0 MSTORE PUSH1 0x22 PUSH1 0x4 MSTORE PUSH1 0x24 PUSH1 0x0 REVERT JUMPDEST SWAP2 PUSH1 0x7F AND SWAP2 PUSH2 0x174C JUMP JUMPDEST SWAP1 PUSH1 0x0 SWAP3 SWAP2 DUP1 SLOAD SWAP2 PUSH2 0x1788 DUP4 PUSH2 0x173D JUMP JUMPDEST SWAP2 DUP3 DUP3 MSTORE PUSH1 0x1 SWAP4 DUP5 DUP2 AND SWAP1 DUP2 PUSH1 0x0 EQ PUSH2 0x17EA JUMPI POP PUSH1 0x1 EQ PUSH2 0x17AA JUMPI JUMPDEST POP POP POP POP JUMP JUMPDEST SWAP1 SWAP2 SWAP4 SWAP5 POP PUSH1 0x0 MSTORE PUSH1 0x20 SWAP3 DUP4 PUSH1 0x0 KECCAK256 SWAP3 DUP5 PUSH1 0x0 SWAP5 JUMPDEST DUP4 DUP7 LT PUSH2 0x17D6 JUMPI POP POP POP POP ADD ADD SWAP1 CODESIZE DUP1 DUP1 DUP1 PUSH2 0x17A4 JUMP JUMPDEST DUP1 SLOAD DUP6 DUP8 ADD DUP4 ADD MSTORE SWAP5 ADD SWAP4 DUP6 SWAP1 DUP3 ADD PUSH2 0x17BF JUMP JUMPDEST SWAP3 SWAP5 POP POP POP PUSH1 0x20 SWAP4 SWAP5 POP PUSH1 0xFF NOT AND DUP4 DUP4 ADD MSTORE ISZERO ISZERO PUSH1 0x5 SHL ADD ADD SWAP1 CODESIZE DUP1 DUP1 DUP1 PUSH2 0x17A4 JUMP JUMPDEST PUSH8 0xFFFFFFFFFFFFFFFF DUP2 GT PUSH2 0x1547 JUMPI PUSH1 0x5 SHL PUSH1 0x20 ADD SWAP1 JUMP JUMPDEST SWAP2 SWAP1 DUP3 ADD DUP1 SWAP3 GT PUSH2 0x1832 JUMPI JUMP JUMPDEST PUSH4 0x4E487B71 PUSH1 0xE0 SHL PUSH1 0x0 MSTORE PUSH1 0x11 PUSH1 0x4 MSTORE PUSH1 0x24 PUSH1 0x0 REVERT JUMPDEST DUP1 MLOAD DUP3 LT ISZERO PUSH2 0x185C JUMPI PUSH1 0x20 SWAP2 PUSH1 0x5 SHL ADD ADD SWAP1 JUMP JUMPDEST PUSH4 0x4E487B71 PUSH1 0xE0 SHL PUSH1 0x0 MSTORE PUSH1 0x32 PUSH1 0x4 MSTORE PUSH1 0x24 PUSH1 0x0 REVERT JUMPDEST SWAP1 PUSH1 0x1F DUP2 GT PUSH2 0x1880 JUMPI POP POP POP JUMP JUMPDEST PUSH1 0x0 SWAP2 DUP3 MSTORE PUSH1 0x20 DUP3 KECCAK256 SWAP1 PUSH1 0x20 PUSH1 0x1F DUP6 ADD PUSH1 0x5 SHR DUP4 ADD SWAP5 LT PUSH2 0x18BC JUMPI JUMPDEST PUSH1 0x1F ADD PUSH1 0x5 SHR ADD SWAP2 JUMPDEST DUP3 DUP2 LT PUSH2 0x18B1 JUMPI POP POP POP JUMP JUMPDEST DUP2 DUP2 SSTORE PUSH1 0x1 ADD PUSH2 0x18A5 JUMP JUMPDEST SWAP1 SWAP3 POP DUP3 SWAP1 PUSH2 0x189C JUMP JUMPDEST SWAP1 SWAP3 SWAP2 SWAP1 PUSH1 0x1 PUSH1 0x1 PUSH1 0xA0 SHL SUB AND DUP1 ISZERO PUSH2 0x1BC4 JUMPI DUP4 MLOAD ISZERO PUSH2 0x1B7F JUMPI DUP2 MLOAD ISZERO PUSH2 0x1B43 JUMPI PUSH1 0x2 DUP1 SLOAD SWAP3 PUSH1 0x1 SWAP1 DUP2 DUP6 ADD DUP1 SWAP6 GT PUSH2 0x1832 JUMPI DUP5 DUP4 SSTORE PUSH1 0x0 SWAP5 DUP6 MSTORE PUSH1 0x3 SWAP1 PUSH1 0x20 SWAP1 DUP3 DUP3 MSTORE PUSH1 0x40 SWAP4 DUP5 DUP9 KECCAK256 PUSH12 0xFFFFFFFFFFFFFFFFFFFFFFFF PUSH1 0xA0 SHL SWAP1 DUP9 DUP3 DUP3 SLOAD AND OR SWAP1 SSTORE DUP7 SLOAD DUP10 MSTORE DUP2 DUP7 DUP11 KECCAK256 ADD SWAP1 DUP2 SLOAD AND SWAP1 SSTORE DUP6 SLOAD DUP9 MSTORE DUP4 DUP6 DUP10 KECCAK256 ADD DUP11 MLOAD PUSH8 0xFFFFFFFFFFFFFFFF SWAP12 DUP13 DUP3 GT PUSH2 0x1B2F JUMPI DUP2 SWAP1 PUSH2 0x196A DUP3 PUSH2 0x1964 DUP7 SLOAD PUSH2 0x173D JUMP JUMPDEST DUP7 PUSH2 0x1872 JUMP JUMPDEST DUP7 SWAP1 PUSH1 0x1F DUP4 GT PUSH1 0x1 EQ PUSH2 0x1AD1 JUMPI DUP13 SWAP3 PUSH2 0x1AC6 JUMPI JUMPDEST POP POP PUSH1 0x0 NOT DUP3 DUP9 SHL SHR NOT AND SWAP1 DUP4 SHL OR SWAP1 SSTORE JUMPDEST DUP6 SLOAD DUP9 MSTORE DUP4 DUP4 MSTORE PUSH1 0x4 DUP6 DUP10 KECCAK256 ADD SWAP2 DUP1 MLOAD SWAP11 DUP12 GT PUSH2 0x1AB2 JUMPI PUSH2 0x19BB DUP12 PUSH2 0x19B5 DUP6 SLOAD PUSH2 0x173D JUMP JUMPDEST DUP6 PUSH2 0x1872 JUMP JUMPDEST DUP4 SWAP1 PUSH1 0x1F DUP13 GT PUSH1 0x1 EQ PUSH2 0x1A35 JUMPI SWAP11 DUP1 SWAP3 DUP2 SWAP3 PUSH32 0xC82555D64D2B8B25FFEFC140AE6575736763EE3A99347632D7F633E7BFAE3F78 SWAP13 SWAP14 DUP13 SWAP5 PUSH2 0x1A2A JUMPI JUMPDEST POP POP SHL SWAP2 PUSH1 0x0 NOT SWAP1 DUP7 SHL SHR NOT AND OR SWAP1 SSTORE JUMPDEST DUP4 SLOAD DUP7 MSTORE MSTORE TIMESTAMP PUSH1 0x6 DUP3 DUP7 KECCAK256 ADD SSTORE DUP2 SLOAD DUP5 MSTORE PUSH1 0x7 TIMESTAMP SWAP2 DUP6 KECCAK256 ADD SSTORE SLOAD SWAP3 DUP3 DUP5 SWAP4 LOG3 SWAP1 JUMP JUMPDEST ADD MLOAD SWAP3 POP CODESIZE DUP1 PUSH2 0x19F7 JUMP JUMPDEST DUP4 DUP11 MSTORE DUP5 DUP11 KECCAK256 SWAP1 SWAP12 SWAP2 PUSH1 0x1F NOT DUP4 AND DUP12 JUMPDEST DUP2 DUP2 LT PUSH2 0x1A9D JUMPI POP SWAP13 DUP4 PUSH32 0xC82555D64D2B8B25FFEFC140AE6575736763EE3A99347632D7F633E7BFAE3F78 SWAP14 SWAP15 LT PUSH2 0x1A85 JUMPI JUMPDEST POP POP POP DUP2 SHL ADD SWAP1 SSTORE PUSH2 0x1A08 JUMP JUMPDEST ADD MLOAD PUSH1 0x0 NOT DUP4 DUP9 SHL PUSH1 0xF8 AND SHR NOT AND SWAP1 SSTORE CODESIZE DUP1 DUP1 PUSH2 0x1A78 JUMP JUMPDEST DUP15 DUP4 ADD MLOAD DUP5 SSTORE SWAP3 DUP6 ADD SWAP3 SWAP2 DUP8 ADD SWAP2 DUP8 ADD PUSH2 0x1A45 JUMP JUMPDEST PUSH4 0x4E487B71 PUSH1 0xE0 SHL DUP10 MSTORE PUSH1 0x41 PUSH1 0x4 MSTORE PUSH1 0x24 DUP10 REVERT JUMPDEST ADD MLOAD SWAP1 POP CODESIZE DUP1 PUSH2 0x197E JUMP JUMPDEST DUP5 DUP14 MSTORE DUP8 DUP14 KECCAK256 DUP7 SWAP5 POP SWAP2 SWAP1 PUSH1 0x1F NOT DUP5 AND DUP15 JUMPDEST DUP11 DUP3 DUP3 LT PUSH2 0x1B19 JUMPI POP POP DUP5 GT PUSH2 0x1B01 JUMPI JUMPDEST POP POP POP DUP2 SHL ADD SWAP1 SSTORE PUSH2 0x1990 JUMP JUMPDEST ADD MLOAD PUSH1 0x0 NOT DUP4 DUP11 SHL PUSH1 0xF8 AND SHR NOT AND SWAP1 SSTORE CODESIZE DUP1 DUP1 PUSH2 0x1AF4 JUMP JUMPDEST DUP4 DUP6 ADD MLOAD DUP7 SSTORE DUP10 SWAP8 SWAP1 SWAP6 ADD SWAP5 SWAP4 DUP5 ADD SWAP4 ADD PUSH2 0x1AE3 JUMP JUMPDEST PUSH4 0x4E487B71 PUSH1 0xE0 SHL DUP12 MSTORE PUSH1 0x41 PUSH1 0x4 MSTORE PUSH1 0x24 DUP12 REVERT JUMPDEST PUSH1 0x40 MLOAD PUSH3 0x461BCD PUSH1 0xE5 SHL DUP2 MSTORE PUSH1 0x20 PUSH1 0x4 DUP3 ADD MSTORE PUSH1 0x14 PUSH1 0x24 DUP3 ADD MSTORE PUSH20 0x151A194811185D18481A5CC81C995C5D5A5C9959 PUSH1 0x62 SHL PUSH1 0x44 DUP3 ADD MSTORE PUSH1 0x64 SWAP1 REVERT JUMPDEST PUSH1 0x40 MLOAD PUSH3 0x461BCD PUSH1 0xE5 SHL DUP2 MSTORE PUSH1 0x20 PUSH1 0x4 DUP3 ADD MSTORE PUSH1 0x1D PUSH1 0x24 DUP3 ADD MSTORE PUSH32 0x5468652046756E6374696F6E206E616D65206973207265717569726564000000 PUSH1 0x44 DUP3 ADD MSTORE PUSH1 0x64 SWAP1 REVERT JUMPDEST PUSH1 0x40 MLOAD PUSH3 0x461BCD PUSH1 0xE5 SHL DUP2 MSTORE PUSH1 0x20 PUSH1 0x4 DUP3 ADD MSTORE PUSH1 0x18 PUSH1 0x24 DUP3 ADD MSTORE PUSH32 0x5A65726F2061646472657373206E6F7420416C6C6F7765640000000000000000 PUSH1 0x44 DUP3 ADD MSTORE PUSH1 0x64 SWAP1 REVERT JUMPDEST SWAP2 SWAP1 DUP3 PUSH1 0x40 SWAP2 SUB SLT PUSH2 0x13FB JUMPI PUSH1 0x20 DUP3 MLOAD SWAP3 ADD MLOAD SWAP1 JUMP JUMPDEST SWAP2 SWAP1 SWAP2 PUSH1 0x60 PUSH1 0x80 DUP3 ADD SWAP4 DUP1 MLOAD DUP4 MSTORE PUSH1 0x1 DUP1 PUSH1 0xA0 SHL SUB PUSH1 0x20 DUP3 ADD MLOAD AND PUSH1 0x20 DUP5 ADD MSTORE DUP2 PUSH1 0x1 PUSH1 0x1 PUSH1 0x80 SHL SUB SWAP2 DUP3 PUSH1 0x40 DUP3 ADD MLOAD AND PUSH1 0x40 DUP7 ADD MSTORE ADD MLOAD AND SWAP2 ADD MSTORE JUMP JUMPDEST SWAP1 DUP2 PUSH1 0x20 SWAP2 SUB SLT PUSH2 0x13FB JUMPI MLOAD DUP1 ISZERO ISZERO DUP2 SUB PUSH2 0x13FB JUMPI SWAP1 JUMP JUMPDEST SWAP2 SWAP1 SWAP2 PUSH1 0x80 DUP1 PUSH1 0xA0 DUP4 ADD SWAP5 DUP1 MLOAD DUP5 MSTORE PUSH1 0x1 PUSH1 0x1 PUSH1 0x80 SHL SUB PUSH1 0x20 DUP3 ADD MLOAD AND PUSH1 0x20 DUP6 ADD MSTORE PUSH1 0x40 DUP2 ADD MLOAD PUSH1 0x40 DUP6 ADD MSTORE PUSH1 0x60 DUP2 ADD MLOAD PUSH1 0x60 DUP6 ADD MSTORE ADD MLOAD SWAP2 ADD MSTORE JUMP JUMPDEST SWAP1 DUP2 DUP2 GT PUSH2 0x1CC6 JUMPI DUP2 SUB SWAP1 DUP2 GT PUSH2 0x1832 JUMPI SWAP1 JUMP JUMPDEST PUSH1 0x40 MLOAD PUSH3 0x461BCD PUSH1 0xE5 SHL DUP2 MSTORE PUSH1 0x20 PUSH1 0x4 DUP3 ADD MSTORE PUSH1 0x22 PUSH1 0x24 DUP3 ADD MSTORE PUSH32 0x61206D7573742062652067726561746572207468616E206F7220657175616C73 PUSH1 0x44 DUP3 ADD MSTORE PUSH2 0x1031 PUSH1 0xF1 SHL PUSH1 0x64 DUP3 ADD MSTORE PUSH1 0x84 SWAP1 REVERT JUMPDEST DUP2 DUP2 MUL SWAP3 SWAP2 DUP2 ISZERO SWAP2 DUP5 DIV EQ OR ISZERO PUSH2 0x1832 JUMPI JUMP JUMPDEST DUP1 ISZERO PUSH2 0x1D82 JUMPI PUSH1 0x1 DUP1 DUP3 ADD DUP1 DUP4 GT PUSH2 0x1832 JUMPI DUP2 SHR SWAP1 DUP3 JUMPDEST DUP4 DUP4 LT PUSH2 0x1D4D JUMPI POP POP POP SWAP1 JUMP JUMPDEST SWAP2 SWAP3 POP SWAP1 DUP3 DUP1 ISZERO PUSH2 0x1D6D JUMPI DUP1 PUSH2 0x1D64 SWAP2 DUP4 DIV PUSH2 0x1825 JUMP JUMPDEST DUP3 SHR SWAP2 SWAP1 PUSH2 0x1D40 JUMP JUMPDEST PUSH1 0x24 PUSH1 0x0 PUSH4 0x4E487B71 PUSH1 0xE0 SHL DUP2 MSTORE PUSH1 0x12 PUSH1 0x4 MSTORE REVERT JUMPDEST POP PUSH1 0x0 SWAP1 JUMP INVALID LOG2 PUSH5 0x6970667358 0x22 SLT KECCAK256 RETURNDATASIZE GT 0x28 0xDA DUP15 SWAP16 PUSH20 0x74271BABC95B864657FE4127875E12FEF8DDAD3E PUSH7 0x6D39773364736F PUSH13 0x63430008130033000000000000 "
		},
		"gasEstimates": {
			"creation": {
				"codeDepositCost": "1522800",
				"executionCost": "infinite",
				"totalCost": "infinite"
			},
			"external": {
				"UNISWAP_V3_FACTORY()": "530",
				"UNISWAP_V3_NFT_POSITION_MANAGER()": "354",
				"collectAllFees(uint256)": "infinite",
				"confirmTransaction(uint256)": "130333",
				"createAndInitializePool(address,address,uint24,uint256)": "infinite",
				"createPoolAndMintNFT(address,address,uint24,uint256,uint256,uint256,uint160,uint160)": "infinite",
				"decreaseLiquidityCurrentRange(uint256,uint128)": "infinite",
				"executeTransaction(uint256)": "59332",
				"getAllTransactions(uint256,uint256)": "infinite",
				"getOwners()": "infinite",
				"getTransaction(uint256)": "infinite",
				"increaseLiquidityCurrentRange(address,address,uint256,uint256,uint256)": "infinite",
				"removePool(uint256,uint128)": "infinite",
				"sendEther(address,uint256)": "infinite",
				"swap(address,address,uint256,uint256,uint24)": "infinite",
				"transferERC20(address,address,uint256)": "infinite",
				"unwrapWETH(address,uint256)": "infinite",
				"wrapETH(address,uint256)": "infinite"
			},
			"internal": {
				"_createPoolAndMintNFT(address,address,uint24,uint256,uint256,uint256,uint160,uint160)": "infinite",
				"_swap(address,address,uint256,uint256,uint24)": "infinite",
				"_unwrapWETH(address,uint256)": "infinite",
				"_wrapETH(address,uint256)": "infinite",
				"executeFunction(uint256)": "infinite"
			}
		},
		"methodIdentifiers": {
			"UNISWAP_V3_FACTORY()": "f73e5aab",
			"UNISWAP_V3_NFT_POSITION_MANAGER()": "a9109570",
			"collectAllFees(uint256)": "46ce96dd",
			"confirmTransaction(uint256)": "c01a8c84",
			"createAndInitializePool(address,address,uint24,uint256)": "f47f9033",
			"createPoolAndMintNFT(address,address,uint24,uint256,uint256,uint256,uint160,uint160)": "fb35f110",
			"decreaseLiquidityCurrentRange(uint256,uint128)": "1834c397",
			"executeTransaction(uint256)": "ee22610b",
			"getAllTransactions(uint256,uint256)": "c5e57c64",
			"getOwners()": "a0e67e2b",
			"getTransaction(uint256)": "33ea3dc8",
			"increaseLiquidityCurrentRange(address,address,uint256,uint256,uint256)": "5efb3b6d",
			"removePool(uint256,uint128)": "ac43a6b8",
			"sendEther(address,uint256)": "c1756a2c",
			"swap(address,address,uint256,uint256,uint24)": "b40b7e0b",
			"transferERC20(address,address,uint256)": "9db5dbe4",
			"unwrapWETH(address,uint256)": "5869dba8",
			"wrapETH(address,uint256)": "29793f7d"
		}
	},
	"abi": [
		{
			"inputs": [
				{
					"internalType": "address[]",
					"name": "_owners",
					"type": "address[]"
				},
				{
					"internalType": "uint256",
					"name": "_numConfirmationsRequired",
					"type": "uint256"
				}
			],
			"stateMutability": "nonpayable",
			"type": "constructor"
		},
		{
			"anonymous": false,
			"inputs": [
				{
					"indexed": true,
					"internalType": "address",
					"name": "from",
					"type": "address"
				},
				{
					"indexed": true,
					"internalType": "uint256",
					"name": "transactionId",
					"type": "uint256"
				}
			],
			"name": "ConfirmTransaction",
			"type": "event"
		},
		{
			"anonymous": false,
			"inputs": [
				{
					"indexed": true,
					"internalType": "address",
					"name": "from",
					"type": "address"
				},
				{
					"indexed": true,
					"internalType": "uint256",
					"name": "transactionId",
					"type": "uint256"
				}
			],
			"name": "ExecuteTransaction",
			"type": "event"
		},
		{
			"anonymous": false,
			"inputs": [
				{
					"indexed": true,
					"internalType": "address",
					"name": "from",
					"type": "address"
				},
				{
					"indexed": true,
					"internalType": "uint256",
					"name": "transactionId",
					"type": "uint256"
				}
			],
			"name": "SubmitTransaction",
			"type": "event"
		},
		{
			"inputs": [],
			"name": "UNISWAP_V3_FACTORY",
			"outputs": [
				{
					"internalType": "address",
					"name": "",
					"type": "address"
				}
			],
			"stateMutability": "view",
			"type": "function"
		},
		{
			"inputs": [],
			"name": "UNISWAP_V3_NFT_POSITION_MANAGER",
			"outputs": [
				{
					"internalType": "address",
					"name": "",
					"type": "address"
				}
			],
			"stateMutability": "view",
			"type": "function"
		},
		{
			"inputs": [
				{
					"internalType": "uint256",
					"name": "tokenId",
					"type": "uint256"
				}
			],
			"name": "collectAllFees",
			"outputs": [
				{
					"internalType": "uint256",
					"name": "amount0",
					"type": "uint256"
				},
				{
					"internalType": "uint256",
					"name": "amount1",
					"type": "uint256"
				}
			],
			"stateMutability": "nonpayable",
			"type": "function"
		},
		{
			"inputs": [
				{
					"internalType": "uint256",
					"name": "_transactionId",
					"type": "uint256"
				}
			],
			"name": "confirmTransaction",
			"outputs": [],
			"stateMutability": "nonpayable",
			"type": "function"
		},
		{
			"inputs": [
				{
					"internalType": "address",
					"name": "token0",
					"type": "address"
				},
				{
					"internalType": "address",
					"name": "token1",
					"type": "address"
				},
				{
					"internalType": "uint24",
					"name": "fee",
					"type": "uint24"
				},
				{
					"internalType": "uint256",
					"name": "initialPrice",
					"type": "uint256"
				}
			],
			"name": "createAndInitializePool",
			"outputs": [
				{
					"internalType": "address",
					"name": "pool",
					"type": "address"
				}
			],
			"stateMutability": "payable",
			"type": "function"
		},
		{
			"inputs": [
				{
					"internalType": "address",
					"name": "token0",
					"type": "address"
				},
				{
					"internalType": "address",
					"name": "token1",
					"type": "address"
				},
				{
					"internalType": "uint24",
					"name": "fee",
					"type": "uint24"
				},
				{
					"internalType": "uint256",
					"name": "amount0ToAdd",
					"type": "uint256"
				},
				{
					"internalType": "uint256",
					"name": "amount1ToAdd",
					"type": "uint256"
				},
				{
					"internalType": "uint256",
					"name": "initialPrice",
					"type": "uint256"
				},
				{
					"internalType": "uint160",
					"name": "minPrice",
					"type": "uint160"
				},
				{
					"internalType": "uint160",
					"name": "maxPrice",
					"type": "uint160"
				}
			],
			"name": "createPoolAndMintNFT",
			"outputs": [
				{
					"internalType": "uint256",
					"name": "_transactionId",
					"type": "uint256"
				}
			],
			"stateMutability": "payable",
			"type": "function"
		},
		{
			"inputs": [
				{
					"internalType": "uint256",
					"name": "tokenId",
					"type": "uint256"
				},
				{
					"internalType": "uint128",
					"name": "liquidity",
					"type": "uint128"
				}
			],
			"name": "decreaseLiquidityCurrentRange",
			"outputs": [
				{
					"internalType": "uint256",
					"name": "amount0",
					"type": "uint256"
				},
				{
					"internalType": "uint256",
					"name": "amount1",
					"type": "uint256"
				}
			],
			"stateMutability": "nonpayable",
			"type": "function"
		},
		{
			"inputs": [
				{
					"internalType": "uint256",
					"name": "_transactionId",
					"type": "uint256"
				}
			],
			"name": "executeTransaction",
			"outputs": [],
			"stateMutability": "nonpayable",
			"type": "function"
		},
		{
			"inputs": [
				{
					"internalType": "uint256",
					"name": "_pageNo",
					"type": "uint256"
				},
				{
					"internalType": "uint256",
					"name": "_perPage",
					"type": "uint256"
				}
			],
			"name": "getAllTransactions",
			"outputs": [
				{
					"components": [
						{
							"internalType": "address",
							"name": "from",
							"type": "address"
						},
						{
							"internalType": "address",
							"name": "executed",
							"type": "address"
						},
						{
							"internalType": "uint256",
							"name": "numConfirmations",
							"type": "uint256"
						},
						{
							"internalType": "string",
							"name": "functionName",
							"type": "string"
						},
						{
							"internalType": "bytes",
							"name": "data",
							"type": "bytes"
						},
						{
							"internalType": "address[]",
							"name": "confirmed",
							"type": "address[]"
						},
						{
							"internalType": "uint256",
							"name": "createdAt",
							"type": "uint256"
						},
						{
							"internalType": "uint256",
							"name": "updatedAt",
							"type": "uint256"
						}
					],
					"internalType": "struct IMultiSig.Transaction[]",
					"name": "transactions_",
					"type": "tuple[]"
				},
				{
					"internalType": "uint256",
					"name": "totalList_",
					"type": "uint256"
				}
			],
			"stateMutability": "view",
			"type": "function"
		},
		{
			"inputs": [],
			"name": "getOwners",
			"outputs": [
				{
					"internalType": "address[]",
					"name": "",
					"type": "address[]"
				}
			],
			"stateMutability": "view",
			"type": "function"
		},
		{
			"inputs": [
				{
					"internalType": "uint256",
					"name": "_transactionId",
					"type": "uint256"
				}
			],
			"name": "getTransaction",
			"outputs": [
				{
					"components": [
						{
							"internalType": "address",
							"name": "from",
							"type": "address"
						},
						{
							"internalType": "address",
							"name": "executed",
							"type": "address"
						},
						{
							"internalType": "uint256",
							"name": "numConfirmations",
							"type": "uint256"
						},
						{
							"internalType": "string",
							"name": "functionName",
							"type": "string"
						},
						{
							"internalType": "bytes",
							"name": "data",
							"type": "bytes"
						},
						{
							"internalType": "address[]",
							"name": "confirmed",
							"type": "address[]"
						},
						{
							"internalType": "uint256",
							"name": "createdAt",
							"type": "uint256"
						},
						{
							"internalType": "uint256",
							"name": "updatedAt",
							"type": "uint256"
						}
					],
					"internalType": "struct IMultiSig.Transaction",
					"name": "transactions_",
					"type": "tuple"
				}
			],
			"stateMutability": "view",
			"type": "function"
		},
		{
			"inputs": [
				{
					"internalType": "address",
					"name": "token0",
					"type": "address"
				},
				{
					"internalType": "address",
					"name": "token1",
					"type": "address"
				},
				{
					"internalType": "uint256",
					"name": "tokenId",
					"type": "uint256"
				},
				{
					"internalType": "uint256",
					"name": "amount0ToAdd",
					"type": "uint256"
				},
				{
					"internalType": "uint256",
					"name": "amount1ToAdd",
					"type": "uint256"
				}
			],
			"name": "increaseLiquidityCurrentRange",
			"outputs": [
				{
					"internalType": "uint128",
					"name": "liquidity",
					"type": "uint128"
				},
				{
					"internalType": "uint256",
					"name": "amount0",
					"type": "uint256"
				},
				{
					"internalType": "uint256",
					"name": "amount1",
					"type": "uint256"
				}
			],
			"stateMutability": "nonpayable",
			"type": "function"
		},
		{
			"inputs": [
				{
					"internalType": "uint256",
					"name": "tokenId",
					"type": "uint256"
				},
				{
					"internalType": "uint128",
					"name": "liquidity",
					"type": "uint128"
				}
			],
			"name": "removePool",
			"outputs": [
				{
					"internalType": "uint256",
					"name": "amount0",
					"type": "uint256"
				},
				{
					"internalType": "uint256",
					"name": "amount1",
					"type": "uint256"
				},
				{
					"internalType": "uint256",
					"name": "fees0",
					"type": "uint256"
				},
				{
					"internalType": "uint256",
					"name": "fees1",
					"type": "uint256"
				}
			],
			"stateMutability": "nonpayable",
			"type": "function"
		},
		{
			"inputs": [
				{
					"internalType": "address payable",
					"name": "recipient",
					"type": "address"
				},
				{
					"internalType": "uint256",
					"name": "amount",
					"type": "uint256"
				}
			],
			"name": "sendEther",
			"outputs": [],
			"stateMutability": "nonpayable",
			"type": "function"
		},
		{
			"inputs": [
				{
					"internalType": "address",
					"name": "_tokenIn",
					"type": "address"
				},
				{
					"internalType": "address",
					"name": "_tokenOut",
					"type": "address"
				},
				{
					"internalType": "uint256",
					"name": "_amountIn",
					"type": "uint256"
				},
				{
					"internalType": "uint256",
					"name": "_amountOutMin",
					"type": "uint256"
				},
				{
					"internalType": "uint24",
					"name": "_fee",
					"type": "uint24"
				}
			],
			"name": "swap",
			"outputs": [
				{
					"internalType": "uint256",
					"name": "_transactionId",
					"type": "uint256"
				}
			],
			"stateMutability": "nonpayable",
			"type": "function"
		},
		{
			"inputs": [
				{
					"internalType": "address",
					"name": "tokenContractAddress",
					"type": "address"
				},
				{
					"internalType": "address",
					"name": "recipient",
					"type": "address"
				},
				{
					"internalType": "uint256",
					"name": "amount",
					"type": "uint256"
				}
			],
			"name": "transferERC20",
			"outputs": [],
			"stateMutability": "nonpayable",
			"type": "function"
		},
		{
			"inputs": [
				{
					"internalType": "address",
					"name": "wtoken",
					"type": "address"
				},
				{
					"internalType": "uint256",
					"name": "amount",
					"type": "uint256"
				}
			],
			"name": "unwrapWETH",
			"outputs": [
				{
					"internalType": "uint256",
					"name": "_transactionId",
					"type": "uint256"
				}
			],
			"stateMutability": "nonpayable",
			"type": "function"
		},
		{
			"inputs": [
				{
					"internalType": "address",
					"name": "wtoken",
					"type": "address"
				},
				{
					"internalType": "uint256",
					"name": "amount",
					"type": "uint256"
				}
			],
			"name": "wrapETH",
			"outputs": [
				{
					"internalType": "uint256",
					"name": "_transactionId",
					"type": "uint256"
				}
			],
			"stateMutability": "nonpayable",
			"type": "function"
		},
		{
			"stateMutability": "payable",
			"type": "receive"
		}
	]
}