{
	"data": {
		"bytecode": {
			"linkReferences": {},
			"object": "60406080815234620004275762003fcc90813803806200001f8162000442565b938439820191606081840312620004275780516001600160a01b0380821692909183900362000427576020818101516001600160401b0396919291908781116200042757820181601f82011215620004275780519788116200042c578760051b9084806200008f81850162000442565b809b81520192820101928311620004275790848894939201905b8282106200040557505050015191600195868411156200039b57838151106200030b57600093846002556005558684905b62000186575b8673e592427a0aece92de3edee1f18e0157c058615648760018060a01b0319907335bd3f9cf97ffb44681805166fe9f7b793c543b88260065416176006556801158e460913d00000600b5581600a541617600a55731f98431c8ad98523631ae4a59f267346ea31f98481600754161760075573c36442b4a4522e871399cd717abdd847ab11fe88816008541617600855600954161760095551613b389081620004948239f35b81518110156200030557826200019d828462000468565b511615620002c15782620001b2828462000468565b5116855287845260ff87862054166200027d5782620001d2828462000468565b51168552878452868520805460ff19168917905582620001f3828462000468565b5116855468010000000000000000811015620002695789810180885581101562000255578680528587200180546001600160a01b0319169091179055808801908110620002415787620000da565b634e487b7160e01b85526011600452602485fd5b634e487b7160e01b87526032600452602487fd5b634e487b7160e01b87526041600452602487fd5b865162461bcd60e51b815260048101859052601460248201527f546865204f776e6572206e6f7420756e697175650000000000000000000000006044820152606490fd5b865162461bcd60e51b815260048101859052601860248201527f5a65726f2061646472657373206e6f7420416c6c6f77656400000000000000006044820152606490fd5b620000e0565b855162461bcd60e51b815260048101849052605a60248201527f546865206e756d626572206f66206f776e657273206d7573742062652067726560448201527f61746572207468616e206f7220657175616c20746f20746865206e756d62657260648201527f206f6620636f6e6669726d6174696f6e73207265717569726564000000000000608482015260a490fd5b855162461bcd60e51b815260048101849052603d60248201527f546865204e756d626572206f6620636f6e6669726d6174696f6e73207265717560448201527f69726564206d7573742062652067726561746572207468616e206f6e650000006064820152608490fd5b90809293945051868116810362000427578152879392918501908501620000a9565b600080fd5b634e487b7160e01b600052604160045260246000fd5b6040519190601f01601f191682016001600160401b038111838210176200042c57604052565b80518210156200047d5760209160051b010190565b634e487b7160e01b600052603260045260246000fdfe608080604052600436101561001d575b50361561001b57600080fd5b005b600090813560e01c9081631792b0bc14612754575080631834c397146126fa57806329793f7d146126a75780632d00eef31461267e57806333ea3dc8146125a157806346ce96dd146125305780635869dba8146124b35780635efb3b6d146123fc5780639db5dbe41461235e578063a0e67e2b1461229a578063a91095701461226b578063ac133d3b1461224d578063ac43a6b8146121c7578063b40b7e0b14612113578063c01a8c8414611f46578063c1756a2c14611ebd578063c5e57c6414611c3d578063ee22610b14610334578063f47f903314610262578063f73e5aab146102335763fb35f1100361000f576101009081600319360112610230576101246129a2565b9161012d6129b8565b91610136612abb565b60c4356001600160a01b0381811693929184900361022b5760e4359581871680970361022b5761017860ff604062ffffff963381526001602052205416612bfe565b8160405198166020890152166040870152166060850152606435608085015260843560a085015260a43560c085015260e08401528201526101203481830152815261014081018181106001600160401b03821117610215576020918161020d926040526101e481612b32565b601581527417d8dc99585d19541bdbdb105b99135a5b9d139195605a1b61016083015233612fa1565b604051908152f35b634e487b7160e01b600052604160045260246000fd5b600080fd5b80fd5b50346102305780600319360112610230576020604051731f98431c8ad98523631ae4a59f267346ea31f9848152f35b506080366003190112610230576102776129a2565b61027f6129b8565b6020610289612abb565b610294606435613460565b6008546040516309f56ab160e11b81526001600160a01b039687166004820152948616602486015262ffffff9290921660448501528416606484015291929183906084908290349086165af191821561032957602093926102fa575b5060405191168152f35b61031b919250833d8111610322575b6103138183612b83565b81019061332f565b90386102f0565b503d610309565b6040513d85823e3d90fd5b503461023057602036600319011261023057338152600160205261035e60ff604083205416612bfe565b600435151580611c2f575b61037290612c36565b6004358152600360208190526040822060010154610399906001600160a01b031615612c82565b600435825280602052600260408320015460055411611bf6576004358252806020526103f7816040842060018101336bffffffffffffffffffffffff60a01b8254161790554260078201556040519283916020830193849101612e59565b039161040b601f1993848101835282612b83565b51902060405160208101906405f737761760dc1b82526005815261042e81612b32565b519020036106b75750600435825260205261045861045f6004604084200160405192838092612d47565b0382612b83565b60a0818051810103126106b35761047860208201612edb565b9061048560408201612edb565b60608201519061049c60a060808501519401612f3d565b60405163095ea7b360e01b815273e592427a0aece92de3edee1f18e0157c058615646004820152602481018490526001600160a01b03909516946020816044818a8a5af19081156106a8578791610679575b501561064257610e1042019182421161062e579162ffffff87969492602096946040519661051b88612acd565b87526001600160a01b0390811688880190815292909116604080880191825230606089019081526080890195865260a0890196875260c0890197885260e089018b8152600954925163414bf38960e01b81529951851660048b01529451841660248a0152915162ffffff16604489015290518216606488015292516084870152925160a4860152925160c48501529151811660e48401529193849261010492849291165af18015610623576105f8575b505b600435337f5445f318f4f5fcfb66592e68e0cc5822aa15664039bd5f0ffde24c5a8142b1ac8380a380f35b602090813d831161061c575b61060e8183612b83565b8101031261022b57386105cb565b503d610604565b6040513d84823e3d90fd5b634e487b7160e01b87526011600452602487fd5b60405162461bcd60e51b815260206004820152600f60248201526e105c1c1c9bdd985b0819985a5b1959608a1b6044820152606490fd5b61069b915060203d6020116106a1575b6106938183612b83565b810190612e41565b386104ee565b503d610689565b6040513d89823e3d90fd5b5080fd5b906004358352806020528060408420016040516106e8816106dc602082018095612e59565b03858101835282612b83565b51902060405160208101906a0beeadceee4c2e0ae8aa8960ab1b8252600b815261071181612b32565b519020036108385760043583526020528161074d61045861073e6004604085200160405192838092612d47565b60208082518301019101612eef565b906001600160a01b03166107628215156132e3565b803b1561083457828091602460405180948193632e1a7d4d60e01b83528760048401525af1908115610329578391610820575b50808092305af1903d1561081a573d6001600160401b038111610215576107c7602060405193601f8401160183612b83565b81528260203d92013e5b6105cd5760405162461bcd60e51b815260206004820152601860248201527f4661696c656420746f207472616e7366657220457468657200000000000000006044820152606490fd5b506107d1565b61082990612b1f565b6106b3578138610795565b8280fd5b906004358352816020528160408420016040516108698161085d602082018095612e59565b03848101835282612b83565b5190206040516020810190670beeee4c2e08aa8960c31b82526008815261088f81612b32565b5190200361096c575060043582526020526108bc61045861073e6004604085200160405192838092612d47565b906001600160a01b03164782116109165782906108da8315156132e3565b803b156106b357600460405180948193630d0e30db60e41b83525af1801561062357610907575b506105cd565b61091090612b1f565b38610901565b60405162461bcd60e51b815260206004820152602860248201527f496e73756666696369656e74204554482062616c616e636520696e207468652060448201526718dbdb9d1c9858dd60c21b6064820152608490fd5b6004358352816020528160408420016040516109908161085d602082018095612e59565b51902060405160208101907417d8dc99585d19541bdbdb105b99135a5b9d139195605a1b8252601581526109c381612b32565b51902003611198575060043582526020526104586109ed6004604084200160405192838092612d47565b610120818051810103126106b357610aae610a0a60208301612edb565b610a1660408401612edb565b90610a2360608501612f3d565b9060808501519460a08101519060c08101516020610a4360e08401612edb565b91610a60610120610a576101008701612edb565b95015191613460565b6008546040516309f56ab160e11b81526001600160a01b0389811660048301528b8116602483015262ffffff8b16604483015292831660648201529a8b939290911691839182906084820190565b03925af1968715610eb1578997611177575b506040516323b872dd60e01b808252336004830152306024830152604482018a9052906020816064818e6001600160a01b038b165af18015610ed957611158575b50604051908152336004820152306024820152604481018490526020816064818d6001600160a01b038c165af1801561110f57611139575b5060085460405163095ea7b360e01b81526001600160a01b03909116600482015260248101899052602081806044810103818d6001600160a01b038a165af1801561110f5761111a575b5060085460405163095ea7b360e01b81526001600160a01b03909116600482015260248101849052602081806044810103818d6001600160a01b038c165af1801561110f576110f0575b506401000276a36001600160a01b0382169081101590816110c8575b816110b5575b501561107a57610c01610c07916134ea565b916134ea565b60020b91828260020b1280611069575b8061105c575b156110225760405194856101608101106001600160401b036101608801111761100e579062ffffff8a92610160880160405260018060a01b038716885260018060a01b03891660208901521660408701528260020b60608701528360808701528860a08701528060c08701528160e0870152816101008701523061012087015242610140870152608061014061016460018060a01b036008541698856040519a8b948593634418b22b60e11b855260018060a01b03815116600486015260018060a01b03602082015116602486015262ffffff6040820151166044860152606081015160020b60648601528781015160020b608486015260a081015160a486015260c081015160c486015260e081015160e486015261010081015161010486015260018060a01b036101208201511661012486015201516101448401525af196871561062357829983968498859a610fb8575b50818910610ee4575b5050818810610dd6575b505050956001600160801b039291610dd1976040519760018060a01b0316602089015260020b6040880152606087015260808601521660a084015260c083015260e082015260e08152612acd565b6105cd565b60085460405163095ea7b360e01b81526001600160a01b03918216600482015260248101859052939a94969593929190602090849060449082908f9086165af1928315610ed95789610e5e93610e3492602096610ebc575b5061334e565b60405163a9059cbb60e01b815233600482015260248101919091529a8b9283919082906044820190565b03926001600160a01b03165af1938415610eb157610dd1986001600160801b0395610e92575b819399508a92949550610d83565b610eaa9060203d6020116106a1576106938183612b83565b5038610e84565b6040513d8b823e3d90fd5b610ed290873d89116106a1576106938183612b83565b5038610e2e565b6040513d8d823e3d90fd5b60085460405163095ea7b360e01b81526001600160a01b039182166004820152602481018790529290602090849060449082908a9087165af1918215610fad57610f3b8b610f65938996602096610ebc575061334e565b60405163a9059cbb60e01b8152336004820152602481019190915293849283919082906044820190565b03926001600160a01b03165af18015610fa257610f83575b80610d79565b610f9b9060203d6020116106a1576106938183612b83565b5038610f7d565b6040513d86823e3d90fd5b6040513d88823e3d90fd5b97509850995095506080853d608011611006575b81610fd960809383612b83565b810103126106b357845195610ff060208701612f0c565b9960606040880151970151979a96979838610d70565b3d9150610fcc565b634e487b7160e01b8a52604160045260248afd5b60405162461bcd60e51b81526020600482015260126024820152715469636b73206f7574206f662072616e676560701b6044820152606490fd5b50620d89e8831315610c1d565b50620d89e7198260020b1215610c17565b60405162461bcd60e51b8152602060048201526013602482015272496e76616c69642070726963652072616e676560681b6044820152606490fd5b6001600160a01b03841611905038610bef565b73fffd8963efd1fc6a506488495d951d5263988d266001600160a01b03851611159150610be9565b6111089060203d6020116106a1576106938183612b83565b5038610bcd565b6040513d8c823e3d90fd5b6111329060203d6020116106a1576106938183612b83565b5038610b83565b6111519060203d6020116106a1576106938183612b83565b5038610b39565b6111709060203d6020116106a1576106938183612b83565b5038610b01565b61119191975060203d602011610322576103138183612b83565b9538610ac0565b6004358352816020528160408420016040516111bc8161085d602082018095612e59565b51902060405160208101906e5f636f6c6c656374416c6c4665657360881b8252600f81526111e981612b32565b519020036112e157506004358252602052806104586112146004604084200160405192838092612d47565b6020818051810103126112de5761127d6020604092015182519061123782612b04565b81523060208201526001600160801b038382018190526060820152600854835163fc6f786560e01b81529485936001600160a01b03909216928492839160048301613371565b03925af190811561062357610dd191839184916112ad575b50604051916020830152604082015260408152612b68565b90506112d1915060403d6040116112d7575b6112c98183612b83565b81019061335b565b38611295565b503d6112bf565b50fd5b6004358352816020528160408420016040516113058161085d602082018095612e59565b51902060405160208101907f5f696e6372656173654c697175696469747943757272656e7452616e676500008252601e815261134081612b32565b519020036116565750600435825260205261045861136a6004604084200160405192838092612d47565b60a0818051810103126106b35761138360208201612edb565b9061139060408201612edb565b606082810151608084015160a0909401516040516323b872dd60e01b80825233600483015230602483015260448201879052919693959492936001600160a01b03938416931691906020816064818c875af18015610eb157611637575b50604051908152336004820152306024820152604481018790526020816064818b875af1801561160d57611618575b5060085460405163095ea7b360e01b8082526001600160a01b0390921660048201526024810186905290929091602090839060449082908c905af190811561160d5761149e9360209389936115f0575b506008546040519182526001600160a01b031660048201526024810192909252909283919082908a9082906044820190565b03925af18015610fad576115d1575b506040519060c082018281106001600160401b038211176115bd579160c49185949360405281526020810192835260408101958652868482018181526080830182815260a084019042825260018060a01b0360085416926040519a8b98899763219f5d1760e01b89525160048901525160248801525160448701525160648601525160848501525160a48401525af190811561032957839184938591611575575b50610dd1936001600160801b03604051941660208501526040840152818301528152612b04565b92505080925081813d83116115b6575b61158f8183612b83565b8101031261083457610dd1916115a482612f0c565b6040602084015193015190929361154e565b503d611585565b634e487b7160e01b87526041600452602487fd5b6115e99060203d6020116106a1576106938183612b83565b50386114ad565b61160690853d87116106a1576106938183612b83565b503861146c565b6040513d8a823e3d90fd5b6116309060203d6020116106a1576106938183612b83565b503861141c565b61164f9060203d6020116106a1576106938183612b83565b50386113ed565b60043583528160205281604084200160405161167a8161085d602082018095612e59565b51902060405160208101907f5f64656372656173654c697175696469747943757272656e7452616e676500008252601e81526116b581612b32565b5190200361174a5750600435825260205280604061127d6001600160801b036116fd6104586116ee600486882001865192838092612d47565b60208082518301019101612f20565b8451929161170a84612ae9565b8352166020820152838382015283606082015242608082015260018060a01b0360085416908351948580948193630624e65f60e11b8352600483016133af565b60043583528160205281604084200160405161176e8161085d602082018095612e59565b51902060405160208101906a17dc995b5bdd99541bdbdb60aa1b8252600b815261179781612b32565b519020036119135750600435825260205280806117c66104586116ee6004604085200160405192838092612d47565b9290604061182381516117d881612ae9565b8381526001600160801b038097166020820152848382015284606082015242608082015260018060a01b0360085416908351968780948193630624e65f60e11b8352600483016133af565b03925af193841561062357829383956118e6575b506040916118899183519161184b83612b04565b82523060208301528382018190526060820152600854835163fc6f786560e01b81529485936001600160a01b03909216928492839160048301613371565b03925af1908115610fa257610dd193859186936118c3575b5060405193602085015260408401526060830152608082015260808152612ae9565b9092506118df915060403d6040116112d7576112c98183612b83565b91386118a1565b611889919550604092945061190790833d85116112d7576112c98183612b83565b94909495915091611837565b6004358352816020528160408420016040516119378161085d602082018095612e59565b51902060405160208101906d05f7472616e7366657245524332360941b8252600e815261196381612b32565b51902003611ad65750600435825260205261045861198d6004604084200160405192838092612d47565b6060818051810103126106b3576119a660208201612edb565b9060606119b560408301612edb565b9101516040516370a0823160e01b81523060048201526001600160a01b0390931692602081602481875afa8015611acb5782918691611a92575b5010611a565760405163a9059cbb60e01b81526001600160a01b039290921660048301526024820152906020908290604490829086905af1801561062357611a3757506105cd565b611a4f9060203d6020116106a1576106938183612b83565b5038610901565b60405162461bcd60e51b8152602060048201526014602482015273496e73756666696369656e742062616c616e636560601b6044820152606490fd5b9150506020813d602011611ac3575b81611aae60209383612b83565b81010312611abf57819051386119ef565b8480fd5b3d9150611aa1565b6040513d87823e3d90fd5b60043583528160205281604084200190611b086040519182611afc602082018096612e59565b03908101835282612b83565b5190206040516020810190692fb9b2b73222ba3432b960b11b8252600a8152611b3081612b32565b51902014611b3e57506105cd565b6004358252602052611b6261045861073e6004604085200160405192838092612d47565b90814710611ba55782808093819382908215611b9b575b6001600160a01b031690f115611b8f5738610901565b604051903d90823e3d90fd5b6108fc9150611b79565b60405162461bcd60e51b8152602060048201526024808201527f496e73756666696369656e742062616c616e636520696e2074686520636f6e746044820152631c9858dd60e21b6064820152608490fd5b60405162461bcd60e51b81526020600482015260116024820152700c6c2dcdcdee840caf0cac6eae8ca40e8f607b1b6044820152606490fd5b506002546004351115610369565b503461023057604036600319011261023057600435906024918235338352600193602090858252611c7460ff604087205416612bfe565b611c7e838561344d565b926002908154809511611e825780611c9f611c99828961344d565b876133ec565b1015611e7b57611cb8611cb2828861344d565b866133ec565b955b611cc387612ddd565b96611cd16040519889612b83565b808852611ce0601f1991612ddd565b0185895b828110611e65575050508888905b611d5c575b50505050506040519360408501604086528451809152606086018360608360051b890101960192905b828210611d335787808888888301520390f35b909192958480611d4e8b93605f198c82030186528a51612a0e565b980192019201909291611d20565b8751811015611e6057611d6f838361344d565b8a820190818311611e4d5790611d8491612df4565b89528960078a610458611dd46040600393848d52209260405195611da787612acd565b60018060a01b0390818654168852850154168c870152898401546040870152604051928380928601612d47565b6060840152604051611ded816104588160048601612d47565b6080840152611dfe60058201612ba4565b60a0840152600681015460c0840152015460e0820152611e1e828a612e17565b52611e298189612e17565b50898101809111611e3a5789611cf2565b634e487b7160e01b895260116004528489fd5b634e487b7160e01b8b526011600452868bfd5b611cf7565b611e6d612cce565b82828c010152018690611ce4565b8095611cba565b60405162461bcd60e51b8152600481018590526014818501527350616765206973204f7574206f662052616e676560601b6044820152606490fd5b5034610230576040366003190112610230576004356001600160a01b038116908190036106b35761020d90611f0160ff604060209533815260018752205416612bfe565b6040519083820152602435604082015260408152611f1e81612b68565b604051611f2a81612b32565b600a8152692fb9b2b73222ba3432b960b11b8482015233612fa1565b5034610230576020806003193601126106b3576004359033835260018152611f7460ff604085205416612bfe565b81151580612107575b611f8690612c36565b818352600381526040832060010154611fa8906001600160a01b031615612c82565b8183526004815260408320338452815260ff6040842054166120c3578183526003815260056040842001805490680100000000000000008210156120af576001820180825582101561209b5784528184200180546001600160a01b0319163317905581835260038152604083206002015460018101908110612087579060039183855282825260026040862001556004815260408420338552815260408420600160ff1982541617905582845252426007604084200155337f5cbe105e36805f7820e291f799d5794ff948af2a5f664e580382defb633900418380a380f35b634e487b7160e01b84526011600452602484fd5b634e487b7160e01b85526032600452602485fd5b634e487b7160e01b85526041600452602485fd5b6064906040519062461bcd60e51b82526004820152601d60248201527f5472616e73616374696f6e20616c726561647920636f6e6669726d65640000006044820152fd5b50600254821115611f7d565b50346102305760a03660031901126102305761212d6129a2565b6121356129b8565b906084359062ffffff82168092036121c3579061020d929161216660ff604060209733815260018952205416612bfe565b6040519260018060a01b03809216868501521660408301526044356060830152606435608083015260a082015260a081526121a081612b4d565b6040516121ac81612b32565b600581526405f737761760dc1b8482015233612fa1565b8380fd5b50346102305761020d60406122246020936121f860ff6121e63661297c565b95909333815260018952205416612bfe565b604080518681019283526001600160801b0390941660208301528391015b03601f198101835282612b83565b60405161223081612b32565b600b81526a17dc995b5bdd99541bdbdb60aa1b8482015233612fa1565b50346102305780600319360112610230576020600b54604051908152f35b5034610230578060031936011261023057602060405173c36442b4a4522e871399cd717abdd847ab11fe888152f35b50346102305780600319360112610230576040518091805490818352602080930180928280527f290decd9548b62a8d60345a988386fc84ba6bc95484008f6362f93160ef3e56390835b81811061234157505050846122fa910385612b83565b60405193838594850191818652518092526040850193925b82811061232157505050500390f35b83516001600160a01b031685528695509381019392810192600101612312565b82546001600160a01b0316845292860192600192830192016122e4565b50346102305760603660031901126102305761020d6020916123d06123816129a2565b916123a160ff60406123916129b8565b9333815260018952205416612bfe565b604080516001600160a01b03948516878201908152929094166020830152604435908201528290606001612216565b6040516123dc81612b32565b600e81526d05f7472616e7366657245524332360941b8482015233612fa1565b50346102305760a03660031901126102305761020d60209161241c6129a2565b61243b60ff604061242b6129b8565b9433815260018852205416612bfe565b6040519160018060a01b03809216858401521660408201526044356060820152606435608082015260843560a082015260a0815261247881612b4d565b60405161248481612b32565b601e81527f5f696e6372656173654c697175696469747943757272656e7452616e676500008482015233612fa1565b50346102305760403660031901126102305761020d6122166125076020936124e060ff60406123916129a2565b604080516001600160a01b0390921686830190815260243560208201529193849290910190565b60405161251381612b32565b600b81526a0beeadceee4c2e0ae8aa8960ab1b8482015233612fa1565b503461023057602090816003193601126102305760ff604061255b9233815260018552205416612bfe565b61020d6040516004358382015282815261257481612b32565b60405161258081612b32565b600f81526e5f636f6c6c656374416c6c4665657360881b8482015233612fa1565b50346102305760209081600319360112610230576040906125c0612cce565b50338152600183526125d760ff8383205416612bfe565b60043581526003835220906007604051926125f184612acd565b60018060a01b038082541685526001820154168385015260028101546040850152604051612626816104588160038601612d47565b606085015260405161263f816104588160048601612d47565b608085015261265060058201612ba4565b60a0850152600681015460c0850152015460e083015261267a604051928284938452830190612a0e565b0390f35b5034610230578060031936011261023057600a546040516001600160a01b039091168152602090f35b50346102305760403660031901126102305761020d6122166126d46020936124e060ff60406123916129a2565b6040516126e081612b32565b60088152670beeee4c2e08aa8960c31b8482015233612fa1565b50346102305761020d60406127196020936121f860ff6121e63661297c565b60405161272581612b32565b601e81527f5f64656372656173654c697175696469747943757272656e7452616e676500008482015233612fa1565b9050346106b357816003193601126106b357600a546370a0823160e01b8252336004830152602091906001600160a01b03908116908383602481855afa928315611acb57859361294d575b50600b5480931061290857604051636eb1769f60e11b81523360048201523060248201528481604481865afa8015610fad57849187916128d3575b501061288e576006546040516323b872dd60e01b815233600482015291166001600160a01b031660248201526044810192909252829082908186816064810103925af1908115610329578391612871575b5015612835575080f35b6064906040519062461bcd60e51b825260048201526015602482015274151bdad95b881d1c985b9cd9995c8819985a5b1959605a1b6044820152fd5b6128889150823d84116106a1576106938183612b83565b3861282b565b60405162461bcd60e51b815260048101859052601760248201527f546f6b656e20616c6c6f77616e636520746f6f206c6f770000000000000000006044820152606490fd5b809250868092503d8311612901575b6128ec8183612b83565b810103126128fd57839051386127da565b8580fd5b503d6128e2565b60405162461bcd60e51b815260048101859052601a60248201527f496e73756666696369656e7420746f6b656e2062616c616e63650000000000006044820152606490fd5b9092508381813d8311612975575b6129658183612b83565b81010312611abf5751913861279f565b503d61295b565b604090600319011261022b57600435906024356001600160801b038116810361022b5790565b600435906001600160a01b038216820361022b57565b602435906001600160a01b038216820361022b57565b919082519283825260005b8481106129fa575050826000602080949584010152601f8019910116010190565b6020818301810151848301820152016129d9565b9060018060a01b03918281511682526020928084830151168484015260408201516040840152612a62612a5060608401516101008060608801528601906129ce565b608084015185820360808701526129ce565b60a08301519484820360a08601528080875193848152019601926000905b838210612aa257505050505060e08160c08293015160c0850152015191015290565b8451811688529682019693820193600190910190612a80565b6044359062ffffff8216820361022b57565b61010081019081106001600160401b0382111761021557604052565b60a081019081106001600160401b0382111761021557604052565b608081019081106001600160401b0382111761021557604052565b6001600160401b03811161021557604052565b604081019081106001600160401b0382111761021557604052565b60c081019081106001600160401b0382111761021557604052565b606081019081106001600160401b0382111761021557604052565b90601f801991011681019081106001600160401b0382111761021557604052565b9060405191828154918282526020928383019160005283600020936000905b828210612bdb57505050612bd992500383612b83565b565b85546001600160a01b031684526001958601958895509381019390910190612bc3565b15612c0557565b60405162461bcd60e51b81526020600482015260096024820152683737ba1037bbb732b960b91b6044820152606490fd5b15612c3d57565b60405162461bcd60e51b815260206004820152601a60248201527f5472616e73616374696f6e20646f6573206e6f742065786973740000000000006044820152606490fd5b15612c8957565b60405162461bcd60e51b815260206004820152601c60248201527f5472616e73616374696f6e20616c7265616479206578656375746564000000006044820152606490fd5b60405190612cdb82612acd565b600060e08382815282602082015282604082015260608082015260606080820152606060a08201528260c08201520152565b90600182811c92168015612d3d575b6020831014612d2757565b634e487b7160e01b600052602260045260246000fd5b91607f1691612d1c565b9060009291805491612d5883612d0d565b918282526001938481169081600014612dba5750600114612d7a575b50505050565b90919394506000526020928360002092846000945b838610612da6575050505001019038808080612d74565b805485870183015294019385908201612d8f565b9294505050602093945060ff191683830152151560051b01019038808080612d74565b6001600160401b0381116102155760051b60200190565b91908201809211612e0157565b634e487b7160e01b600052601160045260246000fd5b8051821015612e2b5760209160051b010190565b634e487b7160e01b600052603260045260246000fd5b9081602091031261022b5751801515810361022b5790565b600092918154612e6881612d0d565b92600191808316908115612ec05750600114612e845750505050565b90919293945060005260209081600020906000915b858310612eaf5750505050019038808080612d74565b805485840152918301918101612e99565b60ff1916845250505081151590910201915038808080612d74565b51906001600160a01b038216820361022b57565b919082604091031261022b576020612f0683612edb565b92015190565b51906001600160801b038216820361022b57565b919082604091031261022b57612f3a602083519301612f0c565b90565b519062ffffff8216820361022b57565b90601f8111612f5b57505050565b600091825260208220906020601f850160051c83019410612f97575b601f0160051c01915b828110612f8c57505050565b818155600101612f80565b9092508290612f77565b909291906001600160a01b0316801561329e578351156132595781511561321d576002805492600190818501809511612e015784835560009485526003906020908282526040938488206bffffffffffffffffffffffff60a01b9088828254161790558654895281868a20019081541690558554885283858920018a516001600160401b039b8c82116132095781906130448261303e8654612d0d565b86612f4d565b8690601f83116001146131ab578c926131a0575b505060001982881b1c191690831b1790555b855488528383526004858920019180519a8b1161318c576130958b61308f8554612d0d565b85612f4d565b8390601f8c1160011461310f579a809281927fc82555d64d2b8b25ffefc140ae6575736763ee3a99347632d7f633e7bfae3f789c9d8c94613104575b50501b9160001990861b1c19161790555b835486525242600682862001558154845260074291852001555492828493a390565b0151925038806130d1565b838a52848a20909b91601f1983168b5b81811061317757509c837fc82555d64d2b8b25ffefc140ae6575736763ee3a99347632d7f633e7bfae3f789d9e1061315f575b505050811b0190556130e2565b015160001983881b60f8161c19169055388080613152565b8e83015184559285019291870191870161311f565b634e487b7160e01b89526041600452602489fd5b015190503880613058565b848d52878d208694509190601f1984168e5b8a8282106131f357505084116131db575b505050811b01905561306a565b0151600019838a1b60f8161c191690553880806131ce565b83850151865589979095019493840193016131bd565b634e487b7160e01b8b52604160045260248bfd5b60405162461bcd60e51b8152602060048201526014602482015273151a194811185d18481a5cc81c995c5d5a5c995960621b6044820152606490fd5b60405162461bcd60e51b815260206004820152601d60248201527f5468652046756e6374696f6e206e616d652069732072657175697265640000006044820152606490fd5b60405162461bcd60e51b815260206004820152601860248201527f5a65726f2061646472657373206e6f7420416c6c6f77656400000000000000006044820152606490fd5b156132ea57565b60405162461bcd60e51b815260206004820152601d60248201527f416d6f756e74206d7573742062652067726561746572207468616e20300000006044820152606490fd5b9081602091031261022b57516001600160a01b038116810361022b5790565b91908203918211612e0157565b919082604091031261022b576020825192015190565b919091606060808201938051835260018060a01b036020820151166020840152816001600160801b0391826040820151166040860152015116910152565b91909160808060a0830194805184526001600160801b03602082015116602085015260408101516040850152606081015160608501520151910152565b908181116133fd57612f3a9161334e565b60405162461bcd60e51b815260206004820152602260248201527f61206d7573742062652067726561746572207468616e206f7220657175616c73604482015261103160f11b6064820152608490fd5b81810292918115918404141715612e0157565b6134699061348b565b8060601b90808204600160601b1490151715612e01576001600160a01b031690565b80156134e4576001808201808311612e0157811c90825b8383106134af5750505090565b919250908280156134cf57806134c6918304612df4565b821c91906134a2565b60246000634e487b7160e01b81526012600452fd5b50600090565b6001600160a01b03818116916401000276a383101580613ae5575b15613ad357640100000000600160c01b039060201b169182916001600160801b03841160071b9380851c6001600160401b03811160061b90811c9463ffffffff9687871160051b96871c9261ffff841160041b93841c9760ff98899586821160031b91821c92600f841160021b93841c94600160038711811b96871c1196171717171717179060809384831015600014613ac75750607e1982011c5b8002607f928392828493841c81841c1c800280851c81851c1c800280861c81861c1c800280871c81871c1c80029081881c82881c1c80029283891c84891c1c800294858a1c868a1c1c800296878b1c888b1c1c800298898c1c8a8c1c1c80029a8b8d1c8c821c1c8002809d1c8d821c1c8002809e81901c90821c1c80029e8f80911c911c1c800260cd1c6604000000000000169d60cc1c6608000000000000169c60cb1c6610000000000000169b60ca1c6620000000000000169a60c91c6640000000000000169960c81c6680000000000000169860c71c670100000000000000169760c61c670200000000000000169660c51c670400000000000000169560c41c670800000000000000169460c31c671000000000000000169360c21c672000000000000000169260c11c674000000000000000169160c01c6780000000000000001690607f190160401b1717171717171717171717171717693627a301d71055774c8502936f028f6481ab7f045a5af012a19d003aa9198501821d60020b946fdb2df09e81959a81455e260799a0632f01821d60020b9560009087871460001461375257505050505050905090565b81881215613ac057878203935b620d89e88511613aae576001851615613a9c576001600160881b036ffffcb933bd6fad37aa2d162d1a5940015b169460028116613a81575b60048116613a66575b60088116613a4b575b60108116613a30575b60208116613a15575b604081166139fa575b8181166139df575b61010081166139c4575b61020081166139a9575b610400811661398e575b6108008116613973575b6110008116613958575b612000811661393d575b6140008116613922575b6180008116613907575b6201000081166138ec575b6202000081166138d2575b6204000081166138b8575b620800001661389f575b5081881361387a575b831661387257805b50169060201c0116111560001461386d575090565b905090565b600190613858565b92801561388b576000190492613850565b634e487b7160e01b82526012600452602482fd5b90936b048a170391f7dc42444e8fa202901c9238613847565b6d2216e584f5fa1ea926041bedfe98909502811c9461383d565b946e5d6af8dedb81196699c329225ee60402811c94613832565b946f09aa508b5b7a84e1c677de54f3e99bc902811c94613827565b946f31be135f97d08fd981231505542fcfa602811c9461381c565b946f70d869a156d2a1b890bb3df62baf32f702811c94613812565b946fa9f746462d870fdf8a65dc1f90e061e502811c94613808565b946fd097f3bdfd2022b8845ad8f792aa582502811c946137fe565b946fe7159475a2c29b7443b29c7fa6e889d902811c946137f4565b946ff3392b0822b70005940c7a398e4b70f302811c946137ea565b946ff987a7253ac413176f2b074cf7815e5402811c946137e0565b946ffcbe86c7900a88aedcffc83b479aa3a402811c946137d6565b946ffe5dee046a99a2a811c461f1969c305302811c946137cc565b946fff2ea16466c96a3843ec78b326b5286102811c946137c4565b946fff973b41fa98c081472e6896dfb254c002811c946137bb565b946fffcb9843d60f6159c9db58835c92664402811c946137b2565b946fffe5caca7e10e4e61c3624eaa0941cd002811c946137a9565b946ffff2e50f5f656932ef12357cf3c7fdcc02811c946137a0565b946ffff97272373d413259a46990580e213a02811c94613797565b6001600160881b03600160801b61378c565b6040516315e4079d60e11b8152600490fd5b879361375f565b905081607f031b6135a1565b6040516324c070df60e11b8152600490fd5b5073fffd8963efd1fc6a506488495d951d5263988d26831061350556fea264697066735822122032bb1a78e125c81be93ce70edcae0c61daeb637b9e3bff049a0ab0c4c0099c1f64736f6c63430008120033",
			"opcodes": "PUSH1 0x40 PUSH1 0x80 DUP2 MSTORE CALLVALUE PUSH3 0x427 JUMPI PUSH3 0x3FCC SWAP1 DUP2 CODESIZE SUB DUP1 PUSH3 0x1F DUP2 PUSH3 0x442 JUMP JUMPDEST SWAP4 DUP5 CODECOPY DUP3 ADD SWAP2 PUSH1 0x60 DUP2 DUP5 SUB SLT PUSH3 0x427 JUMPI DUP1 MLOAD PUSH1 0x1 PUSH1 0x1 PUSH1 0xA0 SHL SUB DUP1 DUP3 AND SWAP3 SWAP1 SWAP2 DUP4 SWAP1 SUB PUSH3 0x427 JUMPI PUSH1 0x20 DUP2 DUP2 ADD MLOAD PUSH1 0x1 PUSH1 0x1 PUSH1 0x40 SHL SUB SWAP7 SWAP2 SWAP3 SWAP2 SWAP1 DUP8 DUP2 GT PUSH3 0x427 JUMPI DUP3 ADD DUP2 PUSH1 0x1F DUP3 ADD SLT ISZERO PUSH3 0x427 JUMPI DUP1 MLOAD SWAP8 DUP9 GT PUSH3 0x42C JUMPI DUP8 PUSH1 0x5 SHL SWAP1 DUP5 DUP1 PUSH3 0x8F DUP2 DUP6 ADD PUSH3 0x442 JUMP JUMPDEST DUP1 SWAP12 DUP2 MSTORE ADD SWAP3 DUP3 ADD ADD SWAP3 DUP4 GT PUSH3 0x427 JUMPI SWAP1 DUP5 DUP9 SWAP5 SWAP4 SWAP3 ADD SWAP1 JUMPDEST DUP3 DUP3 LT PUSH3 0x405 JUMPI POP POP POP ADD MLOAD SWAP2 PUSH1 0x1 SWAP6 DUP7 DUP5 GT ISZERO PUSH3 0x39B JUMPI DUP4 DUP2 MLOAD LT PUSH3 0x30B JUMPI PUSH1 0x0 SWAP4 DUP5 PUSH1 0x2 SSTORE PUSH1 0x5 SSTORE DUP7 DUP5 SWAP1 JUMPDEST PUSH3 0x186 JUMPI JUMPDEST DUP7 PUSH20 0xE592427A0AECE92DE3EDEE1F18E0157C05861564 DUP8 PUSH1 0x1 DUP1 PUSH1 0xA0 SHL SUB NOT SWAP1 PUSH20 0x35BD3F9CF97FFB44681805166FE9F7B793C543B8 DUP3 PUSH1 0x6 SLOAD AND OR PUSH1 0x6 SSTORE PUSH9 0x1158E460913D00000 PUSH1 0xB SSTORE DUP2 PUSH1 0xA SLOAD AND OR PUSH1 0xA SSTORE PUSH20 0x1F98431C8AD98523631AE4A59F267346EA31F984 DUP2 PUSH1 0x7 SLOAD AND OR PUSH1 0x7 SSTORE PUSH20 0xC36442B4A4522E871399CD717ABDD847AB11FE88 DUP2 PUSH1 0x8 SLOAD AND OR PUSH1 0x8 SSTORE PUSH1 0x9 SLOAD AND OR PUSH1 0x9 SSTORE MLOAD PUSH2 0x3B38 SWAP1 DUP2 PUSH3 0x494 DUP3 CODECOPY RETURN JUMPDEST DUP2 MLOAD DUP2 LT ISZERO PUSH3 0x305 JUMPI DUP3 PUSH3 0x19D DUP3 DUP5 PUSH3 0x468 JUMP JUMPDEST MLOAD AND ISZERO PUSH3 0x2C1 JUMPI DUP3 PUSH3 0x1B2 DUP3 DUP5 PUSH3 0x468 JUMP JUMPDEST MLOAD AND DUP6 MSTORE DUP8 DUP5 MSTORE PUSH1 0xFF DUP8 DUP7 KECCAK256 SLOAD AND PUSH3 0x27D JUMPI DUP3 PUSH3 0x1D2 DUP3 DUP5 PUSH3 0x468 JUMP JUMPDEST MLOAD AND DUP6 MSTORE DUP8 DUP5 MSTORE DUP7 DUP6 KECCAK256 DUP1 SLOAD PUSH1 0xFF NOT AND DUP10 OR SWAP1 SSTORE DUP3 PUSH3 0x1F3 DUP3 DUP5 PUSH3 0x468 JUMP JUMPDEST MLOAD AND DUP6 SLOAD PUSH9 0x10000000000000000 DUP2 LT ISZERO PUSH3 0x269 JUMPI DUP10 DUP2 ADD DUP1 DUP9 SSTORE DUP2 LT ISZERO PUSH3 0x255 JUMPI DUP7 DUP1 MSTORE DUP6 DUP8 KECCAK256 ADD DUP1 SLOAD PUSH1 0x1 PUSH1 0x1 PUSH1 0xA0 SHL SUB NOT AND SWAP1 SWAP2 OR SWAP1 SSTORE DUP1 DUP9 ADD SWAP1 DUP2 LT PUSH3 0x241 JUMPI DUP8 PUSH3 0xDA JUMP JUMPDEST PUSH4 0x4E487B71 PUSH1 0xE0 SHL DUP6 MSTORE PUSH1 0x11 PUSH1 0x4 MSTORE PUSH1 0x24 DUP6 REVERT JUMPDEST PUSH4 0x4E487B71 PUSH1 0xE0 SHL DUP8 MSTORE PUSH1 0x32 PUSH1 0x4 MSTORE PUSH1 0x24 DUP8 REVERT JUMPDEST PUSH4 0x4E487B71 PUSH1 0xE0 SHL DUP8 MSTORE PUSH1 0x41 PUSH1 0x4 MSTORE PUSH1 0x24 DUP8 REVERT JUMPDEST DUP7 MLOAD PUSH3 0x461BCD PUSH1 0xE5 SHL DUP2 MSTORE PUSH1 0x4 DUP2 ADD DUP6 SWAP1 MSTORE PUSH1 0x14 PUSH1 0x24 DUP3 ADD MSTORE PUSH32 0x546865204F776E6572206E6F7420756E69717565000000000000000000000000 PUSH1 0x44 DUP3 ADD MSTORE PUSH1 0x64 SWAP1 REVERT JUMPDEST DUP7 MLOAD PUSH3 0x461BCD PUSH1 0xE5 SHL DUP2 MSTORE PUSH1 0x4 DUP2 ADD DUP6 SWAP1 MSTORE PUSH1 0x18 PUSH1 0x24 DUP3 ADD MSTORE PUSH32 0x5A65726F2061646472657373206E6F7420416C6C6F7765640000000000000000 PUSH1 0x44 DUP3 ADD MSTORE PUSH1 0x64 SWAP1 REVERT JUMPDEST PUSH3 0xE0 JUMP JUMPDEST DUP6 MLOAD PUSH3 0x461BCD PUSH1 0xE5 SHL DUP2 MSTORE PUSH1 0x4 DUP2 ADD DUP5 SWAP1 MSTORE PUSH1 0x5A PUSH1 0x24 DUP3 ADD MSTORE PUSH32 0x546865206E756D626572206F66206F776E657273206D75737420626520677265 PUSH1 0x44 DUP3 ADD MSTORE PUSH32 0x61746572207468616E206F7220657175616C20746F20746865206E756D626572 PUSH1 0x64 DUP3 ADD MSTORE PUSH32 0x206F6620636F6E6669726D6174696F6E73207265717569726564000000000000 PUSH1 0x84 DUP3 ADD MSTORE PUSH1 0xA4 SWAP1 REVERT JUMPDEST DUP6 MLOAD PUSH3 0x461BCD PUSH1 0xE5 SHL DUP2 MSTORE PUSH1 0x4 DUP2 ADD DUP5 SWAP1 MSTORE PUSH1 0x3D PUSH1 0x24 DUP3 ADD MSTORE PUSH32 0x546865204E756D626572206F6620636F6E6669726D6174696F6E732072657175 PUSH1 0x44 DUP3 ADD MSTORE PUSH32 0x69726564206D7573742062652067726561746572207468616E206F6E65000000 PUSH1 0x64 DUP3 ADD MSTORE PUSH1 0x84 SWAP1 REVERT JUMPDEST SWAP1 DUP1 SWAP3 SWAP4 SWAP5 POP MLOAD DUP7 DUP2 AND DUP2 SUB PUSH3 0x427 JUMPI DUP2 MSTORE DUP8 SWAP4 SWAP3 SWAP2 DUP6 ADD SWAP1 DUP6 ADD PUSH3 0xA9 JUMP JUMPDEST PUSH1 0x0 DUP1 REVERT JUMPDEST PUSH4 0x4E487B71 PUSH1 0xE0 SHL PUSH1 0x0 MSTORE PUSH1 0x41 PUSH1 0x4 MSTORE PUSH1 0x24 PUSH1 0x0 REVERT JUMPDEST PUSH1 0x40 MLOAD SWAP2 SWAP1 PUSH1 0x1F ADD PUSH1 0x1F NOT AND DUP3 ADD PUSH1 0x1 PUSH1 0x1 PUSH1 0x40 SHL SUB DUP2 GT DUP4 DUP3 LT OR PUSH3 0x42C JUMPI PUSH1 0x40 MSTORE JUMP JUMPDEST DUP1 MLOAD DUP3 LT ISZERO PUSH3 0x47D JUMPI PUSH1 0x20 SWAP2 PUSH1 0x5 SHL ADD ADD SWAP1 JUMP JUMPDEST PUSH4 0x4E487B71 PUSH1 0xE0 SHL PUSH1 0x0 MSTORE PUSH1 0x32 PUSH1 0x4 MSTORE PUSH1 0x24 PUSH1 0x0 REVERT INVALID PUSH1 0x80 DUP1 PUSH1 0x40 MSTORE PUSH1 0x4 CALLDATASIZE LT ISZERO PUSH2 0x1D JUMPI JUMPDEST POP CALLDATASIZE ISZERO PUSH2 0x1B JUMPI PUSH1 0x0 DUP1 REVERT JUMPDEST STOP JUMPDEST PUSH1 0x0 SWAP1 DUP2 CALLDATALOAD PUSH1 0xE0 SHR SWAP1 DUP2 PUSH4 0x1792B0BC EQ PUSH2 0x2754 JUMPI POP DUP1 PUSH4 0x1834C397 EQ PUSH2 0x26FA JUMPI DUP1 PUSH4 0x29793F7D EQ PUSH2 0x26A7 JUMPI DUP1 PUSH4 0x2D00EEF3 EQ PUSH2 0x267E JUMPI DUP1 PUSH4 0x33EA3DC8 EQ PUSH2 0x25A1 JUMPI DUP1 PUSH4 0x46CE96DD EQ PUSH2 0x2530 JUMPI DUP1 PUSH4 0x5869DBA8 EQ PUSH2 0x24B3 JUMPI DUP1 PUSH4 0x5EFB3B6D EQ PUSH2 0x23FC JUMPI DUP1 PUSH4 0x9DB5DBE4 EQ PUSH2 0x235E JUMPI DUP1 PUSH4 0xA0E67E2B EQ PUSH2 0x229A JUMPI DUP1 PUSH4 0xA9109570 EQ PUSH2 0x226B JUMPI DUP1 PUSH4 0xAC133D3B EQ PUSH2 0x224D JUMPI DUP1 PUSH4 0xAC43A6B8 EQ PUSH2 0x21C7 JUMPI DUP1 PUSH4 0xB40B7E0B EQ PUSH2 0x2113 JUMPI DUP1 PUSH4 0xC01A8C84 EQ PUSH2 0x1F46 JUMPI DUP1 PUSH4 0xC1756A2C EQ PUSH2 0x1EBD JUMPI DUP1 PUSH4 0xC5E57C64 EQ PUSH2 0x1C3D JUMPI DUP1 PUSH4 0xEE22610B EQ PUSH2 0x334 JUMPI DUP1 PUSH4 0xF47F9033 EQ PUSH2 0x262 JUMPI DUP1 PUSH4 0xF73E5AAB EQ PUSH2 0x233 JUMPI PUSH4 0xFB35F110 SUB PUSH2 0xF JUMPI PUSH2 0x100 SWAP1 DUP2 PUSH1 0x3 NOT CALLDATASIZE ADD SLT PUSH2 0x230 JUMPI PUSH2 0x124 PUSH2 0x29A2 JUMP JUMPDEST SWAP2 PUSH2 0x12D PUSH2 0x29B8 JUMP JUMPDEST SWAP2 PUSH2 0x136 PUSH2 0x2ABB JUMP JUMPDEST PUSH1 0xC4 CALLDATALOAD PUSH1 0x1 PUSH1 0x1 PUSH1 0xA0 SHL SUB DUP2 DUP2 AND SWAP4 SWAP3 SWAP2 DUP5 SWAP1 SUB PUSH2 0x22B JUMPI PUSH1 0xE4 CALLDATALOAD SWAP6 DUP2 DUP8 AND DUP1 SWAP8 SUB PUSH2 0x22B JUMPI PUSH2 0x178 PUSH1 0xFF PUSH1 0x40 PUSH3 0xFFFFFF SWAP7 CALLER DUP2 MSTORE PUSH1 0x1 PUSH1 0x20 MSTORE KECCAK256 SLOAD AND PUSH2 0x2BFE JUMP JUMPDEST DUP2 PUSH1 0x40 MLOAD SWAP9 AND PUSH1 0x20 DUP10 ADD MSTORE AND PUSH1 0x40 DUP8 ADD MSTORE AND PUSH1 0x60 DUP6 ADD MSTORE PUSH1 0x64 CALLDATALOAD PUSH1 0x80 DUP6 ADD MSTORE PUSH1 0x84 CALLDATALOAD PUSH1 0xA0 DUP6 ADD MSTORE PUSH1 0xA4 CALLDATALOAD PUSH1 0xC0 DUP6 ADD MSTORE PUSH1 0xE0 DUP5 ADD MSTORE DUP3 ADD MSTORE PUSH2 0x120 CALLVALUE DUP2 DUP4 ADD MSTORE DUP2 MSTORE PUSH2 0x140 DUP2 ADD DUP2 DUP2 LT PUSH1 0x1 PUSH1 0x1 PUSH1 0x40 SHL SUB DUP3 GT OR PUSH2 0x215 JUMPI PUSH1 0x20 SWAP2 DUP2 PUSH2 0x20D SWAP3 PUSH1 0x40 MSTORE PUSH2 0x1E4 DUP2 PUSH2 0x2B32 JUMP JUMPDEST PUSH1 0x15 DUP2 MSTORE PUSH21 0x17D8DC99585D19541BDBDB105B99135A5B9D139195 PUSH1 0x5A SHL PUSH2 0x160 DUP4 ADD MSTORE CALLER PUSH2 0x2FA1 JUMP JUMPDEST PUSH1 0x40 MLOAD SWAP1 DUP2 MSTORE RETURN JUMPDEST PUSH4 0x4E487B71 PUSH1 0xE0 SHL PUSH1 0x0 MSTORE PUSH1 0x41 PUSH1 0x4 MSTORE PUSH1 0x24 PUSH1 0x0 REVERT JUMPDEST PUSH1 0x0 DUP1 REVERT JUMPDEST DUP1 REVERT JUMPDEST POP CALLVALUE PUSH2 0x230 JUMPI DUP1 PUSH1 0x3 NOT CALLDATASIZE ADD SLT PUSH2 0x230 JUMPI PUSH1 0x20 PUSH1 0x40 MLOAD PUSH20 0x1F98431C8AD98523631AE4A59F267346EA31F984 DUP2 MSTORE RETURN JUMPDEST POP PUSH1 0x80 CALLDATASIZE PUSH1 0x3 NOT ADD SLT PUSH2 0x230 JUMPI PUSH2 0x277 PUSH2 0x29A2 JUMP JUMPDEST PUSH2 0x27F PUSH2 0x29B8 JUMP JUMPDEST PUSH1 0x20 PUSH2 0x289 PUSH2 0x2ABB JUMP JUMPDEST PUSH2 0x294 PUSH1 0x64 CALLDATALOAD PUSH2 0x3460 JUMP JUMPDEST PUSH1 0x8 SLOAD PUSH1 0x40 MLOAD PUSH4 0x9F56AB1 PUSH1 0xE1 SHL DUP2 MSTORE PUSH1 0x1 PUSH1 0x1 PUSH1 0xA0 SHL SUB SWAP7 DUP8 AND PUSH1 0x4 DUP3 ADD MSTORE SWAP5 DUP7 AND PUSH1 0x24 DUP7 ADD MSTORE PUSH3 0xFFFFFF SWAP3 SWAP1 SWAP3 AND PUSH1 0x44 DUP6 ADD MSTORE DUP5 AND PUSH1 0x64 DUP5 ADD MSTORE SWAP2 SWAP3 SWAP2 DUP4 SWAP1 PUSH1 0x84 SWAP1 DUP3 SWAP1 CALLVALUE SWAP1 DUP7 AND GAS CALL SWAP2 DUP3 ISZERO PUSH2 0x329 JUMPI PUSH1 0x20 SWAP4 SWAP3 PUSH2 0x2FA JUMPI JUMPDEST POP PUSH1 0x40 MLOAD SWAP2 AND DUP2 MSTORE RETURN JUMPDEST PUSH2 0x31B SWAP2 SWAP3 POP DUP4 RETURNDATASIZE DUP2 GT PUSH2 0x322 JUMPI JUMPDEST PUSH2 0x313 DUP2 DUP4 PUSH2 0x2B83 JUMP JUMPDEST DUP2 ADD SWAP1 PUSH2 0x332F JUMP JUMPDEST SWAP1 CODESIZE PUSH2 0x2F0 JUMP JUMPDEST POP RETURNDATASIZE PUSH2 0x309 JUMP JUMPDEST PUSH1 0x40 MLOAD RETURNDATASIZE DUP6 DUP3 RETURNDATACOPY RETURNDATASIZE SWAP1 REVERT JUMPDEST POP CALLVALUE PUSH2 0x230 JUMPI PUSH1 0x20 CALLDATASIZE PUSH1 0x3 NOT ADD SLT PUSH2 0x230 JUMPI CALLER DUP2 MSTORE PUSH1 0x1 PUSH1 0x20 MSTORE PUSH2 0x35E PUSH1 0xFF PUSH1 0x40 DUP4 KECCAK256 SLOAD AND PUSH2 0x2BFE JUMP JUMPDEST PUSH1 0x4 CALLDATALOAD ISZERO ISZERO DUP1 PUSH2 0x1C2F JUMPI JUMPDEST PUSH2 0x372 SWAP1 PUSH2 0x2C36 JUMP JUMPDEST PUSH1 0x4 CALLDATALOAD DUP2 MSTORE PUSH1 0x3 PUSH1 0x20 DUP2 SWAP1 MSTORE PUSH1 0x40 DUP3 KECCAK256 PUSH1 0x1 ADD SLOAD PUSH2 0x399 SWAP1 PUSH1 0x1 PUSH1 0x1 PUSH1 0xA0 SHL SUB AND ISZERO PUSH2 0x2C82 JUMP JUMPDEST PUSH1 0x4 CALLDATALOAD DUP3 MSTORE DUP1 PUSH1 0x20 MSTORE PUSH1 0x2 PUSH1 0x40 DUP4 KECCAK256 ADD SLOAD PUSH1 0x5 SLOAD GT PUSH2 0x1BF6 JUMPI PUSH1 0x4 CALLDATALOAD DUP3 MSTORE DUP1 PUSH1 0x20 MSTORE PUSH2 0x3F7 DUP2 PUSH1 0x40 DUP5 KECCAK256 PUSH1 0x1 DUP2 ADD CALLER PUSH12 0xFFFFFFFFFFFFFFFFFFFFFFFF PUSH1 0xA0 SHL DUP3 SLOAD AND OR SWAP1 SSTORE TIMESTAMP PUSH1 0x7 DUP3 ADD SSTORE PUSH1 0x40 MLOAD SWAP3 DUP4 SWAP2 PUSH1 0x20 DUP4 ADD SWAP4 DUP5 SWAP2 ADD PUSH2 0x2E59 JUMP JUMPDEST SUB SWAP2 PUSH2 0x40B PUSH1 0x1F NOT SWAP4 DUP5 DUP2 ADD DUP4 MSTORE DUP3 PUSH2 0x2B83 JUMP JUMPDEST MLOAD SWAP1 KECCAK256 PUSH1 0x40 MLOAD PUSH1 0x20 DUP2 ADD SWAP1 PUSH5 0x5F7377617 PUSH1 0xDC SHL DUP3 MSTORE PUSH1 0x5 DUP2 MSTORE PUSH2 0x42E DUP2 PUSH2 0x2B32 JUMP JUMPDEST MLOAD SWAP1 KECCAK256 SUB PUSH2 0x6B7 JUMPI POP PUSH1 0x4 CALLDATALOAD DUP3 MSTORE PUSH1 0x20 MSTORE PUSH2 0x458 PUSH2 0x45F PUSH1 0x4 PUSH1 0x40 DUP5 KECCAK256 ADD PUSH1 0x40 MLOAD SWAP3 DUP4 DUP1 SWAP3 PUSH2 0x2D47 JUMP JUMPDEST SUB DUP3 PUSH2 0x2B83 JUMP JUMPDEST PUSH1 0xA0 DUP2 DUP1 MLOAD DUP2 ADD SUB SLT PUSH2 0x6B3 JUMPI PUSH2 0x478 PUSH1 0x20 DUP3 ADD PUSH2 0x2EDB JUMP JUMPDEST SWAP1 PUSH2 0x485 PUSH1 0x40 DUP3 ADD PUSH2 0x2EDB JUMP JUMPDEST PUSH1 0x60 DUP3 ADD MLOAD SWAP1 PUSH2 0x49C PUSH1 0xA0 PUSH1 0x80 DUP6 ADD MLOAD SWAP5 ADD PUSH2 0x2F3D JUMP JUMPDEST PUSH1 0x40 MLOAD PUSH4 0x95EA7B3 PUSH1 0xE0 SHL DUP2 MSTORE PUSH20 0xE592427A0AECE92DE3EDEE1F18E0157C05861564 PUSH1 0x4 DUP3 ADD MSTORE PUSH1 0x24 DUP2 ADD DUP5 SWAP1 MSTORE PUSH1 0x1 PUSH1 0x1 PUSH1 0xA0 SHL SUB SWAP1 SWAP6 AND SWAP5 PUSH1 0x20 DUP2 PUSH1 0x44 DUP2 DUP11 DUP11 GAS CALL SWAP1 DUP2 ISZERO PUSH2 0x6A8 JUMPI DUP8 SWAP2 PUSH2 0x679 JUMPI JUMPDEST POP ISZERO PUSH2 0x642 JUMPI PUSH2 0xE10 TIMESTAMP ADD SWAP2 DUP3 TIMESTAMP GT PUSH2 0x62E JUMPI SWAP2 PUSH3 0xFFFFFF DUP8 SWAP7 SWAP5 SWAP3 PUSH1 0x20 SWAP7 SWAP5 PUSH1 0x40 MLOAD SWAP7 PUSH2 0x51B DUP9 PUSH2 0x2ACD JUMP JUMPDEST DUP8 MSTORE PUSH1 0x1 PUSH1 0x1 PUSH1 0xA0 SHL SUB SWAP1 DUP2 AND DUP9 DUP9 ADD SWAP1 DUP2 MSTORE SWAP3 SWAP1 SWAP2 AND PUSH1 0x40 DUP1 DUP9 ADD SWAP2 DUP3 MSTORE ADDRESS PUSH1 0x60 DUP10 ADD SWAP1 DUP2 MSTORE PUSH1 0x80 DUP10 ADD SWAP6 DUP7 MSTORE PUSH1 0xA0 DUP10 ADD SWAP7 DUP8 MSTORE PUSH1 0xC0 DUP10 ADD SWAP8 DUP9 MSTORE PUSH1 0xE0 DUP10 ADD DUP12 DUP2 MSTORE PUSH1 0x9 SLOAD SWAP3 MLOAD PUSH4 0x414BF389 PUSH1 0xE0 SHL DUP2 MSTORE SWAP10 MLOAD DUP6 AND PUSH1 0x4 DUP12 ADD MSTORE SWAP5 MLOAD DUP5 AND PUSH1 0x24 DUP11 ADD MSTORE SWAP2 MLOAD PUSH3 0xFFFFFF AND PUSH1 0x44 DUP10 ADD MSTORE SWAP1 MLOAD DUP3 AND PUSH1 0x64 DUP9 ADD MSTORE SWAP3 MLOAD PUSH1 0x84 DUP8 ADD MSTORE SWAP3 MLOAD PUSH1 0xA4 DUP7 ADD MSTORE SWAP3 MLOAD PUSH1 0xC4 DUP6 ADD MSTORE SWAP2 MLOAD DUP2 AND PUSH1 0xE4 DUP5 ADD MSTORE SWAP2 SWAP4 DUP5 SWAP3 PUSH2 0x104 SWAP3 DUP5 SWAP3 SWAP2 AND GAS CALL DUP1 ISZERO PUSH2 0x623 JUMPI PUSH2 0x5F8 JUMPI JUMPDEST POP JUMPDEST PUSH1 0x4 CALLDATALOAD CALLER PUSH32 0x5445F318F4F5FCFB66592E68E0CC5822AA15664039BD5F0FFDE24C5A8142B1AC DUP4 DUP1 LOG3 DUP1 RETURN JUMPDEST PUSH1 0x20 SWAP1 DUP2 RETURNDATASIZE DUP4 GT PUSH2 0x61C JUMPI JUMPDEST PUSH2 0x60E DUP2 DUP4 PUSH2 0x2B83 JUMP JUMPDEST DUP2 ADD SUB SLT PUSH2 0x22B JUMPI CODESIZE PUSH2 0x5CB JUMP JUMPDEST POP RETURNDATASIZE PUSH2 0x604 JUMP JUMPDEST PUSH1 0x40 MLOAD RETURNDATASIZE DUP5 DUP3 RETURNDATACOPY RETURNDATASIZE SWAP1 REVERT JUMPDEST PUSH4 0x4E487B71 PUSH1 0xE0 SHL DUP8 MSTORE PUSH1 0x11 PUSH1 0x4 MSTORE PUSH1 0x24 DUP8 REVERT JUMPDEST PUSH1 0x40 MLOAD PUSH3 0x461BCD PUSH1 0xE5 SHL DUP2 MSTORE PUSH1 0x20 PUSH1 0x4 DUP3 ADD MSTORE PUSH1 0xF PUSH1 0x24 DUP3 ADD MSTORE PUSH15 0x105C1C1C9BDD985B0819985A5B1959 PUSH1 0x8A SHL PUSH1 0x44 DUP3 ADD MSTORE PUSH1 0x64 SWAP1 REVERT JUMPDEST PUSH2 0x69B SWAP2 POP PUSH1 0x20 RETURNDATASIZE PUSH1 0x20 GT PUSH2 0x6A1 JUMPI JUMPDEST PUSH2 0x693 DUP2 DUP4 PUSH2 0x2B83 JUMP JUMPDEST DUP2 ADD SWAP1 PUSH2 0x2E41 JUMP JUMPDEST CODESIZE PUSH2 0x4EE JUMP JUMPDEST POP RETURNDATASIZE PUSH2 0x689 JUMP JUMPDEST PUSH1 0x40 MLOAD RETURNDATASIZE DUP10 DUP3 RETURNDATACOPY RETURNDATASIZE SWAP1 REVERT JUMPDEST POP DUP1 REVERT JUMPDEST SWAP1 PUSH1 0x4 CALLDATALOAD DUP4 MSTORE DUP1 PUSH1 0x20 MSTORE DUP1 PUSH1 0x40 DUP5 KECCAK256 ADD PUSH1 0x40 MLOAD PUSH2 0x6E8 DUP2 PUSH2 0x6DC PUSH1 0x20 DUP3 ADD DUP1 SWAP6 PUSH2 0x2E59 JUMP JUMPDEST SUB DUP6 DUP2 ADD DUP4 MSTORE DUP3 PUSH2 0x2B83 JUMP JUMPDEST MLOAD SWAP1 KECCAK256 PUSH1 0x40 MLOAD PUSH1 0x20 DUP2 ADD SWAP1 PUSH11 0xBEEADCEEE4C2E0AE8AA89 PUSH1 0xAB SHL DUP3 MSTORE PUSH1 0xB DUP2 MSTORE PUSH2 0x711 DUP2 PUSH2 0x2B32 JUMP JUMPDEST MLOAD SWAP1 KECCAK256 SUB PUSH2 0x838 JUMPI PUSH1 0x4 CALLDATALOAD DUP4 MSTORE PUSH1 0x20 MSTORE DUP2 PUSH2 0x74D PUSH2 0x458 PUSH2 0x73E PUSH1 0x4 PUSH1 0x40 DUP6 KECCAK256 ADD PUSH1 0x40 MLOAD SWAP3 DUP4 DUP1 SWAP3 PUSH2 0x2D47 JUMP JUMPDEST PUSH1 0x20 DUP1 DUP3 MLOAD DUP4 ADD ADD SWAP2 ADD PUSH2 0x2EEF JUMP JUMPDEST SWAP1 PUSH1 0x1 PUSH1 0x1 PUSH1 0xA0 SHL SUB AND PUSH2 0x762 DUP3 ISZERO ISZERO PUSH2 0x32E3 JUMP JUMPDEST DUP1 EXTCODESIZE ISZERO PUSH2 0x834 JUMPI DUP3 DUP1 SWAP2 PUSH1 0x24 PUSH1 0x40 MLOAD DUP1 SWAP5 DUP2 SWAP4 PUSH4 0x2E1A7D4D PUSH1 0xE0 SHL DUP4 MSTORE DUP8 PUSH1 0x4 DUP5 ADD MSTORE GAS CALL SWAP1 DUP2 ISZERO PUSH2 0x329 JUMPI DUP4 SWAP2 PUSH2 0x820 JUMPI JUMPDEST POP DUP1 DUP1 SWAP3 ADDRESS GAS CALL SWAP1 RETURNDATASIZE ISZERO PUSH2 0x81A JUMPI RETURNDATASIZE PUSH1 0x1 PUSH1 0x1 PUSH1 0x40 SHL SUB DUP2 GT PUSH2 0x215 JUMPI PUSH2 0x7C7 PUSH1 0x20 PUSH1 0x40 MLOAD SWAP4 PUSH1 0x1F DUP5 ADD AND ADD DUP4 PUSH2 0x2B83 JUMP JUMPDEST DUP2 MSTORE DUP3 PUSH1 0x20 RETURNDATASIZE SWAP3 ADD RETURNDATACOPY JUMPDEST PUSH2 0x5CD JUMPI PUSH1 0x40 MLOAD PUSH3 0x461BCD PUSH1 0xE5 SHL DUP2 MSTORE PUSH1 0x20 PUSH1 0x4 DUP3 ADD MSTORE PUSH1 0x18 PUSH1 0x24 DUP3 ADD MSTORE PUSH32 0x4661696C656420746F207472616E736665722045746865720000000000000000 PUSH1 0x44 DUP3 ADD MSTORE PUSH1 0x64 SWAP1 REVERT JUMPDEST POP PUSH2 0x7D1 JUMP JUMPDEST PUSH2 0x829 SWAP1 PUSH2 0x2B1F JUMP JUMPDEST PUSH2 0x6B3 JUMPI DUP2 CODESIZE PUSH2 0x795 JUMP JUMPDEST DUP3 DUP1 REVERT JUMPDEST SWAP1 PUSH1 0x4 CALLDATALOAD DUP4 MSTORE DUP2 PUSH1 0x20 MSTORE DUP2 PUSH1 0x40 DUP5 KECCAK256 ADD PUSH1 0x40 MLOAD PUSH2 0x869 DUP2 PUSH2 0x85D PUSH1 0x20 DUP3 ADD DUP1 SWAP6 PUSH2 0x2E59 JUMP JUMPDEST SUB DUP5 DUP2 ADD DUP4 MSTORE DUP3 PUSH2 0x2B83 JUMP JUMPDEST MLOAD SWAP1 KECCAK256 PUSH1 0x40 MLOAD PUSH1 0x20 DUP2 ADD SWAP1 PUSH8 0xBEEEE4C2E08AA89 PUSH1 0xC3 SHL DUP3 MSTORE PUSH1 0x8 DUP2 MSTORE PUSH2 0x88F DUP2 PUSH2 0x2B32 JUMP JUMPDEST MLOAD SWAP1 KECCAK256 SUB PUSH2 0x96C JUMPI POP PUSH1 0x4 CALLDATALOAD DUP3 MSTORE PUSH1 0x20 MSTORE PUSH2 0x8BC PUSH2 0x458 PUSH2 0x73E PUSH1 0x4 PUSH1 0x40 DUP6 KECCAK256 ADD PUSH1 0x40 MLOAD SWAP3 DUP4 DUP1 SWAP3 PUSH2 0x2D47 JUMP JUMPDEST SWAP1 PUSH1 0x1 PUSH1 0x1 PUSH1 0xA0 SHL SUB AND SELFBALANCE DUP3 GT PUSH2 0x916 JUMPI DUP3 SWAP1 PUSH2 0x8DA DUP4 ISZERO ISZERO PUSH2 0x32E3 JUMP JUMPDEST DUP1 EXTCODESIZE ISZERO PUSH2 0x6B3 JUMPI PUSH1 0x4 PUSH1 0x40 MLOAD DUP1 SWAP5 DUP2 SWAP4 PUSH4 0xD0E30DB PUSH1 0xE4 SHL DUP4 MSTORE GAS CALL DUP1 ISZERO PUSH2 0x623 JUMPI PUSH2 0x907 JUMPI JUMPDEST POP PUSH2 0x5CD JUMP JUMPDEST PUSH2 0x910 SWAP1 PUSH2 0x2B1F JUMP JUMPDEST CODESIZE PUSH2 0x901 JUMP JUMPDEST PUSH1 0x40 MLOAD PUSH3 0x461BCD PUSH1 0xE5 SHL DUP2 MSTORE PUSH1 0x20 PUSH1 0x4 DUP3 ADD MSTORE PUSH1 0x28 PUSH1 0x24 DUP3 ADD MSTORE PUSH32 0x496E73756666696369656E74204554482062616C616E636520696E2074686520 PUSH1 0x44 DUP3 ADD MSTORE PUSH8 0x18DBDB9D1C9858DD PUSH1 0xC2 SHL PUSH1 0x64 DUP3 ADD MSTORE PUSH1 0x84 SWAP1 REVERT JUMPDEST PUSH1 0x4 CALLDATALOAD DUP4 MSTORE DUP2 PUSH1 0x20 MSTORE DUP2 PUSH1 0x40 DUP5 KECCAK256 ADD PUSH1 0x40 MLOAD PUSH2 0x990 DUP2 PUSH2 0x85D PUSH1 0x20 DUP3 ADD DUP1 SWAP6 PUSH2 0x2E59 JUMP JUMPDEST MLOAD SWAP1 KECCAK256 PUSH1 0x40 MLOAD PUSH1 0x20 DUP2 ADD SWAP1 PUSH21 0x17D8DC99585D19541BDBDB105B99135A5B9D139195 PUSH1 0x5A SHL DUP3 MSTORE PUSH1 0x15 DUP2 MSTORE PUSH2 0x9C3 DUP2 PUSH2 0x2B32 JUMP JUMPDEST MLOAD SWAP1 KECCAK256 SUB PUSH2 0x1198 JUMPI POP PUSH1 0x4 CALLDATALOAD DUP3 MSTORE PUSH1 0x20 MSTORE PUSH2 0x458 PUSH2 0x9ED PUSH1 0x4 PUSH1 0x40 DUP5 KECCAK256 ADD PUSH1 0x40 MLOAD SWAP3 DUP4 DUP1 SWAP3 PUSH2 0x2D47 JUMP JUMPDEST PUSH2 0x120 DUP2 DUP1 MLOAD DUP2 ADD SUB SLT PUSH2 0x6B3 JUMPI PUSH2 0xAAE PUSH2 0xA0A PUSH1 0x20 DUP4 ADD PUSH2 0x2EDB JUMP JUMPDEST PUSH2 0xA16 PUSH1 0x40 DUP5 ADD PUSH2 0x2EDB JUMP JUMPDEST SWAP1 PUSH2 0xA23 PUSH1 0x60 DUP6 ADD PUSH2 0x2F3D JUMP JUMPDEST SWAP1 PUSH1 0x80 DUP6 ADD MLOAD SWAP5 PUSH1 0xA0 DUP2 ADD MLOAD SWAP1 PUSH1 0xC0 DUP2 ADD MLOAD PUSH1 0x20 PUSH2 0xA43 PUSH1 0xE0 DUP5 ADD PUSH2 0x2EDB JUMP JUMPDEST SWAP2 PUSH2 0xA60 PUSH2 0x120 PUSH2 0xA57 PUSH2 0x100 DUP8 ADD PUSH2 0x2EDB JUMP JUMPDEST SWAP6 ADD MLOAD SWAP2 PUSH2 0x3460 JUMP JUMPDEST PUSH1 0x8 SLOAD PUSH1 0x40 MLOAD PUSH4 0x9F56AB1 PUSH1 0xE1 SHL DUP2 MSTORE PUSH1 0x1 PUSH1 0x1 PUSH1 0xA0 SHL SUB DUP10 DUP2 AND PUSH1 0x4 DUP4 ADD MSTORE DUP12 DUP2 AND PUSH1 0x24 DUP4 ADD MSTORE PUSH3 0xFFFFFF DUP12 AND PUSH1 0x44 DUP4 ADD MSTORE SWAP3 DUP4 AND PUSH1 0x64 DUP3 ADD MSTORE SWAP11 DUP12 SWAP4 SWAP3 SWAP1 SWAP2 AND SWAP2 DUP4 SWAP2 DUP3 SWAP1 PUSH1 0x84 DUP3 ADD SWAP1 JUMP JUMPDEST SUB SWAP3 GAS CALL SWAP7 DUP8 ISZERO PUSH2 0xEB1 JUMPI DUP10 SWAP8 PUSH2 0x1177 JUMPI JUMPDEST POP PUSH1 0x40 MLOAD PUSH4 0x23B872DD PUSH1 0xE0 SHL DUP1 DUP3 MSTORE CALLER PUSH1 0x4 DUP4 ADD MSTORE ADDRESS PUSH1 0x24 DUP4 ADD MSTORE PUSH1 0x44 DUP3 ADD DUP11 SWAP1 MSTORE SWAP1 PUSH1 0x20 DUP2 PUSH1 0x64 DUP2 DUP15 PUSH1 0x1 PUSH1 0x1 PUSH1 0xA0 SHL SUB DUP12 AND GAS CALL DUP1 ISZERO PUSH2 0xED9 JUMPI PUSH2 0x1158 JUMPI JUMPDEST POP PUSH1 0x40 MLOAD SWAP1 DUP2 MSTORE CALLER PUSH1 0x4 DUP3 ADD MSTORE ADDRESS PUSH1 0x24 DUP3 ADD MSTORE PUSH1 0x44 DUP2 ADD DUP5 SWAP1 MSTORE PUSH1 0x20 DUP2 PUSH1 0x64 DUP2 DUP14 PUSH1 0x1 PUSH1 0x1 PUSH1 0xA0 SHL SUB DUP13 AND GAS CALL DUP1 ISZERO PUSH2 0x110F JUMPI PUSH2 0x1139 JUMPI JUMPDEST POP PUSH1 0x8 SLOAD PUSH1 0x40 MLOAD PUSH4 0x95EA7B3 PUSH1 0xE0 SHL DUP2 MSTORE PUSH1 0x1 PUSH1 0x1 PUSH1 0xA0 SHL SUB SWAP1 SWAP2 AND PUSH1 0x4 DUP3 ADD MSTORE PUSH1 0x24 DUP2 ADD DUP10 SWAP1 MSTORE PUSH1 0x20 DUP2 DUP1 PUSH1 0x44 DUP2 ADD SUB DUP2 DUP14 PUSH1 0x1 PUSH1 0x1 PUSH1 0xA0 SHL SUB DUP11 AND GAS CALL DUP1 ISZERO PUSH2 0x110F JUMPI PUSH2 0x111A JUMPI JUMPDEST POP PUSH1 0x8 SLOAD PUSH1 0x40 MLOAD PUSH4 0x95EA7B3 PUSH1 0xE0 SHL DUP2 MSTORE PUSH1 0x1 PUSH1 0x1 PUSH1 0xA0 SHL SUB SWAP1 SWAP2 AND PUSH1 0x4 DUP3 ADD MSTORE PUSH1 0x24 DUP2 ADD DUP5 SWAP1 MSTORE PUSH1 0x20 DUP2 DUP1 PUSH1 0x44 DUP2 ADD SUB DUP2 DUP14 PUSH1 0x1 PUSH1 0x1 PUSH1 0xA0 SHL SUB DUP13 AND GAS CALL DUP1 ISZERO PUSH2 0x110F JUMPI PUSH2 0x10F0 JUMPI JUMPDEST POP PUSH5 0x1000276A3 PUSH1 0x1 PUSH1 0x1 PUSH1 0xA0 SHL SUB DUP3 AND SWAP1 DUP2 LT ISZERO SWAP1 DUP2 PUSH2 0x10C8 JUMPI JUMPDEST DUP2 PUSH2 0x10B5 JUMPI JUMPDEST POP ISZERO PUSH2 0x107A JUMPI PUSH2 0xC01 PUSH2 0xC07 SWAP2 PUSH2 0x34EA JUMP JUMPDEST SWAP2 PUSH2 0x34EA JUMP JUMPDEST PUSH1 0x2 SIGNEXTEND SWAP2 DUP3 DUP3 PUSH1 0x2 SIGNEXTEND SLT DUP1 PUSH2 0x1069 JUMPI JUMPDEST DUP1 PUSH2 0x105C JUMPI JUMPDEST ISZERO PUSH2 0x1022 JUMPI PUSH1 0x40 MLOAD SWAP5 DUP6 PUSH2 0x160 DUP2 ADD LT PUSH1 0x1 PUSH1 0x1 PUSH1 0x40 SHL SUB PUSH2 0x160 DUP9 ADD GT OR PUSH2 0x100E JUMPI SWAP1 PUSH3 0xFFFFFF DUP11 SWAP3 PUSH2 0x160 DUP9 ADD PUSH1 0x40 MSTORE PUSH1 0x1 DUP1 PUSH1 0xA0 SHL SUB DUP8 AND DUP9 MSTORE PUSH1 0x1 DUP1 PUSH1 0xA0 SHL SUB DUP10 AND PUSH1 0x20 DUP10 ADD MSTORE AND PUSH1 0x40 DUP8 ADD MSTORE DUP3 PUSH1 0x2 SIGNEXTEND PUSH1 0x60 DUP8 ADD MSTORE DUP4 PUSH1 0x80 DUP8 ADD MSTORE DUP9 PUSH1 0xA0 DUP8 ADD MSTORE DUP1 PUSH1 0xC0 DUP8 ADD MSTORE DUP2 PUSH1 0xE0 DUP8 ADD MSTORE DUP2 PUSH2 0x100 DUP8 ADD MSTORE ADDRESS PUSH2 0x120 DUP8 ADD MSTORE TIMESTAMP PUSH2 0x140 DUP8 ADD MSTORE PUSH1 0x80 PUSH2 0x140 PUSH2 0x164 PUSH1 0x1 DUP1 PUSH1 0xA0 SHL SUB PUSH1 0x8 SLOAD AND SWAP9 DUP6 PUSH1 0x40 MLOAD SWAP11 DUP12 SWAP5 DUP6 SWAP4 PUSH4 0x4418B22B PUSH1 0xE1 SHL DUP6 MSTORE PUSH1 0x1 DUP1 PUSH1 0xA0 SHL SUB DUP2 MLOAD AND PUSH1 0x4 DUP7 ADD MSTORE PUSH1 0x1 DUP1 PUSH1 0xA0 SHL SUB PUSH1 0x20 DUP3 ADD MLOAD AND PUSH1 0x24 DUP7 ADD MSTORE PUSH3 0xFFFFFF PUSH1 0x40 DUP3 ADD MLOAD AND PUSH1 0x44 DUP7 ADD MSTORE PUSH1 0x60 DUP2 ADD MLOAD PUSH1 0x2 SIGNEXTEND PUSH1 0x64 DUP7 ADD MSTORE DUP8 DUP2 ADD MLOAD PUSH1 0x2 SIGNEXTEND PUSH1 0x84 DUP7 ADD MSTORE PUSH1 0xA0 DUP2 ADD MLOAD PUSH1 0xA4 DUP7 ADD MSTORE PUSH1 0xC0 DUP2 ADD MLOAD PUSH1 0xC4 DUP7 ADD MSTORE PUSH1 0xE0 DUP2 ADD MLOAD PUSH1 0xE4 DUP7 ADD MSTORE PUSH2 0x100 DUP2 ADD MLOAD PUSH2 0x104 DUP7 ADD MSTORE PUSH1 0x1 DUP1 PUSH1 0xA0 SHL SUB PUSH2 0x120 DUP3 ADD MLOAD AND PUSH2 0x124 DUP7 ADD MSTORE ADD MLOAD PUSH2 0x144 DUP5 ADD MSTORE GAS CALL SWAP7 DUP8 ISZERO PUSH2 0x623 JUMPI DUP3 SWAP10 DUP4 SWAP7 DUP5 SWAP9 DUP6 SWAP11 PUSH2 0xFB8 JUMPI JUMPDEST POP DUP2 DUP10 LT PUSH2 0xEE4 JUMPI JUMPDEST POP POP DUP2 DUP9 LT PUSH2 0xDD6 JUMPI JUMPDEST POP POP POP SWAP6 PUSH1 0x1 PUSH1 0x1 PUSH1 0x80 SHL SUB SWAP3 SWAP2 PUSH2 0xDD1 SWAP8 PUSH1 0x40 MLOAD SWAP8 PUSH1 0x1 DUP1 PUSH1 0xA0 SHL SUB AND PUSH1 0x20 DUP10 ADD MSTORE PUSH1 0x2 SIGNEXTEND PUSH1 0x40 DUP9 ADD MSTORE PUSH1 0x60 DUP8 ADD MSTORE PUSH1 0x80 DUP7 ADD MSTORE AND PUSH1 0xA0 DUP5 ADD MSTORE PUSH1 0xC0 DUP4 ADD MSTORE PUSH1 0xE0 DUP3 ADD MSTORE PUSH1 0xE0 DUP2 MSTORE PUSH2 0x2ACD JUMP JUMPDEST PUSH2 0x5CD JUMP JUMPDEST PUSH1 0x8 SLOAD PUSH1 0x40 MLOAD PUSH4 0x95EA7B3 PUSH1 0xE0 SHL DUP2 MSTORE PUSH1 0x1 PUSH1 0x1 PUSH1 0xA0 SHL SUB SWAP2 DUP3 AND PUSH1 0x4 DUP3 ADD MSTORE PUSH1 0x24 DUP2 ADD DUP6 SWAP1 MSTORE SWAP4 SWAP11 SWAP5 SWAP7 SWAP6 SWAP4 SWAP3 SWAP2 SWAP1 PUSH1 0x20 SWAP1 DUP5 SWAP1 PUSH1 0x44 SWAP1 DUP3 SWAP1 DUP16 SWAP1 DUP7 AND GAS CALL SWAP3 DUP4 ISZERO PUSH2 0xED9 JUMPI DUP10 PUSH2 0xE5E SWAP4 PUSH2 0xE34 SWAP3 PUSH1 0x20 SWAP7 PUSH2 0xEBC JUMPI JUMPDEST POP PUSH2 0x334E JUMP JUMPDEST PUSH1 0x40 MLOAD PUSH4 0xA9059CBB PUSH1 0xE0 SHL DUP2 MSTORE CALLER PUSH1 0x4 DUP3 ADD MSTORE PUSH1 0x24 DUP2 ADD SWAP2 SWAP1 SWAP2 MSTORE SWAP11 DUP12 SWAP3 DUP4 SWAP2 SWAP1 DUP3 SWAP1 PUSH1 0x44 DUP3 ADD SWAP1 JUMP JUMPDEST SUB SWAP3 PUSH1 0x1 PUSH1 0x1 PUSH1 0xA0 SHL SUB AND GAS CALL SWAP4 DUP5 ISZERO PUSH2 0xEB1 JUMPI PUSH2 0xDD1 SWAP9 PUSH1 0x1 PUSH1 0x1 PUSH1 0x80 SHL SUB SWAP6 PUSH2 0xE92 JUMPI JUMPDEST DUP2 SWAP4 SWAP10 POP DUP11 SWAP3 SWAP5 SWAP6 POP PUSH2 0xD83 JUMP JUMPDEST PUSH2 0xEAA SWAP1 PUSH1 0x20 RETURNDATASIZE PUSH1 0x20 GT PUSH2 0x6A1 JUMPI PUSH2 0x693 DUP2 DUP4 PUSH2 0x2B83 JUMP JUMPDEST POP CODESIZE PUSH2 0xE84 JUMP JUMPDEST PUSH1 0x40 MLOAD RETURNDATASIZE DUP12 DUP3 RETURNDATACOPY RETURNDATASIZE SWAP1 REVERT JUMPDEST PUSH2 0xED2 SWAP1 DUP8 RETURNDATASIZE DUP10 GT PUSH2 0x6A1 JUMPI PUSH2 0x693 DUP2 DUP4 PUSH2 0x2B83 JUMP JUMPDEST POP CODESIZE PUSH2 0xE2E JUMP JUMPDEST PUSH1 0x40 MLOAD RETURNDATASIZE DUP14 DUP3 RETURNDATACOPY RETURNDATASIZE SWAP1 REVERT JUMPDEST PUSH1 0x8 SLOAD PUSH1 0x40 MLOAD PUSH4 0x95EA7B3 PUSH1 0xE0 SHL DUP2 MSTORE PUSH1 0x1 PUSH1 0x1 PUSH1 0xA0 SHL SUB SWAP2 DUP3 AND PUSH1 0x4 DUP3 ADD MSTORE PUSH1 0x24 DUP2 ADD DUP8 SWAP1 MSTORE SWAP3 SWAP1 PUSH1 0x20 SWAP1 DUP5 SWAP1 PUSH1 0x44 SWAP1 DUP3 SWAP1 DUP11 SWAP1 DUP8 AND GAS CALL SWAP2 DUP3 ISZERO PUSH2 0xFAD JUMPI PUSH2 0xF3B DUP12 PUSH2 0xF65 SWAP4 DUP10 SWAP7 PUSH1 0x20 SWAP7 PUSH2 0xEBC JUMPI POP PUSH2 0x334E JUMP JUMPDEST PUSH1 0x40 MLOAD PUSH4 0xA9059CBB PUSH1 0xE0 SHL DUP2 MSTORE CALLER PUSH1 0x4 DUP3 ADD MSTORE PUSH1 0x24 DUP2 ADD SWAP2 SWAP1 SWAP2 MSTORE SWAP4 DUP5 SWAP3 DUP4 SWAP2 SWAP1 DUP3 SWAP1 PUSH1 0x44 DUP3 ADD SWAP1 JUMP JUMPDEST SUB SWAP3 PUSH1 0x1 PUSH1 0x1 PUSH1 0xA0 SHL SUB AND GAS CALL DUP1 ISZERO PUSH2 0xFA2 JUMPI PUSH2 0xF83 JUMPI JUMPDEST DUP1 PUSH2 0xD79 JUMP JUMPDEST PUSH2 0xF9B SWAP1 PUSH1 0x20 RETURNDATASIZE PUSH1 0x20 GT PUSH2 0x6A1 JUMPI PUSH2 0x693 DUP2 DUP4 PUSH2 0x2B83 JUMP JUMPDEST POP CODESIZE PUSH2 0xF7D JUMP JUMPDEST PUSH1 0x40 MLOAD RETURNDATASIZE DUP7 DUP3 RETURNDATACOPY RETURNDATASIZE SWAP1 REVERT JUMPDEST PUSH1 0x40 MLOAD RETURNDATASIZE DUP9 DUP3 RETURNDATACOPY RETURNDATASIZE SWAP1 REVERT JUMPDEST SWAP8 POP SWAP9 POP SWAP10 POP SWAP6 POP PUSH1 0x80 DUP6 RETURNDATASIZE PUSH1 0x80 GT PUSH2 0x1006 JUMPI JUMPDEST DUP2 PUSH2 0xFD9 PUSH1 0x80 SWAP4 DUP4 PUSH2 0x2B83 JUMP JUMPDEST DUP2 ADD SUB SLT PUSH2 0x6B3 JUMPI DUP5 MLOAD SWAP6 PUSH2 0xFF0 PUSH1 0x20 DUP8 ADD PUSH2 0x2F0C JUMP JUMPDEST SWAP10 PUSH1 0x60 PUSH1 0x40 DUP9 ADD MLOAD SWAP8 ADD MLOAD SWAP8 SWAP11 SWAP7 SWAP8 SWAP9 CODESIZE PUSH2 0xD70 JUMP JUMPDEST RETURNDATASIZE SWAP2 POP PUSH2 0xFCC JUMP JUMPDEST PUSH4 0x4E487B71 PUSH1 0xE0 SHL DUP11 MSTORE PUSH1 0x41 PUSH1 0x4 MSTORE PUSH1 0x24 DUP11 REVERT JUMPDEST PUSH1 0x40 MLOAD PUSH3 0x461BCD PUSH1 0xE5 SHL DUP2 MSTORE PUSH1 0x20 PUSH1 0x4 DUP3 ADD MSTORE PUSH1 0x12 PUSH1 0x24 DUP3 ADD MSTORE PUSH18 0x5469636B73206F7574206F662072616E6765 PUSH1 0x70 SHL PUSH1 0x44 DUP3 ADD MSTORE PUSH1 0x64 SWAP1 REVERT JUMPDEST POP PUSH3 0xD89E8 DUP4 SGT ISZERO PUSH2 0xC1D JUMP JUMPDEST POP PUSH3 0xD89E7 NOT DUP3 PUSH1 0x2 SIGNEXTEND SLT ISZERO PUSH2 0xC17 JUMP JUMPDEST PUSH1 0x40 MLOAD PUSH3 0x461BCD PUSH1 0xE5 SHL DUP2 MSTORE PUSH1 0x20 PUSH1 0x4 DUP3 ADD MSTORE PUSH1 0x13 PUSH1 0x24 DUP3 ADD MSTORE PUSH19 0x496E76616C69642070726963652072616E6765 PUSH1 0x68 SHL PUSH1 0x44 DUP3 ADD MSTORE PUSH1 0x64 SWAP1 REVERT JUMPDEST PUSH1 0x1 PUSH1 0x1 PUSH1 0xA0 SHL SUB DUP5 AND GT SWAP1 POP CODESIZE PUSH2 0xBEF JUMP JUMPDEST PUSH20 0xFFFD8963EFD1FC6A506488495D951D5263988D26 PUSH1 0x1 PUSH1 0x1 PUSH1 0xA0 SHL SUB DUP6 AND GT ISZERO SWAP2 POP PUSH2 0xBE9 JUMP JUMPDEST PUSH2 0x1108 SWAP1 PUSH1 0x20 RETURNDATASIZE PUSH1 0x20 GT PUSH2 0x6A1 JUMPI PUSH2 0x693 DUP2 DUP4 PUSH2 0x2B83 JUMP JUMPDEST POP CODESIZE PUSH2 0xBCD JUMP JUMPDEST PUSH1 0x40 MLOAD RETURNDATASIZE DUP13 DUP3 RETURNDATACOPY RETURNDATASIZE SWAP1 REVERT JUMPDEST PUSH2 0x1132 SWAP1 PUSH1 0x20 RETURNDATASIZE PUSH1 0x20 GT PUSH2 0x6A1 JUMPI PUSH2 0x693 DUP2 DUP4 PUSH2 0x2B83 JUMP JUMPDEST POP CODESIZE PUSH2 0xB83 JUMP JUMPDEST PUSH2 0x1151 SWAP1 PUSH1 0x20 RETURNDATASIZE PUSH1 0x20 GT PUSH2 0x6A1 JUMPI PUSH2 0x693 DUP2 DUP4 PUSH2 0x2B83 JUMP JUMPDEST POP CODESIZE PUSH2 0xB39 JUMP JUMPDEST PUSH2 0x1170 SWAP1 PUSH1 0x20 RETURNDATASIZE PUSH1 0x20 GT PUSH2 0x6A1 JUMPI PUSH2 0x693 DUP2 DUP4 PUSH2 0x2B83 JUMP JUMPDEST POP CODESIZE PUSH2 0xB01 JUMP JUMPDEST PUSH2 0x1191 SWAP2 SWAP8 POP PUSH1 0x20 RETURNDATASIZE PUSH1 0x20 GT PUSH2 0x322 JUMPI PUSH2 0x313 DUP2 DUP4 PUSH2 0x2B83 JUMP JUMPDEST SWAP6 CODESIZE PUSH2 0xAC0 JUMP JUMPDEST PUSH1 0x4 CALLDATALOAD DUP4 MSTORE DUP2 PUSH1 0x20 MSTORE DUP2 PUSH1 0x40 DUP5 KECCAK256 ADD PUSH1 0x40 MLOAD PUSH2 0x11BC DUP2 PUSH2 0x85D PUSH1 0x20 DUP3 ADD DUP1 SWAP6 PUSH2 0x2E59 JUMP JUMPDEST MLOAD SWAP1 KECCAK256 PUSH1 0x40 MLOAD PUSH1 0x20 DUP2 ADD SWAP1 PUSH15 0x5F636F6C6C656374416C6C46656573 PUSH1 0x88 SHL DUP3 MSTORE PUSH1 0xF DUP2 MSTORE PUSH2 0x11E9 DUP2 PUSH2 0x2B32 JUMP JUMPDEST MLOAD SWAP1 KECCAK256 SUB PUSH2 0x12E1 JUMPI POP PUSH1 0x4 CALLDATALOAD DUP3 MSTORE PUSH1 0x20 MSTORE DUP1 PUSH2 0x458 PUSH2 0x1214 PUSH1 0x4 PUSH1 0x40 DUP5 KECCAK256 ADD PUSH1 0x40 MLOAD SWAP3 DUP4 DUP1 SWAP3 PUSH2 0x2D47 JUMP JUMPDEST PUSH1 0x20 DUP2 DUP1 MLOAD DUP2 ADD SUB SLT PUSH2 0x12DE JUMPI PUSH2 0x127D PUSH1 0x20 PUSH1 0x40 SWAP3 ADD MLOAD DUP3 MLOAD SWAP1 PUSH2 0x1237 DUP3 PUSH2 0x2B04 JUMP JUMPDEST DUP2 MSTORE ADDRESS PUSH1 0x20 DUP3 ADD MSTORE PUSH1 0x1 PUSH1 0x1 PUSH1 0x80 SHL SUB DUP4 DUP3 ADD DUP2 SWAP1 MSTORE PUSH1 0x60 DUP3 ADD MSTORE PUSH1 0x8 SLOAD DUP4 MLOAD PUSH4 0xFC6F7865 PUSH1 0xE0 SHL DUP2 MSTORE SWAP5 DUP6 SWAP4 PUSH1 0x1 PUSH1 0x1 PUSH1 0xA0 SHL SUB SWAP1 SWAP3 AND SWAP3 DUP5 SWAP3 DUP4 SWAP2 PUSH1 0x4 DUP4 ADD PUSH2 0x3371 JUMP JUMPDEST SUB SWAP3 GAS CALL SWAP1 DUP2 ISZERO PUSH2 0x623 JUMPI PUSH2 0xDD1 SWAP2 DUP4 SWAP2 DUP5 SWAP2 PUSH2 0x12AD JUMPI JUMPDEST POP PUSH1 0x40 MLOAD SWAP2 PUSH1 0x20 DUP4 ADD MSTORE PUSH1 0x40 DUP3 ADD MSTORE PUSH1 0x40 DUP2 MSTORE PUSH2 0x2B68 JUMP JUMPDEST SWAP1 POP PUSH2 0x12D1 SWAP2 POP PUSH1 0x40 RETURNDATASIZE PUSH1 0x40 GT PUSH2 0x12D7 JUMPI JUMPDEST PUSH2 0x12C9 DUP2 DUP4 PUSH2 0x2B83 JUMP JUMPDEST DUP2 ADD SWAP1 PUSH2 0x335B JUMP JUMPDEST CODESIZE PUSH2 0x1295 JUMP JUMPDEST POP RETURNDATASIZE PUSH2 0x12BF JUMP JUMPDEST POP REVERT JUMPDEST PUSH1 0x4 CALLDATALOAD DUP4 MSTORE DUP2 PUSH1 0x20 MSTORE DUP2 PUSH1 0x40 DUP5 KECCAK256 ADD PUSH1 0x40 MLOAD PUSH2 0x1305 DUP2 PUSH2 0x85D PUSH1 0x20 DUP3 ADD DUP1 SWAP6 PUSH2 0x2E59 JUMP JUMPDEST MLOAD SWAP1 KECCAK256 PUSH1 0x40 MLOAD PUSH1 0x20 DUP2 ADD SWAP1 PUSH32 0x5F696E6372656173654C697175696469747943757272656E7452616E67650000 DUP3 MSTORE PUSH1 0x1E DUP2 MSTORE PUSH2 0x1340 DUP2 PUSH2 0x2B32 JUMP JUMPDEST MLOAD SWAP1 KECCAK256 SUB PUSH2 0x1656 JUMPI POP PUSH1 0x4 CALLDATALOAD DUP3 MSTORE PUSH1 0x20 MSTORE PUSH2 0x458 PUSH2 0x136A PUSH1 0x4 PUSH1 0x40 DUP5 KECCAK256 ADD PUSH1 0x40 MLOAD SWAP3 DUP4 DUP1 SWAP3 PUSH2 0x2D47 JUMP JUMPDEST PUSH1 0xA0 DUP2 DUP1 MLOAD DUP2 ADD SUB SLT PUSH2 0x6B3 JUMPI PUSH2 0x1383 PUSH1 0x20 DUP3 ADD PUSH2 0x2EDB JUMP JUMPDEST SWAP1 PUSH2 0x1390 PUSH1 0x40 DUP3 ADD PUSH2 0x2EDB JUMP JUMPDEST PUSH1 0x60 DUP3 DUP2 ADD MLOAD PUSH1 0x80 DUP5 ADD MLOAD PUSH1 0xA0 SWAP1 SWAP5 ADD MLOAD PUSH1 0x40 MLOAD PUSH4 0x23B872DD PUSH1 0xE0 SHL DUP1 DUP3 MSTORE CALLER PUSH1 0x4 DUP4 ADD MSTORE ADDRESS PUSH1 0x24 DUP4 ADD MSTORE PUSH1 0x44 DUP3 ADD DUP8 SWAP1 MSTORE SWAP2 SWAP7 SWAP4 SWAP6 SWAP5 SWAP3 SWAP4 PUSH1 0x1 PUSH1 0x1 PUSH1 0xA0 SHL SUB SWAP4 DUP5 AND SWAP4 AND SWAP2 SWAP1 PUSH1 0x20 DUP2 PUSH1 0x64 DUP2 DUP13 DUP8 GAS CALL DUP1 ISZERO PUSH2 0xEB1 JUMPI PUSH2 0x1637 JUMPI JUMPDEST POP PUSH1 0x40 MLOAD SWAP1 DUP2 MSTORE CALLER PUSH1 0x4 DUP3 ADD MSTORE ADDRESS PUSH1 0x24 DUP3 ADD MSTORE PUSH1 0x44 DUP2 ADD DUP8 SWAP1 MSTORE PUSH1 0x20 DUP2 PUSH1 0x64 DUP2 DUP12 DUP8 GAS CALL DUP1 ISZERO PUSH2 0x160D JUMPI PUSH2 0x1618 JUMPI JUMPDEST POP PUSH1 0x8 SLOAD PUSH1 0x40 MLOAD PUSH4 0x95EA7B3 PUSH1 0xE0 SHL DUP1 DUP3 MSTORE PUSH1 0x1 PUSH1 0x1 PUSH1 0xA0 SHL SUB SWAP1 SWAP3 AND PUSH1 0x4 DUP3 ADD MSTORE PUSH1 0x24 DUP2 ADD DUP7 SWAP1 MSTORE SWAP1 SWAP3 SWAP1 SWAP2 PUSH1 0x20 SWAP1 DUP4 SWAP1 PUSH1 0x44 SWAP1 DUP3 SWAP1 DUP13 SWAP1 GAS CALL SWAP1 DUP2 ISZERO PUSH2 0x160D JUMPI PUSH2 0x149E SWAP4 PUSH1 0x20 SWAP4 DUP10 SWAP4 PUSH2 0x15F0 JUMPI JUMPDEST POP PUSH1 0x8 SLOAD PUSH1 0x40 MLOAD SWAP2 DUP3 MSTORE PUSH1 0x1 PUSH1 0x1 PUSH1 0xA0 SHL SUB AND PUSH1 0x4 DUP3 ADD MSTORE PUSH1 0x24 DUP2 ADD SWAP3 SWAP1 SWAP3 MSTORE SWAP1 SWAP3 DUP4 SWAP2 SWAP1 DUP3 SWAP1 DUP11 SWAP1 DUP3 SWAP1 PUSH1 0x44 DUP3 ADD SWAP1 JUMP JUMPDEST SUB SWAP3 GAS CALL DUP1 ISZERO PUSH2 0xFAD JUMPI PUSH2 0x15D1 JUMPI JUMPDEST POP PUSH1 0x40 MLOAD SWAP1 PUSH1 0xC0 DUP3 ADD DUP3 DUP2 LT PUSH1 0x1 PUSH1 0x1 PUSH1 0x40 SHL SUB DUP3 GT OR PUSH2 0x15BD JUMPI SWAP2 PUSH1 0xC4 SWAP2 DUP6 SWAP5 SWAP4 PUSH1 0x40 MSTORE DUP2 MSTORE PUSH1 0x20 DUP2 ADD SWAP3 DUP4 MSTORE PUSH1 0x40 DUP2 ADD SWAP6 DUP7 MSTORE DUP7 DUP5 DUP3 ADD DUP2 DUP2 MSTORE PUSH1 0x80 DUP4 ADD DUP3 DUP2 MSTORE PUSH1 0xA0 DUP5 ADD SWAP1 TIMESTAMP DUP3 MSTORE PUSH1 0x1 DUP1 PUSH1 0xA0 SHL SUB PUSH1 0x8 SLOAD AND SWAP3 PUSH1 0x40 MLOAD SWAP11 DUP12 SWAP9 DUP10 SWAP8 PUSH4 0x219F5D17 PUSH1 0xE0 SHL DUP10 MSTORE MLOAD PUSH1 0x4 DUP10 ADD MSTORE MLOAD PUSH1 0x24 DUP9 ADD MSTORE MLOAD PUSH1 0x44 DUP8 ADD MSTORE MLOAD PUSH1 0x64 DUP7 ADD MSTORE MLOAD PUSH1 0x84 DUP6 ADD MSTORE MLOAD PUSH1 0xA4 DUP5 ADD MSTORE GAS CALL SWAP1 DUP2 ISZERO PUSH2 0x329 JUMPI DUP4 SWAP2 DUP5 SWAP4 DUP6 SWAP2 PUSH2 0x1575 JUMPI JUMPDEST POP PUSH2 0xDD1 SWAP4 PUSH1 0x1 PUSH1 0x1 PUSH1 0x80 SHL SUB PUSH1 0x40 MLOAD SWAP5 AND PUSH1 0x20 DUP6 ADD MSTORE PUSH1 0x40 DUP5 ADD MSTORE DUP2 DUP4 ADD MSTORE DUP2 MSTORE PUSH2 0x2B04 JUMP JUMPDEST SWAP3 POP POP DUP1 SWAP3 POP DUP2 DUP2 RETURNDATASIZE DUP4 GT PUSH2 0x15B6 JUMPI JUMPDEST PUSH2 0x158F DUP2 DUP4 PUSH2 0x2B83 JUMP JUMPDEST DUP2 ADD SUB SLT PUSH2 0x834 JUMPI PUSH2 0xDD1 SWAP2 PUSH2 0x15A4 DUP3 PUSH2 0x2F0C JUMP JUMPDEST PUSH1 0x40 PUSH1 0x20 DUP5 ADD MLOAD SWAP4 ADD MLOAD SWAP1 SWAP3 SWAP4 PUSH2 0x154E JUMP JUMPDEST POP RETURNDATASIZE PUSH2 0x1585 JUMP JUMPDEST PUSH4 0x4E487B71 PUSH1 0xE0 SHL DUP8 MSTORE PUSH1 0x41 PUSH1 0x4 MSTORE PUSH1 0x24 DUP8 REVERT JUMPDEST PUSH2 0x15E9 SWAP1 PUSH1 0x20 RETURNDATASIZE PUSH1 0x20 GT PUSH2 0x6A1 JUMPI PUSH2 0x693 DUP2 DUP4 PUSH2 0x2B83 JUMP JUMPDEST POP CODESIZE PUSH2 0x14AD JUMP JUMPDEST PUSH2 0x1606 SWAP1 DUP6 RETURNDATASIZE DUP8 GT PUSH2 0x6A1 JUMPI PUSH2 0x693 DUP2 DUP4 PUSH2 0x2B83 JUMP JUMPDEST POP CODESIZE PUSH2 0x146C JUMP JUMPDEST PUSH1 0x40 MLOAD RETURNDATASIZE DUP11 DUP3 RETURNDATACOPY RETURNDATASIZE SWAP1 REVERT JUMPDEST PUSH2 0x1630 SWAP1 PUSH1 0x20 RETURNDATASIZE PUSH1 0x20 GT PUSH2 0x6A1 JUMPI PUSH2 0x693 DUP2 DUP4 PUSH2 0x2B83 JUMP JUMPDEST POP CODESIZE PUSH2 0x141C JUMP JUMPDEST PUSH2 0x164F SWAP1 PUSH1 0x20 RETURNDATASIZE PUSH1 0x20 GT PUSH2 0x6A1 JUMPI PUSH2 0x693 DUP2 DUP4 PUSH2 0x2B83 JUMP JUMPDEST POP CODESIZE PUSH2 0x13ED JUMP JUMPDEST PUSH1 0x4 CALLDATALOAD DUP4 MSTORE DUP2 PUSH1 0x20 MSTORE DUP2 PUSH1 0x40 DUP5 KECCAK256 ADD PUSH1 0x40 MLOAD PUSH2 0x167A DUP2 PUSH2 0x85D PUSH1 0x20 DUP3 ADD DUP1 SWAP6 PUSH2 0x2E59 JUMP JUMPDEST MLOAD SWAP1 KECCAK256 PUSH1 0x40 MLOAD PUSH1 0x20 DUP2 ADD SWAP1 PUSH32 0x5F64656372656173654C697175696469747943757272656E7452616E67650000 DUP3 MSTORE PUSH1 0x1E DUP2 MSTORE PUSH2 0x16B5 DUP2 PUSH2 0x2B32 JUMP JUMPDEST MLOAD SWAP1 KECCAK256 SUB PUSH2 0x174A JUMPI POP PUSH1 0x4 CALLDATALOAD DUP3 MSTORE PUSH1 0x20 MSTORE DUP1 PUSH1 0x40 PUSH2 0x127D PUSH1 0x1 PUSH1 0x1 PUSH1 0x80 SHL SUB PUSH2 0x16FD PUSH2 0x458 PUSH2 0x16EE PUSH1 0x4 DUP7 DUP9 KECCAK256 ADD DUP7 MLOAD SWAP3 DUP4 DUP1 SWAP3 PUSH2 0x2D47 JUMP JUMPDEST PUSH1 0x20 DUP1 DUP3 MLOAD DUP4 ADD ADD SWAP2 ADD PUSH2 0x2F20 JUMP JUMPDEST DUP5 MLOAD SWAP3 SWAP2 PUSH2 0x170A DUP5 PUSH2 0x2AE9 JUMP JUMPDEST DUP4 MSTORE AND PUSH1 0x20 DUP3 ADD MSTORE DUP4 DUP4 DUP3 ADD MSTORE DUP4 PUSH1 0x60 DUP3 ADD MSTORE TIMESTAMP PUSH1 0x80 DUP3 ADD MSTORE PUSH1 0x1 DUP1 PUSH1 0xA0 SHL SUB PUSH1 0x8 SLOAD AND SWAP1 DUP4 MLOAD SWAP5 DUP6 DUP1 SWAP5 DUP2 SWAP4 PUSH4 0x624E65F PUSH1 0xE1 SHL DUP4 MSTORE PUSH1 0x4 DUP4 ADD PUSH2 0x33AF JUMP JUMPDEST PUSH1 0x4 CALLDATALOAD DUP4 MSTORE DUP2 PUSH1 0x20 MSTORE DUP2 PUSH1 0x40 DUP5 KECCAK256 ADD PUSH1 0x40 MLOAD PUSH2 0x176E DUP2 PUSH2 0x85D PUSH1 0x20 DUP3 ADD DUP1 SWAP6 PUSH2 0x2E59 JUMP JUMPDEST MLOAD SWAP1 KECCAK256 PUSH1 0x40 MLOAD PUSH1 0x20 DUP2 ADD SWAP1 PUSH11 0x17DC995B5BDD99541BDBDB PUSH1 0xAA SHL DUP3 MSTORE PUSH1 0xB DUP2 MSTORE PUSH2 0x1797 DUP2 PUSH2 0x2B32 JUMP JUMPDEST MLOAD SWAP1 KECCAK256 SUB PUSH2 0x1913 JUMPI POP PUSH1 0x4 CALLDATALOAD DUP3 MSTORE PUSH1 0x20 MSTORE DUP1 DUP1 PUSH2 0x17C6 PUSH2 0x458 PUSH2 0x16EE PUSH1 0x4 PUSH1 0x40 DUP6 KECCAK256 ADD PUSH1 0x40 MLOAD SWAP3 DUP4 DUP1 SWAP3 PUSH2 0x2D47 JUMP JUMPDEST SWAP3 SWAP1 PUSH1 0x40 PUSH2 0x1823 DUP2 MLOAD PUSH2 0x17D8 DUP2 PUSH2 0x2AE9 JUMP JUMPDEST DUP4 DUP2 MSTORE PUSH1 0x1 PUSH1 0x1 PUSH1 0x80 SHL SUB DUP1 SWAP8 AND PUSH1 0x20 DUP3 ADD MSTORE DUP5 DUP4 DUP3 ADD MSTORE DUP5 PUSH1 0x60 DUP3 ADD MSTORE TIMESTAMP PUSH1 0x80 DUP3 ADD MSTORE PUSH1 0x1 DUP1 PUSH1 0xA0 SHL SUB PUSH1 0x8 SLOAD AND SWAP1 DUP4 MLOAD SWAP7 DUP8 DUP1 SWAP5 DUP2 SWAP4 PUSH4 0x624E65F PUSH1 0xE1 SHL DUP4 MSTORE PUSH1 0x4 DUP4 ADD PUSH2 0x33AF JUMP JUMPDEST SUB SWAP3 GAS CALL SWAP4 DUP5 ISZERO PUSH2 0x623 JUMPI DUP3 SWAP4 DUP4 SWAP6 PUSH2 0x18E6 JUMPI JUMPDEST POP PUSH1 0x40 SWAP2 PUSH2 0x1889 SWAP2 DUP4 MLOAD SWAP2 PUSH2 0x184B DUP4 PUSH2 0x2B04 JUMP JUMPDEST DUP3 MSTORE ADDRESS PUSH1 0x20 DUP4 ADD MSTORE DUP4 DUP3 ADD DUP2 SWAP1 MSTORE PUSH1 0x60 DUP3 ADD MSTORE PUSH1 0x8 SLOAD DUP4 MLOAD PUSH4 0xFC6F7865 PUSH1 0xE0 SHL DUP2 MSTORE SWAP5 DUP6 SWAP4 PUSH1 0x1 PUSH1 0x1 PUSH1 0xA0 SHL SUB SWAP1 SWAP3 AND SWAP3 DUP5 SWAP3 DUP4 SWAP2 PUSH1 0x4 DUP4 ADD PUSH2 0x3371 JUMP JUMPDEST SUB SWAP3 GAS CALL SWAP1 DUP2 ISZERO PUSH2 0xFA2 JUMPI PUSH2 0xDD1 SWAP4 DUP6 SWAP2 DUP7 SWAP4 PUSH2 0x18C3 JUMPI JUMPDEST POP PUSH1 0x40 MLOAD SWAP4 PUSH1 0x20 DUP6 ADD MSTORE PUSH1 0x40 DUP5 ADD MSTORE PUSH1 0x60 DUP4 ADD MSTORE PUSH1 0x80 DUP3 ADD MSTORE PUSH1 0x80 DUP2 MSTORE PUSH2 0x2AE9 JUMP JUMPDEST SWAP1 SWAP3 POP PUSH2 0x18DF SWAP2 POP PUSH1 0x40 RETURNDATASIZE PUSH1 0x40 GT PUSH2 0x12D7 JUMPI PUSH2 0x12C9 DUP2 DUP4 PUSH2 0x2B83 JUMP JUMPDEST SWAP2 CODESIZE PUSH2 0x18A1 JUMP JUMPDEST PUSH2 0x1889 SWAP2 SWAP6 POP PUSH1 0x40 SWAP3 SWAP5 POP PUSH2 0x1907 SWAP1 DUP4 RETURNDATASIZE DUP6 GT PUSH2 0x12D7 JUMPI PUSH2 0x12C9 DUP2 DUP4 PUSH2 0x2B83 JUMP JUMPDEST SWAP5 SWAP1 SWAP5 SWAP6 SWAP2 POP SWAP2 PUSH2 0x1837 JUMP JUMPDEST PUSH1 0x4 CALLDATALOAD DUP4 MSTORE DUP2 PUSH1 0x20 MSTORE DUP2 PUSH1 0x40 DUP5 KECCAK256 ADD PUSH1 0x40 MLOAD PUSH2 0x1937 DUP2 PUSH2 0x85D PUSH1 0x20 DUP3 ADD DUP1 SWAP6 PUSH2 0x2E59 JUMP JUMPDEST MLOAD SWAP1 KECCAK256 PUSH1 0x40 MLOAD PUSH1 0x20 DUP2 ADD SWAP1 PUSH14 0x5F7472616E73666572455243323 PUSH1 0x94 SHL DUP3 MSTORE PUSH1 0xE DUP2 MSTORE PUSH2 0x1963 DUP2 PUSH2 0x2B32 JUMP JUMPDEST MLOAD SWAP1 KECCAK256 SUB PUSH2 0x1AD6 JUMPI POP PUSH1 0x4 CALLDATALOAD DUP3 MSTORE PUSH1 0x20 MSTORE PUSH2 0x458 PUSH2 0x198D PUSH1 0x4 PUSH1 0x40 DUP5 KECCAK256 ADD PUSH1 0x40 MLOAD SWAP3 DUP4 DUP1 SWAP3 PUSH2 0x2D47 JUMP JUMPDEST PUSH1 0x60 DUP2 DUP1 MLOAD DUP2 ADD SUB SLT PUSH2 0x6B3 JUMPI PUSH2 0x19A6 PUSH1 0x20 DUP3 ADD PUSH2 0x2EDB JUMP JUMPDEST SWAP1 PUSH1 0x60 PUSH2 0x19B5 PUSH1 0x40 DUP4 ADD PUSH2 0x2EDB JUMP JUMPDEST SWAP2 ADD MLOAD PUSH1 0x40 MLOAD PUSH4 0x70A08231 PUSH1 0xE0 SHL DUP2 MSTORE ADDRESS PUSH1 0x4 DUP3 ADD MSTORE PUSH1 0x1 PUSH1 0x1 PUSH1 0xA0 SHL SUB SWAP1 SWAP4 AND SWAP3 PUSH1 0x20 DUP2 PUSH1 0x24 DUP2 DUP8 GAS STATICCALL DUP1 ISZERO PUSH2 0x1ACB JUMPI DUP3 SWAP2 DUP7 SWAP2 PUSH2 0x1A92 JUMPI JUMPDEST POP LT PUSH2 0x1A56 JUMPI PUSH1 0x40 MLOAD PUSH4 0xA9059CBB PUSH1 0xE0 SHL DUP2 MSTORE PUSH1 0x1 PUSH1 0x1 PUSH1 0xA0 SHL SUB SWAP3 SWAP1 SWAP3 AND PUSH1 0x4 DUP4 ADD MSTORE PUSH1 0x24 DUP3 ADD MSTORE SWAP1 PUSH1 0x20 SWAP1 DUP3 SWAP1 PUSH1 0x44 SWAP1 DUP3 SWAP1 DUP7 SWAP1 GAS CALL DUP1 ISZERO PUSH2 0x623 JUMPI PUSH2 0x1A37 JUMPI POP PUSH2 0x5CD JUMP JUMPDEST PUSH2 0x1A4F SWAP1 PUSH1 0x20 RETURNDATASIZE PUSH1 0x20 GT PUSH2 0x6A1 JUMPI PUSH2 0x693 DUP2 DUP4 PUSH2 0x2B83 JUMP JUMPDEST POP CODESIZE PUSH2 0x901 JUMP JUMPDEST PUSH1 0x40 MLOAD PUSH3 0x461BCD PUSH1 0xE5 SHL DUP2 MSTORE PUSH1 0x20 PUSH1 0x4 DUP3 ADD MSTORE PUSH1 0x14 PUSH1 0x24 DUP3 ADD MSTORE PUSH20 0x496E73756666696369656E742062616C616E6365 PUSH1 0x60 SHL PUSH1 0x44 DUP3 ADD MSTORE PUSH1 0x64 SWAP1 REVERT JUMPDEST SWAP2 POP POP PUSH1 0x20 DUP2 RETURNDATASIZE PUSH1 0x20 GT PUSH2 0x1AC3 JUMPI JUMPDEST DUP2 PUSH2 0x1AAE PUSH1 0x20 SWAP4 DUP4 PUSH2 0x2B83 JUMP JUMPDEST DUP2 ADD SUB SLT PUSH2 0x1ABF JUMPI DUP2 SWAP1 MLOAD CODESIZE PUSH2 0x19EF JUMP JUMPDEST DUP5 DUP1 REVERT JUMPDEST RETURNDATASIZE SWAP2 POP PUSH2 0x1AA1 JUMP JUMPDEST PUSH1 0x40 MLOAD RETURNDATASIZE DUP8 DUP3 RETURNDATACOPY RETURNDATASIZE SWAP1 REVERT JUMPDEST PUSH1 0x4 CALLDATALOAD DUP4 MSTORE DUP2 PUSH1 0x20 MSTORE DUP2 PUSH1 0x40 DUP5 KECCAK256 ADD SWAP1 PUSH2 0x1B08 PUSH1 0x40 MLOAD SWAP2 DUP3 PUSH2 0x1AFC PUSH1 0x20 DUP3 ADD DUP1 SWAP7 PUSH2 0x2E59 JUMP JUMPDEST SUB SWAP1 DUP2 ADD DUP4 MSTORE DUP3 PUSH2 0x2B83 JUMP JUMPDEST MLOAD SWAP1 KECCAK256 PUSH1 0x40 MLOAD PUSH1 0x20 DUP2 ADD SWAP1 PUSH10 0x2FB9B2B73222BA3432B9 PUSH1 0xB1 SHL DUP3 MSTORE PUSH1 0xA DUP2 MSTORE PUSH2 0x1B30 DUP2 PUSH2 0x2B32 JUMP JUMPDEST MLOAD SWAP1 KECCAK256 EQ PUSH2 0x1B3E JUMPI POP PUSH2 0x5CD JUMP JUMPDEST PUSH1 0x4 CALLDATALOAD DUP3 MSTORE PUSH1 0x20 MSTORE PUSH2 0x1B62 PUSH2 0x458 PUSH2 0x73E PUSH1 0x4 PUSH1 0x40 DUP6 KECCAK256 ADD PUSH1 0x40 MLOAD SWAP3 DUP4 DUP1 SWAP3 PUSH2 0x2D47 JUMP JUMPDEST SWAP1 DUP2 SELFBALANCE LT PUSH2 0x1BA5 JUMPI DUP3 DUP1 DUP1 SWAP4 DUP2 SWAP4 DUP3 SWAP1 DUP3 ISZERO PUSH2 0x1B9B JUMPI JUMPDEST PUSH1 0x1 PUSH1 0x1 PUSH1 0xA0 SHL SUB AND SWAP1 CALL ISZERO PUSH2 0x1B8F JUMPI CODESIZE PUSH2 0x901 JUMP JUMPDEST PUSH1 0x40 MLOAD SWAP1 RETURNDATASIZE SWAP1 DUP3 RETURNDATACOPY RETURNDATASIZE SWAP1 REVERT JUMPDEST PUSH2 0x8FC SWAP2 POP PUSH2 0x1B79 JUMP JUMPDEST PUSH1 0x40 MLOAD PUSH3 0x461BCD PUSH1 0xE5 SHL DUP2 MSTORE PUSH1 0x20 PUSH1 0x4 DUP3 ADD MSTORE PUSH1 0x24 DUP1 DUP3 ADD MSTORE PUSH32 0x496E73756666696369656E742062616C616E636520696E2074686520636F6E74 PUSH1 0x44 DUP3 ADD MSTORE PUSH4 0x1C9858DD PUSH1 0xE2 SHL PUSH1 0x64 DUP3 ADD MSTORE PUSH1 0x84 SWAP1 REVERT JUMPDEST PUSH1 0x40 MLOAD PUSH3 0x461BCD PUSH1 0xE5 SHL DUP2 MSTORE PUSH1 0x20 PUSH1 0x4 DUP3 ADD MSTORE PUSH1 0x11 PUSH1 0x24 DUP3 ADD MSTORE PUSH17 0xC6C2DCDCDEE840CAF0CAC6EAE8CA40E8F PUSH1 0x7B SHL PUSH1 0x44 DUP3 ADD MSTORE PUSH1 0x64 SWAP1 REVERT JUMPDEST POP PUSH1 0x2 SLOAD PUSH1 0x4 CALLDATALOAD GT ISZERO PUSH2 0x369 JUMP JUMPDEST POP CALLVALUE PUSH2 0x230 JUMPI PUSH1 0x40 CALLDATASIZE PUSH1 0x3 NOT ADD SLT PUSH2 0x230 JUMPI PUSH1 0x4 CALLDATALOAD SWAP1 PUSH1 0x24 SWAP2 DUP3 CALLDATALOAD CALLER DUP4 MSTORE PUSH1 0x1 SWAP4 PUSH1 0x20 SWAP1 DUP6 DUP3 MSTORE PUSH2 0x1C74 PUSH1 0xFF PUSH1 0x40 DUP8 KECCAK256 SLOAD AND PUSH2 0x2BFE JUMP JUMPDEST PUSH2 0x1C7E DUP4 DUP6 PUSH2 0x344D JUMP JUMPDEST SWAP3 PUSH1 0x2 SWAP1 DUP2 SLOAD DUP1 SWAP6 GT PUSH2 0x1E82 JUMPI DUP1 PUSH2 0x1C9F PUSH2 0x1C99 DUP3 DUP10 PUSH2 0x344D JUMP JUMPDEST DUP8 PUSH2 0x33EC JUMP JUMPDEST LT ISZERO PUSH2 0x1E7B JUMPI PUSH2 0x1CB8 PUSH2 0x1CB2 DUP3 DUP9 PUSH2 0x344D JUMP JUMPDEST DUP7 PUSH2 0x33EC JUMP JUMPDEST SWAP6 JUMPDEST PUSH2 0x1CC3 DUP8 PUSH2 0x2DDD JUMP JUMPDEST SWAP7 PUSH2 0x1CD1 PUSH1 0x40 MLOAD SWAP9 DUP10 PUSH2 0x2B83 JUMP JUMPDEST DUP1 DUP9 MSTORE PUSH2 0x1CE0 PUSH1 0x1F NOT SWAP2 PUSH2 0x2DDD JUMP JUMPDEST ADD DUP6 DUP10 JUMPDEST DUP3 DUP2 LT PUSH2 0x1E65 JUMPI POP POP POP DUP9 DUP9 SWAP1 JUMPDEST PUSH2 0x1D5C JUMPI JUMPDEST POP POP POP POP POP PUSH1 0x40 MLOAD SWAP4 PUSH1 0x40 DUP6 ADD PUSH1 0x40 DUP7 MSTORE DUP5 MLOAD DUP1 SWAP2 MSTORE PUSH1 0x60 DUP7 ADD DUP4 PUSH1 0x60 DUP4 PUSH1 0x5 SHL DUP10 ADD ADD SWAP7 ADD SWAP3 SWAP1 JUMPDEST DUP3 DUP3 LT PUSH2 0x1D33 JUMPI DUP8 DUP1 DUP9 DUP9 DUP9 DUP4 ADD MSTORE SUB SWAP1 RETURN JUMPDEST SWAP1 SWAP2 SWAP3 SWAP6 DUP5 DUP1 PUSH2 0x1D4E DUP12 SWAP4 PUSH1 0x5F NOT DUP13 DUP3 SUB ADD DUP7 MSTORE DUP11 MLOAD PUSH2 0x2A0E JUMP JUMPDEST SWAP9 ADD SWAP3 ADD SWAP3 ADD SWAP1 SWAP3 SWAP2 PUSH2 0x1D20 JUMP JUMPDEST DUP8 MLOAD DUP2 LT ISZERO PUSH2 0x1E60 JUMPI PUSH2 0x1D6F DUP4 DUP4 PUSH2 0x344D JUMP JUMPDEST DUP11 DUP3 ADD SWAP1 DUP2 DUP4 GT PUSH2 0x1E4D JUMPI SWAP1 PUSH2 0x1D84 SWAP2 PUSH2 0x2DF4 JUMP JUMPDEST DUP10 MSTORE DUP10 PUSH1 0x7 DUP11 PUSH2 0x458 PUSH2 0x1DD4 PUSH1 0x40 PUSH1 0x3 SWAP4 DUP5 DUP14 MSTORE KECCAK256 SWAP3 PUSH1 0x40 MLOAD SWAP6 PUSH2 0x1DA7 DUP8 PUSH2 0x2ACD JUMP JUMPDEST PUSH1 0x1 DUP1 PUSH1 0xA0 SHL SUB SWAP1 DUP2 DUP7 SLOAD AND DUP9 MSTORE DUP6 ADD SLOAD AND DUP13 DUP8 ADD MSTORE DUP10 DUP5 ADD SLOAD PUSH1 0x40 DUP8 ADD MSTORE PUSH1 0x40 MLOAD SWAP3 DUP4 DUP1 SWAP3 DUP7 ADD PUSH2 0x2D47 JUMP JUMPDEST PUSH1 0x60 DUP5 ADD MSTORE PUSH1 0x40 MLOAD PUSH2 0x1DED DUP2 PUSH2 0x458 DUP2 PUSH1 0x4 DUP7 ADD PUSH2 0x2D47 JUMP JUMPDEST PUSH1 0x80 DUP5 ADD MSTORE PUSH2 0x1DFE PUSH1 0x5 DUP3 ADD PUSH2 0x2BA4 JUMP JUMPDEST PUSH1 0xA0 DUP5 ADD MSTORE PUSH1 0x6 DUP2 ADD SLOAD PUSH1 0xC0 DUP5 ADD MSTORE ADD SLOAD PUSH1 0xE0 DUP3 ADD MSTORE PUSH2 0x1E1E DUP3 DUP11 PUSH2 0x2E17 JUMP JUMPDEST MSTORE PUSH2 0x1E29 DUP2 DUP10 PUSH2 0x2E17 JUMP JUMPDEST POP DUP10 DUP2 ADD DUP1 SWAP2 GT PUSH2 0x1E3A JUMPI DUP10 PUSH2 0x1CF2 JUMP JUMPDEST PUSH4 0x4E487B71 PUSH1 0xE0 SHL DUP10 MSTORE PUSH1 0x11 PUSH1 0x4 MSTORE DUP5 DUP10 REVERT JUMPDEST PUSH4 0x4E487B71 PUSH1 0xE0 SHL DUP12 MSTORE PUSH1 0x11 PUSH1 0x4 MSTORE DUP7 DUP12 REVERT JUMPDEST PUSH2 0x1CF7 JUMP JUMPDEST PUSH2 0x1E6D PUSH2 0x2CCE JUMP JUMPDEST DUP3 DUP3 DUP13 ADD ADD MSTORE ADD DUP7 SWAP1 PUSH2 0x1CE4 JUMP JUMPDEST DUP1 SWAP6 PUSH2 0x1CBA JUMP JUMPDEST PUSH1 0x40 MLOAD PUSH3 0x461BCD PUSH1 0xE5 SHL DUP2 MSTORE PUSH1 0x4 DUP2 ADD DUP6 SWAP1 MSTORE PUSH1 0x14 DUP2 DUP6 ADD MSTORE PUSH20 0x50616765206973204F7574206F662052616E6765 PUSH1 0x60 SHL PUSH1 0x44 DUP3 ADD MSTORE PUSH1 0x64 SWAP1 REVERT JUMPDEST POP CALLVALUE PUSH2 0x230 JUMPI PUSH1 0x40 CALLDATASIZE PUSH1 0x3 NOT ADD SLT PUSH2 0x230 JUMPI PUSH1 0x4 CALLDATALOAD PUSH1 0x1 PUSH1 0x1 PUSH1 0xA0 SHL SUB DUP2 AND SWAP1 DUP2 SWAP1 SUB PUSH2 0x6B3 JUMPI PUSH2 0x20D SWAP1 PUSH2 0x1F01 PUSH1 0xFF PUSH1 0x40 PUSH1 0x20 SWAP6 CALLER DUP2 MSTORE PUSH1 0x1 DUP8 MSTORE KECCAK256 SLOAD AND PUSH2 0x2BFE JUMP JUMPDEST PUSH1 0x40 MLOAD SWAP1 DUP4 DUP3 ADD MSTORE PUSH1 0x24 CALLDATALOAD PUSH1 0x40 DUP3 ADD MSTORE PUSH1 0x40 DUP2 MSTORE PUSH2 0x1F1E DUP2 PUSH2 0x2B68 JUMP JUMPDEST PUSH1 0x40 MLOAD PUSH2 0x1F2A DUP2 PUSH2 0x2B32 JUMP JUMPDEST PUSH1 0xA DUP2 MSTORE PUSH10 0x2FB9B2B73222BA3432B9 PUSH1 0xB1 SHL DUP5 DUP3 ADD MSTORE CALLER PUSH2 0x2FA1 JUMP JUMPDEST POP CALLVALUE PUSH2 0x230 JUMPI PUSH1 0x20 DUP1 PUSH1 0x3 NOT CALLDATASIZE ADD SLT PUSH2 0x6B3 JUMPI PUSH1 0x4 CALLDATALOAD SWAP1 CALLER DUP4 MSTORE PUSH1 0x1 DUP2 MSTORE PUSH2 0x1F74 PUSH1 0xFF PUSH1 0x40 DUP6 KECCAK256 SLOAD AND PUSH2 0x2BFE JUMP JUMPDEST DUP2 ISZERO ISZERO DUP1 PUSH2 0x2107 JUMPI JUMPDEST PUSH2 0x1F86 SWAP1 PUSH2 0x2C36 JUMP JUMPDEST DUP2 DUP4 MSTORE PUSH1 0x3 DUP2 MSTORE PUSH1 0x40 DUP4 KECCAK256 PUSH1 0x1 ADD SLOAD PUSH2 0x1FA8 SWAP1 PUSH1 0x1 PUSH1 0x1 PUSH1 0xA0 SHL SUB AND ISZERO PUSH2 0x2C82 JUMP JUMPDEST DUP2 DUP4 MSTORE PUSH1 0x4 DUP2 MSTORE PUSH1 0x40 DUP4 KECCAK256 CALLER DUP5 MSTORE DUP2 MSTORE PUSH1 0xFF PUSH1 0x40 DUP5 KECCAK256 SLOAD AND PUSH2 0x20C3 JUMPI DUP2 DUP4 MSTORE PUSH1 0x3 DUP2 MSTORE PUSH1 0x5 PUSH1 0x40 DUP5 KECCAK256 ADD DUP1 SLOAD SWAP1 PUSH9 0x10000000000000000 DUP3 LT ISZERO PUSH2 0x20AF JUMPI PUSH1 0x1 DUP3 ADD DUP1 DUP3 SSTORE DUP3 LT ISZERO PUSH2 0x209B JUMPI DUP5 MSTORE DUP2 DUP5 KECCAK256 ADD DUP1 SLOAD PUSH1 0x1 PUSH1 0x1 PUSH1 0xA0 SHL SUB NOT AND CALLER OR SWAP1 SSTORE DUP2 DUP4 MSTORE PUSH1 0x3 DUP2 MSTORE PUSH1 0x40 DUP4 KECCAK256 PUSH1 0x2 ADD SLOAD PUSH1 0x1 DUP2 ADD SWAP1 DUP2 LT PUSH2 0x2087 JUMPI SWAP1 PUSH1 0x3 SWAP2 DUP4 DUP6 MSTORE DUP3 DUP3 MSTORE PUSH1 0x2 PUSH1 0x40 DUP7 KECCAK256 ADD SSTORE PUSH1 0x4 DUP2 MSTORE PUSH1 0x40 DUP5 KECCAK256 CALLER DUP6 MSTORE DUP2 MSTORE PUSH1 0x40 DUP5 KECCAK256 PUSH1 0x1 PUSH1 0xFF NOT DUP3 SLOAD AND OR SWAP1 SSTORE DUP3 DUP5 MSTORE MSTORE TIMESTAMP PUSH1 0x7 PUSH1 0x40 DUP5 KECCAK256 ADD SSTORE CALLER PUSH32 0x5CBE105E36805F7820E291F799D5794FF948AF2A5F664E580382DEFB63390041 DUP4 DUP1 LOG3 DUP1 RETURN JUMPDEST PUSH4 0x4E487B71 PUSH1 0xE0 SHL DUP5 MSTORE PUSH1 0x11 PUSH1 0x4 MSTORE PUSH1 0x24 DUP5 REVERT JUMPDEST PUSH4 0x4E487B71 PUSH1 0xE0 SHL DUP6 MSTORE PUSH1 0x32 PUSH1 0x4 MSTORE PUSH1 0x24 DUP6 REVERT JUMPDEST PUSH4 0x4E487B71 PUSH1 0xE0 SHL DUP6 MSTORE PUSH1 0x41 PUSH1 0x4 MSTORE PUSH1 0x24 DUP6 REVERT JUMPDEST PUSH1 0x64 SWAP1 PUSH1 0x40 MLOAD SWAP1 PUSH3 0x461BCD PUSH1 0xE5 SHL DUP3 MSTORE PUSH1 0x4 DUP3 ADD MSTORE PUSH1 0x1D PUSH1 0x24 DUP3 ADD MSTORE PUSH32 0x5472616E73616374696F6E20616C726561647920636F6E6669726D6564000000 PUSH1 0x44 DUP3 ADD MSTORE REVERT JUMPDEST POP PUSH1 0x2 SLOAD DUP3 GT ISZERO PUSH2 0x1F7D JUMP JUMPDEST POP CALLVALUE PUSH2 0x230 JUMPI PUSH1 0xA0 CALLDATASIZE PUSH1 0x3 NOT ADD SLT PUSH2 0x230 JUMPI PUSH2 0x212D PUSH2 0x29A2 JUMP JUMPDEST PUSH2 0x2135 PUSH2 0x29B8 JUMP JUMPDEST SWAP1 PUSH1 0x84 CALLDATALOAD SWAP1 PUSH3 0xFFFFFF DUP3 AND DUP1 SWAP3 SUB PUSH2 0x21C3 JUMPI SWAP1 PUSH2 0x20D SWAP3 SWAP2 PUSH2 0x2166 PUSH1 0xFF PUSH1 0x40 PUSH1 0x20 SWAP8 CALLER DUP2 MSTORE PUSH1 0x1 DUP10 MSTORE KECCAK256 SLOAD AND PUSH2 0x2BFE JUMP JUMPDEST PUSH1 0x40 MLOAD SWAP3 PUSH1 0x1 DUP1 PUSH1 0xA0 SHL SUB DUP1 SWAP3 AND DUP7 DUP6 ADD MSTORE AND PUSH1 0x40 DUP4 ADD MSTORE PUSH1 0x44 CALLDATALOAD PUSH1 0x60 DUP4 ADD MSTORE PUSH1 0x64 CALLDATALOAD PUSH1 0x80 DUP4 ADD MSTORE PUSH1 0xA0 DUP3 ADD MSTORE PUSH1 0xA0 DUP2 MSTORE PUSH2 0x21A0 DUP2 PUSH2 0x2B4D JUMP JUMPDEST PUSH1 0x40 MLOAD PUSH2 0x21AC DUP2 PUSH2 0x2B32 JUMP JUMPDEST PUSH1 0x5 DUP2 MSTORE PUSH5 0x5F7377617 PUSH1 0xDC SHL DUP5 DUP3 ADD MSTORE CALLER PUSH2 0x2FA1 JUMP JUMPDEST DUP4 DUP1 REVERT JUMPDEST POP CALLVALUE PUSH2 0x230 JUMPI PUSH2 0x20D PUSH1 0x40 PUSH2 0x2224 PUSH1 0x20 SWAP4 PUSH2 0x21F8 PUSH1 0xFF PUSH2 0x21E6 CALLDATASIZE PUSH2 0x297C JUMP JUMPDEST SWAP6 SWAP1 SWAP4 CALLER DUP2 MSTORE PUSH1 0x1 DUP10 MSTORE KECCAK256 SLOAD AND PUSH2 0x2BFE JUMP JUMPDEST PUSH1 0x40 DUP1 MLOAD DUP7 DUP2 ADD SWAP3 DUP4 MSTORE PUSH1 0x1 PUSH1 0x1 PUSH1 0x80 SHL SUB SWAP1 SWAP5 AND PUSH1 0x20 DUP4 ADD MSTORE DUP4 SWAP2 ADD JUMPDEST SUB PUSH1 0x1F NOT DUP2 ADD DUP4 MSTORE DUP3 PUSH2 0x2B83 JUMP JUMPDEST PUSH1 0x40 MLOAD PUSH2 0x2230 DUP2 PUSH2 0x2B32 JUMP JUMPDEST PUSH1 0xB DUP2 MSTORE PUSH11 0x17DC995B5BDD99541BDBDB PUSH1 0xAA SHL DUP5 DUP3 ADD MSTORE CALLER PUSH2 0x2FA1 JUMP JUMPDEST POP CALLVALUE PUSH2 0x230 JUMPI DUP1 PUSH1 0x3 NOT CALLDATASIZE ADD SLT PUSH2 0x230 JUMPI PUSH1 0x20 PUSH1 0xB SLOAD PUSH1 0x40 MLOAD SWAP1 DUP2 MSTORE RETURN JUMPDEST POP CALLVALUE PUSH2 0x230 JUMPI DUP1 PUSH1 0x3 NOT CALLDATASIZE ADD SLT PUSH2 0x230 JUMPI PUSH1 0x20 PUSH1 0x40 MLOAD PUSH20 0xC36442B4A4522E871399CD717ABDD847AB11FE88 DUP2 MSTORE RETURN JUMPDEST POP CALLVALUE PUSH2 0x230 JUMPI DUP1 PUSH1 0x3 NOT CALLDATASIZE ADD SLT PUSH2 0x230 JUMPI PUSH1 0x40 MLOAD DUP1 SWAP2 DUP1 SLOAD SWAP1 DUP2 DUP4 MSTORE PUSH1 0x20 DUP1 SWAP4 ADD DUP1 SWAP3 DUP3 DUP1 MSTORE PUSH32 0x290DECD9548B62A8D60345A988386FC84BA6BC95484008F6362F93160EF3E563 SWAP1 DUP4 JUMPDEST DUP2 DUP2 LT PUSH2 0x2341 JUMPI POP POP POP DUP5 PUSH2 0x22FA SWAP2 SUB DUP6 PUSH2 0x2B83 JUMP JUMPDEST PUSH1 0x40 MLOAD SWAP4 DUP4 DUP6 SWAP5 DUP6 ADD SWAP2 DUP2 DUP7 MSTORE MLOAD DUP1 SWAP3 MSTORE PUSH1 0x40 DUP6 ADD SWAP4 SWAP3 JUMPDEST DUP3 DUP2 LT PUSH2 0x2321 JUMPI POP POP POP POP SUB SWAP1 RETURN JUMPDEST DUP4 MLOAD PUSH1 0x1 PUSH1 0x1 PUSH1 0xA0 SHL SUB AND DUP6 MSTORE DUP7 SWAP6 POP SWAP4 DUP2 ADD SWAP4 SWAP3 DUP2 ADD SWAP3 PUSH1 0x1 ADD PUSH2 0x2312 JUMP JUMPDEST DUP3 SLOAD PUSH1 0x1 PUSH1 0x1 PUSH1 0xA0 SHL SUB AND DUP5 MSTORE SWAP3 DUP7 ADD SWAP3 PUSH1 0x1 SWAP3 DUP4 ADD SWAP3 ADD PUSH2 0x22E4 JUMP JUMPDEST POP CALLVALUE PUSH2 0x230 JUMPI PUSH1 0x60 CALLDATASIZE PUSH1 0x3 NOT ADD SLT PUSH2 0x230 JUMPI PUSH2 0x20D PUSH1 0x20 SWAP2 PUSH2 0x23D0 PUSH2 0x2381 PUSH2 0x29A2 JUMP JUMPDEST SWAP2 PUSH2 0x23A1 PUSH1 0xFF PUSH1 0x40 PUSH2 0x2391 PUSH2 0x29B8 JUMP JUMPDEST SWAP4 CALLER DUP2 MSTORE PUSH1 0x1 DUP10 MSTORE KECCAK256 SLOAD AND PUSH2 0x2BFE JUMP JUMPDEST PUSH1 0x40 DUP1 MLOAD PUSH1 0x1 PUSH1 0x1 PUSH1 0xA0 SHL SUB SWAP5 DUP6 AND DUP8 DUP3 ADD SWAP1 DUP2 MSTORE SWAP3 SWAP1 SWAP5 AND PUSH1 0x20 DUP4 ADD MSTORE PUSH1 0x44 CALLDATALOAD SWAP1 DUP3 ADD MSTORE DUP3 SWAP1 PUSH1 0x60 ADD PUSH2 0x2216 JUMP JUMPDEST PUSH1 0x40 MLOAD PUSH2 0x23DC DUP2 PUSH2 0x2B32 JUMP JUMPDEST PUSH1 0xE DUP2 MSTORE PUSH14 0x5F7472616E73666572455243323 PUSH1 0x94 SHL DUP5 DUP3 ADD MSTORE CALLER PUSH2 0x2FA1 JUMP JUMPDEST POP CALLVALUE PUSH2 0x230 JUMPI PUSH1 0xA0 CALLDATASIZE PUSH1 0x3 NOT ADD SLT PUSH2 0x230 JUMPI PUSH2 0x20D PUSH1 0x20 SWAP2 PUSH2 0x241C PUSH2 0x29A2 JUMP JUMPDEST PUSH2 0x243B PUSH1 0xFF PUSH1 0x40 PUSH2 0x242B PUSH2 0x29B8 JUMP JUMPDEST SWAP5 CALLER DUP2 MSTORE PUSH1 0x1 DUP9 MSTORE KECCAK256 SLOAD AND PUSH2 0x2BFE JUMP JUMPDEST PUSH1 0x40 MLOAD SWAP2 PUSH1 0x1 DUP1 PUSH1 0xA0 SHL SUB DUP1 SWAP3 AND DUP6 DUP5 ADD MSTORE AND PUSH1 0x40 DUP3 ADD MSTORE PUSH1 0x44 CALLDATALOAD PUSH1 0x60 DUP3 ADD MSTORE PUSH1 0x64 CALLDATALOAD PUSH1 0x80 DUP3 ADD MSTORE PUSH1 0x84 CALLDATALOAD PUSH1 0xA0 DUP3 ADD MSTORE PUSH1 0xA0 DUP2 MSTORE PUSH2 0x2478 DUP2 PUSH2 0x2B4D JUMP JUMPDEST PUSH1 0x40 MLOAD PUSH2 0x2484 DUP2 PUSH2 0x2B32 JUMP JUMPDEST PUSH1 0x1E DUP2 MSTORE PUSH32 0x5F696E6372656173654C697175696469747943757272656E7452616E67650000 DUP5 DUP3 ADD MSTORE CALLER PUSH2 0x2FA1 JUMP JUMPDEST POP CALLVALUE PUSH2 0x230 JUMPI PUSH1 0x40 CALLDATASIZE PUSH1 0x3 NOT ADD SLT PUSH2 0x230 JUMPI PUSH2 0x20D PUSH2 0x2216 PUSH2 0x2507 PUSH1 0x20 SWAP4 PUSH2 0x24E0 PUSH1 0xFF PUSH1 0x40 PUSH2 0x2391 PUSH2 0x29A2 JUMP JUMPDEST PUSH1 0x40 DUP1 MLOAD PUSH1 0x1 PUSH1 0x1 PUSH1 0xA0 SHL SUB SWAP1 SWAP3 AND DUP7 DUP4 ADD SWAP1 DUP2 MSTORE PUSH1 0x24 CALLDATALOAD PUSH1 0x20 DUP3 ADD MSTORE SWAP2 SWAP4 DUP5 SWAP3 SWAP1 SWAP2 ADD SWAP1 JUMP JUMPDEST PUSH1 0x40 MLOAD PUSH2 0x2513 DUP2 PUSH2 0x2B32 JUMP JUMPDEST PUSH1 0xB DUP2 MSTORE PUSH11 0xBEEADCEEE4C2E0AE8AA89 PUSH1 0xAB SHL DUP5 DUP3 ADD MSTORE CALLER PUSH2 0x2FA1 JUMP JUMPDEST POP CALLVALUE PUSH2 0x230 JUMPI PUSH1 0x20 SWAP1 DUP2 PUSH1 0x3 NOT CALLDATASIZE ADD SLT PUSH2 0x230 JUMPI PUSH1 0xFF PUSH1 0x40 PUSH2 0x255B SWAP3 CALLER DUP2 MSTORE PUSH1 0x1 DUP6 MSTORE KECCAK256 SLOAD AND PUSH2 0x2BFE JUMP JUMPDEST PUSH2 0x20D PUSH1 0x40 MLOAD PUSH1 0x4 CALLDATALOAD DUP4 DUP3 ADD MSTORE DUP3 DUP2 MSTORE PUSH2 0x2574 DUP2 PUSH2 0x2B32 JUMP JUMPDEST PUSH1 0x40 MLOAD PUSH2 0x2580 DUP2 PUSH2 0x2B32 JUMP JUMPDEST PUSH1 0xF DUP2 MSTORE PUSH15 0x5F636F6C6C656374416C6C46656573 PUSH1 0x88 SHL DUP5 DUP3 ADD MSTORE CALLER PUSH2 0x2FA1 JUMP JUMPDEST POP CALLVALUE PUSH2 0x230 JUMPI PUSH1 0x20 SWAP1 DUP2 PUSH1 0x3 NOT CALLDATASIZE ADD SLT PUSH2 0x230 JUMPI PUSH1 0x40 SWAP1 PUSH2 0x25C0 PUSH2 0x2CCE JUMP JUMPDEST POP CALLER DUP2 MSTORE PUSH1 0x1 DUP4 MSTORE PUSH2 0x25D7 PUSH1 0xFF DUP4 DUP4 KECCAK256 SLOAD AND PUSH2 0x2BFE JUMP JUMPDEST PUSH1 0x4 CALLDATALOAD DUP2 MSTORE PUSH1 0x3 DUP4 MSTORE KECCAK256 SWAP1 PUSH1 0x7 PUSH1 0x40 MLOAD SWAP3 PUSH2 0x25F1 DUP5 PUSH2 0x2ACD JUMP JUMPDEST PUSH1 0x1 DUP1 PUSH1 0xA0 SHL SUB DUP1 DUP3 SLOAD AND DUP6 MSTORE PUSH1 0x1 DUP3 ADD SLOAD AND DUP4 DUP6 ADD MSTORE PUSH1 0x2 DUP2 ADD SLOAD PUSH1 0x40 DUP6 ADD MSTORE PUSH1 0x40 MLOAD PUSH2 0x2626 DUP2 PUSH2 0x458 DUP2 PUSH1 0x3 DUP7 ADD PUSH2 0x2D47 JUMP JUMPDEST PUSH1 0x60 DUP6 ADD MSTORE PUSH1 0x40 MLOAD PUSH2 0x263F DUP2 PUSH2 0x458 DUP2 PUSH1 0x4 DUP7 ADD PUSH2 0x2D47 JUMP JUMPDEST PUSH1 0x80 DUP6 ADD MSTORE PUSH2 0x2650 PUSH1 0x5 DUP3 ADD PUSH2 0x2BA4 JUMP JUMPDEST PUSH1 0xA0 DUP6 ADD MSTORE PUSH1 0x6 DUP2 ADD SLOAD PUSH1 0xC0 DUP6 ADD MSTORE ADD SLOAD PUSH1 0xE0 DUP4 ADD MSTORE PUSH2 0x267A PUSH1 0x40 MLOAD SWAP3 DUP3 DUP5 SWAP4 DUP5 MSTORE DUP4 ADD SWAP1 PUSH2 0x2A0E JUMP JUMPDEST SUB SWAP1 RETURN JUMPDEST POP CALLVALUE PUSH2 0x230 JUMPI DUP1 PUSH1 0x3 NOT CALLDATASIZE ADD SLT PUSH2 0x230 JUMPI PUSH1 0xA SLOAD PUSH1 0x40 MLOAD PUSH1 0x1 PUSH1 0x1 PUSH1 0xA0 SHL SUB SWAP1 SWAP2 AND DUP2 MSTORE PUSH1 0x20 SWAP1 RETURN JUMPDEST POP CALLVALUE PUSH2 0x230 JUMPI PUSH1 0x40 CALLDATASIZE PUSH1 0x3 NOT ADD SLT PUSH2 0x230 JUMPI PUSH2 0x20D PUSH2 0x2216 PUSH2 0x26D4 PUSH1 0x20 SWAP4 PUSH2 0x24E0 PUSH1 0xFF PUSH1 0x40 PUSH2 0x2391 PUSH2 0x29A2 JUMP JUMPDEST PUSH1 0x40 MLOAD PUSH2 0x26E0 DUP2 PUSH2 0x2B32 JUMP JUMPDEST PUSH1 0x8 DUP2 MSTORE PUSH8 0xBEEEE4C2E08AA89 PUSH1 0xC3 SHL DUP5 DUP3 ADD MSTORE CALLER PUSH2 0x2FA1 JUMP JUMPDEST POP CALLVALUE PUSH2 0x230 JUMPI PUSH2 0x20D PUSH1 0x40 PUSH2 0x2719 PUSH1 0x20 SWAP4 PUSH2 0x21F8 PUSH1 0xFF PUSH2 0x21E6 CALLDATASIZE PUSH2 0x297C JUMP JUMPDEST PUSH1 0x40 MLOAD PUSH2 0x2725 DUP2 PUSH2 0x2B32 JUMP JUMPDEST PUSH1 0x1E DUP2 MSTORE PUSH32 0x5F64656372656173654C697175696469747943757272656E7452616E67650000 DUP5 DUP3 ADD MSTORE CALLER PUSH2 0x2FA1 JUMP JUMPDEST SWAP1 POP CALLVALUE PUSH2 0x6B3 JUMPI DUP2 PUSH1 0x3 NOT CALLDATASIZE ADD SLT PUSH2 0x6B3 JUMPI PUSH1 0xA SLOAD PUSH4 0x70A08231 PUSH1 0xE0 SHL DUP3 MSTORE CALLER PUSH1 0x4 DUP4 ADD MSTORE PUSH1 0x20 SWAP2 SWAP1 PUSH1 0x1 PUSH1 0x1 PUSH1 0xA0 SHL SUB SWAP1 DUP2 AND SWAP1 DUP4 DUP4 PUSH1 0x24 DUP2 DUP6 GAS STATICCALL SWAP3 DUP4 ISZERO PUSH2 0x1ACB JUMPI DUP6 SWAP4 PUSH2 0x294D JUMPI JUMPDEST POP PUSH1 0xB SLOAD DUP1 SWAP4 LT PUSH2 0x2908 JUMPI PUSH1 0x40 MLOAD PUSH4 0x6EB1769F PUSH1 0xE1 SHL DUP2 MSTORE CALLER PUSH1 0x4 DUP3 ADD MSTORE ADDRESS PUSH1 0x24 DUP3 ADD MSTORE DUP5 DUP2 PUSH1 0x44 DUP2 DUP7 GAS STATICCALL DUP1 ISZERO PUSH2 0xFAD JUMPI DUP5 SWAP2 DUP8 SWAP2 PUSH2 0x28D3 JUMPI JUMPDEST POP LT PUSH2 0x288E JUMPI PUSH1 0x6 SLOAD PUSH1 0x40 MLOAD PUSH4 0x23B872DD PUSH1 0xE0 SHL DUP2 MSTORE CALLER PUSH1 0x4 DUP3 ADD MSTORE SWAP2 AND PUSH1 0x1 PUSH1 0x1 PUSH1 0xA0 SHL SUB AND PUSH1 0x24 DUP3 ADD MSTORE PUSH1 0x44 DUP2 ADD SWAP3 SWAP1 SWAP3 MSTORE DUP3 SWAP1 DUP3 SWAP1 DUP2 DUP7 DUP2 PUSH1 0x64 DUP2 ADD SUB SWAP3 GAS CALL SWAP1 DUP2 ISZERO PUSH2 0x329 JUMPI DUP4 SWAP2 PUSH2 0x2871 JUMPI JUMPDEST POP ISZERO PUSH2 0x2835 JUMPI POP DUP1 RETURN JUMPDEST PUSH1 0x64 SWAP1 PUSH1 0x40 MLOAD SWAP1 PUSH3 0x461BCD PUSH1 0xE5 SHL DUP3 MSTORE PUSH1 0x4 DUP3 ADD MSTORE PUSH1 0x15 PUSH1 0x24 DUP3 ADD MSTORE PUSH21 0x151BDAD95B881D1C985B9CD9995C8819985A5B1959 PUSH1 0x5A SHL PUSH1 0x44 DUP3 ADD MSTORE REVERT JUMPDEST PUSH2 0x2888 SWAP2 POP DUP3 RETURNDATASIZE DUP5 GT PUSH2 0x6A1 JUMPI PUSH2 0x693 DUP2 DUP4 PUSH2 0x2B83 JUMP JUMPDEST CODESIZE PUSH2 0x282B JUMP JUMPDEST PUSH1 0x40 MLOAD PUSH3 0x461BCD PUSH1 0xE5 SHL DUP2 MSTORE PUSH1 0x4 DUP2 ADD DUP6 SWAP1 MSTORE PUSH1 0x17 PUSH1 0x24 DUP3 ADD MSTORE PUSH32 0x546F6B656E20616C6C6F77616E636520746F6F206C6F77000000000000000000 PUSH1 0x44 DUP3 ADD MSTORE PUSH1 0x64 SWAP1 REVERT JUMPDEST DUP1 SWAP3 POP DUP7 DUP1 SWAP3 POP RETURNDATASIZE DUP4 GT PUSH2 0x2901 JUMPI JUMPDEST PUSH2 0x28EC DUP2 DUP4 PUSH2 0x2B83 JUMP JUMPDEST DUP2 ADD SUB SLT PUSH2 0x28FD JUMPI DUP4 SWAP1 MLOAD CODESIZE PUSH2 0x27DA JUMP JUMPDEST DUP6 DUP1 REVERT JUMPDEST POP RETURNDATASIZE PUSH2 0x28E2 JUMP JUMPDEST PUSH1 0x40 MLOAD PUSH3 0x461BCD PUSH1 0xE5 SHL DUP2 MSTORE PUSH1 0x4 DUP2 ADD DUP6 SWAP1 MSTORE PUSH1 0x1A PUSH1 0x24 DUP3 ADD MSTORE PUSH32 0x496E73756666696369656E7420746F6B656E2062616C616E6365000000000000 PUSH1 0x44 DUP3 ADD MSTORE PUSH1 0x64 SWAP1 REVERT JUMPDEST SWAP1 SWAP3 POP DUP4 DUP2 DUP2 RETURNDATASIZE DUP4 GT PUSH2 0x2975 JUMPI JUMPDEST PUSH2 0x2965 DUP2 DUP4 PUSH2 0x2B83 JUMP JUMPDEST DUP2 ADD SUB SLT PUSH2 0x1ABF JUMPI MLOAD SWAP2 CODESIZE PUSH2 0x279F JUMP JUMPDEST POP RETURNDATASIZE PUSH2 0x295B JUMP JUMPDEST PUSH1 0x40 SWAP1 PUSH1 0x3 NOT ADD SLT PUSH2 0x22B JUMPI PUSH1 0x4 CALLDATALOAD SWAP1 PUSH1 0x24 CALLDATALOAD PUSH1 0x1 PUSH1 0x1 PUSH1 0x80 SHL SUB DUP2 AND DUP2 SUB PUSH2 0x22B JUMPI SWAP1 JUMP JUMPDEST PUSH1 0x4 CALLDATALOAD SWAP1 PUSH1 0x1 PUSH1 0x1 PUSH1 0xA0 SHL SUB DUP3 AND DUP3 SUB PUSH2 0x22B JUMPI JUMP JUMPDEST PUSH1 0x24 CALLDATALOAD SWAP1 PUSH1 0x1 PUSH1 0x1 PUSH1 0xA0 SHL SUB DUP3 AND DUP3 SUB PUSH2 0x22B JUMPI JUMP JUMPDEST SWAP2 SWAP1 DUP3 MLOAD SWAP3 DUP4 DUP3 MSTORE PUSH1 0x0 JUMPDEST DUP5 DUP2 LT PUSH2 0x29FA JUMPI POP POP DUP3 PUSH1 0x0 PUSH1 0x20 DUP1 SWAP5 SWAP6 DUP5 ADD ADD MSTORE PUSH1 0x1F DUP1 NOT SWAP2 ADD AND ADD ADD SWAP1 JUMP JUMPDEST PUSH1 0x20 DUP2 DUP4 ADD DUP2 ADD MLOAD DUP5 DUP4 ADD DUP3 ADD MSTORE ADD PUSH2 0x29D9 JUMP JUMPDEST SWAP1 PUSH1 0x1 DUP1 PUSH1 0xA0 SHL SUB SWAP2 DUP3 DUP2 MLOAD AND DUP3 MSTORE PUSH1 0x20 SWAP3 DUP1 DUP5 DUP4 ADD MLOAD AND DUP5 DUP5 ADD MSTORE PUSH1 0x40 DUP3 ADD MLOAD PUSH1 0x40 DUP5 ADD MSTORE PUSH2 0x2A62 PUSH2 0x2A50 PUSH1 0x60 DUP5 ADD MLOAD PUSH2 0x100 DUP1 PUSH1 0x60 DUP9 ADD MSTORE DUP7 ADD SWAP1 PUSH2 0x29CE JUMP JUMPDEST PUSH1 0x80 DUP5 ADD MLOAD DUP6 DUP3 SUB PUSH1 0x80 DUP8 ADD MSTORE PUSH2 0x29CE JUMP JUMPDEST PUSH1 0xA0 DUP4 ADD MLOAD SWAP5 DUP5 DUP3 SUB PUSH1 0xA0 DUP7 ADD MSTORE DUP1 DUP1 DUP8 MLOAD SWAP4 DUP5 DUP2 MSTORE ADD SWAP7 ADD SWAP3 PUSH1 0x0 SWAP1 JUMPDEST DUP4 DUP3 LT PUSH2 0x2AA2 JUMPI POP POP POP POP POP PUSH1 0xE0 DUP2 PUSH1 0xC0 DUP3 SWAP4 ADD MLOAD PUSH1 0xC0 DUP6 ADD MSTORE ADD MLOAD SWAP2 ADD MSTORE SWAP1 JUMP JUMPDEST DUP5 MLOAD DUP2 AND DUP9 MSTORE SWAP7 DUP3 ADD SWAP7 SWAP4 DUP3 ADD SWAP4 PUSH1 0x1 SWAP1 SWAP2 ADD SWAP1 PUSH2 0x2A80 JUMP JUMPDEST PUSH1 0x44 CALLDATALOAD SWAP1 PUSH3 0xFFFFFF DUP3 AND DUP3 SUB PUSH2 0x22B JUMPI JUMP JUMPDEST PUSH2 0x100 DUP2 ADD SWAP1 DUP2 LT PUSH1 0x1 PUSH1 0x1 PUSH1 0x40 SHL SUB DUP3 GT OR PUSH2 0x215 JUMPI PUSH1 0x40 MSTORE JUMP JUMPDEST PUSH1 0xA0 DUP2 ADD SWAP1 DUP2 LT PUSH1 0x1 PUSH1 0x1 PUSH1 0x40 SHL SUB DUP3 GT OR PUSH2 0x215 JUMPI PUSH1 0x40 MSTORE JUMP JUMPDEST PUSH1 0x80 DUP2 ADD SWAP1 DUP2 LT PUSH1 0x1 PUSH1 0x1 PUSH1 0x40 SHL SUB DUP3 GT OR PUSH2 0x215 JUMPI PUSH1 0x40 MSTORE JUMP JUMPDEST PUSH1 0x1 PUSH1 0x1 PUSH1 0x40 SHL SUB DUP2 GT PUSH2 0x215 JUMPI PUSH1 0x40 MSTORE JUMP JUMPDEST PUSH1 0x40 DUP2 ADD SWAP1 DUP2 LT PUSH1 0x1 PUSH1 0x1 PUSH1 0x40 SHL SUB DUP3 GT OR PUSH2 0x215 JUMPI PUSH1 0x40 MSTORE JUMP JUMPDEST PUSH1 0xC0 DUP2 ADD SWAP1 DUP2 LT PUSH1 0x1 PUSH1 0x1 PUSH1 0x40 SHL SUB DUP3 GT OR PUSH2 0x215 JUMPI PUSH1 0x40 MSTORE JUMP JUMPDEST PUSH1 0x60 DUP2 ADD SWAP1 DUP2 LT PUSH1 0x1 PUSH1 0x1 PUSH1 0x40 SHL SUB DUP3 GT OR PUSH2 0x215 JUMPI PUSH1 0x40 MSTORE JUMP JUMPDEST SWAP1 PUSH1 0x1F DUP1 NOT SWAP2 ADD AND DUP2 ADD SWAP1 DUP2 LT PUSH1 0x1 PUSH1 0x1 PUSH1 0x40 SHL SUB DUP3 GT OR PUSH2 0x215 JUMPI PUSH1 0x40 MSTORE JUMP JUMPDEST SWAP1 PUSH1 0x40 MLOAD SWAP2 DUP3 DUP2 SLOAD SWAP2 DUP3 DUP3 MSTORE PUSH1 0x20 SWAP3 DUP4 DUP4 ADD SWAP2 PUSH1 0x0 MSTORE DUP4 PUSH1 0x0 KECCAK256 SWAP4 PUSH1 0x0 SWAP1 JUMPDEST DUP3 DUP3 LT PUSH2 0x2BDB JUMPI POP POP POP PUSH2 0x2BD9 SWAP3 POP SUB DUP4 PUSH2 0x2B83 JUMP JUMPDEST JUMP JUMPDEST DUP6 SLOAD PUSH1 0x1 PUSH1 0x1 PUSH1 0xA0 SHL SUB AND DUP5 MSTORE PUSH1 0x1 SWAP6 DUP7 ADD SWAP6 DUP9 SWAP6 POP SWAP4 DUP2 ADD SWAP4 SWAP1 SWAP2 ADD SWAP1 PUSH2 0x2BC3 JUMP JUMPDEST ISZERO PUSH2 0x2C05 JUMPI JUMP JUMPDEST PUSH1 0x40 MLOAD PUSH3 0x461BCD PUSH1 0xE5 SHL DUP2 MSTORE PUSH1 0x20 PUSH1 0x4 DUP3 ADD MSTORE PUSH1 0x9 PUSH1 0x24 DUP3 ADD MSTORE PUSH9 0x3737BA1037BBB732B9 PUSH1 0xB9 SHL PUSH1 0x44 DUP3 ADD MSTORE PUSH1 0x64 SWAP1 REVERT JUMPDEST ISZERO PUSH2 0x2C3D JUMPI JUMP JUMPDEST PUSH1 0x40 MLOAD PUSH3 0x461BCD PUSH1 0xE5 SHL DUP2 MSTORE PUSH1 0x20 PUSH1 0x4 DUP3 ADD MSTORE PUSH1 0x1A PUSH1 0x24 DUP3 ADD MSTORE PUSH32 0x5472616E73616374696F6E20646F6573206E6F74206578697374000000000000 PUSH1 0x44 DUP3 ADD MSTORE PUSH1 0x64 SWAP1 REVERT JUMPDEST ISZERO PUSH2 0x2C89 JUMPI JUMP JUMPDEST PUSH1 0x40 MLOAD PUSH3 0x461BCD PUSH1 0xE5 SHL DUP2 MSTORE PUSH1 0x20 PUSH1 0x4 DUP3 ADD MSTORE PUSH1 0x1C PUSH1 0x24 DUP3 ADD MSTORE PUSH32 0x5472616E73616374696F6E20616C726561647920657865637574656400000000 PUSH1 0x44 DUP3 ADD MSTORE PUSH1 0x64 SWAP1 REVERT JUMPDEST PUSH1 0x40 MLOAD SWAP1 PUSH2 0x2CDB DUP3 PUSH2 0x2ACD JUMP JUMPDEST PUSH1 0x0 PUSH1 0xE0 DUP4 DUP3 DUP2 MSTORE DUP3 PUSH1 0x20 DUP3 ADD MSTORE DUP3 PUSH1 0x40 DUP3 ADD MSTORE PUSH1 0x60 DUP1 DUP3 ADD MSTORE PUSH1 0x60 PUSH1 0x80 DUP3 ADD MSTORE PUSH1 0x60 PUSH1 0xA0 DUP3 ADD MSTORE DUP3 PUSH1 0xC0 DUP3 ADD MSTORE ADD MSTORE JUMP JUMPDEST SWAP1 PUSH1 0x1 DUP3 DUP2 SHR SWAP3 AND DUP1 ISZERO PUSH2 0x2D3D JUMPI JUMPDEST PUSH1 0x20 DUP4 LT EQ PUSH2 0x2D27 JUMPI JUMP JUMPDEST PUSH4 0x4E487B71 PUSH1 0xE0 SHL PUSH1 0x0 MSTORE PUSH1 0x22 PUSH1 0x4 MSTORE PUSH1 0x24 PUSH1 0x0 REVERT JUMPDEST SWAP2 PUSH1 0x7F AND SWAP2 PUSH2 0x2D1C JUMP JUMPDEST SWAP1 PUSH1 0x0 SWAP3 SWAP2 DUP1 SLOAD SWAP2 PUSH2 0x2D58 DUP4 PUSH2 0x2D0D JUMP JUMPDEST SWAP2 DUP3 DUP3 MSTORE PUSH1 0x1 SWAP4 DUP5 DUP2 AND SWAP1 DUP2 PUSH1 0x0 EQ PUSH2 0x2DBA JUMPI POP PUSH1 0x1 EQ PUSH2 0x2D7A JUMPI JUMPDEST POP POP POP POP JUMP JUMPDEST SWAP1 SWAP2 SWAP4 SWAP5 POP PUSH1 0x0 MSTORE PUSH1 0x20 SWAP3 DUP4 PUSH1 0x0 KECCAK256 SWAP3 DUP5 PUSH1 0x0 SWAP5 JUMPDEST DUP4 DUP7 LT PUSH2 0x2DA6 JUMPI POP POP POP POP ADD ADD SWAP1 CODESIZE DUP1 DUP1 DUP1 PUSH2 0x2D74 JUMP JUMPDEST DUP1 SLOAD DUP6 DUP8 ADD DUP4 ADD MSTORE SWAP5 ADD SWAP4 DUP6 SWAP1 DUP3 ADD PUSH2 0x2D8F JUMP JUMPDEST SWAP3 SWAP5 POP POP POP PUSH1 0x20 SWAP4 SWAP5 POP PUSH1 0xFF NOT AND DUP4 DUP4 ADD MSTORE ISZERO ISZERO PUSH1 0x5 SHL ADD ADD SWAP1 CODESIZE DUP1 DUP1 DUP1 PUSH2 0x2D74 JUMP JUMPDEST PUSH1 0x1 PUSH1 0x1 PUSH1 0x40 SHL SUB DUP2 GT PUSH2 0x215 JUMPI PUSH1 0x5 SHL PUSH1 0x20 ADD SWAP1 JUMP JUMPDEST SWAP2 SWAP1 DUP3 ADD DUP1 SWAP3 GT PUSH2 0x2E01 JUMPI JUMP JUMPDEST PUSH4 0x4E487B71 PUSH1 0xE0 SHL PUSH1 0x0 MSTORE PUSH1 0x11 PUSH1 0x4 MSTORE PUSH1 0x24 PUSH1 0x0 REVERT JUMPDEST DUP1 MLOAD DUP3 LT ISZERO PUSH2 0x2E2B JUMPI PUSH1 0x20 SWAP2 PUSH1 0x5 SHL ADD ADD SWAP1 JUMP JUMPDEST PUSH4 0x4E487B71 PUSH1 0xE0 SHL PUSH1 0x0 MSTORE PUSH1 0x32 PUSH1 0x4 MSTORE PUSH1 0x24 PUSH1 0x0 REVERT JUMPDEST SWAP1 DUP2 PUSH1 0x20 SWAP2 SUB SLT PUSH2 0x22B JUMPI MLOAD DUP1 ISZERO ISZERO DUP2 SUB PUSH2 0x22B JUMPI SWAP1 JUMP JUMPDEST PUSH1 0x0 SWAP3 SWAP2 DUP2 SLOAD PUSH2 0x2E68 DUP2 PUSH2 0x2D0D JUMP JUMPDEST SWAP3 PUSH1 0x1 SWAP2 DUP1 DUP4 AND SWAP1 DUP2 ISZERO PUSH2 0x2EC0 JUMPI POP PUSH1 0x1 EQ PUSH2 0x2E84 JUMPI POP POP POP POP JUMP JUMPDEST SWAP1 SWAP2 SWAP3 SWAP4 SWAP5 POP PUSH1 0x0 MSTORE PUSH1 0x20 SWAP1 DUP2 PUSH1 0x0 KECCAK256 SWAP1 PUSH1 0x0 SWAP2 JUMPDEST DUP6 DUP4 LT PUSH2 0x2EAF JUMPI POP POP POP POP ADD SWAP1 CODESIZE DUP1 DUP1 DUP1 PUSH2 0x2D74 JUMP JUMPDEST DUP1 SLOAD DUP6 DUP5 ADD MSTORE SWAP2 DUP4 ADD SWAP2 DUP2 ADD PUSH2 0x2E99 JUMP JUMPDEST PUSH1 0xFF NOT AND DUP5 MSTORE POP POP POP DUP2 ISZERO ISZERO SWAP1 SWAP2 MUL ADD SWAP2 POP CODESIZE DUP1 DUP1 DUP1 PUSH2 0x2D74 JUMP JUMPDEST MLOAD SWAP1 PUSH1 0x1 PUSH1 0x1 PUSH1 0xA0 SHL SUB DUP3 AND DUP3 SUB PUSH2 0x22B JUMPI JUMP JUMPDEST SWAP2 SWAP1 DUP3 PUSH1 0x40 SWAP2 SUB SLT PUSH2 0x22B JUMPI PUSH1 0x20 PUSH2 0x2F06 DUP4 PUSH2 0x2EDB JUMP JUMPDEST SWAP3 ADD MLOAD SWAP1 JUMP JUMPDEST MLOAD SWAP1 PUSH1 0x1 PUSH1 0x1 PUSH1 0x80 SHL SUB DUP3 AND DUP3 SUB PUSH2 0x22B JUMPI JUMP JUMPDEST SWAP2 SWAP1 DUP3 PUSH1 0x40 SWAP2 SUB SLT PUSH2 0x22B JUMPI PUSH2 0x2F3A PUSH1 0x20 DUP4 MLOAD SWAP4 ADD PUSH2 0x2F0C JUMP JUMPDEST SWAP1 JUMP JUMPDEST MLOAD SWAP1 PUSH3 0xFFFFFF DUP3 AND DUP3 SUB PUSH2 0x22B JUMPI JUMP JUMPDEST SWAP1 PUSH1 0x1F DUP2 GT PUSH2 0x2F5B JUMPI POP POP POP JUMP JUMPDEST PUSH1 0x0 SWAP2 DUP3 MSTORE PUSH1 0x20 DUP3 KECCAK256 SWAP1 PUSH1 0x20 PUSH1 0x1F DUP6 ADD PUSH1 0x5 SHR DUP4 ADD SWAP5 LT PUSH2 0x2F97 JUMPI JUMPDEST PUSH1 0x1F ADD PUSH1 0x5 SHR ADD SWAP2 JUMPDEST DUP3 DUP2 LT PUSH2 0x2F8C JUMPI POP POP POP JUMP JUMPDEST DUP2 DUP2 SSTORE PUSH1 0x1 ADD PUSH2 0x2F80 JUMP JUMPDEST SWAP1 SWAP3 POP DUP3 SWAP1 PUSH2 0x2F77 JUMP JUMPDEST SWAP1 SWAP3 SWAP2 SWAP1 PUSH1 0x1 PUSH1 0x1 PUSH1 0xA0 SHL SUB AND DUP1 ISZERO PUSH2 0x329E JUMPI DUP4 MLOAD ISZERO PUSH2 0x3259 JUMPI DUP2 MLOAD ISZERO PUSH2 0x321D JUMPI PUSH1 0x2 DUP1 SLOAD SWAP3 PUSH1 0x1 SWAP1 DUP2 DUP6 ADD DUP1 SWAP6 GT PUSH2 0x2E01 JUMPI DUP5 DUP4 SSTORE PUSH1 0x0 SWAP5 DUP6 MSTORE PUSH1 0x3 SWAP1 PUSH1 0x20 SWAP1 DUP3 DUP3 MSTORE PUSH1 0x40 SWAP4 DUP5 DUP9 KECCAK256 PUSH12 0xFFFFFFFFFFFFFFFFFFFFFFFF PUSH1 0xA0 SHL SWAP1 DUP9 DUP3 DUP3 SLOAD AND OR SWAP1 SSTORE DUP7 SLOAD DUP10 MSTORE DUP2 DUP7 DUP11 KECCAK256 ADD SWAP1 DUP2 SLOAD AND SWAP1 SSTORE DUP6 SLOAD DUP9 MSTORE DUP4 DUP6 DUP10 KECCAK256 ADD DUP11 MLOAD PUSH1 0x1 PUSH1 0x1 PUSH1 0x40 SHL SUB SWAP12 DUP13 DUP3 GT PUSH2 0x3209 JUMPI DUP2 SWAP1 PUSH2 0x3044 DUP3 PUSH2 0x303E DUP7 SLOAD PUSH2 0x2D0D JUMP JUMPDEST DUP7 PUSH2 0x2F4D JUMP JUMPDEST DUP7 SWAP1 PUSH1 0x1F DUP4 GT PUSH1 0x1 EQ PUSH2 0x31AB JUMPI DUP13 SWAP3 PUSH2 0x31A0 JUMPI JUMPDEST POP POP PUSH1 0x0 NOT DUP3 DUP9 SHL SHR NOT AND SWAP1 DUP4 SHL OR SWAP1 SSTORE JUMPDEST DUP6 SLOAD DUP9 MSTORE DUP4 DUP4 MSTORE PUSH1 0x4 DUP6 DUP10 KECCAK256 ADD SWAP2 DUP1 MLOAD SWAP11 DUP12 GT PUSH2 0x318C JUMPI PUSH2 0x3095 DUP12 PUSH2 0x308F DUP6 SLOAD PUSH2 0x2D0D JUMP JUMPDEST DUP6 PUSH2 0x2F4D JUMP JUMPDEST DUP4 SWAP1 PUSH1 0x1F DUP13 GT PUSH1 0x1 EQ PUSH2 0x310F JUMPI SWAP11 DUP1 SWAP3 DUP2 SWAP3 PUSH32 0xC82555D64D2B8B25FFEFC140AE6575736763EE3A99347632D7F633E7BFAE3F78 SWAP13 SWAP14 DUP13 SWAP5 PUSH2 0x3104 JUMPI JUMPDEST POP POP SHL SWAP2 PUSH1 0x0 NOT SWAP1 DUP7 SHL SHR NOT AND OR SWAP1 SSTORE JUMPDEST DUP4 SLOAD DUP7 MSTORE MSTORE TIMESTAMP PUSH1 0x6 DUP3 DUP7 KECCAK256 ADD SSTORE DUP2 SLOAD DUP5 MSTORE PUSH1 0x7 TIMESTAMP SWAP2 DUP6 KECCAK256 ADD SSTORE SLOAD SWAP3 DUP3 DUP5 SWAP4 LOG3 SWAP1 JUMP JUMPDEST ADD MLOAD SWAP3 POP CODESIZE DUP1 PUSH2 0x30D1 JUMP JUMPDEST DUP4 DUP11 MSTORE DUP5 DUP11 KECCAK256 SWAP1 SWAP12 SWAP2 PUSH1 0x1F NOT DUP4 AND DUP12 JUMPDEST DUP2 DUP2 LT PUSH2 0x3177 JUMPI POP SWAP13 DUP4 PUSH32 0xC82555D64D2B8B25FFEFC140AE6575736763EE3A99347632D7F633E7BFAE3F78 SWAP14 SWAP15 LT PUSH2 0x315F JUMPI JUMPDEST POP POP POP DUP2 SHL ADD SWAP1 SSTORE PUSH2 0x30E2 JUMP JUMPDEST ADD MLOAD PUSH1 0x0 NOT DUP4 DUP9 SHL PUSH1 0xF8 AND SHR NOT AND SWAP1 SSTORE CODESIZE DUP1 DUP1 PUSH2 0x3152 JUMP JUMPDEST DUP15 DUP4 ADD MLOAD DUP5 SSTORE SWAP3 DUP6 ADD SWAP3 SWAP2 DUP8 ADD SWAP2 DUP8 ADD PUSH2 0x311F JUMP JUMPDEST PUSH4 0x4E487B71 PUSH1 0xE0 SHL DUP10 MSTORE PUSH1 0x41 PUSH1 0x4 MSTORE PUSH1 0x24 DUP10 REVERT JUMPDEST ADD MLOAD SWAP1 POP CODESIZE DUP1 PUSH2 0x3058 JUMP JUMPDEST DUP5 DUP14 MSTORE DUP8 DUP14 KECCAK256 DUP7 SWAP5 POP SWAP2 SWAP1 PUSH1 0x1F NOT DUP5 AND DUP15 JUMPDEST DUP11 DUP3 DUP3 LT PUSH2 0x31F3 JUMPI POP POP DUP5 GT PUSH2 0x31DB JUMPI JUMPDEST POP POP POP DUP2 SHL ADD SWAP1 SSTORE PUSH2 0x306A JUMP JUMPDEST ADD MLOAD PUSH1 0x0 NOT DUP4 DUP11 SHL PUSH1 0xF8 AND SHR NOT AND SWAP1 SSTORE CODESIZE DUP1 DUP1 PUSH2 0x31CE JUMP JUMPDEST DUP4 DUP6 ADD MLOAD DUP7 SSTORE DUP10 SWAP8 SWAP1 SWAP6 ADD SWAP5 SWAP4 DUP5 ADD SWAP4 ADD PUSH2 0x31BD JUMP JUMPDEST PUSH4 0x4E487B71 PUSH1 0xE0 SHL DUP12 MSTORE PUSH1 0x41 PUSH1 0x4 MSTORE PUSH1 0x24 DUP12 REVERT JUMPDEST PUSH1 0x40 MLOAD PUSH3 0x461BCD PUSH1 0xE5 SHL DUP2 MSTORE PUSH1 0x20 PUSH1 0x4 DUP3 ADD MSTORE PUSH1 0x14 PUSH1 0x24 DUP3 ADD MSTORE PUSH20 0x151A194811185D18481A5CC81C995C5D5A5C9959 PUSH1 0x62 SHL PUSH1 0x44 DUP3 ADD MSTORE PUSH1 0x64 SWAP1 REVERT JUMPDEST PUSH1 0x40 MLOAD PUSH3 0x461BCD PUSH1 0xE5 SHL DUP2 MSTORE PUSH1 0x20 PUSH1 0x4 DUP3 ADD MSTORE PUSH1 0x1D PUSH1 0x24 DUP3 ADD MSTORE PUSH32 0x5468652046756E6374696F6E206E616D65206973207265717569726564000000 PUSH1 0x44 DUP3 ADD MSTORE PUSH1 0x64 SWAP1 REVERT JUMPDEST PUSH1 0x40 MLOAD PUSH3 0x461BCD PUSH1 0xE5 SHL DUP2 MSTORE PUSH1 0x20 PUSH1 0x4 DUP3 ADD MSTORE PUSH1 0x18 PUSH1 0x24 DUP3 ADD MSTORE PUSH32 0x5A65726F2061646472657373206E6F7420416C6C6F7765640000000000000000 PUSH1 0x44 DUP3 ADD MSTORE PUSH1 0x64 SWAP1 REVERT JUMPDEST ISZERO PUSH2 0x32EA JUMPI JUMP JUMPDEST PUSH1 0x40 MLOAD PUSH3 0x461BCD PUSH1 0xE5 SHL DUP2 MSTORE PUSH1 0x20 PUSH1 0x4 DUP3 ADD MSTORE PUSH1 0x1D PUSH1 0x24 DUP3 ADD MSTORE PUSH32 0x416D6F756E74206D7573742062652067726561746572207468616E2030000000 PUSH1 0x44 DUP3 ADD MSTORE PUSH1 0x64 SWAP1 REVERT JUMPDEST SWAP1 DUP2 PUSH1 0x20 SWAP2 SUB SLT PUSH2 0x22B JUMPI MLOAD PUSH1 0x1 PUSH1 0x1 PUSH1 0xA0 SHL SUB DUP2 AND DUP2 SUB PUSH2 0x22B JUMPI SWAP1 JUMP JUMPDEST SWAP2 SWAP1 DUP3 SUB SWAP2 DUP3 GT PUSH2 0x2E01 JUMPI JUMP JUMPDEST SWAP2 SWAP1 DUP3 PUSH1 0x40 SWAP2 SUB SLT PUSH2 0x22B JUMPI PUSH1 0x20 DUP3 MLOAD SWAP3 ADD MLOAD SWAP1 JUMP JUMPDEST SWAP2 SWAP1 SWAP2 PUSH1 0x60 PUSH1 0x80 DUP3 ADD SWAP4 DUP1 MLOAD DUP4 MSTORE PUSH1 0x1 DUP1 PUSH1 0xA0 SHL SUB PUSH1 0x20 DUP3 ADD MLOAD AND PUSH1 0x20 DUP5 ADD MSTORE DUP2 PUSH1 0x1 PUSH1 0x1 PUSH1 0x80 SHL SUB SWAP2 DUP3 PUSH1 0x40 DUP3 ADD MLOAD AND PUSH1 0x40 DUP7 ADD MSTORE ADD MLOAD AND SWAP2 ADD MSTORE JUMP JUMPDEST SWAP2 SWAP1 SWAP2 PUSH1 0x80 DUP1 PUSH1 0xA0 DUP4 ADD SWAP5 DUP1 MLOAD DUP5 MSTORE PUSH1 0x1 PUSH1 0x1 PUSH1 0x80 SHL SUB PUSH1 0x20 DUP3 ADD MLOAD AND PUSH1 0x20 DUP6 ADD MSTORE PUSH1 0x40 DUP2 ADD MLOAD PUSH1 0x40 DUP6 ADD MSTORE PUSH1 0x60 DUP2 ADD MLOAD PUSH1 0x60 DUP6 ADD MSTORE ADD MLOAD SWAP2 ADD MSTORE JUMP JUMPDEST SWAP1 DUP2 DUP2 GT PUSH2 0x33FD JUMPI PUSH2 0x2F3A SWAP2 PUSH2 0x334E JUMP JUMPDEST PUSH1 0x40 MLOAD PUSH3 0x461BCD PUSH1 0xE5 SHL DUP2 MSTORE PUSH1 0x20 PUSH1 0x4 DUP3 ADD MSTORE PUSH1 0x22 PUSH1 0x24 DUP3 ADD MSTORE PUSH32 0x61206D7573742062652067726561746572207468616E206F7220657175616C73 PUSH1 0x44 DUP3 ADD MSTORE PUSH2 0x1031 PUSH1 0xF1 SHL PUSH1 0x64 DUP3 ADD MSTORE PUSH1 0x84 SWAP1 REVERT JUMPDEST DUP2 DUP2 MUL SWAP3 SWAP2 DUP2 ISZERO SWAP2 DUP5 DIV EQ OR ISZERO PUSH2 0x2E01 JUMPI JUMP JUMPDEST PUSH2 0x3469 SWAP1 PUSH2 0x348B JUMP JUMPDEST DUP1 PUSH1 0x60 SHL SWAP1 DUP1 DUP3 DIV PUSH1 0x1 PUSH1 0x60 SHL EQ SWAP1 ISZERO OR ISZERO PUSH2 0x2E01 JUMPI PUSH1 0x1 PUSH1 0x1 PUSH1 0xA0 SHL SUB AND SWAP1 JUMP JUMPDEST DUP1 ISZERO PUSH2 0x34E4 JUMPI PUSH1 0x1 DUP1 DUP3 ADD DUP1 DUP4 GT PUSH2 0x2E01 JUMPI DUP2 SHR SWAP1 DUP3 JUMPDEST DUP4 DUP4 LT PUSH2 0x34AF JUMPI POP POP POP SWAP1 JUMP JUMPDEST SWAP2 SWAP3 POP SWAP1 DUP3 DUP1 ISZERO PUSH2 0x34CF JUMPI DUP1 PUSH2 0x34C6 SWAP2 DUP4 DIV PUSH2 0x2DF4 JUMP JUMPDEST DUP3 SHR SWAP2 SWAP1 PUSH2 0x34A2 JUMP JUMPDEST PUSH1 0x24 PUSH1 0x0 PUSH4 0x4E487B71 PUSH1 0xE0 SHL DUP2 MSTORE PUSH1 0x12 PUSH1 0x4 MSTORE REVERT JUMPDEST POP PUSH1 0x0 SWAP1 JUMP JUMPDEST PUSH1 0x1 PUSH1 0x1 PUSH1 0xA0 SHL SUB DUP2 DUP2 AND SWAP2 PUSH5 0x1000276A3 DUP4 LT ISZERO DUP1 PUSH2 0x3AE5 JUMPI JUMPDEST ISZERO PUSH2 0x3AD3 JUMPI PUSH5 0x100000000 PUSH1 0x1 PUSH1 0xC0 SHL SUB SWAP1 PUSH1 0x20 SHL AND SWAP2 DUP3 SWAP2 PUSH1 0x1 PUSH1 0x1 PUSH1 0x80 SHL SUB DUP5 GT PUSH1 0x7 SHL SWAP4 DUP1 DUP6 SHR PUSH1 0x1 PUSH1 0x1 PUSH1 0x40 SHL SUB DUP2 GT PUSH1 0x6 SHL SWAP1 DUP2 SHR SWAP5 PUSH4 0xFFFFFFFF SWAP7 DUP8 DUP8 GT PUSH1 0x5 SHL SWAP7 DUP8 SHR SWAP3 PUSH2 0xFFFF DUP5 GT PUSH1 0x4 SHL SWAP4 DUP5 SHR SWAP8 PUSH1 0xFF SWAP9 DUP10 SWAP6 DUP7 DUP3 GT PUSH1 0x3 SHL SWAP2 DUP3 SHR SWAP3 PUSH1 0xF DUP5 GT PUSH1 0x2 SHL SWAP4 DUP5 SHR SWAP5 PUSH1 0x1 PUSH1 0x3 DUP8 GT DUP2 SHL SWAP7 DUP8 SHR GT SWAP7 OR OR OR OR OR OR OR SWAP1 PUSH1 0x80 SWAP4 DUP5 DUP4 LT ISZERO PUSH1 0x0 EQ PUSH2 0x3AC7 JUMPI POP PUSH1 0x7E NOT DUP3 ADD SHR JUMPDEST DUP1 MUL PUSH1 0x7F SWAP3 DUP4 SWAP3 DUP3 DUP5 SWAP4 DUP5 SHR DUP2 DUP5 SHR SHR DUP1 MUL DUP1 DUP6 SHR DUP2 DUP6 SHR SHR DUP1 MUL DUP1 DUP7 SHR DUP2 DUP7 SHR SHR DUP1 MUL DUP1 DUP8 SHR DUP2 DUP8 SHR SHR DUP1 MUL SWAP1 DUP2 DUP9 SHR DUP3 DUP9 SHR SHR DUP1 MUL SWAP3 DUP4 DUP10 SHR DUP5 DUP10 SHR SHR DUP1 MUL SWAP5 DUP6 DUP11 SHR DUP7 DUP11 SHR SHR DUP1 MUL SWAP7 DUP8 DUP12 SHR DUP9 DUP12 SHR SHR DUP1 MUL SWAP9 DUP10 DUP13 SHR DUP11 DUP13 SHR SHR DUP1 MUL SWAP11 DUP12 DUP14 SHR DUP13 DUP3 SHR SHR DUP1 MUL DUP1 SWAP14 SHR DUP14 DUP3 SHR SHR DUP1 MUL DUP1 SWAP15 DUP2 SWAP1 SHR SWAP1 DUP3 SHR SHR DUP1 MUL SWAP15 DUP16 DUP1 SWAP2 SHR SWAP2 SHR SHR DUP1 MUL PUSH1 0xCD SHR PUSH7 0x4000000000000 AND SWAP14 PUSH1 0xCC SHR PUSH7 0x8000000000000 AND SWAP13 PUSH1 0xCB SHR PUSH7 0x10000000000000 AND SWAP12 PUSH1 0xCA SHR PUSH7 0x20000000000000 AND SWAP11 PUSH1 0xC9 SHR PUSH7 0x40000000000000 AND SWAP10 PUSH1 0xC8 SHR PUSH7 0x80000000000000 AND SWAP9 PUSH1 0xC7 SHR PUSH8 0x100000000000000 AND SWAP8 PUSH1 0xC6 SHR PUSH8 0x200000000000000 AND SWAP7 PUSH1 0xC5 SHR PUSH8 0x400000000000000 AND SWAP6 PUSH1 0xC4 SHR PUSH8 0x800000000000000 AND SWAP5 PUSH1 0xC3 SHR PUSH8 0x1000000000000000 AND SWAP4 PUSH1 0xC2 SHR PUSH8 0x2000000000000000 AND SWAP3 PUSH1 0xC1 SHR PUSH8 0x4000000000000000 AND SWAP2 PUSH1 0xC0 SHR PUSH8 0x8000000000000000 AND SWAP1 PUSH1 0x7F NOT ADD PUSH1 0x40 SHL OR OR OR OR OR OR OR OR OR OR OR OR OR OR PUSH10 0x3627A301D71055774C85 MUL SWAP4 PUSH16 0x28F6481AB7F045A5AF012A19D003AA9 NOT DUP6 ADD DUP3 SAR PUSH1 0x2 SIGNEXTEND SWAP5 PUSH16 0xDB2DF09E81959A81455E260799A0632F ADD DUP3 SAR PUSH1 0x2 SIGNEXTEND SWAP6 PUSH1 0x0 SWAP1 DUP8 DUP8 EQ PUSH1 0x0 EQ PUSH2 0x3752 JUMPI POP POP POP POP POP POP SWAP1 POP SWAP1 JUMP JUMPDEST DUP2 DUP9 SLT ISZERO PUSH2 0x3AC0 JUMPI DUP8 DUP3 SUB SWAP4 JUMPDEST PUSH3 0xD89E8 DUP6 GT PUSH2 0x3AAE JUMPI PUSH1 0x1 DUP6 AND ISZERO PUSH2 0x3A9C JUMPI PUSH1 0x1 PUSH1 0x1 PUSH1 0x88 SHL SUB PUSH16 0xFFFCB933BD6FAD37AA2D162D1A594001 JUMPDEST AND SWAP5 PUSH1 0x2 DUP2 AND PUSH2 0x3A81 JUMPI JUMPDEST PUSH1 0x4 DUP2 AND PUSH2 0x3A66 JUMPI JUMPDEST PUSH1 0x8 DUP2 AND PUSH2 0x3A4B JUMPI JUMPDEST PUSH1 0x10 DUP2 AND PUSH2 0x3A30 JUMPI JUMPDEST PUSH1 0x20 DUP2 AND PUSH2 0x3A15 JUMPI JUMPDEST PUSH1 0x40 DUP2 AND PUSH2 0x39FA JUMPI JUMPDEST DUP2 DUP2 AND PUSH2 0x39DF JUMPI JUMPDEST PUSH2 0x100 DUP2 AND PUSH2 0x39C4 JUMPI JUMPDEST PUSH2 0x200 DUP2 AND PUSH2 0x39A9 JUMPI JUMPDEST PUSH2 0x400 DUP2 AND PUSH2 0x398E JUMPI JUMPDEST PUSH2 0x800 DUP2 AND PUSH2 0x3973 JUMPI JUMPDEST PUSH2 0x1000 DUP2 AND PUSH2 0x3958 JUMPI JUMPDEST PUSH2 0x2000 DUP2 AND PUSH2 0x393D JUMPI JUMPDEST PUSH2 0x4000 DUP2 AND PUSH2 0x3922 JUMPI JUMPDEST PUSH2 0x8000 DUP2 AND PUSH2 0x3907 JUMPI JUMPDEST PUSH3 0x10000 DUP2 AND PUSH2 0x38EC JUMPI JUMPDEST PUSH3 0x20000 DUP2 AND PUSH2 0x38D2 JUMPI JUMPDEST PUSH3 0x40000 DUP2 AND PUSH2 0x38B8 JUMPI JUMPDEST PUSH3 0x80000 AND PUSH2 0x389F JUMPI JUMPDEST POP DUP2 DUP9 SGT PUSH2 0x387A JUMPI JUMPDEST DUP4 AND PUSH2 0x3872 JUMPI DUP1 JUMPDEST POP AND SWAP1 PUSH1 0x20 SHR ADD AND GT ISZERO PUSH1 0x0 EQ PUSH2 0x386D JUMPI POP SWAP1 JUMP JUMPDEST SWAP1 POP SWAP1 JUMP JUMPDEST PUSH1 0x1 SWAP1 PUSH2 0x3858 JUMP JUMPDEST SWAP3 DUP1 ISZERO PUSH2 0x388B JUMPI PUSH1 0x0 NOT DIV SWAP3 PUSH2 0x3850 JUMP JUMPDEST PUSH4 0x4E487B71 PUSH1 0xE0 SHL DUP3 MSTORE PUSH1 0x12 PUSH1 0x4 MSTORE PUSH1 0x24 DUP3 REVERT JUMPDEST SWAP1 SWAP4 PUSH12 0x48A170391F7DC42444E8FA2 MUL SWAP1 SHR SWAP3 CODESIZE PUSH2 0x3847 JUMP JUMPDEST PUSH14 0x2216E584F5FA1EA926041BEDFE98 SWAP1 SWAP6 MUL DUP2 SHR SWAP5 PUSH2 0x383D JUMP JUMPDEST SWAP5 PUSH15 0x5D6AF8DEDB81196699C329225EE604 MUL DUP2 SHR SWAP5 PUSH2 0x3832 JUMP JUMPDEST SWAP5 PUSH16 0x9AA508B5B7A84E1C677DE54F3E99BC9 MUL DUP2 SHR SWAP5 PUSH2 0x3827 JUMP JUMPDEST SWAP5 PUSH16 0x31BE135F97D08FD981231505542FCFA6 MUL DUP2 SHR SWAP5 PUSH2 0x381C JUMP JUMPDEST SWAP5 PUSH16 0x70D869A156D2A1B890BB3DF62BAF32F7 MUL DUP2 SHR SWAP5 PUSH2 0x3812 JUMP JUMPDEST SWAP5 PUSH16 0xA9F746462D870FDF8A65DC1F90E061E5 MUL DUP2 SHR SWAP5 PUSH2 0x3808 JUMP JUMPDEST SWAP5 PUSH16 0xD097F3BDFD2022B8845AD8F792AA5825 MUL DUP2 SHR SWAP5 PUSH2 0x37FE JUMP JUMPDEST SWAP5 PUSH16 0xE7159475A2C29B7443B29C7FA6E889D9 MUL DUP2 SHR SWAP5 PUSH2 0x37F4 JUMP JUMPDEST SWAP5 PUSH16 0xF3392B0822B70005940C7A398E4B70F3 MUL DUP2 SHR SWAP5 PUSH2 0x37EA JUMP JUMPDEST SWAP5 PUSH16 0xF987A7253AC413176F2B074CF7815E54 MUL DUP2 SHR SWAP5 PUSH2 0x37E0 JUMP JUMPDEST SWAP5 PUSH16 0xFCBE86C7900A88AEDCFFC83B479AA3A4 MUL DUP2 SHR SWAP5 PUSH2 0x37D6 JUMP JUMPDEST SWAP5 PUSH16 0xFE5DEE046A99A2A811C461F1969C3053 MUL DUP2 SHR SWAP5 PUSH2 0x37CC JUMP JUMPDEST SWAP5 PUSH16 0xFF2EA16466C96A3843EC78B326B52861 MUL DUP2 SHR SWAP5 PUSH2 0x37C4 JUMP JUMPDEST SWAP5 PUSH16 0xFF973B41FA98C081472E6896DFB254C0 MUL DUP2 SHR SWAP5 PUSH2 0x37BB JUMP JUMPDEST SWAP5 PUSH16 0xFFCB9843D60F6159C9DB58835C926644 MUL DUP2 SHR SWAP5 PUSH2 0x37B2 JUMP JUMPDEST SWAP5 PUSH16 0xFFE5CACA7E10E4E61C3624EAA0941CD0 MUL DUP2 SHR SWAP5 PUSH2 0x37A9 JUMP JUMPDEST SWAP5 PUSH16 0xFFF2E50F5F656932EF12357CF3C7FDCC MUL DUP2 SHR SWAP5 PUSH2 0x37A0 JUMP JUMPDEST SWAP5 PUSH16 0xFFF97272373D413259A46990580E213A MUL DUP2 SHR SWAP5 PUSH2 0x3797 JUMP JUMPDEST PUSH1 0x1 PUSH1 0x1 PUSH1 0x88 SHL SUB PUSH1 0x1 PUSH1 0x80 SHL PUSH2 0x378C JUMP JUMPDEST PUSH1 0x40 MLOAD PUSH4 0x15E4079D PUSH1 0xE1 SHL DUP2 MSTORE PUSH1 0x4 SWAP1 REVERT JUMPDEST DUP8 SWAP4 PUSH2 0x375F JUMP JUMPDEST SWAP1 POP DUP2 PUSH1 0x7F SUB SHL PUSH2 0x35A1 JUMP JUMPDEST PUSH1 0x40 MLOAD PUSH4 0x24C070DF PUSH1 0xE1 SHL DUP2 MSTORE PUSH1 0x4 SWAP1 REVERT JUMPDEST POP PUSH20 0xFFFD8963EFD1FC6A506488495D951D5263988D26 DUP4 LT PUSH2 0x3505 JUMP INVALID LOG2 PUSH5 0x6970667358 0x22 SLT KECCAK256 ORIGIN 0xBB BYTE PUSH25 0xE125C81BE93CE70EDCAE0C61DAEB637B9E3BFF049A0AB0C4C0 MULMOD SWAP13 0x1F PUSH5 0x736F6C6343 STOP ADDMOD SLT STOP CALLER "
		},
		"gasEstimates": {
			"creation": {
				"codeDepositCost": "3032000",
				"executionCost": "infinite",
				"totalCost": "infinite"
			},
			"external": {
				"UNISWAP_V3_FACTORY()": "581",
				"UNISWAP_V3_NFT_POSITION_MANAGER()": "383",
				"collectAllFees(uint256)": "infinite",
				"confirmTransaction(uint256)": "130377",
				"createAndInitializePool(address,address,uint24,uint256)": "infinite",
				"createPoolAndMintNFT(address,address,uint24,uint256,uint256,uint256,uint160,uint160)": "infinite",
				"decreaseLiquidityCurrentRange(uint256,uint128)": "infinite",
				"deploymentCost()": "2508",
				"executeTransaction(uint256)": "infinite",
				"getAllTransactions(uint256,uint256)": "infinite",
				"getOwners()": "infinite",
				"getTransaction(uint256)": "infinite",
				"increaseLiquidityCurrentRange(address,address,uint256,uint256,uint256)": "infinite",
				"removePool(uint256,uint128)": "infinite",
				"sendEther(address,uint256)": "infinite",
				"swap(address,address,uint256,uint256,uint24)": "infinite",
				"tokenBuy()": "2356",
				"transferERC20(address,address,uint256)": "infinite",
				"transferTokens()": "infinite",
				"unwrapWETH(address,uint256)": "infinite",
				"wrapETH(address,uint256)": "infinite"
			},
			"internal": {
				"_collectAllFees(uint256)": "infinite",
				"_createPoolAndMintNFT(address,address,uint24,uint256,uint256,uint256,uint160,uint160,uint256)": "infinite",
				"_decreaseLiquidityCurrentRange(uint256,uint128)": "infinite",
				"_increaseLiquidityCurrentRange(address,address,uint256,uint256,uint256)": "infinite",
				"_removePool(uint256,uint128)": "infinite",
				"_sendEther(address payable,uint256)": "infinite",
				"_swap(address,address,uint256,uint256,uint24)": "infinite",
				"_transferERC20(address,address,uint256)": "infinite",
				"_unwrapWETH(address,uint256)": "infinite",
				"_wrapETH(address,uint256)": "infinite",
				"executeFunction(uint256)": "infinite"
			}
		},
		"methodIdentifiers": {
			"UNISWAP_V3_FACTORY()": "f73e5aab",
			"UNISWAP_V3_NFT_POSITION_MANAGER()": "a9109570",
			"collectAllFees(uint256)": "46ce96dd",
			"confirmTransaction(uint256)": "c01a8c84",
			"createAndInitializePool(address,address,uint24,uint256)": "f47f9033",
			"createPoolAndMintNFT(address,address,uint24,uint256,uint256,uint256,uint160,uint160)": "fb35f110",
			"decreaseLiquidityCurrentRange(uint256,uint128)": "1834c397",
			"deploymentCost()": "ac133d3b",
			"executeTransaction(uint256)": "ee22610b",
			"getAllTransactions(uint256,uint256)": "c5e57c64",
			"getOwners()": "a0e67e2b",
			"getTransaction(uint256)": "33ea3dc8",
			"increaseLiquidityCurrentRange(address,address,uint256,uint256,uint256)": "5efb3b6d",
			"removePool(uint256,uint128)": "ac43a6b8",
			"sendEther(address,uint256)": "c1756a2c",
			"swap(address,address,uint256,uint256,uint24)": "b40b7e0b",
			"tokenBuy()": "2d00eef3",
			"transferERC20(address,address,uint256)": "9db5dbe4",
			"transferTokens()": "1792b0bc",
			"unwrapWETH(address,uint256)": "5869dba8",
			"wrapETH(address,uint256)": "29793f7d"
		}
	},
	"abi": [
		{
			"inputs": [
				{
					"internalType": "contract IERC20",
					"name": "_token",
					"type": "address"
				},
				{
					"internalType": "address[]",
					"name": "_owners",
					"type": "address[]"
				},
				{
					"internalType": "uint256",
					"name": "_numConfirmationsRequired",
					"type": "uint256"
				}
			],
			"stateMutability": "nonpayable",
			"type": "constructor"
		},
		{
			"inputs": [],
			"name": "R",
			"type": "error"
		},
		{
			"inputs": [],
			"name": "T",
			"type": "error"
		},
		{
			"anonymous": false,
			"inputs": [
				{
					"indexed": true,
					"internalType": "address",
					"name": "from",
					"type": "address"
				},
				{
					"indexed": true,
					"internalType": "uint256",
					"name": "transactionId",
					"type": "uint256"
				}
			],
			"name": "ConfirmTransaction",
			"type": "event"
		},
		{
			"anonymous": false,
			"inputs": [
				{
					"indexed": true,
					"internalType": "address",
					"name": "from",
					"type": "address"
				},
				{
					"indexed": true,
					"internalType": "uint256",
					"name": "transactionId",
					"type": "uint256"
				}
			],
			"name": "ExecuteTransaction",
			"type": "event"
		},
		{
			"anonymous": false,
			"inputs": [
				{
					"indexed": true,
					"internalType": "address",
					"name": "from",
					"type": "address"
				},
				{
					"indexed": true,
					"internalType": "uint256",
					"name": "transactionId",
					"type": "uint256"
				}
			],
			"name": "SubmitTransaction",
			"type": "event"
		},
		{
			"inputs": [],
			"name": "UNISWAP_V3_FACTORY",
			"outputs": [
				{
					"internalType": "address",
					"name": "",
					"type": "address"
				}
			],
			"stateMutability": "view",
			"type": "function"
		},
		{
			"inputs": [],
			"name": "UNISWAP_V3_NFT_POSITION_MANAGER",
			"outputs": [
				{
					"internalType": "address",
					"name": "",
					"type": "address"
				}
			],
			"stateMutability": "view",
			"type": "function"
		},
		{
			"inputs": [
				{
					"internalType": "uint256",
					"name": "tokenId",
					"type": "uint256"
				}
			],
			"name": "collectAllFees",
			"outputs": [
				{
					"internalType": "uint256",
					"name": "_transactionId",
					"type": "uint256"
				}
			],
			"stateMutability": "nonpayable",
			"type": "function"
		},
		{
			"inputs": [
				{
					"internalType": "uint256",
					"name": "_transactionId",
					"type": "uint256"
				}
			],
			"name": "confirmTransaction",
			"outputs": [],
			"stateMutability": "nonpayable",
			"type": "function"
		},
		{
			"inputs": [
				{
					"internalType": "address",
					"name": "token0",
					"type": "address"
				},
				{
					"internalType": "address",
					"name": "token1",
					"type": "address"
				},
				{
					"internalType": "uint24",
					"name": "fee",
					"type": "uint24"
				},
				{
					"internalType": "uint256",
					"name": "initialPrice",
					"type": "uint256"
				}
			],
			"name": "createAndInitializePool",
			"outputs": [
				{
					"internalType": "address",
					"name": "pool",
					"type": "address"
				}
			],
			"stateMutability": "payable",
			"type": "function"
		},
		{
			"inputs": [
				{
					"internalType": "address",
					"name": "token0",
					"type": "address"
				},
				{
					"internalType": "address",
					"name": "token1",
					"type": "address"
				},
				{
					"internalType": "uint24",
					"name": "fee",
					"type": "uint24"
				},
				{
					"internalType": "uint256",
					"name": "amount0ToAdd",
					"type": "uint256"
				},
				{
					"internalType": "uint256",
					"name": "amount1ToAdd",
					"type": "uint256"
				},
				{
					"internalType": "uint256",
					"name": "initialPrice",
					"type": "uint256"
				},
				{
					"internalType": "uint160",
					"name": "minPrice",
					"type": "uint160"
				},
				{
					"internalType": "uint160",
					"name": "maxPrice",
					"type": "uint160"
				}
			],
			"name": "createPoolAndMintNFT",
			"outputs": [
				{
					"internalType": "uint256",
					"name": "_transactionId",
					"type": "uint256"
				}
			],
			"stateMutability": "payable",
			"type": "function"
		},
		{
			"inputs": [
				{
					"internalType": "uint256",
					"name": "tokenId",
					"type": "uint256"
				},
				{
					"internalType": "uint128",
					"name": "liquidity",
					"type": "uint128"
				}
			],
			"name": "decreaseLiquidityCurrentRange",
			"outputs": [
				{
					"internalType": "uint256",
					"name": "_transactionId",
					"type": "uint256"
				}
			],
			"stateMutability": "nonpayable",
			"type": "function"
		},
		{
			"inputs": [],
			"name": "deploymentCost",
			"outputs": [
				{
					"internalType": "uint256",
					"name": "",
					"type": "uint256"
				}
			],
			"stateMutability": "view",
			"type": "function"
		},
		{
			"inputs": [
				{
					"internalType": "uint256",
					"name": "_transactionId",
					"type": "uint256"
				}
			],
			"name": "executeTransaction",
			"outputs": [],
			"stateMutability": "nonpayable",
			"type": "function"
		},
		{
			"inputs": [
				{
					"internalType": "uint256",
					"name": "_pageNo",
					"type": "uint256"
				},
				{
					"internalType": "uint256",
					"name": "_perPage",
					"type": "uint256"
				}
			],
			"name": "getAllTransactions",
			"outputs": [
				{
					"components": [
						{
							"internalType": "address",
							"name": "from",
							"type": "address"
						},
						{
							"internalType": "address",
							"name": "executed",
							"type": "address"
						},
						{
							"internalType": "uint256",
							"name": "numConfirmations",
							"type": "uint256"
						},
						{
							"internalType": "string",
							"name": "functionName",
							"type": "string"
						},
						{
							"internalType": "bytes",
							"name": "data",
							"type": "bytes"
						},
						{
							"internalType": "address[]",
							"name": "confirmed",
							"type": "address[]"
						},
						{
							"internalType": "uint256",
							"name": "createdAt",
							"type": "uint256"
						},
						{
							"internalType": "uint256",
							"name": "updatedAt",
							"type": "uint256"
						}
					],
					"internalType": "struct IMultiSig.Transaction[]",
					"name": "transactions_",
					"type": "tuple[]"
				},
				{
					"internalType": "uint256",
					"name": "totalList_",
					"type": "uint256"
				}
			],
			"stateMutability": "view",
			"type": "function"
		},
		{
			"inputs": [],
			"name": "getOwners",
			"outputs": [
				{
					"internalType": "address[]",
					"name": "",
					"type": "address[]"
				}
			],
			"stateMutability": "view",
			"type": "function"
		},
		{
			"inputs": [
				{
					"internalType": "uint256",
					"name": "_transactionId",
					"type": "uint256"
				}
			],
			"name": "getTransaction",
			"outputs": [
				{
					"components": [
						{
							"internalType": "address",
							"name": "from",
							"type": "address"
						},
						{
							"internalType": "address",
							"name": "executed",
							"type": "address"
						},
						{
							"internalType": "uint256",
							"name": "numConfirmations",
							"type": "uint256"
						},
						{
							"internalType": "string",
							"name": "functionName",
							"type": "string"
						},
						{
							"internalType": "bytes",
							"name": "data",
							"type": "bytes"
						},
						{
							"internalType": "address[]",
							"name": "confirmed",
							"type": "address[]"
						},
						{
							"internalType": "uint256",
							"name": "createdAt",
							"type": "uint256"
						},
						{
							"internalType": "uint256",
							"name": "updatedAt",
							"type": "uint256"
						}
					],
					"internalType": "struct IMultiSig.Transaction",
					"name": "transactions_",
					"type": "tuple"
				}
			],
			"stateMutability": "view",
			"type": "function"
		},
		{
			"inputs": [
				{
					"internalType": "address",
					"name": "token0",
					"type": "address"
				},
				{
					"internalType": "address",
					"name": "token1",
					"type": "address"
				},
				{
					"internalType": "uint256",
					"name": "tokenId",
					"type": "uint256"
				},
				{
					"internalType": "uint256",
					"name": "amount0ToAdd",
					"type": "uint256"
				},
				{
					"internalType": "uint256",
					"name": "amount1ToAdd",
					"type": "uint256"
				}
			],
			"name": "increaseLiquidityCurrentRange",
			"outputs": [
				{
					"internalType": "uint256",
					"name": "_transactionId",
					"type": "uint256"
				}
			],
			"stateMutability": "nonpayable",
			"type": "function"
		},
		{
			"inputs": [
				{
					"internalType": "uint256",
					"name": "tokenId",
					"type": "uint256"
				},
				{
					"internalType": "uint128",
					"name": "liquidity",
					"type": "uint128"
				}
			],
			"name": "removePool",
			"outputs": [
				{
					"internalType": "uint256",
					"name": "_transactionId",
					"type": "uint256"
				}
			],
			"stateMutability": "nonpayable",
			"type": "function"
		},
		{
			"inputs": [
				{
					"internalType": "address payable",
					"name": "recipient",
					"type": "address"
				},
				{
					"internalType": "uint256",
					"name": "amount",
					"type": "uint256"
				}
			],
			"name": "sendEther",
			"outputs": [
				{
					"internalType": "uint256",
					"name": "_transactionId",
					"type": "uint256"
				}
			],
			"stateMutability": "nonpayable",
			"type": "function"
		},
		{
			"inputs": [
				{
					"internalType": "address",
					"name": "_tokenIn",
					"type": "address"
				},
				{
					"internalType": "address",
					"name": "_tokenOut",
					"type": "address"
				},
				{
					"internalType": "uint256",
					"name": "_amountIn",
					"type": "uint256"
				},
				{
					"internalType": "uint256",
					"name": "_amountOutMin",
					"type": "uint256"
				},
				{
					"internalType": "uint24",
					"name": "_fee",
					"type": "uint24"
				}
			],
			"name": "swap",
			"outputs": [
				{
					"internalType": "uint256",
					"name": "_transactionId",
					"type": "uint256"
				}
			],
			"stateMutability": "nonpayable",
			"type": "function"
		},
		{
			"inputs": [],
			"name": "tokenBuy",
			"outputs": [
				{
					"internalType": "contract IERC20",
					"name": "",
					"type": "address"
				}
			],
			"stateMutability": "view",
			"type": "function"
		},
		{
			"inputs": [
				{
					"internalType": "address",
					"name": "tokenContractAddress",
					"type": "address"
				},
				{
					"internalType": "address",
					"name": "recipient",
					"type": "address"
				},
				{
					"internalType": "uint256",
					"name": "amount",
					"type": "uint256"
				}
			],
			"name": "transferERC20",
			"outputs": [
				{
					"internalType": "uint256",
					"name": "_transactionId",
					"type": "uint256"
				}
			],
			"stateMutability": "nonpayable",
			"type": "function"
		},
		{
			"inputs": [],
			"name": "transferTokens",
			"outputs": [],
			"stateMutability": "nonpayable",
			"type": "function"
		},
		{
			"inputs": [
				{
					"internalType": "address",
					"name": "wtoken",
					"type": "address"
				},
				{
					"internalType": "uint256",
					"name": "amount",
					"type": "uint256"
				}
			],
			"name": "unwrapWETH",
			"outputs": [
				{
					"internalType": "uint256",
					"name": "_transactionId",
					"type": "uint256"
				}
			],
			"stateMutability": "nonpayable",
			"type": "function"
		},
		{
			"inputs": [
				{
					"internalType": "address",
					"name": "wtoken",
					"type": "address"
				},
				{
					"internalType": "uint256",
					"name": "amount",
					"type": "uint256"
				}
			],
			"name": "wrapETH",
			"outputs": [
				{
					"internalType": "uint256",
					"name": "_transactionId",
					"type": "uint256"
				}
			],
			"stateMutability": "nonpayable",
			"type": "function"
		},
		{
			"stateMutability": "payable",
			"type": "receive"
		}
	]
}