{
	"data": {
		"bytecode": {
			"linkReferences": {},
			"object": "608080604052346100775773e592427a0aece92de3edee1f18e0157c0586156460018060a01b0319731f98431c8ad98523631ae4a59f267346ea31f98481600054161760005573c36442b4a4522e871399cd717abdd847ab11fe888160015416176001556002541617600255611f8e908161007d8239f35b600080fdfe608080604052600436101561001d575b50361561001b57600080fd5b005b60009081803560e01c9182631834c39714611605575050806329793f7d1461153e57806346ce96dd146114975780635869dba8146113715780635efb3b6d146110b75780639db5dbe414610fb0578063a910957014610f81578063ac43a6b814610e21578063b40b7e0b14610c08578063c1756a2c14610b65578063ef2c64d714610981578063f47f90331461089e578063f73e5aab1461086f5763fb35f1100361000f5761010036600319011261086c576100d76116d2565b906100e06116e8565b906100e96116fe565b60c4356001600160a01b03811690036108675760e4356001600160a01b03811690036108675760405163f47f903360e01b81526001600160a01b0385811660048301528416602482015262ffffff8216604482015260a43560648201529260208460848134305af1938415610587578394610836575b506040516323b872dd60e01b8152336004820152306024820152606480356044830152602090829081876001600160a01b038b165af1801561066957610817575b506040516323b872dd60e01b81523360048201523060248201526084356044820152602081606481876001600160a01b0387165af18015610669576107f8575b5060015460405163095ea7b360e01b81526001600160a01b039091166004820152606435602482015260208180604481010381876001600160a01b038b165af18015610669576107d9575b5060015460405163095ea7b360e01b81526001600160a01b039091166004820152608435602482015260208180604481010381876001600160a01b0387165af18015610669576107ba575b506401000276a360c4356001600160a01b0316101580610791575b80610777575b1561073c576102a760c43561193f565b6102b260e43561193f565b60020b90818160020b128061072b575b8061071e575b156106e457604051938461016081011067ffffffffffffffff610160870111176106ce5762ffffff90610160860160405260018060a01b038916865260018060a01b03851660208701521660408501528060020b606085015281608085015260643560a085015260843560c08501528460e0850152846101008501523061012085015242610140850152608061014061016460018060a01b036001541696886040519889948593634418b22b60e11b855260018060a01b03815116600486015260018060a01b03602082015116602486015262ffffff6040820151166044860152606081015160020b60648601528781015160020b608486015260a081015160a486015260c081015160c486015260e081015160e486015261010081015161010486015260018060a01b036101208201511661012486015201516101448401525af194851561055e578093819882968398610674575b506064358710610592575b506084358710610476575b50509160e096916001600160801b03936040519760018060a01b0316885260020b60208801526040870152606086015216608084015260a083015260c0820152f35b60015460405163095ea7b360e01b81526001600160a01b039182166004820152602481018490529060209082906044908290879087165af180156105875783926020926104f99261056a575b506104cf8a608435611815565b60405163a9059cbb60e01b8152336004820152602481019190915294859283919082906044820190565b03926001600160a01b03165af190811561055e57509160e09893916001600160801b03959361052f575b50919381939850610434565b6105509060203d602011610557575b610548818361175c565b81019061177e565b5038610523565b503d61053e565b604051903d90823e3d90fd5b61058090843d861161055757610548818361175c565b50386104c2565b6040513d85823e3d90fd5b60015460405163095ea7b360e01b81526001600160a01b039182166004820152602481018590529060209082906044908290889087165af180156106695784926020926106159261064c575b506105eb8a606435611815565b60405163a9059cbb60e01b8152336004820152602481019190915293849283919082906044820190565b03926001600160a01b03165af180156105875715610429576106459060203d60201161055757610548818361175c565b5038610429565b61066290843d861161055757610548818361175c565b50386105de565b6040513d86823e3d90fd5b99509650935093506080873d6080116106c6575b816106956080938361175c565b810103126106c2578651936106ac60208901611801565b93606060408a015199015195949895963861041e565b8380fd5b3d9150610688565b634e487b7160e01b600052604160045260246000fd5b60405162461bcd60e51b81526020600482015260126024820152715469636b73206f7574206f662072616e676560701b6044820152606490fd5b50620d89e88213156102c8565b50620d89e7198160020b12156102c2565b60405162461bcd60e51b8152602060048201526013602482015272496e76616c69642070726963652072616e676560681b6044820152606490fd5b506001600160a01b0360e435811660c43590911610610297565b5073fffd8963efd1fc6a506488495d951d5263988d2660e4356001600160a01b03161115610291565b6107d29060203d60201161055757610548818361175c565b5038610276565b6107f19060203d60201161055757610548818361175c565b503861022b565b6108109060203d60201161055757610548818361175c565b50386101e0565b61082f9060203d60201161055757610548818361175c565b50386101a0565b61085991945060203d602011610860575b610851818361175c565b8101906117e2565b923861015f565b503d610847565b600080fd5b80fd5b503461086c578060031936011261086c576020604051731f98431c8ad98523631ae4a59f267346ea31f9848152f35b50608036600319011261086c576108b36116d2565b6108bb6116e8565b906108c46116fe565b906108d06064356118c9565b908160601b91808304600160601b149015171561096d576001546040516309f56ab160e11b81526001600160a01b039283166004820152948216602486015262ffffff909316604485015290811660648401529060209083906084908290349086165af1918215610587576020939261094e575b5060405191168152f35b610966919250833d811161086057610851818361175c565b9038610944565b634e487b7160e01b85526011600452602485fd5b503461086c57608036600319011261086c576001600160a01b03600435818116918391839003610b6157602435818116809103610b5d576040516323b872dd60e01b80825233600483015230602483015260448035908301819052602096606480359594929391929089908290818b875af18015610b5257610b35575b506040519081523360048201523060248201526044810185905287816064818a885af18015610b2a5787928992610a6f92610b0d575b5060015460405163095ea7b360e01b808252918a166001600160a01b0316600482015260248101969096529498899283919082906044820190565b03925af1948515610b0057610ab4968896610ae3575b50600154604051938452166001600160a01b031660048301526024820193909352938492839182906044820190565b03925af1801561058757610ac6578280f35b81610adc92903d1061055757610548818361175c565b5038808280f35b610af990873d891161055757610548818361175c565b5038610a85565b50604051903d90823e3d90fd5b610b2390843d861161055757610548818361175c565b5038610a34565b6040513d89823e3d90fd5b610b4b90893d8b1161055757610548818361175c565b50386109fe565b6040513d8a823e3d90fd5b8280fd5b5080fd5b503461086c57604036600319011261086c576004356001600160a01b03811690819003610b615760243590814710610bb757828080938193828215610bae575bf11561055e5780f35b506108fc610ba5565b60405162461bcd60e51b8152602060048201526024808201527f496e73756666696369656e742062616c616e636520696e2074686520636f6e746044820152631c9858dd60e21b6064820152608490fd5b503461086c5760a036600319011261086c57610c226116d2565b610c2a6116e8565b604435916084359062ffffff82168092036108675760405163095ea7b360e01b815273e592427a0aece92de3edee1f18e0157c058615646004820152602481018590526001600160a01b03919091169060208160448189865af1908115610e16578691610df7575b5015610dc057610e10420192834211610dac576040519461010086019086821067ffffffffffffffff8311176106ce5760409182529286526001600160a01b03918216602080880191825282880195865230606089019081526080890197885260a089019586526064803560c08b0190815260e08b018c8152600254965163414bf38960e01b81529b51881660048d01529451871660248c0152975162ffffff1660448b0152905185169089015295516084880152925160a4870152925160c48601529051811660e485015283916101049183918791165af18015610da157610d79575080f35b602090813d8311610d9a575b610d8f818361175c565b810103126108675780f35b503d610d85565b6040513d84823e3d90fd5b634e487b7160e01b86526011600452602486fd5b60405162461bcd60e51b815260206004820152600f60248201526e105c1c1c9bdd985b0819985a5b1959608a1b6044820152606490fd5b610e10915060203d60201161055757610548818361175c565b38610c92565b6040513d88823e3d90fd5b503461086c578080610e32366116ac565b9190604051610e4081611710565b8181526001600160801b0393841660208201526040808201849052606082018490524260808301526001548151630624e65f60e11b8152966001600160a01b0393889285169183918290610e97906004830161188c565b03925af19384156105875783958495610f52575b5091610ef291604093845192610ec084611740565b8352306020840152808584015260608301526001541690835197888094819363fc6f786560e01b83526004830161184e565b03925af1918215610b00576080948293610f1f575b50604051938452602084015260408301526060820152f35b909250610f44915060403d604011610f4b575b610f3c818361175c565b810190611838565b9138610f07565b503d610f32565b610ef2929650604093919550610f7490843d8611610f4b57610f3c818361175c565b9690969591935091610eab565b503461086c578060031936011261086c57602060405173c36442b4a4522e871399cd717abdd847ab11fe888152f35b503461086c57606036600319011261086c57610fca6116d2565b610fd26116e8565b6040516370a0823160e01b8152306004820152602092604435926001600160a01b03909116918481602481865afa8015610e165784918791611086575b501061104a5760405163a9059cbb60e01b81526001600160a01b03909116600482015260248101929092528290829081868160448101610ab4565b60405162461bcd60e51b8152600481018590526014602482015273496e73756666696369656e742062616c616e636560601b6044820152606490fd5b809250868092503d83116110b0575b61109f818361175c565b81010312610867578390513861100f565b503d611095565b503461086c5760a036600319011261086c576110d16116d2565b6110d96116e8565b6040516323b872dd60e01b80825233600483015230602483015260648035604484018190526084359560209591946001600160a01b039492851693918516929187908290818c875af1801561136657611349575b506040519081523360048201523060248201526044810187905285816064818b875af18015610b525761132c575b5060015460405163095ea7b360e01b8082529185166001600160a01b03166004820152602481018690529092909186908390818b816044810103925af1908115610b52576111e0938793899361130f575b5060015460405191825286166001600160a01b031660048201526024810192909252909283919082908a9082906044820190565b03925af18015610e16576112f2575b506040519160c0830183811067ffffffffffffffff8211176106ce57869360c4916040526044358152858101928352604081019687526060978894858301908282526080840183815260a085019142835260015416926040519b8c98899763219f5d1760e01b89525160048901525160248801525160448701525160648601525160848501525160a48401525af1918215610b005781938280946112a9575b50506001600160801b03604051941684528301526040820152f35b925080945085809294503d83116112eb575b6112c5818361175c565b8101031261086c57506112d782611801565b60408284015193015190929091388061128e565b503d6112bb565b61130890843d861161055757610548818361175c565b50386111ef565b61132590853d871161055757610548818361175c565b50386111ac565b61134290863d881161055757610548818361175c565b503861115b565b61135f90873d891161055757610548818361175c565b503861112d565b6040513d8b823e3d90fd5b503461086c57604036600319011261086c578061138c6116d2565b6024359061139b821515611796565b6001600160a01b0316803b1561149357828091602460405180948193632e1a7d4d60e01b83528760048401525af190811561058757839161147c575b50808092305af13d15611477573d67ffffffffffffffff8111611463576040519061140c601f8201601f19166020018361175c565b81528260203d92013e5b1561141e5780f35b60405162461bcd60e51b815260206004820152601860248201527f4661696c656420746f207472616e7366657220457468657200000000000000006044820152606490fd5b634e487b7160e01b83526041600452602483fd5b611416565b6114859061172c565b6114905781386113d7565b50fd5b5050fd5b503461086c57602036600319011261086c578060406114fe81516114ba81611740565b60043581523060208201526001600160801b038084830152606082015260018060a01b036001541690835195868094819363fc6f786560e01b83526004830161184e565b03925af18015610b0057604092829161151f575b5082519182526020820152f35b90506115389150823d8411610f4b57610f3c818361175c565b38611512565b503461086c57604036600319011261086c576115586116d2565b602435908147106115af578290611570831515611796565b6001600160a01b0316803b15610b6157600460405180948193630d0e30db60e41b83525af18015610da1576115a3575080f35b6115ac9061172c565b80f35b60405162461bcd60e51b815260206004820152602860248201527f496e73756666696369656e74204554482062616c616e636520696e207468652060448201526718dbdb9d1c9858dd60c21b6064820152608490fd5b8190346114905761166d6040916001600160801b03611623366116ac565b9061162d84611710565b8352166020820152838382015283606082015242608082015260018060a01b0360015416908351958680948193630624e65f60e11b83526004830161188c565b03925af18015610b0057604092829161168d575082519182526020820152f35b90506116a69150823d8411610f4b57610f3c818361175c565b83611512565b604090600319011261086757600435906024356001600160801b03811681036108675790565b600435906001600160a01b038216820361086757565b602435906001600160a01b038216820361086757565b6044359062ffffff8216820361086757565b60a0810190811067ffffffffffffffff8211176106ce57604052565b67ffffffffffffffff81116106ce57604052565b6080810190811067ffffffffffffffff8211176106ce57604052565b90601f8019910116810190811067ffffffffffffffff8211176106ce57604052565b90816020910312610867575180151581036108675790565b1561179d57565b60405162461bcd60e51b815260206004820152601d60248201527f416d6f756e74206d7573742062652067726561746572207468616e20300000006044820152606490fd5b9081602091031261086757516001600160a01b03811681036108675790565b51906001600160801b038216820361086757565b9190820391821161182257565b634e487b7160e01b600052601160045260246000fd5b9190826040910312610867576020825192015190565b919091606060808201938051835260018060a01b036020820151166020840152816001600160801b0391826040820151166040860152015116910152565b91909160808060a0830194805184526001600160801b03602082015116602085015260408101516040850152606081015160608501520151910152565b801561193957600180820180831161182257811c9082905b8383106118ee5750505090565b919250908280156119245780830490810180911161190f57811c91906118e1565b60246000634e487b7160e01b81526011600452fd5b60246000634e487b7160e01b81526012600452fd5b50600090565b6001600160a01b03818116916401000276a383101580611f3b575b15611f2957640100000000600160c01b039060201b169182916001600160801b03841160071b9380851c67ffffffffffffffff811160061b90811c9463ffffffff9687871160051b96871c9261ffff841160041b93841c9760ff98899586821160031b91821c92600f841160021b93841c94600160038711811b96871c1196171717171717179060809384831015600014611f1d5750607e1982011c5b8002607f928392828493841c81841c1c800280851c81851c1c800280861c81861c1c800280871c81871c1c80029081881c82881c1c80029283891c84891c1c800294858a1c868a1c1c800296878b1c888b1c1c800298898c1c8a8c1c1c80029a8b8d1c8c821c1c8002809d1c8d821c1c8002809e81901c90821c1c80029e8f80911c911c1c800260cd1c6604000000000000169d60cc1c6608000000000000169c60cb1c6610000000000000169b60ca1c6620000000000000169a60c91c6640000000000000169960c81c6680000000000000169860c71c670100000000000000169760c61c670200000000000000169660c51c670400000000000000169560c41c670800000000000000169460c31c671000000000000000169360c21c672000000000000000169260c11c674000000000000000169160c01c6780000000000000001690607f190160401b1717171717171717171717171717693627a301d71055774c8502936f028f6481ab7f045a5af012a19d003aa9198501821d60020b946fdb2df09e81959a81455e260799a0632f01821d60020b95600090878714600014611ba857505050505050905090565b81881215611f1657878203935b620d89e88511611f04576001851615611ef2576001600160881b036ffffcb933bd6fad37aa2d162d1a5940015b169460028116611ed7575b60048116611ebc575b60088116611ea1575b60108116611e86575b60208116611e6b575b60408116611e50575b818116611e35575b6101008116611e1a575b6102008116611dff575b6104008116611de4575b6108008116611dc9575b6110008116611dae575b6120008116611d93575b6140008116611d78575b6180008116611d5d575b620100008116611d42575b620200008116611d28575b620400008116611d0e575b6208000016611cf5575b50818813611cd0575b8316611cc857805b50169060201c01161115600014611cc3575090565b905090565b600190611cae565b928015611ce1576000190492611ca6565b634e487b7160e01b82526012600452602482fd5b90936b048a170391f7dc42444e8fa202901c9238611c9d565b6d2216e584f5fa1ea926041bedfe98909502811c94611c93565b946e5d6af8dedb81196699c329225ee60402811c94611c88565b946f09aa508b5b7a84e1c677de54f3e99bc902811c94611c7d565b946f31be135f97d08fd981231505542fcfa602811c94611c72565b946f70d869a156d2a1b890bb3df62baf32f702811c94611c68565b946fa9f746462d870fdf8a65dc1f90e061e502811c94611c5e565b946fd097f3bdfd2022b8845ad8f792aa582502811c94611c54565b946fe7159475a2c29b7443b29c7fa6e889d902811c94611c4a565b946ff3392b0822b70005940c7a398e4b70f302811c94611c40565b946ff987a7253ac413176f2b074cf7815e5402811c94611c36565b946ffcbe86c7900a88aedcffc83b479aa3a402811c94611c2c565b946ffe5dee046a99a2a811c461f1969c305302811c94611c22565b946fff2ea16466c96a3843ec78b326b5286102811c94611c1a565b946fff973b41fa98c081472e6896dfb254c002811c94611c11565b946fffcb9843d60f6159c9db58835c92664402811c94611c08565b946fffe5caca7e10e4e61c3624eaa0941cd002811c94611bff565b946ffff2e50f5f656932ef12357cf3c7fdcc02811c94611bf6565b946ffff97272373d413259a46990580e213a02811c94611bed565b6001600160881b03600160801b611be2565b6040516315e4079d60e11b8152600490fd5b8793611bb5565b905081607f031b6119f7565b6040516324c070df60e11b8152600490fd5b5073fffd8963efd1fc6a506488495d951d5263988d26831061195a56fea2646970667358221220342ac6bf9211f5820cc862911bafa0bcc47d780b043b7d81a4c6a69517d26d8664736f6c63430008130033",
			"opcodes": "PUSH1 0x80 DUP1 PUSH1 0x40 MSTORE CALLVALUE PUSH2 0x77 JUMPI PUSH20 0xE592427A0AECE92DE3EDEE1F18E0157C05861564 PUSH1 0x1 DUP1 PUSH1 0xA0 SHL SUB NOT PUSH20 0x1F98431C8AD98523631AE4A59F267346EA31F984 DUP2 PUSH1 0x0 SLOAD AND OR PUSH1 0x0 SSTORE PUSH20 0xC36442B4A4522E871399CD717ABDD847AB11FE88 DUP2 PUSH1 0x1 SLOAD AND OR PUSH1 0x1 SSTORE PUSH1 0x2 SLOAD AND OR PUSH1 0x2 SSTORE PUSH2 0x1F8E SWAP1 DUP2 PUSH2 0x7D DUP3 CODECOPY RETURN JUMPDEST PUSH1 0x0 DUP1 REVERT INVALID PUSH1 0x80 DUP1 PUSH1 0x40 MSTORE PUSH1 0x4 CALLDATASIZE LT ISZERO PUSH2 0x1D JUMPI JUMPDEST POP CALLDATASIZE ISZERO PUSH2 0x1B JUMPI PUSH1 0x0 DUP1 REVERT JUMPDEST STOP JUMPDEST PUSH1 0x0 SWAP1 DUP2 DUP1 CALLDATALOAD PUSH1 0xE0 SHR SWAP2 DUP3 PUSH4 0x1834C397 EQ PUSH2 0x1605 JUMPI POP POP DUP1 PUSH4 0x29793F7D EQ PUSH2 0x153E JUMPI DUP1 PUSH4 0x46CE96DD EQ PUSH2 0x1497 JUMPI DUP1 PUSH4 0x5869DBA8 EQ PUSH2 0x1371 JUMPI DUP1 PUSH4 0x5EFB3B6D EQ PUSH2 0x10B7 JUMPI DUP1 PUSH4 0x9DB5DBE4 EQ PUSH2 0xFB0 JUMPI DUP1 PUSH4 0xA9109570 EQ PUSH2 0xF81 JUMPI DUP1 PUSH4 0xAC43A6B8 EQ PUSH2 0xE21 JUMPI DUP1 PUSH4 0xB40B7E0B EQ PUSH2 0xC08 JUMPI DUP1 PUSH4 0xC1756A2C EQ PUSH2 0xB65 JUMPI DUP1 PUSH4 0xEF2C64D7 EQ PUSH2 0x981 JUMPI DUP1 PUSH4 0xF47F9033 EQ PUSH2 0x89E JUMPI DUP1 PUSH4 0xF73E5AAB EQ PUSH2 0x86F JUMPI PUSH4 0xFB35F110 SUB PUSH2 0xF JUMPI PUSH2 0x100 CALLDATASIZE PUSH1 0x3 NOT ADD SLT PUSH2 0x86C JUMPI PUSH2 0xD7 PUSH2 0x16D2 JUMP JUMPDEST SWAP1 PUSH2 0xE0 PUSH2 0x16E8 JUMP JUMPDEST SWAP1 PUSH2 0xE9 PUSH2 0x16FE JUMP JUMPDEST PUSH1 0xC4 CALLDATALOAD PUSH1 0x1 PUSH1 0x1 PUSH1 0xA0 SHL SUB DUP2 AND SWAP1 SUB PUSH2 0x867 JUMPI PUSH1 0xE4 CALLDATALOAD PUSH1 0x1 PUSH1 0x1 PUSH1 0xA0 SHL SUB DUP2 AND SWAP1 SUB PUSH2 0x867 JUMPI PUSH1 0x40 MLOAD PUSH4 0xF47F9033 PUSH1 0xE0 SHL DUP2 MSTORE PUSH1 0x1 PUSH1 0x1 PUSH1 0xA0 SHL SUB DUP6 DUP2 AND PUSH1 0x4 DUP4 ADD MSTORE DUP5 AND PUSH1 0x24 DUP3 ADD MSTORE PUSH3 0xFFFFFF DUP3 AND PUSH1 0x44 DUP3 ADD MSTORE PUSH1 0xA4 CALLDATALOAD PUSH1 0x64 DUP3 ADD MSTORE SWAP3 PUSH1 0x20 DUP5 PUSH1 0x84 DUP2 CALLVALUE ADDRESS GAS CALL SWAP4 DUP5 ISZERO PUSH2 0x587 JUMPI DUP4 SWAP5 PUSH2 0x836 JUMPI JUMPDEST POP PUSH1 0x40 MLOAD PUSH4 0x23B872DD PUSH1 0xE0 SHL DUP2 MSTORE CALLER PUSH1 0x4 DUP3 ADD MSTORE ADDRESS PUSH1 0x24 DUP3 ADD MSTORE PUSH1 0x64 DUP1 CALLDATALOAD PUSH1 0x44 DUP4 ADD MSTORE PUSH1 0x20 SWAP1 DUP3 SWAP1 DUP2 DUP8 PUSH1 0x1 PUSH1 0x1 PUSH1 0xA0 SHL SUB DUP12 AND GAS CALL DUP1 ISZERO PUSH2 0x669 JUMPI PUSH2 0x817 JUMPI JUMPDEST POP PUSH1 0x40 MLOAD PUSH4 0x23B872DD PUSH1 0xE0 SHL DUP2 MSTORE CALLER PUSH1 0x4 DUP3 ADD MSTORE ADDRESS PUSH1 0x24 DUP3 ADD MSTORE PUSH1 0x84 CALLDATALOAD PUSH1 0x44 DUP3 ADD MSTORE PUSH1 0x20 DUP2 PUSH1 0x64 DUP2 DUP8 PUSH1 0x1 PUSH1 0x1 PUSH1 0xA0 SHL SUB DUP8 AND GAS CALL DUP1 ISZERO PUSH2 0x669 JUMPI PUSH2 0x7F8 JUMPI JUMPDEST POP PUSH1 0x1 SLOAD PUSH1 0x40 MLOAD PUSH4 0x95EA7B3 PUSH1 0xE0 SHL DUP2 MSTORE PUSH1 0x1 PUSH1 0x1 PUSH1 0xA0 SHL SUB SWAP1 SWAP2 AND PUSH1 0x4 DUP3 ADD MSTORE PUSH1 0x64 CALLDATALOAD PUSH1 0x24 DUP3 ADD MSTORE PUSH1 0x20 DUP2 DUP1 PUSH1 0x44 DUP2 ADD SUB DUP2 DUP8 PUSH1 0x1 PUSH1 0x1 PUSH1 0xA0 SHL SUB DUP12 AND GAS CALL DUP1 ISZERO PUSH2 0x669 JUMPI PUSH2 0x7D9 JUMPI JUMPDEST POP PUSH1 0x1 SLOAD PUSH1 0x40 MLOAD PUSH4 0x95EA7B3 PUSH1 0xE0 SHL DUP2 MSTORE PUSH1 0x1 PUSH1 0x1 PUSH1 0xA0 SHL SUB SWAP1 SWAP2 AND PUSH1 0x4 DUP3 ADD MSTORE PUSH1 0x84 CALLDATALOAD PUSH1 0x24 DUP3 ADD MSTORE PUSH1 0x20 DUP2 DUP1 PUSH1 0x44 DUP2 ADD SUB DUP2 DUP8 PUSH1 0x1 PUSH1 0x1 PUSH1 0xA0 SHL SUB DUP8 AND GAS CALL DUP1 ISZERO PUSH2 0x669 JUMPI PUSH2 0x7BA JUMPI JUMPDEST POP PUSH5 0x1000276A3 PUSH1 0xC4 CALLDATALOAD PUSH1 0x1 PUSH1 0x1 PUSH1 0xA0 SHL SUB AND LT ISZERO DUP1 PUSH2 0x791 JUMPI JUMPDEST DUP1 PUSH2 0x777 JUMPI JUMPDEST ISZERO PUSH2 0x73C JUMPI PUSH2 0x2A7 PUSH1 0xC4 CALLDATALOAD PUSH2 0x193F JUMP JUMPDEST PUSH2 0x2B2 PUSH1 0xE4 CALLDATALOAD PUSH2 0x193F JUMP JUMPDEST PUSH1 0x2 SIGNEXTEND SWAP1 DUP2 DUP2 PUSH1 0x2 SIGNEXTEND SLT DUP1 PUSH2 0x72B JUMPI JUMPDEST DUP1 PUSH2 0x71E JUMPI JUMPDEST ISZERO PUSH2 0x6E4 JUMPI PUSH1 0x40 MLOAD SWAP4 DUP5 PUSH2 0x160 DUP2 ADD LT PUSH8 0xFFFFFFFFFFFFFFFF PUSH2 0x160 DUP8 ADD GT OR PUSH2 0x6CE JUMPI PUSH3 0xFFFFFF SWAP1 PUSH2 0x160 DUP7 ADD PUSH1 0x40 MSTORE PUSH1 0x1 DUP1 PUSH1 0xA0 SHL SUB DUP10 AND DUP7 MSTORE PUSH1 0x1 DUP1 PUSH1 0xA0 SHL SUB DUP6 AND PUSH1 0x20 DUP8 ADD MSTORE AND PUSH1 0x40 DUP6 ADD MSTORE DUP1 PUSH1 0x2 SIGNEXTEND PUSH1 0x60 DUP6 ADD MSTORE DUP2 PUSH1 0x80 DUP6 ADD MSTORE PUSH1 0x64 CALLDATALOAD PUSH1 0xA0 DUP6 ADD MSTORE PUSH1 0x84 CALLDATALOAD PUSH1 0xC0 DUP6 ADD MSTORE DUP5 PUSH1 0xE0 DUP6 ADD MSTORE DUP5 PUSH2 0x100 DUP6 ADD MSTORE ADDRESS PUSH2 0x120 DUP6 ADD MSTORE TIMESTAMP PUSH2 0x140 DUP6 ADD MSTORE PUSH1 0x80 PUSH2 0x140 PUSH2 0x164 PUSH1 0x1 DUP1 PUSH1 0xA0 SHL SUB PUSH1 0x1 SLOAD AND SWAP7 DUP9 PUSH1 0x40 MLOAD SWAP9 DUP10 SWAP5 DUP6 SWAP4 PUSH4 0x4418B22B PUSH1 0xE1 SHL DUP6 MSTORE PUSH1 0x1 DUP1 PUSH1 0xA0 SHL SUB DUP2 MLOAD AND PUSH1 0x4 DUP7 ADD MSTORE PUSH1 0x1 DUP1 PUSH1 0xA0 SHL SUB PUSH1 0x20 DUP3 ADD MLOAD AND PUSH1 0x24 DUP7 ADD MSTORE PUSH3 0xFFFFFF PUSH1 0x40 DUP3 ADD MLOAD AND PUSH1 0x44 DUP7 ADD MSTORE PUSH1 0x60 DUP2 ADD MLOAD PUSH1 0x2 SIGNEXTEND PUSH1 0x64 DUP7 ADD MSTORE DUP8 DUP2 ADD MLOAD PUSH1 0x2 SIGNEXTEND PUSH1 0x84 DUP7 ADD MSTORE PUSH1 0xA0 DUP2 ADD MLOAD PUSH1 0xA4 DUP7 ADD MSTORE PUSH1 0xC0 DUP2 ADD MLOAD PUSH1 0xC4 DUP7 ADD MSTORE PUSH1 0xE0 DUP2 ADD MLOAD PUSH1 0xE4 DUP7 ADD MSTORE PUSH2 0x100 DUP2 ADD MLOAD PUSH2 0x104 DUP7 ADD MSTORE PUSH1 0x1 DUP1 PUSH1 0xA0 SHL SUB PUSH2 0x120 DUP3 ADD MLOAD AND PUSH2 0x124 DUP7 ADD MSTORE ADD MLOAD PUSH2 0x144 DUP5 ADD MSTORE GAS CALL SWAP5 DUP6 ISZERO PUSH2 0x55E JUMPI DUP1 SWAP4 DUP2 SWAP9 DUP3 SWAP7 DUP4 SWAP9 PUSH2 0x674 JUMPI JUMPDEST POP PUSH1 0x64 CALLDATALOAD DUP8 LT PUSH2 0x592 JUMPI JUMPDEST POP PUSH1 0x84 CALLDATALOAD DUP8 LT PUSH2 0x476 JUMPI JUMPDEST POP POP SWAP2 PUSH1 0xE0 SWAP7 SWAP2 PUSH1 0x1 PUSH1 0x1 PUSH1 0x80 SHL SUB SWAP4 PUSH1 0x40 MLOAD SWAP8 PUSH1 0x1 DUP1 PUSH1 0xA0 SHL SUB AND DUP9 MSTORE PUSH1 0x2 SIGNEXTEND PUSH1 0x20 DUP9 ADD MSTORE PUSH1 0x40 DUP8 ADD MSTORE PUSH1 0x60 DUP7 ADD MSTORE AND PUSH1 0x80 DUP5 ADD MSTORE PUSH1 0xA0 DUP4 ADD MSTORE PUSH1 0xC0 DUP3 ADD MSTORE RETURN JUMPDEST PUSH1 0x1 SLOAD PUSH1 0x40 MLOAD PUSH4 0x95EA7B3 PUSH1 0xE0 SHL DUP2 MSTORE PUSH1 0x1 PUSH1 0x1 PUSH1 0xA0 SHL SUB SWAP2 DUP3 AND PUSH1 0x4 DUP3 ADD MSTORE PUSH1 0x24 DUP2 ADD DUP5 SWAP1 MSTORE SWAP1 PUSH1 0x20 SWAP1 DUP3 SWAP1 PUSH1 0x44 SWAP1 DUP3 SWAP1 DUP8 SWAP1 DUP8 AND GAS CALL DUP1 ISZERO PUSH2 0x587 JUMPI DUP4 SWAP3 PUSH1 0x20 SWAP3 PUSH2 0x4F9 SWAP3 PUSH2 0x56A JUMPI JUMPDEST POP PUSH2 0x4CF DUP11 PUSH1 0x84 CALLDATALOAD PUSH2 0x1815 JUMP JUMPDEST PUSH1 0x40 MLOAD PUSH4 0xA9059CBB PUSH1 0xE0 SHL DUP2 MSTORE CALLER PUSH1 0x4 DUP3 ADD MSTORE PUSH1 0x24 DUP2 ADD SWAP2 SWAP1 SWAP2 MSTORE SWAP5 DUP6 SWAP3 DUP4 SWAP2 SWAP1 DUP3 SWAP1 PUSH1 0x44 DUP3 ADD SWAP1 JUMP JUMPDEST SUB SWAP3 PUSH1 0x1 PUSH1 0x1 PUSH1 0xA0 SHL SUB AND GAS CALL SWAP1 DUP2 ISZERO PUSH2 0x55E JUMPI POP SWAP2 PUSH1 0xE0 SWAP9 SWAP4 SWAP2 PUSH1 0x1 PUSH1 0x1 PUSH1 0x80 SHL SUB SWAP6 SWAP4 PUSH2 0x52F JUMPI JUMPDEST POP SWAP2 SWAP4 DUP2 SWAP4 SWAP9 POP PUSH2 0x434 JUMP JUMPDEST PUSH2 0x550 SWAP1 PUSH1 0x20 RETURNDATASIZE PUSH1 0x20 GT PUSH2 0x557 JUMPI JUMPDEST PUSH2 0x548 DUP2 DUP4 PUSH2 0x175C JUMP JUMPDEST DUP2 ADD SWAP1 PUSH2 0x177E JUMP JUMPDEST POP CODESIZE PUSH2 0x523 JUMP JUMPDEST POP RETURNDATASIZE PUSH2 0x53E JUMP JUMPDEST PUSH1 0x40 MLOAD SWAP1 RETURNDATASIZE SWAP1 DUP3 RETURNDATACOPY RETURNDATASIZE SWAP1 REVERT JUMPDEST PUSH2 0x580 SWAP1 DUP5 RETURNDATASIZE DUP7 GT PUSH2 0x557 JUMPI PUSH2 0x548 DUP2 DUP4 PUSH2 0x175C JUMP JUMPDEST POP CODESIZE PUSH2 0x4C2 JUMP JUMPDEST PUSH1 0x40 MLOAD RETURNDATASIZE DUP6 DUP3 RETURNDATACOPY RETURNDATASIZE SWAP1 REVERT JUMPDEST PUSH1 0x1 SLOAD PUSH1 0x40 MLOAD PUSH4 0x95EA7B3 PUSH1 0xE0 SHL DUP2 MSTORE PUSH1 0x1 PUSH1 0x1 PUSH1 0xA0 SHL SUB SWAP2 DUP3 AND PUSH1 0x4 DUP3 ADD MSTORE PUSH1 0x24 DUP2 ADD DUP6 SWAP1 MSTORE SWAP1 PUSH1 0x20 SWAP1 DUP3 SWAP1 PUSH1 0x44 SWAP1 DUP3 SWAP1 DUP9 SWAP1 DUP8 AND GAS CALL DUP1 ISZERO PUSH2 0x669 JUMPI DUP5 SWAP3 PUSH1 0x20 SWAP3 PUSH2 0x615 SWAP3 PUSH2 0x64C JUMPI JUMPDEST POP PUSH2 0x5EB DUP11 PUSH1 0x64 CALLDATALOAD PUSH2 0x1815 JUMP JUMPDEST PUSH1 0x40 MLOAD PUSH4 0xA9059CBB PUSH1 0xE0 SHL DUP2 MSTORE CALLER PUSH1 0x4 DUP3 ADD MSTORE PUSH1 0x24 DUP2 ADD SWAP2 SWAP1 SWAP2 MSTORE SWAP4 DUP5 SWAP3 DUP4 SWAP2 SWAP1 DUP3 SWAP1 PUSH1 0x44 DUP3 ADD SWAP1 JUMP JUMPDEST SUB SWAP3 PUSH1 0x1 PUSH1 0x1 PUSH1 0xA0 SHL SUB AND GAS CALL DUP1 ISZERO PUSH2 0x587 JUMPI ISZERO PUSH2 0x429 JUMPI PUSH2 0x645 SWAP1 PUSH1 0x20 RETURNDATASIZE PUSH1 0x20 GT PUSH2 0x557 JUMPI PUSH2 0x548 DUP2 DUP4 PUSH2 0x175C JUMP JUMPDEST POP CODESIZE PUSH2 0x429 JUMP JUMPDEST PUSH2 0x662 SWAP1 DUP5 RETURNDATASIZE DUP7 GT PUSH2 0x557 JUMPI PUSH2 0x548 DUP2 DUP4 PUSH2 0x175C JUMP JUMPDEST POP CODESIZE PUSH2 0x5DE JUMP JUMPDEST PUSH1 0x40 MLOAD RETURNDATASIZE DUP7 DUP3 RETURNDATACOPY RETURNDATASIZE SWAP1 REVERT JUMPDEST SWAP10 POP SWAP7 POP SWAP4 POP SWAP4 POP PUSH1 0x80 DUP8 RETURNDATASIZE PUSH1 0x80 GT PUSH2 0x6C6 JUMPI JUMPDEST DUP2 PUSH2 0x695 PUSH1 0x80 SWAP4 DUP4 PUSH2 0x175C JUMP JUMPDEST DUP2 ADD SUB SLT PUSH2 0x6C2 JUMPI DUP7 MLOAD SWAP4 PUSH2 0x6AC PUSH1 0x20 DUP10 ADD PUSH2 0x1801 JUMP JUMPDEST SWAP4 PUSH1 0x60 PUSH1 0x40 DUP11 ADD MLOAD SWAP10 ADD MLOAD SWAP6 SWAP5 SWAP9 SWAP6 SWAP7 CODESIZE PUSH2 0x41E JUMP JUMPDEST DUP4 DUP1 REVERT JUMPDEST RETURNDATASIZE SWAP2 POP PUSH2 0x688 JUMP JUMPDEST PUSH4 0x4E487B71 PUSH1 0xE0 SHL PUSH1 0x0 MSTORE PUSH1 0x41 PUSH1 0x4 MSTORE PUSH1 0x24 PUSH1 0x0 REVERT JUMPDEST PUSH1 0x40 MLOAD PUSH3 0x461BCD PUSH1 0xE5 SHL DUP2 MSTORE PUSH1 0x20 PUSH1 0x4 DUP3 ADD MSTORE PUSH1 0x12 PUSH1 0x24 DUP3 ADD MSTORE PUSH18 0x5469636B73206F7574206F662072616E6765 PUSH1 0x70 SHL PUSH1 0x44 DUP3 ADD MSTORE PUSH1 0x64 SWAP1 REVERT JUMPDEST POP PUSH3 0xD89E8 DUP3 SGT ISZERO PUSH2 0x2C8 JUMP JUMPDEST POP PUSH3 0xD89E7 NOT DUP2 PUSH1 0x2 SIGNEXTEND SLT ISZERO PUSH2 0x2C2 JUMP JUMPDEST PUSH1 0x40 MLOAD PUSH3 0x461BCD PUSH1 0xE5 SHL DUP2 MSTORE PUSH1 0x20 PUSH1 0x4 DUP3 ADD MSTORE PUSH1 0x13 PUSH1 0x24 DUP3 ADD MSTORE PUSH19 0x496E76616C69642070726963652072616E6765 PUSH1 0x68 SHL PUSH1 0x44 DUP3 ADD MSTORE PUSH1 0x64 SWAP1 REVERT JUMPDEST POP PUSH1 0x1 PUSH1 0x1 PUSH1 0xA0 SHL SUB PUSH1 0xE4 CALLDATALOAD DUP2 AND PUSH1 0xC4 CALLDATALOAD SWAP1 SWAP2 AND LT PUSH2 0x297 JUMP JUMPDEST POP PUSH20 0xFFFD8963EFD1FC6A506488495D951D5263988D26 PUSH1 0xE4 CALLDATALOAD PUSH1 0x1 PUSH1 0x1 PUSH1 0xA0 SHL SUB AND GT ISZERO PUSH2 0x291 JUMP JUMPDEST PUSH2 0x7D2 SWAP1 PUSH1 0x20 RETURNDATASIZE PUSH1 0x20 GT PUSH2 0x557 JUMPI PUSH2 0x548 DUP2 DUP4 PUSH2 0x175C JUMP JUMPDEST POP CODESIZE PUSH2 0x276 JUMP JUMPDEST PUSH2 0x7F1 SWAP1 PUSH1 0x20 RETURNDATASIZE PUSH1 0x20 GT PUSH2 0x557 JUMPI PUSH2 0x548 DUP2 DUP4 PUSH2 0x175C JUMP JUMPDEST POP CODESIZE PUSH2 0x22B JUMP JUMPDEST PUSH2 0x810 SWAP1 PUSH1 0x20 RETURNDATASIZE PUSH1 0x20 GT PUSH2 0x557 JUMPI PUSH2 0x548 DUP2 DUP4 PUSH2 0x175C JUMP JUMPDEST POP CODESIZE PUSH2 0x1E0 JUMP JUMPDEST PUSH2 0x82F SWAP1 PUSH1 0x20 RETURNDATASIZE PUSH1 0x20 GT PUSH2 0x557 JUMPI PUSH2 0x548 DUP2 DUP4 PUSH2 0x175C JUMP JUMPDEST POP CODESIZE PUSH2 0x1A0 JUMP JUMPDEST PUSH2 0x859 SWAP2 SWAP5 POP PUSH1 0x20 RETURNDATASIZE PUSH1 0x20 GT PUSH2 0x860 JUMPI JUMPDEST PUSH2 0x851 DUP2 DUP4 PUSH2 0x175C JUMP JUMPDEST DUP2 ADD SWAP1 PUSH2 0x17E2 JUMP JUMPDEST SWAP3 CODESIZE PUSH2 0x15F JUMP JUMPDEST POP RETURNDATASIZE PUSH2 0x847 JUMP JUMPDEST PUSH1 0x0 DUP1 REVERT JUMPDEST DUP1 REVERT JUMPDEST POP CALLVALUE PUSH2 0x86C JUMPI DUP1 PUSH1 0x3 NOT CALLDATASIZE ADD SLT PUSH2 0x86C JUMPI PUSH1 0x20 PUSH1 0x40 MLOAD PUSH20 0x1F98431C8AD98523631AE4A59F267346EA31F984 DUP2 MSTORE RETURN JUMPDEST POP PUSH1 0x80 CALLDATASIZE PUSH1 0x3 NOT ADD SLT PUSH2 0x86C JUMPI PUSH2 0x8B3 PUSH2 0x16D2 JUMP JUMPDEST PUSH2 0x8BB PUSH2 0x16E8 JUMP JUMPDEST SWAP1 PUSH2 0x8C4 PUSH2 0x16FE JUMP JUMPDEST SWAP1 PUSH2 0x8D0 PUSH1 0x64 CALLDATALOAD PUSH2 0x18C9 JUMP JUMPDEST SWAP1 DUP2 PUSH1 0x60 SHL SWAP2 DUP1 DUP4 DIV PUSH1 0x1 PUSH1 0x60 SHL EQ SWAP1 ISZERO OR ISZERO PUSH2 0x96D JUMPI PUSH1 0x1 SLOAD PUSH1 0x40 MLOAD PUSH4 0x9F56AB1 PUSH1 0xE1 SHL DUP2 MSTORE PUSH1 0x1 PUSH1 0x1 PUSH1 0xA0 SHL SUB SWAP3 DUP4 AND PUSH1 0x4 DUP3 ADD MSTORE SWAP5 DUP3 AND PUSH1 0x24 DUP7 ADD MSTORE PUSH3 0xFFFFFF SWAP1 SWAP4 AND PUSH1 0x44 DUP6 ADD MSTORE SWAP1 DUP2 AND PUSH1 0x64 DUP5 ADD MSTORE SWAP1 PUSH1 0x20 SWAP1 DUP4 SWAP1 PUSH1 0x84 SWAP1 DUP3 SWAP1 CALLVALUE SWAP1 DUP7 AND GAS CALL SWAP2 DUP3 ISZERO PUSH2 0x587 JUMPI PUSH1 0x20 SWAP4 SWAP3 PUSH2 0x94E JUMPI JUMPDEST POP PUSH1 0x40 MLOAD SWAP2 AND DUP2 MSTORE RETURN JUMPDEST PUSH2 0x966 SWAP2 SWAP3 POP DUP4 RETURNDATASIZE DUP2 GT PUSH2 0x860 JUMPI PUSH2 0x851 DUP2 DUP4 PUSH2 0x175C JUMP JUMPDEST SWAP1 CODESIZE PUSH2 0x944 JUMP JUMPDEST PUSH4 0x4E487B71 PUSH1 0xE0 SHL DUP6 MSTORE PUSH1 0x11 PUSH1 0x4 MSTORE PUSH1 0x24 DUP6 REVERT JUMPDEST POP CALLVALUE PUSH2 0x86C JUMPI PUSH1 0x80 CALLDATASIZE PUSH1 0x3 NOT ADD SLT PUSH2 0x86C JUMPI PUSH1 0x1 PUSH1 0x1 PUSH1 0xA0 SHL SUB PUSH1 0x4 CALLDATALOAD DUP2 DUP2 AND SWAP2 DUP4 SWAP2 DUP4 SWAP1 SUB PUSH2 0xB61 JUMPI PUSH1 0x24 CALLDATALOAD DUP2 DUP2 AND DUP1 SWAP2 SUB PUSH2 0xB5D JUMPI PUSH1 0x40 MLOAD PUSH4 0x23B872DD PUSH1 0xE0 SHL DUP1 DUP3 MSTORE CALLER PUSH1 0x4 DUP4 ADD MSTORE ADDRESS PUSH1 0x24 DUP4 ADD MSTORE PUSH1 0x44 DUP1 CALLDATALOAD SWAP1 DUP4 ADD DUP2 SWAP1 MSTORE PUSH1 0x20 SWAP7 PUSH1 0x64 DUP1 CALLDATALOAD SWAP6 SWAP5 SWAP3 SWAP4 SWAP2 SWAP3 SWAP1 DUP10 SWAP1 DUP3 SWAP1 DUP2 DUP12 DUP8 GAS CALL DUP1 ISZERO PUSH2 0xB52 JUMPI PUSH2 0xB35 JUMPI JUMPDEST POP PUSH1 0x40 MLOAD SWAP1 DUP2 MSTORE CALLER PUSH1 0x4 DUP3 ADD MSTORE ADDRESS PUSH1 0x24 DUP3 ADD MSTORE PUSH1 0x44 DUP2 ADD DUP6 SWAP1 MSTORE DUP8 DUP2 PUSH1 0x64 DUP2 DUP11 DUP9 GAS CALL DUP1 ISZERO PUSH2 0xB2A JUMPI DUP8 SWAP3 DUP10 SWAP3 PUSH2 0xA6F SWAP3 PUSH2 0xB0D JUMPI JUMPDEST POP PUSH1 0x1 SLOAD PUSH1 0x40 MLOAD PUSH4 0x95EA7B3 PUSH1 0xE0 SHL DUP1 DUP3 MSTORE SWAP2 DUP11 AND PUSH1 0x1 PUSH1 0x1 PUSH1 0xA0 SHL SUB AND PUSH1 0x4 DUP3 ADD MSTORE PUSH1 0x24 DUP2 ADD SWAP7 SWAP1 SWAP7 MSTORE SWAP5 SWAP9 DUP10 SWAP3 DUP4 SWAP2 SWAP1 DUP3 SWAP1 PUSH1 0x44 DUP3 ADD SWAP1 JUMP JUMPDEST SUB SWAP3 GAS CALL SWAP5 DUP6 ISZERO PUSH2 0xB00 JUMPI PUSH2 0xAB4 SWAP7 DUP9 SWAP7 PUSH2 0xAE3 JUMPI JUMPDEST POP PUSH1 0x1 SLOAD PUSH1 0x40 MLOAD SWAP4 DUP5 MSTORE AND PUSH1 0x1 PUSH1 0x1 PUSH1 0xA0 SHL SUB AND PUSH1 0x4 DUP4 ADD MSTORE PUSH1 0x24 DUP3 ADD SWAP4 SWAP1 SWAP4 MSTORE SWAP4 DUP5 SWAP3 DUP4 SWAP2 DUP3 SWAP1 PUSH1 0x44 DUP3 ADD SWAP1 JUMP JUMPDEST SUB SWAP3 GAS CALL DUP1 ISZERO PUSH2 0x587 JUMPI PUSH2 0xAC6 JUMPI DUP3 DUP1 RETURN JUMPDEST DUP2 PUSH2 0xADC SWAP3 SWAP1 RETURNDATASIZE LT PUSH2 0x557 JUMPI PUSH2 0x548 DUP2 DUP4 PUSH2 0x175C JUMP JUMPDEST POP CODESIZE DUP1 DUP3 DUP1 RETURN JUMPDEST PUSH2 0xAF9 SWAP1 DUP8 RETURNDATASIZE DUP10 GT PUSH2 0x557 JUMPI PUSH2 0x548 DUP2 DUP4 PUSH2 0x175C JUMP JUMPDEST POP CODESIZE PUSH2 0xA85 JUMP JUMPDEST POP PUSH1 0x40 MLOAD SWAP1 RETURNDATASIZE SWAP1 DUP3 RETURNDATACOPY RETURNDATASIZE SWAP1 REVERT JUMPDEST PUSH2 0xB23 SWAP1 DUP5 RETURNDATASIZE DUP7 GT PUSH2 0x557 JUMPI PUSH2 0x548 DUP2 DUP4 PUSH2 0x175C JUMP JUMPDEST POP CODESIZE PUSH2 0xA34 JUMP JUMPDEST PUSH1 0x40 MLOAD RETURNDATASIZE DUP10 DUP3 RETURNDATACOPY RETURNDATASIZE SWAP1 REVERT JUMPDEST PUSH2 0xB4B SWAP1 DUP10 RETURNDATASIZE DUP12 GT PUSH2 0x557 JUMPI PUSH2 0x548 DUP2 DUP4 PUSH2 0x175C JUMP JUMPDEST POP CODESIZE PUSH2 0x9FE JUMP JUMPDEST PUSH1 0x40 MLOAD RETURNDATASIZE DUP11 DUP3 RETURNDATACOPY RETURNDATASIZE SWAP1 REVERT JUMPDEST DUP3 DUP1 REVERT JUMPDEST POP DUP1 REVERT JUMPDEST POP CALLVALUE PUSH2 0x86C JUMPI PUSH1 0x40 CALLDATASIZE PUSH1 0x3 NOT ADD SLT PUSH2 0x86C JUMPI PUSH1 0x4 CALLDATALOAD PUSH1 0x1 PUSH1 0x1 PUSH1 0xA0 SHL SUB DUP2 AND SWAP1 DUP2 SWAP1 SUB PUSH2 0xB61 JUMPI PUSH1 0x24 CALLDATALOAD SWAP1 DUP2 SELFBALANCE LT PUSH2 0xBB7 JUMPI DUP3 DUP1 DUP1 SWAP4 DUP2 SWAP4 DUP3 DUP3 ISZERO PUSH2 0xBAE JUMPI JUMPDEST CALL ISZERO PUSH2 0x55E JUMPI DUP1 RETURN JUMPDEST POP PUSH2 0x8FC PUSH2 0xBA5 JUMP JUMPDEST PUSH1 0x40 MLOAD PUSH3 0x461BCD PUSH1 0xE5 SHL DUP2 MSTORE PUSH1 0x20 PUSH1 0x4 DUP3 ADD MSTORE PUSH1 0x24 DUP1 DUP3 ADD MSTORE PUSH32 0x496E73756666696369656E742062616C616E636520696E2074686520636F6E74 PUSH1 0x44 DUP3 ADD MSTORE PUSH4 0x1C9858DD PUSH1 0xE2 SHL PUSH1 0x64 DUP3 ADD MSTORE PUSH1 0x84 SWAP1 REVERT JUMPDEST POP CALLVALUE PUSH2 0x86C JUMPI PUSH1 0xA0 CALLDATASIZE PUSH1 0x3 NOT ADD SLT PUSH2 0x86C JUMPI PUSH2 0xC22 PUSH2 0x16D2 JUMP JUMPDEST PUSH2 0xC2A PUSH2 0x16E8 JUMP JUMPDEST PUSH1 0x44 CALLDATALOAD SWAP2 PUSH1 0x84 CALLDATALOAD SWAP1 PUSH3 0xFFFFFF DUP3 AND DUP1 SWAP3 SUB PUSH2 0x867 JUMPI PUSH1 0x40 MLOAD PUSH4 0x95EA7B3 PUSH1 0xE0 SHL DUP2 MSTORE PUSH20 0xE592427A0AECE92DE3EDEE1F18E0157C05861564 PUSH1 0x4 DUP3 ADD MSTORE PUSH1 0x24 DUP2 ADD DUP6 SWAP1 MSTORE PUSH1 0x1 PUSH1 0x1 PUSH1 0xA0 SHL SUB SWAP2 SWAP1 SWAP2 AND SWAP1 PUSH1 0x20 DUP2 PUSH1 0x44 DUP2 DUP10 DUP7 GAS CALL SWAP1 DUP2 ISZERO PUSH2 0xE16 JUMPI DUP7 SWAP2 PUSH2 0xDF7 JUMPI JUMPDEST POP ISZERO PUSH2 0xDC0 JUMPI PUSH2 0xE10 TIMESTAMP ADD SWAP3 DUP4 TIMESTAMP GT PUSH2 0xDAC JUMPI PUSH1 0x40 MLOAD SWAP5 PUSH2 0x100 DUP7 ADD SWAP1 DUP7 DUP3 LT PUSH8 0xFFFFFFFFFFFFFFFF DUP4 GT OR PUSH2 0x6CE JUMPI PUSH1 0x40 SWAP2 DUP3 MSTORE SWAP3 DUP7 MSTORE PUSH1 0x1 PUSH1 0x1 PUSH1 0xA0 SHL SUB SWAP2 DUP3 AND PUSH1 0x20 DUP1 DUP9 ADD SWAP2 DUP3 MSTORE DUP3 DUP9 ADD SWAP6 DUP7 MSTORE ADDRESS PUSH1 0x60 DUP10 ADD SWAP1 DUP2 MSTORE PUSH1 0x80 DUP10 ADD SWAP8 DUP9 MSTORE PUSH1 0xA0 DUP10 ADD SWAP6 DUP7 MSTORE PUSH1 0x64 DUP1 CALLDATALOAD PUSH1 0xC0 DUP12 ADD SWAP1 DUP2 MSTORE PUSH1 0xE0 DUP12 ADD DUP13 DUP2 MSTORE PUSH1 0x2 SLOAD SWAP7 MLOAD PUSH4 0x414BF389 PUSH1 0xE0 SHL DUP2 MSTORE SWAP12 MLOAD DUP9 AND PUSH1 0x4 DUP14 ADD MSTORE SWAP5 MLOAD DUP8 AND PUSH1 0x24 DUP13 ADD MSTORE SWAP8 MLOAD PUSH3 0xFFFFFF AND PUSH1 0x44 DUP12 ADD MSTORE SWAP1 MLOAD DUP6 AND SWAP1 DUP10 ADD MSTORE SWAP6 MLOAD PUSH1 0x84 DUP9 ADD MSTORE SWAP3 MLOAD PUSH1 0xA4 DUP8 ADD MSTORE SWAP3 MLOAD PUSH1 0xC4 DUP7 ADD MSTORE SWAP1 MLOAD DUP2 AND PUSH1 0xE4 DUP6 ADD MSTORE DUP4 SWAP2 PUSH2 0x104 SWAP2 DUP4 SWAP2 DUP8 SWAP2 AND GAS CALL DUP1 ISZERO PUSH2 0xDA1 JUMPI PUSH2 0xD79 JUMPI POP DUP1 RETURN JUMPDEST PUSH1 0x20 SWAP1 DUP2 RETURNDATASIZE DUP4 GT PUSH2 0xD9A JUMPI JUMPDEST PUSH2 0xD8F DUP2 DUP4 PUSH2 0x175C JUMP JUMPDEST DUP2 ADD SUB SLT PUSH2 0x867 JUMPI DUP1 RETURN JUMPDEST POP RETURNDATASIZE PUSH2 0xD85 JUMP JUMPDEST PUSH1 0x40 MLOAD RETURNDATASIZE DUP5 DUP3 RETURNDATACOPY RETURNDATASIZE SWAP1 REVERT JUMPDEST PUSH4 0x4E487B71 PUSH1 0xE0 SHL DUP7 MSTORE PUSH1 0x11 PUSH1 0x4 MSTORE PUSH1 0x24 DUP7 REVERT JUMPDEST PUSH1 0x40 MLOAD PUSH3 0x461BCD PUSH1 0xE5 SHL DUP2 MSTORE PUSH1 0x20 PUSH1 0x4 DUP3 ADD MSTORE PUSH1 0xF PUSH1 0x24 DUP3 ADD MSTORE PUSH15 0x105C1C1C9BDD985B0819985A5B1959 PUSH1 0x8A SHL PUSH1 0x44 DUP3 ADD MSTORE PUSH1 0x64 SWAP1 REVERT JUMPDEST PUSH2 0xE10 SWAP2 POP PUSH1 0x20 RETURNDATASIZE PUSH1 0x20 GT PUSH2 0x557 JUMPI PUSH2 0x548 DUP2 DUP4 PUSH2 0x175C JUMP JUMPDEST CODESIZE PUSH2 0xC92 JUMP JUMPDEST PUSH1 0x40 MLOAD RETURNDATASIZE DUP9 DUP3 RETURNDATACOPY RETURNDATASIZE SWAP1 REVERT JUMPDEST POP CALLVALUE PUSH2 0x86C JUMPI DUP1 DUP1 PUSH2 0xE32 CALLDATASIZE PUSH2 0x16AC JUMP JUMPDEST SWAP2 SWAP1 PUSH1 0x40 MLOAD PUSH2 0xE40 DUP2 PUSH2 0x1710 JUMP JUMPDEST DUP2 DUP2 MSTORE PUSH1 0x1 PUSH1 0x1 PUSH1 0x80 SHL SUB SWAP4 DUP5 AND PUSH1 0x20 DUP3 ADD MSTORE PUSH1 0x40 DUP1 DUP3 ADD DUP5 SWAP1 MSTORE PUSH1 0x60 DUP3 ADD DUP5 SWAP1 MSTORE TIMESTAMP PUSH1 0x80 DUP4 ADD MSTORE PUSH1 0x1 SLOAD DUP2 MLOAD PUSH4 0x624E65F PUSH1 0xE1 SHL DUP2 MSTORE SWAP7 PUSH1 0x1 PUSH1 0x1 PUSH1 0xA0 SHL SUB SWAP4 DUP9 SWAP3 DUP6 AND SWAP2 DUP4 SWAP2 DUP3 SWAP1 PUSH2 0xE97 SWAP1 PUSH1 0x4 DUP4 ADD PUSH2 0x188C JUMP JUMPDEST SUB SWAP3 GAS CALL SWAP4 DUP5 ISZERO PUSH2 0x587 JUMPI DUP4 SWAP6 DUP5 SWAP6 PUSH2 0xF52 JUMPI JUMPDEST POP SWAP2 PUSH2 0xEF2 SWAP2 PUSH1 0x40 SWAP4 DUP5 MLOAD SWAP3 PUSH2 0xEC0 DUP5 PUSH2 0x1740 JUMP JUMPDEST DUP4 MSTORE ADDRESS PUSH1 0x20 DUP5 ADD MSTORE DUP1 DUP6 DUP5 ADD MSTORE PUSH1 0x60 DUP4 ADD MSTORE PUSH1 0x1 SLOAD AND SWAP1 DUP4 MLOAD SWAP8 DUP9 DUP1 SWAP5 DUP2 SWAP4 PUSH4 0xFC6F7865 PUSH1 0xE0 SHL DUP4 MSTORE PUSH1 0x4 DUP4 ADD PUSH2 0x184E JUMP JUMPDEST SUB SWAP3 GAS CALL SWAP2 DUP3 ISZERO PUSH2 0xB00 JUMPI PUSH1 0x80 SWAP5 DUP3 SWAP4 PUSH2 0xF1F JUMPI JUMPDEST POP PUSH1 0x40 MLOAD SWAP4 DUP5 MSTORE PUSH1 0x20 DUP5 ADD MSTORE PUSH1 0x40 DUP4 ADD MSTORE PUSH1 0x60 DUP3 ADD MSTORE RETURN JUMPDEST SWAP1 SWAP3 POP PUSH2 0xF44 SWAP2 POP PUSH1 0x40 RETURNDATASIZE PUSH1 0x40 GT PUSH2 0xF4B JUMPI JUMPDEST PUSH2 0xF3C DUP2 DUP4 PUSH2 0x175C JUMP JUMPDEST DUP2 ADD SWAP1 PUSH2 0x1838 JUMP JUMPDEST SWAP2 CODESIZE PUSH2 0xF07 JUMP JUMPDEST POP RETURNDATASIZE PUSH2 0xF32 JUMP JUMPDEST PUSH2 0xEF2 SWAP3 SWAP7 POP PUSH1 0x40 SWAP4 SWAP2 SWAP6 POP PUSH2 0xF74 SWAP1 DUP5 RETURNDATASIZE DUP7 GT PUSH2 0xF4B JUMPI PUSH2 0xF3C DUP2 DUP4 PUSH2 0x175C JUMP JUMPDEST SWAP7 SWAP1 SWAP7 SWAP6 SWAP2 SWAP4 POP SWAP2 PUSH2 0xEAB JUMP JUMPDEST POP CALLVALUE PUSH2 0x86C JUMPI DUP1 PUSH1 0x3 NOT CALLDATASIZE ADD SLT PUSH2 0x86C JUMPI PUSH1 0x20 PUSH1 0x40 MLOAD PUSH20 0xC36442B4A4522E871399CD717ABDD847AB11FE88 DUP2 MSTORE RETURN JUMPDEST POP CALLVALUE PUSH2 0x86C JUMPI PUSH1 0x60 CALLDATASIZE PUSH1 0x3 NOT ADD SLT PUSH2 0x86C JUMPI PUSH2 0xFCA PUSH2 0x16D2 JUMP JUMPDEST PUSH2 0xFD2 PUSH2 0x16E8 JUMP JUMPDEST PUSH1 0x40 MLOAD PUSH4 0x70A08231 PUSH1 0xE0 SHL DUP2 MSTORE ADDRESS PUSH1 0x4 DUP3 ADD MSTORE PUSH1 0x20 SWAP3 PUSH1 0x44 CALLDATALOAD SWAP3 PUSH1 0x1 PUSH1 0x1 PUSH1 0xA0 SHL SUB SWAP1 SWAP2 AND SWAP2 DUP5 DUP2 PUSH1 0x24 DUP2 DUP7 GAS STATICCALL DUP1 ISZERO PUSH2 0xE16 JUMPI DUP5 SWAP2 DUP8 SWAP2 PUSH2 0x1086 JUMPI JUMPDEST POP LT PUSH2 0x104A JUMPI PUSH1 0x40 MLOAD PUSH4 0xA9059CBB PUSH1 0xE0 SHL DUP2 MSTORE PUSH1 0x1 PUSH1 0x1 PUSH1 0xA0 SHL SUB SWAP1 SWAP2 AND PUSH1 0x4 DUP3 ADD MSTORE PUSH1 0x24 DUP2 ADD SWAP3 SWAP1 SWAP3 MSTORE DUP3 SWAP1 DUP3 SWAP1 DUP2 DUP7 DUP2 PUSH1 0x44 DUP2 ADD PUSH2 0xAB4 JUMP JUMPDEST PUSH1 0x40 MLOAD PUSH3 0x461BCD PUSH1 0xE5 SHL DUP2 MSTORE PUSH1 0x4 DUP2 ADD DUP6 SWAP1 MSTORE PUSH1 0x14 PUSH1 0x24 DUP3 ADD MSTORE PUSH20 0x496E73756666696369656E742062616C616E6365 PUSH1 0x60 SHL PUSH1 0x44 DUP3 ADD MSTORE PUSH1 0x64 SWAP1 REVERT JUMPDEST DUP1 SWAP3 POP DUP7 DUP1 SWAP3 POP RETURNDATASIZE DUP4 GT PUSH2 0x10B0 JUMPI JUMPDEST PUSH2 0x109F DUP2 DUP4 PUSH2 0x175C JUMP JUMPDEST DUP2 ADD SUB SLT PUSH2 0x867 JUMPI DUP4 SWAP1 MLOAD CODESIZE PUSH2 0x100F JUMP JUMPDEST POP RETURNDATASIZE PUSH2 0x1095 JUMP JUMPDEST POP CALLVALUE PUSH2 0x86C JUMPI PUSH1 0xA0 CALLDATASIZE PUSH1 0x3 NOT ADD SLT PUSH2 0x86C JUMPI PUSH2 0x10D1 PUSH2 0x16D2 JUMP JUMPDEST PUSH2 0x10D9 PUSH2 0x16E8 JUMP JUMPDEST PUSH1 0x40 MLOAD PUSH4 0x23B872DD PUSH1 0xE0 SHL DUP1 DUP3 MSTORE CALLER PUSH1 0x4 DUP4 ADD MSTORE ADDRESS PUSH1 0x24 DUP4 ADD MSTORE PUSH1 0x64 DUP1 CALLDATALOAD PUSH1 0x44 DUP5 ADD DUP2 SWAP1 MSTORE PUSH1 0x84 CALLDATALOAD SWAP6 PUSH1 0x20 SWAP6 SWAP2 SWAP5 PUSH1 0x1 PUSH1 0x1 PUSH1 0xA0 SHL SUB SWAP5 SWAP3 DUP6 AND SWAP4 SWAP2 DUP6 AND SWAP3 SWAP2 DUP8 SWAP1 DUP3 SWAP1 DUP2 DUP13 DUP8 GAS CALL DUP1 ISZERO PUSH2 0x1366 JUMPI PUSH2 0x1349 JUMPI JUMPDEST POP PUSH1 0x40 MLOAD SWAP1 DUP2 MSTORE CALLER PUSH1 0x4 DUP3 ADD MSTORE ADDRESS PUSH1 0x24 DUP3 ADD MSTORE PUSH1 0x44 DUP2 ADD DUP8 SWAP1 MSTORE DUP6 DUP2 PUSH1 0x64 DUP2 DUP12 DUP8 GAS CALL DUP1 ISZERO PUSH2 0xB52 JUMPI PUSH2 0x132C JUMPI JUMPDEST POP PUSH1 0x1 SLOAD PUSH1 0x40 MLOAD PUSH4 0x95EA7B3 PUSH1 0xE0 SHL DUP1 DUP3 MSTORE SWAP2 DUP6 AND PUSH1 0x1 PUSH1 0x1 PUSH1 0xA0 SHL SUB AND PUSH1 0x4 DUP3 ADD MSTORE PUSH1 0x24 DUP2 ADD DUP7 SWAP1 MSTORE SWAP1 SWAP3 SWAP1 SWAP2 DUP7 SWAP1 DUP4 SWAP1 DUP2 DUP12 DUP2 PUSH1 0x44 DUP2 ADD SUB SWAP3 GAS CALL SWAP1 DUP2 ISZERO PUSH2 0xB52 JUMPI PUSH2 0x11E0 SWAP4 DUP8 SWAP4 DUP10 SWAP4 PUSH2 0x130F JUMPI JUMPDEST POP PUSH1 0x1 SLOAD PUSH1 0x40 MLOAD SWAP2 DUP3 MSTORE DUP7 AND PUSH1 0x1 PUSH1 0x1 PUSH1 0xA0 SHL SUB AND PUSH1 0x4 DUP3 ADD MSTORE PUSH1 0x24 DUP2 ADD SWAP3 SWAP1 SWAP3 MSTORE SWAP1 SWAP3 DUP4 SWAP2 SWAP1 DUP3 SWAP1 DUP11 SWAP1 DUP3 SWAP1 PUSH1 0x44 DUP3 ADD SWAP1 JUMP JUMPDEST SUB SWAP3 GAS CALL DUP1 ISZERO PUSH2 0xE16 JUMPI PUSH2 0x12F2 JUMPI JUMPDEST POP PUSH1 0x40 MLOAD SWAP2 PUSH1 0xC0 DUP4 ADD DUP4 DUP2 LT PUSH8 0xFFFFFFFFFFFFFFFF DUP3 GT OR PUSH2 0x6CE JUMPI DUP7 SWAP4 PUSH1 0xC4 SWAP2 PUSH1 0x40 MSTORE PUSH1 0x44 CALLDATALOAD DUP2 MSTORE DUP6 DUP2 ADD SWAP3 DUP4 MSTORE PUSH1 0x40 DUP2 ADD SWAP7 DUP8 MSTORE PUSH1 0x60 SWAP8 DUP9 SWAP5 DUP6 DUP4 ADD SWAP1 DUP3 DUP3 MSTORE PUSH1 0x80 DUP5 ADD DUP4 DUP2 MSTORE PUSH1 0xA0 DUP6 ADD SWAP2 TIMESTAMP DUP4 MSTORE PUSH1 0x1 SLOAD AND SWAP3 PUSH1 0x40 MLOAD SWAP12 DUP13 SWAP9 DUP10 SWAP8 PUSH4 0x219F5D17 PUSH1 0xE0 SHL DUP10 MSTORE MLOAD PUSH1 0x4 DUP10 ADD MSTORE MLOAD PUSH1 0x24 DUP9 ADD MSTORE MLOAD PUSH1 0x44 DUP8 ADD MSTORE MLOAD PUSH1 0x64 DUP7 ADD MSTORE MLOAD PUSH1 0x84 DUP6 ADD MSTORE MLOAD PUSH1 0xA4 DUP5 ADD MSTORE GAS CALL SWAP2 DUP3 ISZERO PUSH2 0xB00 JUMPI DUP2 SWAP4 DUP3 DUP1 SWAP5 PUSH2 0x12A9 JUMPI JUMPDEST POP POP PUSH1 0x1 PUSH1 0x1 PUSH1 0x80 SHL SUB PUSH1 0x40 MLOAD SWAP5 AND DUP5 MSTORE DUP4 ADD MSTORE PUSH1 0x40 DUP3 ADD MSTORE RETURN JUMPDEST SWAP3 POP DUP1 SWAP5 POP DUP6 DUP1 SWAP3 SWAP5 POP RETURNDATASIZE DUP4 GT PUSH2 0x12EB JUMPI JUMPDEST PUSH2 0x12C5 DUP2 DUP4 PUSH2 0x175C JUMP JUMPDEST DUP2 ADD SUB SLT PUSH2 0x86C JUMPI POP PUSH2 0x12D7 DUP3 PUSH2 0x1801 JUMP JUMPDEST PUSH1 0x40 DUP3 DUP5 ADD MLOAD SWAP4 ADD MLOAD SWAP1 SWAP3 SWAP1 SWAP2 CODESIZE DUP1 PUSH2 0x128E JUMP JUMPDEST POP RETURNDATASIZE PUSH2 0x12BB JUMP JUMPDEST PUSH2 0x1308 SWAP1 DUP5 RETURNDATASIZE DUP7 GT PUSH2 0x557 JUMPI PUSH2 0x548 DUP2 DUP4 PUSH2 0x175C JUMP JUMPDEST POP CODESIZE PUSH2 0x11EF JUMP JUMPDEST PUSH2 0x1325 SWAP1 DUP6 RETURNDATASIZE DUP8 GT PUSH2 0x557 JUMPI PUSH2 0x548 DUP2 DUP4 PUSH2 0x175C JUMP JUMPDEST POP CODESIZE PUSH2 0x11AC JUMP JUMPDEST PUSH2 0x1342 SWAP1 DUP7 RETURNDATASIZE DUP9 GT PUSH2 0x557 JUMPI PUSH2 0x548 DUP2 DUP4 PUSH2 0x175C JUMP JUMPDEST POP CODESIZE PUSH2 0x115B JUMP JUMPDEST PUSH2 0x135F SWAP1 DUP8 RETURNDATASIZE DUP10 GT PUSH2 0x557 JUMPI PUSH2 0x548 DUP2 DUP4 PUSH2 0x175C JUMP JUMPDEST POP CODESIZE PUSH2 0x112D JUMP JUMPDEST PUSH1 0x40 MLOAD RETURNDATASIZE DUP12 DUP3 RETURNDATACOPY RETURNDATASIZE SWAP1 REVERT JUMPDEST POP CALLVALUE PUSH2 0x86C JUMPI PUSH1 0x40 CALLDATASIZE PUSH1 0x3 NOT ADD SLT PUSH2 0x86C JUMPI DUP1 PUSH2 0x138C PUSH2 0x16D2 JUMP JUMPDEST PUSH1 0x24 CALLDATALOAD SWAP1 PUSH2 0x139B DUP3 ISZERO ISZERO PUSH2 0x1796 JUMP JUMPDEST PUSH1 0x1 PUSH1 0x1 PUSH1 0xA0 SHL SUB AND DUP1 EXTCODESIZE ISZERO PUSH2 0x1493 JUMPI DUP3 DUP1 SWAP2 PUSH1 0x24 PUSH1 0x40 MLOAD DUP1 SWAP5 DUP2 SWAP4 PUSH4 0x2E1A7D4D PUSH1 0xE0 SHL DUP4 MSTORE DUP8 PUSH1 0x4 DUP5 ADD MSTORE GAS CALL SWAP1 DUP2 ISZERO PUSH2 0x587 JUMPI DUP4 SWAP2 PUSH2 0x147C JUMPI JUMPDEST POP DUP1 DUP1 SWAP3 ADDRESS GAS CALL RETURNDATASIZE ISZERO PUSH2 0x1477 JUMPI RETURNDATASIZE PUSH8 0xFFFFFFFFFFFFFFFF DUP2 GT PUSH2 0x1463 JUMPI PUSH1 0x40 MLOAD SWAP1 PUSH2 0x140C PUSH1 0x1F DUP3 ADD PUSH1 0x1F NOT AND PUSH1 0x20 ADD DUP4 PUSH2 0x175C JUMP JUMPDEST DUP2 MSTORE DUP3 PUSH1 0x20 RETURNDATASIZE SWAP3 ADD RETURNDATACOPY JUMPDEST ISZERO PUSH2 0x141E JUMPI DUP1 RETURN JUMPDEST PUSH1 0x40 MLOAD PUSH3 0x461BCD PUSH1 0xE5 SHL DUP2 MSTORE PUSH1 0x20 PUSH1 0x4 DUP3 ADD MSTORE PUSH1 0x18 PUSH1 0x24 DUP3 ADD MSTORE PUSH32 0x4661696C656420746F207472616E736665722045746865720000000000000000 PUSH1 0x44 DUP3 ADD MSTORE PUSH1 0x64 SWAP1 REVERT JUMPDEST PUSH4 0x4E487B71 PUSH1 0xE0 SHL DUP4 MSTORE PUSH1 0x41 PUSH1 0x4 MSTORE PUSH1 0x24 DUP4 REVERT JUMPDEST PUSH2 0x1416 JUMP JUMPDEST PUSH2 0x1485 SWAP1 PUSH2 0x172C JUMP JUMPDEST PUSH2 0x1490 JUMPI DUP2 CODESIZE PUSH2 0x13D7 JUMP JUMPDEST POP REVERT JUMPDEST POP POP REVERT JUMPDEST POP CALLVALUE PUSH2 0x86C JUMPI PUSH1 0x20 CALLDATASIZE PUSH1 0x3 NOT ADD SLT PUSH2 0x86C JUMPI DUP1 PUSH1 0x40 PUSH2 0x14FE DUP2 MLOAD PUSH2 0x14BA DUP2 PUSH2 0x1740 JUMP JUMPDEST PUSH1 0x4 CALLDATALOAD DUP2 MSTORE ADDRESS PUSH1 0x20 DUP3 ADD MSTORE PUSH1 0x1 PUSH1 0x1 PUSH1 0x80 SHL SUB DUP1 DUP5 DUP4 ADD MSTORE PUSH1 0x60 DUP3 ADD MSTORE PUSH1 0x1 DUP1 PUSH1 0xA0 SHL SUB PUSH1 0x1 SLOAD AND SWAP1 DUP4 MLOAD SWAP6 DUP7 DUP1 SWAP5 DUP2 SWAP4 PUSH4 0xFC6F7865 PUSH1 0xE0 SHL DUP4 MSTORE PUSH1 0x4 DUP4 ADD PUSH2 0x184E JUMP JUMPDEST SUB SWAP3 GAS CALL DUP1 ISZERO PUSH2 0xB00 JUMPI PUSH1 0x40 SWAP3 DUP3 SWAP2 PUSH2 0x151F JUMPI JUMPDEST POP DUP3 MLOAD SWAP2 DUP3 MSTORE PUSH1 0x20 DUP3 ADD MSTORE RETURN JUMPDEST SWAP1 POP PUSH2 0x1538 SWAP2 POP DUP3 RETURNDATASIZE DUP5 GT PUSH2 0xF4B JUMPI PUSH2 0xF3C DUP2 DUP4 PUSH2 0x175C JUMP JUMPDEST CODESIZE PUSH2 0x1512 JUMP JUMPDEST POP CALLVALUE PUSH2 0x86C JUMPI PUSH1 0x40 CALLDATASIZE PUSH1 0x3 NOT ADD SLT PUSH2 0x86C JUMPI PUSH2 0x1558 PUSH2 0x16D2 JUMP JUMPDEST PUSH1 0x24 CALLDATALOAD SWAP1 DUP2 SELFBALANCE LT PUSH2 0x15AF JUMPI DUP3 SWAP1 PUSH2 0x1570 DUP4 ISZERO ISZERO PUSH2 0x1796 JUMP JUMPDEST PUSH1 0x1 PUSH1 0x1 PUSH1 0xA0 SHL SUB AND DUP1 EXTCODESIZE ISZERO PUSH2 0xB61 JUMPI PUSH1 0x4 PUSH1 0x40 MLOAD DUP1 SWAP5 DUP2 SWAP4 PUSH4 0xD0E30DB PUSH1 0xE4 SHL DUP4 MSTORE GAS CALL DUP1 ISZERO PUSH2 0xDA1 JUMPI PUSH2 0x15A3 JUMPI POP DUP1 RETURN JUMPDEST PUSH2 0x15AC SWAP1 PUSH2 0x172C JUMP JUMPDEST DUP1 RETURN JUMPDEST PUSH1 0x40 MLOAD PUSH3 0x461BCD PUSH1 0xE5 SHL DUP2 MSTORE PUSH1 0x20 PUSH1 0x4 DUP3 ADD MSTORE PUSH1 0x28 PUSH1 0x24 DUP3 ADD MSTORE PUSH32 0x496E73756666696369656E74204554482062616C616E636520696E2074686520 PUSH1 0x44 DUP3 ADD MSTORE PUSH8 0x18DBDB9D1C9858DD PUSH1 0xC2 SHL PUSH1 0x64 DUP3 ADD MSTORE PUSH1 0x84 SWAP1 REVERT JUMPDEST DUP2 SWAP1 CALLVALUE PUSH2 0x1490 JUMPI PUSH2 0x166D PUSH1 0x40 SWAP2 PUSH1 0x1 PUSH1 0x1 PUSH1 0x80 SHL SUB PUSH2 0x1623 CALLDATASIZE PUSH2 0x16AC JUMP JUMPDEST SWAP1 PUSH2 0x162D DUP5 PUSH2 0x1710 JUMP JUMPDEST DUP4 MSTORE AND PUSH1 0x20 DUP3 ADD MSTORE DUP4 DUP4 DUP3 ADD MSTORE DUP4 PUSH1 0x60 DUP3 ADD MSTORE TIMESTAMP PUSH1 0x80 DUP3 ADD MSTORE PUSH1 0x1 DUP1 PUSH1 0xA0 SHL SUB PUSH1 0x1 SLOAD AND SWAP1 DUP4 MLOAD SWAP6 DUP7 DUP1 SWAP5 DUP2 SWAP4 PUSH4 0x624E65F PUSH1 0xE1 SHL DUP4 MSTORE PUSH1 0x4 DUP4 ADD PUSH2 0x188C JUMP JUMPDEST SUB SWAP3 GAS CALL DUP1 ISZERO PUSH2 0xB00 JUMPI PUSH1 0x40 SWAP3 DUP3 SWAP2 PUSH2 0x168D JUMPI POP DUP3 MLOAD SWAP2 DUP3 MSTORE PUSH1 0x20 DUP3 ADD MSTORE RETURN JUMPDEST SWAP1 POP PUSH2 0x16A6 SWAP2 POP DUP3 RETURNDATASIZE DUP5 GT PUSH2 0xF4B JUMPI PUSH2 0xF3C DUP2 DUP4 PUSH2 0x175C JUMP JUMPDEST DUP4 PUSH2 0x1512 JUMP JUMPDEST PUSH1 0x40 SWAP1 PUSH1 0x3 NOT ADD SLT PUSH2 0x867 JUMPI PUSH1 0x4 CALLDATALOAD SWAP1 PUSH1 0x24 CALLDATALOAD PUSH1 0x1 PUSH1 0x1 PUSH1 0x80 SHL SUB DUP2 AND DUP2 SUB PUSH2 0x867 JUMPI SWAP1 JUMP JUMPDEST PUSH1 0x4 CALLDATALOAD SWAP1 PUSH1 0x1 PUSH1 0x1 PUSH1 0xA0 SHL SUB DUP3 AND DUP3 SUB PUSH2 0x867 JUMPI JUMP JUMPDEST PUSH1 0x24 CALLDATALOAD SWAP1 PUSH1 0x1 PUSH1 0x1 PUSH1 0xA0 SHL SUB DUP3 AND DUP3 SUB PUSH2 0x867 JUMPI JUMP JUMPDEST PUSH1 0x44 CALLDATALOAD SWAP1 PUSH3 0xFFFFFF DUP3 AND DUP3 SUB PUSH2 0x867 JUMPI JUMP JUMPDEST PUSH1 0xA0 DUP2 ADD SWAP1 DUP2 LT PUSH8 0xFFFFFFFFFFFFFFFF DUP3 GT OR PUSH2 0x6CE JUMPI PUSH1 0x40 MSTORE JUMP JUMPDEST PUSH8 0xFFFFFFFFFFFFFFFF DUP2 GT PUSH2 0x6CE JUMPI PUSH1 0x40 MSTORE JUMP JUMPDEST PUSH1 0x80 DUP2 ADD SWAP1 DUP2 LT PUSH8 0xFFFFFFFFFFFFFFFF DUP3 GT OR PUSH2 0x6CE JUMPI PUSH1 0x40 MSTORE JUMP JUMPDEST SWAP1 PUSH1 0x1F DUP1 NOT SWAP2 ADD AND DUP2 ADD SWAP1 DUP2 LT PUSH8 0xFFFFFFFFFFFFFFFF DUP3 GT OR PUSH2 0x6CE JUMPI PUSH1 0x40 MSTORE JUMP JUMPDEST SWAP1 DUP2 PUSH1 0x20 SWAP2 SUB SLT PUSH2 0x867 JUMPI MLOAD DUP1 ISZERO ISZERO DUP2 SUB PUSH2 0x867 JUMPI SWAP1 JUMP JUMPDEST ISZERO PUSH2 0x179D JUMPI JUMP JUMPDEST PUSH1 0x40 MLOAD PUSH3 0x461BCD PUSH1 0xE5 SHL DUP2 MSTORE PUSH1 0x20 PUSH1 0x4 DUP3 ADD MSTORE PUSH1 0x1D PUSH1 0x24 DUP3 ADD MSTORE PUSH32 0x416D6F756E74206D7573742062652067726561746572207468616E2030000000 PUSH1 0x44 DUP3 ADD MSTORE PUSH1 0x64 SWAP1 REVERT JUMPDEST SWAP1 DUP2 PUSH1 0x20 SWAP2 SUB SLT PUSH2 0x867 JUMPI MLOAD PUSH1 0x1 PUSH1 0x1 PUSH1 0xA0 SHL SUB DUP2 AND DUP2 SUB PUSH2 0x867 JUMPI SWAP1 JUMP JUMPDEST MLOAD SWAP1 PUSH1 0x1 PUSH1 0x1 PUSH1 0x80 SHL SUB DUP3 AND DUP3 SUB PUSH2 0x867 JUMPI JUMP JUMPDEST SWAP2 SWAP1 DUP3 SUB SWAP2 DUP3 GT PUSH2 0x1822 JUMPI JUMP JUMPDEST PUSH4 0x4E487B71 PUSH1 0xE0 SHL PUSH1 0x0 MSTORE PUSH1 0x11 PUSH1 0x4 MSTORE PUSH1 0x24 PUSH1 0x0 REVERT JUMPDEST SWAP2 SWAP1 DUP3 PUSH1 0x40 SWAP2 SUB SLT PUSH2 0x867 JUMPI PUSH1 0x20 DUP3 MLOAD SWAP3 ADD MLOAD SWAP1 JUMP JUMPDEST SWAP2 SWAP1 SWAP2 PUSH1 0x60 PUSH1 0x80 DUP3 ADD SWAP4 DUP1 MLOAD DUP4 MSTORE PUSH1 0x1 DUP1 PUSH1 0xA0 SHL SUB PUSH1 0x20 DUP3 ADD MLOAD AND PUSH1 0x20 DUP5 ADD MSTORE DUP2 PUSH1 0x1 PUSH1 0x1 PUSH1 0x80 SHL SUB SWAP2 DUP3 PUSH1 0x40 DUP3 ADD MLOAD AND PUSH1 0x40 DUP7 ADD MSTORE ADD MLOAD AND SWAP2 ADD MSTORE JUMP JUMPDEST SWAP2 SWAP1 SWAP2 PUSH1 0x80 DUP1 PUSH1 0xA0 DUP4 ADD SWAP5 DUP1 MLOAD DUP5 MSTORE PUSH1 0x1 PUSH1 0x1 PUSH1 0x80 SHL SUB PUSH1 0x20 DUP3 ADD MLOAD AND PUSH1 0x20 DUP6 ADD MSTORE PUSH1 0x40 DUP2 ADD MLOAD PUSH1 0x40 DUP6 ADD MSTORE PUSH1 0x60 DUP2 ADD MLOAD PUSH1 0x60 DUP6 ADD MSTORE ADD MLOAD SWAP2 ADD MSTORE JUMP JUMPDEST DUP1 ISZERO PUSH2 0x1939 JUMPI PUSH1 0x1 DUP1 DUP3 ADD DUP1 DUP4 GT PUSH2 0x1822 JUMPI DUP2 SHR SWAP1 DUP3 SWAP1 JUMPDEST DUP4 DUP4 LT PUSH2 0x18EE JUMPI POP POP POP SWAP1 JUMP JUMPDEST SWAP2 SWAP3 POP SWAP1 DUP3 DUP1 ISZERO PUSH2 0x1924 JUMPI DUP1 DUP4 DIV SWAP1 DUP2 ADD DUP1 SWAP2 GT PUSH2 0x190F JUMPI DUP2 SHR SWAP2 SWAP1 PUSH2 0x18E1 JUMP JUMPDEST PUSH1 0x24 PUSH1 0x0 PUSH4 0x4E487B71 PUSH1 0xE0 SHL DUP2 MSTORE PUSH1 0x11 PUSH1 0x4 MSTORE REVERT JUMPDEST PUSH1 0x24 PUSH1 0x0 PUSH4 0x4E487B71 PUSH1 0xE0 SHL DUP2 MSTORE PUSH1 0x12 PUSH1 0x4 MSTORE REVERT JUMPDEST POP PUSH1 0x0 SWAP1 JUMP JUMPDEST PUSH1 0x1 PUSH1 0x1 PUSH1 0xA0 SHL SUB DUP2 DUP2 AND SWAP2 PUSH5 0x1000276A3 DUP4 LT ISZERO DUP1 PUSH2 0x1F3B JUMPI JUMPDEST ISZERO PUSH2 0x1F29 JUMPI PUSH5 0x100000000 PUSH1 0x1 PUSH1 0xC0 SHL SUB SWAP1 PUSH1 0x20 SHL AND SWAP2 DUP3 SWAP2 PUSH1 0x1 PUSH1 0x1 PUSH1 0x80 SHL SUB DUP5 GT PUSH1 0x7 SHL SWAP4 DUP1 DUP6 SHR PUSH8 0xFFFFFFFFFFFFFFFF DUP2 GT PUSH1 0x6 SHL SWAP1 DUP2 SHR SWAP5 PUSH4 0xFFFFFFFF SWAP7 DUP8 DUP8 GT PUSH1 0x5 SHL SWAP7 DUP8 SHR SWAP3 PUSH2 0xFFFF DUP5 GT PUSH1 0x4 SHL SWAP4 DUP5 SHR SWAP8 PUSH1 0xFF SWAP9 DUP10 SWAP6 DUP7 DUP3 GT PUSH1 0x3 SHL SWAP2 DUP3 SHR SWAP3 PUSH1 0xF DUP5 GT PUSH1 0x2 SHL SWAP4 DUP5 SHR SWAP5 PUSH1 0x1 PUSH1 0x3 DUP8 GT DUP2 SHL SWAP7 DUP8 SHR GT SWAP7 OR OR OR OR OR OR OR SWAP1 PUSH1 0x80 SWAP4 DUP5 DUP4 LT ISZERO PUSH1 0x0 EQ PUSH2 0x1F1D JUMPI POP PUSH1 0x7E NOT DUP3 ADD SHR JUMPDEST DUP1 MUL PUSH1 0x7F SWAP3 DUP4 SWAP3 DUP3 DUP5 SWAP4 DUP5 SHR DUP2 DUP5 SHR SHR DUP1 MUL DUP1 DUP6 SHR DUP2 DUP6 SHR SHR DUP1 MUL DUP1 DUP7 SHR DUP2 DUP7 SHR SHR DUP1 MUL DUP1 DUP8 SHR DUP2 DUP8 SHR SHR DUP1 MUL SWAP1 DUP2 DUP9 SHR DUP3 DUP9 SHR SHR DUP1 MUL SWAP3 DUP4 DUP10 SHR DUP5 DUP10 SHR SHR DUP1 MUL SWAP5 DUP6 DUP11 SHR DUP7 DUP11 SHR SHR DUP1 MUL SWAP7 DUP8 DUP12 SHR DUP9 DUP12 SHR SHR DUP1 MUL SWAP9 DUP10 DUP13 SHR DUP11 DUP13 SHR SHR DUP1 MUL SWAP11 DUP12 DUP14 SHR DUP13 DUP3 SHR SHR DUP1 MUL DUP1 SWAP14 SHR DUP14 DUP3 SHR SHR DUP1 MUL DUP1 SWAP15 DUP2 SWAP1 SHR SWAP1 DUP3 SHR SHR DUP1 MUL SWAP15 DUP16 DUP1 SWAP2 SHR SWAP2 SHR SHR DUP1 MUL PUSH1 0xCD SHR PUSH7 0x4000000000000 AND SWAP14 PUSH1 0xCC SHR PUSH7 0x8000000000000 AND SWAP13 PUSH1 0xCB SHR PUSH7 0x10000000000000 AND SWAP12 PUSH1 0xCA SHR PUSH7 0x20000000000000 AND SWAP11 PUSH1 0xC9 SHR PUSH7 0x40000000000000 AND SWAP10 PUSH1 0xC8 SHR PUSH7 0x80000000000000 AND SWAP9 PUSH1 0xC7 SHR PUSH8 0x100000000000000 AND SWAP8 PUSH1 0xC6 SHR PUSH8 0x200000000000000 AND SWAP7 PUSH1 0xC5 SHR PUSH8 0x400000000000000 AND SWAP6 PUSH1 0xC4 SHR PUSH8 0x800000000000000 AND SWAP5 PUSH1 0xC3 SHR PUSH8 0x1000000000000000 AND SWAP4 PUSH1 0xC2 SHR PUSH8 0x2000000000000000 AND SWAP3 PUSH1 0xC1 SHR PUSH8 0x4000000000000000 AND SWAP2 PUSH1 0xC0 SHR PUSH8 0x8000000000000000 AND SWAP1 PUSH1 0x7F NOT ADD PUSH1 0x40 SHL OR OR OR OR OR OR OR OR OR OR OR OR OR OR PUSH10 0x3627A301D71055774C85 MUL SWAP4 PUSH16 0x28F6481AB7F045A5AF012A19D003AA9 NOT DUP6 ADD DUP3 SAR PUSH1 0x2 SIGNEXTEND SWAP5 PUSH16 0xDB2DF09E81959A81455E260799A0632F ADD DUP3 SAR PUSH1 0x2 SIGNEXTEND SWAP6 PUSH1 0x0 SWAP1 DUP8 DUP8 EQ PUSH1 0x0 EQ PUSH2 0x1BA8 JUMPI POP POP POP POP POP POP SWAP1 POP SWAP1 JUMP JUMPDEST DUP2 DUP9 SLT ISZERO PUSH2 0x1F16 JUMPI DUP8 DUP3 SUB SWAP4 JUMPDEST PUSH3 0xD89E8 DUP6 GT PUSH2 0x1F04 JUMPI PUSH1 0x1 DUP6 AND ISZERO PUSH2 0x1EF2 JUMPI PUSH1 0x1 PUSH1 0x1 PUSH1 0x88 SHL SUB PUSH16 0xFFFCB933BD6FAD37AA2D162D1A594001 JUMPDEST AND SWAP5 PUSH1 0x2 DUP2 AND PUSH2 0x1ED7 JUMPI JUMPDEST PUSH1 0x4 DUP2 AND PUSH2 0x1EBC JUMPI JUMPDEST PUSH1 0x8 DUP2 AND PUSH2 0x1EA1 JUMPI JUMPDEST PUSH1 0x10 DUP2 AND PUSH2 0x1E86 JUMPI JUMPDEST PUSH1 0x20 DUP2 AND PUSH2 0x1E6B JUMPI JUMPDEST PUSH1 0x40 DUP2 AND PUSH2 0x1E50 JUMPI JUMPDEST DUP2 DUP2 AND PUSH2 0x1E35 JUMPI JUMPDEST PUSH2 0x100 DUP2 AND PUSH2 0x1E1A JUMPI JUMPDEST PUSH2 0x200 DUP2 AND PUSH2 0x1DFF JUMPI JUMPDEST PUSH2 0x400 DUP2 AND PUSH2 0x1DE4 JUMPI JUMPDEST PUSH2 0x800 DUP2 AND PUSH2 0x1DC9 JUMPI JUMPDEST PUSH2 0x1000 DUP2 AND PUSH2 0x1DAE JUMPI JUMPDEST PUSH2 0x2000 DUP2 AND PUSH2 0x1D93 JUMPI JUMPDEST PUSH2 0x4000 DUP2 AND PUSH2 0x1D78 JUMPI JUMPDEST PUSH2 0x8000 DUP2 AND PUSH2 0x1D5D JUMPI JUMPDEST PUSH3 0x10000 DUP2 AND PUSH2 0x1D42 JUMPI JUMPDEST PUSH3 0x20000 DUP2 AND PUSH2 0x1D28 JUMPI JUMPDEST PUSH3 0x40000 DUP2 AND PUSH2 0x1D0E JUMPI JUMPDEST PUSH3 0x80000 AND PUSH2 0x1CF5 JUMPI JUMPDEST POP DUP2 DUP9 SGT PUSH2 0x1CD0 JUMPI JUMPDEST DUP4 AND PUSH2 0x1CC8 JUMPI DUP1 JUMPDEST POP AND SWAP1 PUSH1 0x20 SHR ADD AND GT ISZERO PUSH1 0x0 EQ PUSH2 0x1CC3 JUMPI POP SWAP1 JUMP JUMPDEST SWAP1 POP SWAP1 JUMP JUMPDEST PUSH1 0x1 SWAP1 PUSH2 0x1CAE JUMP JUMPDEST SWAP3 DUP1 ISZERO PUSH2 0x1CE1 JUMPI PUSH1 0x0 NOT DIV SWAP3 PUSH2 0x1CA6 JUMP JUMPDEST PUSH4 0x4E487B71 PUSH1 0xE0 SHL DUP3 MSTORE PUSH1 0x12 PUSH1 0x4 MSTORE PUSH1 0x24 DUP3 REVERT JUMPDEST SWAP1 SWAP4 PUSH12 0x48A170391F7DC42444E8FA2 MUL SWAP1 SHR SWAP3 CODESIZE PUSH2 0x1C9D JUMP JUMPDEST PUSH14 0x2216E584F5FA1EA926041BEDFE98 SWAP1 SWAP6 MUL DUP2 SHR SWAP5 PUSH2 0x1C93 JUMP JUMPDEST SWAP5 PUSH15 0x5D6AF8DEDB81196699C329225EE604 MUL DUP2 SHR SWAP5 PUSH2 0x1C88 JUMP JUMPDEST SWAP5 PUSH16 0x9AA508B5B7A84E1C677DE54F3E99BC9 MUL DUP2 SHR SWAP5 PUSH2 0x1C7D JUMP JUMPDEST SWAP5 PUSH16 0x31BE135F97D08FD981231505542FCFA6 MUL DUP2 SHR SWAP5 PUSH2 0x1C72 JUMP JUMPDEST SWAP5 PUSH16 0x70D869A156D2A1B890BB3DF62BAF32F7 MUL DUP2 SHR SWAP5 PUSH2 0x1C68 JUMP JUMPDEST SWAP5 PUSH16 0xA9F746462D870FDF8A65DC1F90E061E5 MUL DUP2 SHR SWAP5 PUSH2 0x1C5E JUMP JUMPDEST SWAP5 PUSH16 0xD097F3BDFD2022B8845AD8F792AA5825 MUL DUP2 SHR SWAP5 PUSH2 0x1C54 JUMP JUMPDEST SWAP5 PUSH16 0xE7159475A2C29B7443B29C7FA6E889D9 MUL DUP2 SHR SWAP5 PUSH2 0x1C4A JUMP JUMPDEST SWAP5 PUSH16 0xF3392B0822B70005940C7A398E4B70F3 MUL DUP2 SHR SWAP5 PUSH2 0x1C40 JUMP JUMPDEST SWAP5 PUSH16 0xF987A7253AC413176F2B074CF7815E54 MUL DUP2 SHR SWAP5 PUSH2 0x1C36 JUMP JUMPDEST SWAP5 PUSH16 0xFCBE86C7900A88AEDCFFC83B479AA3A4 MUL DUP2 SHR SWAP5 PUSH2 0x1C2C JUMP JUMPDEST SWAP5 PUSH16 0xFE5DEE046A99A2A811C461F1969C3053 MUL DUP2 SHR SWAP5 PUSH2 0x1C22 JUMP JUMPDEST SWAP5 PUSH16 0xFF2EA16466C96A3843EC78B326B52861 MUL DUP2 SHR SWAP5 PUSH2 0x1C1A JUMP JUMPDEST SWAP5 PUSH16 0xFF973B41FA98C081472E6896DFB254C0 MUL DUP2 SHR SWAP5 PUSH2 0x1C11 JUMP JUMPDEST SWAP5 PUSH16 0xFFCB9843D60F6159C9DB58835C926644 MUL DUP2 SHR SWAP5 PUSH2 0x1C08 JUMP JUMPDEST SWAP5 PUSH16 0xFFE5CACA7E10E4E61C3624EAA0941CD0 MUL DUP2 SHR SWAP5 PUSH2 0x1BFF JUMP JUMPDEST SWAP5 PUSH16 0xFFF2E50F5F656932EF12357CF3C7FDCC MUL DUP2 SHR SWAP5 PUSH2 0x1BF6 JUMP JUMPDEST SWAP5 PUSH16 0xFFF97272373D413259A46990580E213A MUL DUP2 SHR SWAP5 PUSH2 0x1BED JUMP JUMPDEST PUSH1 0x1 PUSH1 0x1 PUSH1 0x88 SHL SUB PUSH1 0x1 PUSH1 0x80 SHL PUSH2 0x1BE2 JUMP JUMPDEST PUSH1 0x40 MLOAD PUSH4 0x15E4079D PUSH1 0xE1 SHL DUP2 MSTORE PUSH1 0x4 SWAP1 REVERT JUMPDEST DUP8 SWAP4 PUSH2 0x1BB5 JUMP JUMPDEST SWAP1 POP DUP2 PUSH1 0x7F SUB SHL PUSH2 0x19F7 JUMP JUMPDEST PUSH1 0x40 MLOAD PUSH4 0x24C070DF PUSH1 0xE1 SHL DUP2 MSTORE PUSH1 0x4 SWAP1 REVERT JUMPDEST POP PUSH20 0xFFFD8963EFD1FC6A506488495D951D5263988D26 DUP4 LT PUSH2 0x195A JUMP INVALID LOG2 PUSH5 0x6970667358 0x22 SLT KECCAK256 CALLVALUE 0x2A 0xC6 0xBF SWAP3 GT CREATE2 DUP3 0xC 0xC8 PUSH3 0x911BAF LOG0 0xBC 0xC4 PUSH30 0x780B043B7D81A4C6A69517D26D8664736F6C634300081300330000000000 "
		},
		"gasEstimates": {
			"creation": {
				"codeDepositCost": "1615600",
				"executionCost": "74373",
				"totalCost": "1689973"
			},
			"external": {
				"UNISWAP_V3_FACTORY()": "432",
				"UNISWAP_V3_NFT_POSITION_MANAGER()": "300",
				"collectAllFees(uint256)": "infinite",
				"createAndInitializePool(address,address,uint24,uint256)": "infinite",
				"createPoolAndMintNFT(address,address,uint24,uint256,uint256,uint256,uint160,uint160)": "infinite",
				"decreaseLiquidityCurrentRange(uint256,uint128)": "infinite",
				"increaseLiquidityCurrentRange(address,address,uint256,uint256,uint256)": "infinite",
				"removePool(uint256,uint128)": "infinite",
				"sendEther(address,uint256)": "infinite",
				"swap(address,address,uint256,uint256,uint24)": "infinite",
				"transferAndApprove(address,address,uint256,uint256)": "infinite",
				"transferERC20(address,address,uint256)": "infinite",
				"unwrapWETH(address,uint256)": "infinite",
				"wrapETH(address,uint256)": "infinite"
			}
		},
		"methodIdentifiers": {
			"UNISWAP_V3_FACTORY()": "f73e5aab",
			"UNISWAP_V3_NFT_POSITION_MANAGER()": "a9109570",
			"collectAllFees(uint256)": "46ce96dd",
			"createAndInitializePool(address,address,uint24,uint256)": "f47f9033",
			"createPoolAndMintNFT(address,address,uint24,uint256,uint256,uint256,uint160,uint160)": "fb35f110",
			"decreaseLiquidityCurrentRange(uint256,uint128)": "1834c397",
			"increaseLiquidityCurrentRange(address,address,uint256,uint256,uint256)": "5efb3b6d",
			"removePool(uint256,uint128)": "ac43a6b8",
			"sendEther(address,uint256)": "c1756a2c",
			"swap(address,address,uint256,uint256,uint24)": "b40b7e0b",
			"transferAndApprove(address,address,uint256,uint256)": "ef2c64d7",
			"transferERC20(address,address,uint256)": "9db5dbe4",
			"unwrapWETH(address,uint256)": "5869dba8",
			"wrapETH(address,uint256)": "29793f7d"
		}
	},
	"abi": [
		{
			"inputs": [],
			"stateMutability": "nonpayable",
			"type": "constructor"
		},
		{
			"inputs": [],
			"name": "R",
			"type": "error"
		},
		{
			"inputs": [],
			"name": "T",
			"type": "error"
		},
		{
			"inputs": [],
			"name": "UNISWAP_V3_FACTORY",
			"outputs": [
				{
					"internalType": "address",
					"name": "",
					"type": "address"
				}
			],
			"stateMutability": "view",
			"type": "function"
		},
		{
			"inputs": [],
			"name": "UNISWAP_V3_NFT_POSITION_MANAGER",
			"outputs": [
				{
					"internalType": "address",
					"name": "",
					"type": "address"
				}
			],
			"stateMutability": "view",
			"type": "function"
		},
		{
			"inputs": [
				{
					"internalType": "uint256",
					"name": "tokenId",
					"type": "uint256"
				}
			],
			"name": "collectAllFees",
			"outputs": [
				{
					"internalType": "uint256",
					"name": "amount0",
					"type": "uint256"
				},
				{
					"internalType": "uint256",
					"name": "amount1",
					"type": "uint256"
				}
			],
			"stateMutability": "nonpayable",
			"type": "function"
		},
		{
			"inputs": [
				{
					"internalType": "address",
					"name": "token0",
					"type": "address"
				},
				{
					"internalType": "address",
					"name": "token1",
					"type": "address"
				},
				{
					"internalType": "uint24",
					"name": "fee",
					"type": "uint24"
				},
				{
					"internalType": "uint256",
					"name": "initialPrice",
					"type": "uint256"
				}
			],
			"name": "createAndInitializePool",
			"outputs": [
				{
					"internalType": "address",
					"name": "pool",
					"type": "address"
				}
			],
			"stateMutability": "payable",
			"type": "function"
		},
		{
			"inputs": [
				{
					"internalType": "address",
					"name": "token0",
					"type": "address"
				},
				{
					"internalType": "address",
					"name": "token1",
					"type": "address"
				},
				{
					"internalType": "uint24",
					"name": "fee",
					"type": "uint24"
				},
				{
					"internalType": "uint256",
					"name": "amount0ToAdd",
					"type": "uint256"
				},
				{
					"internalType": "uint256",
					"name": "amount1ToAdd",
					"type": "uint256"
				},
				{
					"internalType": "uint256",
					"name": "initialPrice",
					"type": "uint256"
				},
				{
					"internalType": "uint160",
					"name": "minPrice",
					"type": "uint160"
				},
				{
					"internalType": "uint160",
					"name": "maxPrice",
					"type": "uint160"
				}
			],
			"name": "createPoolAndMintNFT",
			"outputs": [
				{
					"internalType": "address",
					"name": "pool",
					"type": "address"
				},
				{
					"internalType": "int24",
					"name": "_tickLower",
					"type": "int24"
				},
				{
					"internalType": "int24",
					"name": "_tickUpper",
					"type": "int24"
				},
				{
					"internalType": "uint256",
					"name": "tokenId",
					"type": "uint256"
				},
				{
					"internalType": "uint128",
					"name": "liquidity",
					"type": "uint128"
				},
				{
					"internalType": "uint256",
					"name": "amount0",
					"type": "uint256"
				},
				{
					"internalType": "uint256",
					"name": "amount1",
					"type": "uint256"
				}
			],
			"stateMutability": "payable",
			"type": "function"
		},
		{
			"inputs": [
				{
					"internalType": "uint256",
					"name": "tokenId",
					"type": "uint256"
				},
				{
					"internalType": "uint128",
					"name": "liquidity",
					"type": "uint128"
				}
			],
			"name": "decreaseLiquidityCurrentRange",
			"outputs": [
				{
					"internalType": "uint256",
					"name": "amount0",
					"type": "uint256"
				},
				{
					"internalType": "uint256",
					"name": "amount1",
					"type": "uint256"
				}
			],
			"stateMutability": "nonpayable",
			"type": "function"
		},
		{
			"inputs": [
				{
					"internalType": "address",
					"name": "token0",
					"type": "address"
				},
				{
					"internalType": "address",
					"name": "token1",
					"type": "address"
				},
				{
					"internalType": "uint256",
					"name": "tokenId",
					"type": "uint256"
				},
				{
					"internalType": "uint256",
					"name": "amount0ToAdd",
					"type": "uint256"
				},
				{
					"internalType": "uint256",
					"name": "amount1ToAdd",
					"type": "uint256"
				}
			],
			"name": "increaseLiquidityCurrentRange",
			"outputs": [
				{
					"internalType": "uint128",
					"name": "liquidity",
					"type": "uint128"
				},
				{
					"internalType": "uint256",
					"name": "amount0",
					"type": "uint256"
				},
				{
					"internalType": "uint256",
					"name": "amount1",
					"type": "uint256"
				}
			],
			"stateMutability": "nonpayable",
			"type": "function"
		},
		{
			"inputs": [
				{
					"internalType": "uint256",
					"name": "tokenId",
					"type": "uint256"
				},
				{
					"internalType": "uint128",
					"name": "liquidity",
					"type": "uint128"
				}
			],
			"name": "removePool",
			"outputs": [
				{
					"internalType": "uint256",
					"name": "amount0",
					"type": "uint256"
				},
				{
					"internalType": "uint256",
					"name": "amount1",
					"type": "uint256"
				},
				{
					"internalType": "uint256",
					"name": "fees0",
					"type": "uint256"
				},
				{
					"internalType": "uint256",
					"name": "fees1",
					"type": "uint256"
				}
			],
			"stateMutability": "nonpayable",
			"type": "function"
		},
		{
			"inputs": [
				{
					"internalType": "address payable",
					"name": "recipient",
					"type": "address"
				},
				{
					"internalType": "uint256",
					"name": "amount",
					"type": "uint256"
				}
			],
			"name": "sendEther",
			"outputs": [],
			"stateMutability": "nonpayable",
			"type": "function"
		},
		{
			"inputs": [
				{
					"internalType": "address",
					"name": "_tokenIn",
					"type": "address"
				},
				{
					"internalType": "address",
					"name": "_tokenOut",
					"type": "address"
				},
				{
					"internalType": "uint256",
					"name": "_amountIn",
					"type": "uint256"
				},
				{
					"internalType": "uint256",
					"name": "_amountOutMin",
					"type": "uint256"
				},
				{
					"internalType": "uint24",
					"name": "_fee",
					"type": "uint24"
				}
			],
			"name": "swap",
			"outputs": [],
			"stateMutability": "nonpayable",
			"type": "function"
		},
		{
			"inputs": [
				{
					"internalType": "contract IERC20",
					"name": "tokenA",
					"type": "address"
				},
				{
					"internalType": "contract IWETH",
					"name": "tokenB",
					"type": "address"
				},
				{
					"internalType": "uint256",
					"name": "amount0ToAdd",
					"type": "uint256"
				},
				{
					"internalType": "uint256",
					"name": "amount1ToAdd",
					"type": "uint256"
				}
			],
			"name": "transferAndApprove",
			"outputs": [],
			"stateMutability": "nonpayable",
			"type": "function"
		},
		{
			"inputs": [
				{
					"internalType": "address",
					"name": "tokenContractAddress",
					"type": "address"
				},
				{
					"internalType": "address",
					"name": "recipient",
					"type": "address"
				},
				{
					"internalType": "uint256",
					"name": "amount",
					"type": "uint256"
				}
			],
			"name": "transferERC20",
			"outputs": [],
			"stateMutability": "nonpayable",
			"type": "function"
		},
		{
			"inputs": [
				{
					"internalType": "address",
					"name": "wtoken",
					"type": "address"
				},
				{
					"internalType": "uint256",
					"name": "amount",
					"type": "uint256"
				}
			],
			"name": "unwrapWETH",
			"outputs": [],
			"stateMutability": "nonpayable",
			"type": "function"
		},
		{
			"inputs": [
				{
					"internalType": "address",
					"name": "wtoken",
					"type": "address"
				},
				{
					"internalType": "uint256",
					"name": "amount",
					"type": "uint256"
				}
			],
			"name": "wrapETH",
			"outputs": [],
			"stateMutability": "nonpayable",
			"type": "function"
		},
		{
			"stateMutability": "payable",
			"type": "receive"
		}
	]
}